{
	"temp.sol": {
		"Temp": {
			"abi": [
				{
					"inputs": [],
					"name": "baseFee",
					"outputs": [
						{
							"internalType": "uint256",
							"name": "",
							"type": "uint256"
						}
					],
					"stateMutability": "view",
					"type": "function"
				},
				{
					"inputs": [
						{
							"internalType": "string",
							"name": "_content",
							"type": "string"
						}
					],
					"name": "bytesAction",
					"outputs": [
						{
							"internalType": "uint256",
							"name": "",
							"type": "uint256"
						}
					],
					"stateMutability": "nonpayable",
					"type": "function"
				},
				{
					"inputs": [],
					"name": "content",
					"outputs": [
						{
							"internalType": "string",
							"name": "",
							"type": "string"
						}
					],
					"stateMutability": "view",
					"type": "function"
				}
			],
			"devdoc": {
				"kind": "dev",
				"methods": {},
				"version": 1
			},
			"evm": {
				"assembly": "    /* \"temp.sol\":61:316  contract Temp {... */\n  mstore(0x40, 0x80)\n  callvalue\n  dup1\n  iszero\n  tag_1\n  jumpi\n  revert(0x00, 0x00)\ntag_1:\n  pop\n  dataSize(sub_0)\n  dup1\n  dataOffset(sub_0)\n  0x00\n  codecopy\n  0x00\n  return\nstop\n\nsub_0: assembly {\n        /* \"temp.sol\":61:316  contract Temp {... */\n      mstore(0x40, 0x80)\n      callvalue\n      dup1\n      iszero\n      tag_1\n      jumpi\n      revert(0x00, 0x00)\n    tag_1:\n      pop\n      jumpi(tag_2, lt(calldatasize, 0x04))\n      shr(0xe0, calldataload(0x00))\n      dup1\n      0x6ef25c3a\n      eq\n      tag_3\n      jumpi\n      dup1\n      0x782f5b21\n      eq\n      tag_4\n      jumpi\n      dup1\n      0x8a4d5a67\n      eq\n      tag_5\n      jumpi\n    tag_2:\n      revert(0x00, 0x00)\n        /* \"temp.sol\":107:129  uint256 public baseFee */\n    tag_3:\n      tag_6\n      sload(0x01)\n      dup2\n      jump\n    tag_6:\n      mload(0x40)\n        /* \"#utility.yul\":160:185   */\n      swap1\n      dup2\n      mstore\n        /* \"#utility.yul\":148:150   */\n      0x20\n        /* \"#utility.yul\":133:151   */\n      add\n        /* \"temp.sol\":107:129  uint256 public baseFee */\n    tag_8:\n      mload(0x40)\n      dup1\n      swap2\n      sub\n      swap1\n      return\n        /* \"temp.sol\":138:311  function bytesAction(string memory _content) public  returns (uint256){... */\n    tag_4:\n      tag_6\n      tag_11\n      calldatasize\n      0x04\n      tag_12\n      jump\t// in\n    tag_11:\n      tag_13\n      jump\t// in\n        /* \"temp.sol\":82:103  string public content */\n    tag_5:\n      tag_15\n      tag_16\n      jump\t// in\n    tag_15:\n      mload(0x40)\n      tag_8\n      swap2\n      swap1\n      tag_18\n      jump\t// in\n        /* \"temp.sol\":138:311  function bytesAction(string memory _content) public  returns (uint256){... */\n    tag_13:\n        /* \"temp.sol\":200:207  uint256 */\n      0x00\n      dup1\n        /* \"temp.sol\":256:274  content = _content */\n      tag_20\n        /* \"temp.sol\":266:274  _content */\n      dup4\n        /* \"temp.sol\":200:207  uint256 */\n      dup3\n        /* \"temp.sol\":256:274  content = _content */\n      tag_21\n      jump\t// in\n    tag_20:\n      pop\n        /* \"temp.sol\":294:303  gasleft() */\n      gas\n        /* \"temp.sol\":287:303  return gasleft() */\n      swap3\n        /* \"temp.sol\":138:311  function bytesAction(string memory _content) public  returns (uint256){... */\n      swap2\n      pop\n      pop\n      jump\t// out\n        /* \"temp.sol\":82:103  string public content */\n    tag_16:\n      0x00\n      dup1\n      sload\n      tag_22\n      swap1\n      tag_23\n      jump\t// in\n    tag_22:\n      dup1\n      0x1f\n      add\n      0x20\n      dup1\n      swap2\n      div\n      mul\n      0x20\n      add\n      mload(0x40)\n      swap1\n      dup2\n      add\n      0x40\n      mstore\n      dup1\n      swap3\n      swap2\n      swap1\n      dup2\n      dup2\n      mstore\n      0x20\n      add\n      dup3\n      dup1\n      sload\n      tag_24\n      swap1\n      tag_23\n      jump\t// in\n    tag_24:\n      dup1\n      iszero\n      tag_25\n      jumpi\n      dup1\n      0x1f\n      lt\n      tag_26\n      jumpi\n      0x0100\n      dup1\n      dup4\n      sload\n      div\n      mul\n      dup4\n      mstore\n      swap2\n      0x20\n      add\n      swap2\n      jump(tag_25)\n    tag_26:\n      dup3\n      add\n      swap2\n      swap1\n      0x00\n      mstore\n      keccak256(0x00, 0x20)\n      swap1\n    tag_27:\n      dup2\n      sload\n      dup2\n      mstore\n      swap1\n      0x01\n      add\n      swap1\n      0x20\n      add\n      dup1\n      dup4\n      gt\n      tag_27\n      jumpi\n      dup3\n      swap1\n      sub\n      0x1f\n      and\n      dup3\n      add\n      swap2\n    tag_25:\n      pop\n      pop\n      pop\n      pop\n      pop\n      dup2\n      jump\t// out\n        /* \"#utility.yul\":196:323   */\n    tag_28:\n        /* \"#utility.yul\":257:267   */\n      0x4e487b71\n        /* \"#utility.yul\":252:255   */\n      0xe0\n        /* \"#utility.yul\":248:268   */\n      shl\n        /* \"#utility.yul\":245:246   */\n      0x00\n        /* \"#utility.yul\":238:269   */\n      mstore\n        /* \"#utility.yul\":288:292   */\n      0x41\n        /* \"#utility.yul\":285:286   */\n      0x04\n        /* \"#utility.yul\":278:293   */\n      mstore\n        /* \"#utility.yul\":312:316   */\n      0x24\n        /* \"#utility.yul\":309:310   */\n      0x00\n        /* \"#utility.yul\":302:317   */\n      revert\n        /* \"#utility.yul\":328:1273   */\n    tag_12:\n        /* \"#utility.yul\":397:403   */\n      0x00\n        /* \"#utility.yul\":450:452   */\n      0x20\n        /* \"#utility.yul\":438:447   */\n      dup3\n        /* \"#utility.yul\":429:436   */\n      dup5\n        /* \"#utility.yul\":425:448   */\n      sub\n        /* \"#utility.yul\":421:453   */\n      slt\n        /* \"#utility.yul\":418:470   */\n      iszero\n      tag_36\n      jumpi\n        /* \"#utility.yul\":466:467   */\n      0x00\n        /* \"#utility.yul\":463:464   */\n      0x00\n        /* \"#utility.yul\":456:468   */\n      revert\n        /* \"#utility.yul\":418:470   */\n    tag_36:\n        /* \"#utility.yul\":506:515   */\n      dup2\n        /* \"#utility.yul\":493:516   */\n      calldataload\n        /* \"#utility.yul\":539:557   */\n      0xffffffffffffffff\n        /* \"#utility.yul\":531:537   */\n      dup2\n        /* \"#utility.yul\":528:558   */\n      gt\n        /* \"#utility.yul\":525:575   */\n      iszero\n      tag_37\n      jumpi\n        /* \"#utility.yul\":571:572   */\n      0x00\n        /* \"#utility.yul\":568:569   */\n      0x00\n        /* \"#utility.yul\":561:573   */\n      revert\n        /* \"#utility.yul\":525:575   */\n    tag_37:\n        /* \"#utility.yul\":594:616   */\n      dup3\n      add\n        /* \"#utility.yul\":647:651   */\n      0x1f\n        /* \"#utility.yul\":639:652   */\n      dup2\n      add\n        /* \"#utility.yul\":635:662   */\n      dup5\n      sgt\n        /* \"#utility.yul\":625:680   */\n      tag_38\n      jumpi\n        /* \"#utility.yul\":676:677   */\n      0x00\n        /* \"#utility.yul\":673:674   */\n      0x00\n        /* \"#utility.yul\":666:678   */\n      revert\n        /* \"#utility.yul\":625:680   */\n    tag_38:\n        /* \"#utility.yul\":716:718   */\n      dup1\n        /* \"#utility.yul\":703:719   */\n      calldataload\n        /* \"#utility.yul\":742:760   */\n      0xffffffffffffffff\n        /* \"#utility.yul\":734:740   */\n      dup2\n        /* \"#utility.yul\":731:761   */\n      gt\n        /* \"#utility.yul\":728:784   */\n      iszero\n      tag_40\n      jumpi\n        /* \"#utility.yul\":764:782   */\n      tag_40\n      tag_28\n      jump\t// in\n    tag_40:\n        /* \"#utility.yul\":813:815   */\n      0x40\n        /* \"#utility.yul\":807:816   */\n      mload\n        /* \"#utility.yul\":905:907   */\n      0x1f\n        /* \"#utility.yul\":867:884   */\n      dup3\n      add\n      not(0x1f)\n        /* \"#utility.yul\":863:894   */\n      swap1\n      dup2\n      and\n        /* \"#utility.yul\":896:898   */\n      0x3f\n        /* \"#utility.yul\":859:899   */\n      add\n        /* \"#utility.yul\":855:909   */\n      and\n        /* \"#utility.yul\":843:910   */\n      dup2\n      add\n        /* \"#utility.yul\":940:958   */\n      0xffffffffffffffff\n        /* \"#utility.yul\":925:959   */\n      dup2\n      gt\n        /* \"#utility.yul\":961:983   */\n      dup3\n      dup3\n      lt\n        /* \"#utility.yul\":922:984   */\n      or\n        /* \"#utility.yul\":919:1007   */\n      iszero\n      tag_42\n      jumpi\n        /* \"#utility.yul\":987:1005   */\n      tag_42\n      tag_28\n      jump\t// in\n    tag_42:\n        /* \"#utility.yul\":1023:1025   */\n      0x40\n        /* \"#utility.yul\":1016:1038   */\n      mstore\n        /* \"#utility.yul\":1047:1069   */\n      dup2\n      dup2\n      mstore\n        /* \"#utility.yul\":1088:1103   */\n      dup3\n      dup3\n      add\n        /* \"#utility.yul\":1105:1107   */\n      0x20\n        /* \"#utility.yul\":1084:1108   */\n      add\n        /* \"#utility.yul\":1081:1118   */\n      dup7\n      lt\n        /* \"#utility.yul\":1078:1135   */\n      iszero\n      tag_43\n      jumpi\n        /* \"#utility.yul\":1131:1132   */\n      0x00\n        /* \"#utility.yul\":1128:1129   */\n      0x00\n        /* \"#utility.yul\":1121:1133   */\n      revert\n        /* \"#utility.yul\":1078:1135   */\n    tag_43:\n        /* \"#utility.yul\":1187:1193   */\n      dup2\n        /* \"#utility.yul\":1182:1184   */\n      0x20\n        /* \"#utility.yul\":1178:1180   */\n      dup5\n        /* \"#utility.yul\":1174:1185   */\n      add\n        /* \"#utility.yul\":1169:1171   */\n      0x20\n        /* \"#utility.yul\":1161:1167   */\n      dup4\n        /* \"#utility.yul\":1157:1172   */\n      add\n        /* \"#utility.yul\":1144:1194   */\n      calldatacopy\n        /* \"#utility.yul\":1240:1241   */\n      0x00\n        /* \"#utility.yul\":1214:1233   */\n      swap2\n      dup2\n      add\n        /* \"#utility.yul\":1235:1237   */\n      0x20\n        /* \"#utility.yul\":1210:1238   */\n      add\n        /* \"#utility.yul\":1203:1242   */\n      swap2\n      swap1\n      swap2\n      mstore\n        /* \"#utility.yul\":1218:1224   */\n      swap5\n        /* \"#utility.yul\":328:1273   */\n      swap4\n      pop\n      pop\n      pop\n      pop\n      jump\t// out\n        /* \"#utility.yul\":1278:1696   */\n    tag_18:\n        /* \"#utility.yul\":1427:1429   */\n      0x20\n        /* \"#utility.yul\":1416:1425   */\n      dup2\n        /* \"#utility.yul\":1409:1430   */\n      mstore\n        /* \"#utility.yul\":1390:1394   */\n      0x00\n        /* \"#utility.yul\":1459:1465   */\n      dup3\n        /* \"#utility.yul\":1453:1466   */\n      mload\n        /* \"#utility.yul\":1502:1508   */\n      dup1\n        /* \"#utility.yul\":1497:1499   */\n      0x20\n        /* \"#utility.yul\":1486:1495   */\n      dup5\n        /* \"#utility.yul\":1482:1500   */\n      add\n        /* \"#utility.yul\":1475:1509   */\n      mstore\n        /* \"#utility.yul\":1561:1567   */\n      dup1\n        /* \"#utility.yul\":1556:1558   */\n      0x20\n        /* \"#utility.yul\":1548:1554   */\n      dup6\n        /* \"#utility.yul\":1544:1559   */\n      add\n        /* \"#utility.yul\":1539:1541   */\n      0x40\n        /* \"#utility.yul\":1528:1537   */\n      dup6\n        /* \"#utility.yul\":1524:1542   */\n      add\n        /* \"#utility.yul\":1518:1568   */\n      mcopy\n        /* \"#utility.yul\":1617:1618   */\n      0x00\n        /* \"#utility.yul\":1612:1614   */\n      0x40\n        /* \"#utility.yul\":1603:1609   */\n      dup3\n        /* \"#utility.yul\":1592:1601   */\n      dup6\n        /* \"#utility.yul\":1588:1610   */\n      add\n        /* \"#utility.yul\":1584:1615   */\n      add\n        /* \"#utility.yul\":1577:1619   */\n      mstore\n        /* \"#utility.yul\":1687:1689   */\n      0x40\n        /* \"#utility.yul\":1680:1682   */\n      0x1f\n        /* \"#utility.yul\":1676:1683   */\n      not\n        /* \"#utility.yul\":1671:1673   */\n      0x1f\n        /* \"#utility.yul\":1663:1669   */\n      dup4\n        /* \"#utility.yul\":1659:1674   */\n      add\n        /* \"#utility.yul\":1655:1684   */\n      and\n        /* \"#utility.yul\":1644:1653   */\n      dup5\n        /* \"#utility.yul\":1640:1685   */\n      add\n        /* \"#utility.yul\":1636:1690   */\n      add\n        /* \"#utility.yul\":1628:1690   */\n      swap2\n      pop\n      pop\n        /* \"#utility.yul\":1278:1696   */\n      swap3\n      swap2\n      pop\n      pop\n      jump\t// out\n        /* \"#utility.yul\":1701:2081   */\n    tag_23:\n        /* \"#utility.yul\":1780:1781   */\n      0x01\n        /* \"#utility.yul\":1776:1788   */\n      dup2\n      dup2\n      shr\n      swap1\n        /* \"#utility.yul\":1823:1835   */\n      dup3\n      and\n      dup1\n        /* \"#utility.yul\":1844:1905   */\n      tag_46\n      jumpi\n        /* \"#utility.yul\":1898:1902   */\n      0x7f\n        /* \"#utility.yul\":1890:1896   */\n      dup3\n        /* \"#utility.yul\":1886:1903   */\n      and\n        /* \"#utility.yul\":1876:1903   */\n      swap2\n      pop\n        /* \"#utility.yul\":1844:1905   */\n    tag_46:\n        /* \"#utility.yul\":1951:1953   */\n      0x20\n        /* \"#utility.yul\":1943:1949   */\n      dup3\n        /* \"#utility.yul\":1940:1954   */\n      lt\n        /* \"#utility.yul\":1920:1938   */\n      dup2\n        /* \"#utility.yul\":1917:1955   */\n      sub\n        /* \"#utility.yul\":1914:2075   */\n      tag_47\n      jumpi\n        /* \"#utility.yul\":1997:2007   */\n      0x4e487b71\n        /* \"#utility.yul\":1992:1995   */\n      0xe0\n        /* \"#utility.yul\":1988:2008   */\n      shl\n        /* \"#utility.yul\":1985:1986   */\n      0x00\n        /* \"#utility.yul\":1978:2009   */\n      mstore\n        /* \"#utility.yul\":2032:2036   */\n      0x22\n        /* \"#utility.yul\":2029:2030   */\n      0x04\n        /* \"#utility.yul\":2022:2037   */\n      mstore\n        /* \"#utility.yul\":2060:2064   */\n      0x24\n        /* \"#utility.yul\":2057:2058   */\n      0x00\n        /* \"#utility.yul\":2050:2065   */\n      revert\n        /* \"#utility.yul\":1914:2075   */\n    tag_47:\n      pop\n        /* \"#utility.yul\":1701:2081   */\n      swap2\n      swap1\n      pop\n      jump\t// out\n        /* \"#utility.yul\":2212:2730   */\n    tag_30:\n        /* \"#utility.yul\":2314:2316   */\n      0x1f\n        /* \"#utility.yul\":2309:2312   */\n      dup3\n        /* \"#utility.yul\":2306:2317   */\n      gt\n        /* \"#utility.yul\":2303:2724   */\n      iszero\n      tag_50\n      jumpi\n        /* \"#utility.yul\":2350:2355   */\n      dup1\n        /* \"#utility.yul\":2347:2348   */\n      0x00\n        /* \"#utility.yul\":2340:2356   */\n      mstore\n        /* \"#utility.yul\":2394:2398   */\n      0x20\n        /* \"#utility.yul\":2391:2392   */\n      0x00\n        /* \"#utility.yul\":2381:2399   */\n      keccak256\n        /* \"#utility.yul\":2464:2466   */\n      0x1f\n        /* \"#utility.yul\":2452:2462   */\n      dup5\n        /* \"#utility.yul\":2448:2467   */\n      add\n        /* \"#utility.yul\":2445:2446   */\n      0x05\n        /* \"#utility.yul\":2441:2468   */\n      shr\n        /* \"#utility.yul\":2435:2439   */\n      dup2\n        /* \"#utility.yul\":2431:2469   */\n      add\n        /* \"#utility.yul\":2500:2504   */\n      0x20\n        /* \"#utility.yul\":2488:2498   */\n      dup6\n        /* \"#utility.yul\":2485:2505   */\n      lt\n        /* \"#utility.yul\":2482:2529   */\n      iszero\n      tag_51\n      jumpi\n      pop\n        /* \"#utility.yul\":2523:2527   */\n      dup1\n        /* \"#utility.yul\":2482:2529   */\n    tag_51:\n        /* \"#utility.yul\":2578:2580   */\n      0x1f\n        /* \"#utility.yul\":2573:2576   */\n      dup5\n        /* \"#utility.yul\":2569:2581   */\n      add\n        /* \"#utility.yul\":2566:2567   */\n      0x05\n        /* \"#utility.yul\":2562:2582   */\n      shr\n        /* \"#utility.yul\":2556:2560   */\n      dup3\n        /* \"#utility.yul\":2552:2583   */\n      add\n        /* \"#utility.yul\":2542:2583   */\n      swap2\n      pop\n        /* \"#utility.yul\":2633:2714   */\n    tag_52:\n        /* \"#utility.yul\":2651:2653   */\n      dup2\n        /* \"#utility.yul\":2644:2649   */\n      dup2\n        /* \"#utility.yul\":2641:2654   */\n      lt\n        /* \"#utility.yul\":2633:2714   */\n      iszero\n      tag_54\n      jumpi\n        /* \"#utility.yul\":2710:2711   */\n      0x00\n        /* \"#utility.yul\":2696:2712   */\n      dup2\n      sstore\n        /* \"#utility.yul\":2677:2678   */\n      0x01\n        /* \"#utility.yul\":2666:2679   */\n      add\n        /* \"#utility.yul\":2633:2714   */\n      jump(tag_52)\n    tag_54:\n        /* \"#utility.yul\":2637:2640   */\n      pop\n      pop\n        /* \"#utility.yul\":2303:2724   */\n    tag_50:\n        /* \"#utility.yul\":2212:2730   */\n      pop\n      pop\n      pop\n      jump\t// out\n        /* \"#utility.yul\":2906:4205   */\n    tag_21:\n        /* \"#utility.yul\":3032:3035   */\n      dup2\n        /* \"#utility.yul\":3026:3036   */\n      mload\n        /* \"#utility.yul\":3059:3077   */\n      0xffffffffffffffff\n        /* \"#utility.yul\":3051:3057   */\n      dup2\n        /* \"#utility.yul\":3048:3078   */\n      gt\n        /* \"#utility.yul\":3045:3101   */\n      iszero\n      tag_58\n      jumpi\n        /* \"#utility.yul\":3081:3099   */\n      tag_58\n      tag_28\n      jump\t// in\n    tag_58:\n        /* \"#utility.yul\":3110:3207   */\n      tag_59\n        /* \"#utility.yul\":3200:3206   */\n      dup2\n        /* \"#utility.yul\":3160:3198   */\n      tag_60\n        /* \"#utility.yul\":3192:3196   */\n      dup5\n        /* \"#utility.yul\":3186:3197   */\n      sload\n        /* \"#utility.yul\":3160:3198   */\n      tag_23\n      jump\t// in\n    tag_60:\n        /* \"#utility.yul\":3154:3158   */\n      dup5\n        /* \"#utility.yul\":3110:3207   */\n      tag_30\n      jump\t// in\n    tag_59:\n        /* \"#utility.yul\":3256:3260   */\n      0x20\n        /* \"#utility.yul\":3287:3289   */\n      0x1f\n        /* \"#utility.yul\":3276:3290   */\n      dup3\n      gt\n        /* \"#utility.yul\":3304:3305   */\n      0x01\n        /* \"#utility.yul\":3299:3948   */\n      dup2\n      eq\n      tag_62\n      jumpi\n        /* \"#utility.yul\":3992:3993   */\n      0x00\n        /* \"#utility.yul\":4009:4015   */\n      dup4\n        /* \"#utility.yul\":4006:4095   */\n      iszero\n      tag_63\n      jumpi\n      pop\n        /* \"#utility.yul\":4061:4080   */\n      dup5\n      dup3\n      add\n        /* \"#utility.yul\":4055:4081   */\n      mload\n        /* \"#utility.yul\":4006:4095   */\n    tag_63:\n      not(0x00)\n        /* \"#utility.yul\":2863:2864   */\n      0x03\n        /* \"#utility.yul\":2859:2870   */\n      dup6\n      swap1\n      shl\n        /* \"#utility.yul\":2855:2879   */\n      shr\n        /* \"#utility.yul\":2851:2880   */\n      not\n        /* \"#utility.yul\":2841:2881   */\n      and\n        /* \"#utility.yul\":2887:2888   */\n      0x01\n        /* \"#utility.yul\":2883:2894   */\n      dup5\n      swap1\n      shl\n        /* \"#utility.yul\":2838:2895   */\n      or\n        /* \"#utility.yul\":4108:4189   */\n      dup5\n      sstore\n        /* \"#utility.yul\":3269:4199   */\n      jump(tag_54)\n        /* \"#utility.yul\":3299:3948   */\n    tag_62:\n        /* \"#utility.yul\":2159:2160   */\n      0x00\n        /* \"#utility.yul\":2152:2166   */\n      dup5\n      dup2\n      mstore\n        /* \"#utility.yul\":2196:2200   */\n      0x20\n        /* \"#utility.yul\":2183:2201   */\n      dup2\n      keccak256\n      not(0x1f)\n        /* \"#utility.yul\":3335:3355   */\n      dup6\n      and\n      swap2\n        /* \"#utility.yul\":3453:3675   */\n    tag_66:\n        /* \"#utility.yul\":3467:3474   */\n      dup3\n        /* \"#utility.yul\":3464:3465   */\n      dup2\n        /* \"#utility.yul\":3461:3475   */\n      lt\n        /* \"#utility.yul\":3453:3675   */\n      iszero\n      tag_68\n      jumpi\n        /* \"#utility.yul\":3549:3568   */\n      dup8\n      dup6\n      add\n        /* \"#utility.yul\":3543:3569   */\n      mload\n        /* \"#utility.yul\":3528:3570   */\n      dup3\n      sstore\n        /* \"#utility.yul\":3656:3660   */\n      0x20\n        /* \"#utility.yul\":3641:3661   */\n      swap5\n      dup6\n      add\n      swap5\n        /* \"#utility.yul\":3609:3610   */\n      0x01\n        /* \"#utility.yul\":3597:3611   */\n      swap1\n      swap3\n      add\n      swap2\n        /* \"#utility.yul\":3483:3495   */\n      add\n        /* \"#utility.yul\":3453:3675   */\n      jump(tag_66)\n    tag_68:\n        /* \"#utility.yul\":3457:3460   */\n      pop\n        /* \"#utility.yul\":3703:3709   */\n      dup5\n        /* \"#utility.yul\":3694:3701   */\n      dup3\n        /* \"#utility.yul\":3691:3710   */\n      lt\n        /* \"#utility.yul\":3688:3889   */\n      iszero\n      tag_69\n      jumpi\n        /* \"#utility.yul\":3764:3783   */\n      dup7\n      dup5\n      add\n        /* \"#utility.yul\":3758:3784   */\n      mload\n      not(0x00)\n        /* \"#utility.yul\":3847:3848   */\n      0x03\n        /* \"#utility.yul\":3843:3857   */\n      dup8\n      swap1\n      shl\n        /* \"#utility.yul\":3859:3862   */\n      0xf8\n        /* \"#utility.yul\":3839:3863   */\n      and\n        /* \"#utility.yul\":3835:3872   */\n      shr\n        /* \"#utility.yul\":3831:3873   */\n      not\n        /* \"#utility.yul\":3816:3874   */\n      and\n        /* \"#utility.yul\":3801:3875   */\n      dup2\n      sstore\n        /* \"#utility.yul\":3688:3889   */\n    tag_69:\n      pop\n      pop\n      pop\n      pop\n        /* \"#utility.yul\":3935:3936   */\n      0x01\n        /* \"#utility.yul\":3919:3933   */\n      swap1\n      dup2\n      shl\n        /* \"#utility.yul\":3915:3937   */\n      add\n        /* \"#utility.yul\":3902:3938   */\n      swap1\n      sstore\n      pop\n        /* \"#utility.yul\":2906:4205   */\n      jump\t// out\n\n    auxdata: 0xa264697066735822122054ce3539f55e45ee017b1d2fcf282317f78d35173c382ba68e7e3bde4e9a284964736f6c634300081c0033\n}\n",
				"bytecode": {
					"linkReferences": {},
					"object": "6080604052348015600e575f5ffd5b506103978061001c5f395ff3fe608060405234801561000f575f5ffd5b506004361061003f575f3560e01c80636ef25c3a14610043578063782f5b211461005f5780638a4d5a6714610072575b5f5ffd5b61004c60015481565b6040519081526020015b60405180910390f35b61004c61006d36600461013a565b610087565b61007a61009b565b60405161005691906101ed565b5f8061009383826102a6565b505a92915050565b5f80546100a790610222565b80601f01602080910402602001604051908101604052809291908181526020018280546100d390610222565b801561011e5780601f106100f55761010080835404028352916020019161011e565b820191905f5260205f20905b81548152906001019060200180831161010157829003601f168201915b505050505081565b634e487b7160e01b5f52604160045260245ffd5b5f6020828403121561014a575f5ffd5b813567ffffffffffffffff811115610160575f5ffd5b8201601f81018413610170575f5ffd5b803567ffffffffffffffff81111561018a5761018a610126565b604051601f8201601f19908116603f0116810167ffffffffffffffff811182821017156101b9576101b9610126565b6040528181528282016020018610156101d0575f5ffd5b816020840160208301375f91810160200191909152949350505050565b602081525f82518060208401528060208501604085015e5f604082850101526040601f19601f83011684010191505092915050565b600181811c9082168061023657607f821691505b60208210810361025457634e487b7160e01b5f52602260045260245ffd5b50919050565b601f8211156102a157805f5260205f20601f840160051c8101602085101561027f5750805b601f840160051c820191505b8181101561029e575f815560010161028b565b50505b505050565b815167ffffffffffffffff8111156102c0576102c0610126565b6102d4816102ce8454610222565b8461025a565b6020601f821160018114610306575f83156102ef5750848201515b5f19600385901b1c1916600184901b17845561029e565b5f84815260208120601f198516915b828110156103355787850151825560209485019460019092019101610315565b508482101561035257868401515f19600387901b60f8161c191681555b50505050600190811b0190555056fea264697066735822122054ce3539f55e45ee017b1d2fcf282317f78d35173c382ba68e7e3bde4e9a284964736f6c634300081c0033",
					"opcodes": "PUSH1 0x80 PUSH1 0x40 MSTORE CALLVALUE DUP1 ISZERO PUSH1 0xE JUMPI PUSH0 PUSH0 REVERT JUMPDEST POP PUSH2 0x397 DUP1 PUSH2 0x1C PUSH0 CODECOPY PUSH0 RETURN INVALID PUSH1 0x80 PUSH1 0x40 MSTORE CALLVALUE DUP1 ISZERO PUSH2 0xF JUMPI PUSH0 PUSH0 REVERT JUMPDEST POP PUSH1 0x4 CALLDATASIZE LT PUSH2 0x3F JUMPI PUSH0 CALLDATALOAD PUSH1 0xE0 SHR DUP1 PUSH4 0x6EF25C3A EQ PUSH2 0x43 JUMPI DUP1 PUSH4 0x782F5B21 EQ PUSH2 0x5F JUMPI DUP1 PUSH4 0x8A4D5A67 EQ PUSH2 0x72 JUMPI JUMPDEST PUSH0 PUSH0 REVERT JUMPDEST PUSH2 0x4C PUSH1 0x1 SLOAD DUP2 JUMP JUMPDEST PUSH1 0x40 MLOAD SWAP1 DUP2 MSTORE PUSH1 0x20 ADD JUMPDEST PUSH1 0x40 MLOAD DUP1 SWAP2 SUB SWAP1 RETURN JUMPDEST PUSH2 0x4C PUSH2 0x6D CALLDATASIZE PUSH1 0x4 PUSH2 0x13A JUMP JUMPDEST PUSH2 0x87 JUMP JUMPDEST PUSH2 0x7A PUSH2 0x9B JUMP JUMPDEST PUSH1 0x40 MLOAD PUSH2 0x56 SWAP2 SWAP1 PUSH2 0x1ED JUMP JUMPDEST PUSH0 DUP1 PUSH2 0x93 DUP4 DUP3 PUSH2 0x2A6 JUMP JUMPDEST POP GAS SWAP3 SWAP2 POP POP JUMP JUMPDEST PUSH0 DUP1 SLOAD PUSH2 0xA7 SWAP1 PUSH2 0x222 JUMP JUMPDEST DUP1 PUSH1 0x1F ADD PUSH1 0x20 DUP1 SWAP2 DIV MUL PUSH1 0x20 ADD PUSH1 0x40 MLOAD SWAP1 DUP2 ADD PUSH1 0x40 MSTORE DUP1 SWAP3 SWAP2 SWAP1 DUP2 DUP2 MSTORE PUSH1 0x20 ADD DUP3 DUP1 SLOAD PUSH2 0xD3 SWAP1 PUSH2 0x222 JUMP JUMPDEST DUP1 ISZERO PUSH2 0x11E JUMPI DUP1 PUSH1 0x1F LT PUSH2 0xF5 JUMPI PUSH2 0x100 DUP1 DUP4 SLOAD DIV MUL DUP4 MSTORE SWAP2 PUSH1 0x20 ADD SWAP2 PUSH2 0x11E JUMP JUMPDEST DUP3 ADD SWAP2 SWAP1 PUSH0 MSTORE PUSH1 0x20 PUSH0 KECCAK256 SWAP1 JUMPDEST DUP2 SLOAD DUP2 MSTORE SWAP1 PUSH1 0x1 ADD SWAP1 PUSH1 0x20 ADD DUP1 DUP4 GT PUSH2 0x101 JUMPI DUP3 SWAP1 SUB PUSH1 0x1F AND DUP3 ADD SWAP2 JUMPDEST POP POP POP POP POP DUP2 JUMP JUMPDEST PUSH4 0x4E487B71 PUSH1 0xE0 SHL PUSH0 MSTORE PUSH1 0x41 PUSH1 0x4 MSTORE PUSH1 0x24 PUSH0 REVERT JUMPDEST PUSH0 PUSH1 0x20 DUP3 DUP5 SUB SLT ISZERO PUSH2 0x14A JUMPI PUSH0 PUSH0 REVERT JUMPDEST DUP2 CALLDATALOAD PUSH8 0xFFFFFFFFFFFFFFFF DUP2 GT ISZERO PUSH2 0x160 JUMPI PUSH0 PUSH0 REVERT JUMPDEST DUP3 ADD PUSH1 0x1F DUP2 ADD DUP5 SGT PUSH2 0x170 JUMPI PUSH0 PUSH0 REVERT JUMPDEST DUP1 CALLDATALOAD PUSH8 0xFFFFFFFFFFFFFFFF DUP2 GT ISZERO PUSH2 0x18A JUMPI PUSH2 0x18A PUSH2 0x126 JUMP JUMPDEST PUSH1 0x40 MLOAD PUSH1 0x1F DUP3 ADD PUSH1 0x1F NOT SWAP1 DUP2 AND PUSH1 0x3F ADD AND DUP2 ADD PUSH8 0xFFFFFFFFFFFFFFFF DUP2 GT DUP3 DUP3 LT OR ISZERO PUSH2 0x1B9 JUMPI PUSH2 0x1B9 PUSH2 0x126 JUMP JUMPDEST PUSH1 0x40 MSTORE DUP2 DUP2 MSTORE DUP3 DUP3 ADD PUSH1 0x20 ADD DUP7 LT ISZERO PUSH2 0x1D0 JUMPI PUSH0 PUSH0 REVERT JUMPDEST DUP2 PUSH1 0x20 DUP5 ADD PUSH1 0x20 DUP4 ADD CALLDATACOPY PUSH0 SWAP2 DUP2 ADD PUSH1 0x20 ADD SWAP2 SWAP1 SWAP2 MSTORE SWAP5 SWAP4 POP POP POP POP JUMP JUMPDEST PUSH1 0x20 DUP2 MSTORE PUSH0 DUP3 MLOAD DUP1 PUSH1 0x20 DUP5 ADD MSTORE DUP1 PUSH1 0x20 DUP6 ADD PUSH1 0x40 DUP6 ADD MCOPY PUSH0 PUSH1 0x40 DUP3 DUP6 ADD ADD MSTORE PUSH1 0x40 PUSH1 0x1F NOT PUSH1 0x1F DUP4 ADD AND DUP5 ADD ADD SWAP2 POP POP SWAP3 SWAP2 POP POP JUMP JUMPDEST PUSH1 0x1 DUP2 DUP2 SHR SWAP1 DUP3 AND DUP1 PUSH2 0x236 JUMPI PUSH1 0x7F DUP3 AND SWAP2 POP JUMPDEST PUSH1 0x20 DUP3 LT DUP2 SUB PUSH2 0x254 JUMPI PUSH4 0x4E487B71 PUSH1 0xE0 SHL PUSH0 MSTORE PUSH1 0x22 PUSH1 0x4 MSTORE PUSH1 0x24 PUSH0 REVERT JUMPDEST POP SWAP2 SWAP1 POP JUMP JUMPDEST PUSH1 0x1F DUP3 GT ISZERO PUSH2 0x2A1 JUMPI DUP1 PUSH0 MSTORE PUSH1 0x20 PUSH0 KECCAK256 PUSH1 0x1F DUP5 ADD PUSH1 0x5 SHR DUP2 ADD PUSH1 0x20 DUP6 LT ISZERO PUSH2 0x27F JUMPI POP DUP1 JUMPDEST PUSH1 0x1F DUP5 ADD PUSH1 0x5 SHR DUP3 ADD SWAP2 POP JUMPDEST DUP2 DUP2 LT ISZERO PUSH2 0x29E JUMPI PUSH0 DUP2 SSTORE PUSH1 0x1 ADD PUSH2 0x28B JUMP JUMPDEST POP POP JUMPDEST POP POP POP JUMP JUMPDEST DUP2 MLOAD PUSH8 0xFFFFFFFFFFFFFFFF DUP2 GT ISZERO PUSH2 0x2C0 JUMPI PUSH2 0x2C0 PUSH2 0x126 JUMP JUMPDEST PUSH2 0x2D4 DUP2 PUSH2 0x2CE DUP5 SLOAD PUSH2 0x222 JUMP JUMPDEST DUP5 PUSH2 0x25A JUMP JUMPDEST PUSH1 0x20 PUSH1 0x1F DUP3 GT PUSH1 0x1 DUP2 EQ PUSH2 0x306 JUMPI PUSH0 DUP4 ISZERO PUSH2 0x2EF JUMPI POP DUP5 DUP3 ADD MLOAD JUMPDEST PUSH0 NOT PUSH1 0x3 DUP6 SWAP1 SHL SHR NOT AND PUSH1 0x1 DUP5 SWAP1 SHL OR DUP5 SSTORE PUSH2 0x29E JUMP JUMPDEST PUSH0 DUP5 DUP2 MSTORE PUSH1 0x20 DUP2 KECCAK256 PUSH1 0x1F NOT DUP6 AND SWAP2 JUMPDEST DUP3 DUP2 LT ISZERO PUSH2 0x335 JUMPI DUP8 DUP6 ADD MLOAD DUP3 SSTORE PUSH1 0x20 SWAP5 DUP6 ADD SWAP5 PUSH1 0x1 SWAP1 SWAP3 ADD SWAP2 ADD PUSH2 0x315 JUMP JUMPDEST POP DUP5 DUP3 LT ISZERO PUSH2 0x352 JUMPI DUP7 DUP5 ADD MLOAD PUSH0 NOT PUSH1 0x3 DUP8 SWAP1 SHL PUSH1 0xF8 AND SHR NOT AND DUP2 SSTORE JUMPDEST POP POP POP POP PUSH1 0x1 SWAP1 DUP2 SHL ADD SWAP1 SSTORE POP JUMP INVALID LOG2 PUSH5 0x6970667358 0x22 SLT KECCAK256 SLOAD 0xCE CALLDATALOAD CODECOPY CREATE2 MCOPY GASLIMIT 0xEE ADD PUSH28 0x1D2FCF282317F78D35173C382BA68E7E3BDE4E9A284964736F6C6343 STOP ADDMOD SHR STOP CALLER "
				},
				"gasEstimates": {
					"creation": {
						"codeDepositCost": "183800",
						"executionCost": "224",
						"totalCost": "184024"
					},
					"external": {
						"baseFee()": "2261",
						"bytesAction(string)": "infinite",
						"content()": "infinite"
					}
				},
				"methodIdentifiers": {
					"baseFee()": "6ef25c3a",
					"bytesAction(string)": "782f5b21",
					"content()": "8a4d5a67"
				}
			},
			"storageLayout": {
				"storage": [
					{
						"astId": 3,
						"contract": "temp.sol:Temp",
						"label": "content",
						"offset": 0,
						"slot": "0",
						"type": "t_string_storage"
					},
					{
						"astId": 5,
						"contract": "temp.sol:Temp",
						"label": "baseFee",
						"offset": 0,
						"slot": "1",
						"type": "t_uint256"
					}
				],
				"types": {
					"t_string_storage": {
						"encoding": "bytes",
						"label": "string",
						"numberOfBytes": "32"
					},
					"t_uint256": {
						"encoding": "inplace",
						"label": "uint256",
						"numberOfBytes": "32"
					}
				}
			},
			"userdoc": {
				"kind": "user",
				"methods": {},
				"version": 1
			}
		}
	}
}