{
	"data": {
		"bytecode": {
			"linkReferences": {},
			"object": "60806040525f600355348015610013575f5ffd5b50338061003957604051631e4fbdf760e01b81525f600482015260240160405180910390fd5b610042816106fa565b505f805460ff60a01b19168155604080516002808252606082018352909160208301908036833701905050905033815f815181106100825761008261087a565b60200260200101906001600160a01b031690816001600160a01b03168152505073ab8483f64d9c6d1ecf9b849ae677dd3315835cb2816001815181106100ca576100ca61087a565b6001600160a01b039290921660209283029190910190910152604080516003808252608082019092525f91816020015b60608152602001906001900390816100fa579050509050604051806040016040528060088152602001674f7074696f6e203160c01b815250815f815181106101445761014461087a565b60200260200101819052506040518060400160405280600881526020016727b83a34b7b7101960c11b815250816001815181106101835761018361087a565b6020026020010181905250604051806040016040528060088152602001674f7074696f6e203360c01b815250816002815181106101c2576101c261087a565b60209081029190910101526101db600180546001019055565b604051806101c0016040528060405180602001604052805f815250815260200160405180610260016040528061023e8152602001613c8e61023e913981526020810183905260400161022e42600a61088e565b8152602001610240426201518061088e565b8152602080820185905233604080840191909152600160608401819052608084018190525f60a08501819052670de0b6b3a764000060c086015260e085018190524261010086015261012090940184905254835260049091529020815181906102a99082610937565b50602082015160018201906102be9082610937565b50604082015180516102da916002840191602090910190610749565b50606082015160038201556080820151600482015560a0820151805161030a91600584019160209091019061079d565b5060c08201516006820180546001600160a01b0319166001600160a01b0392831617905560e08301516007830155610100808401516008840180546101208701516001600160a81b0319909116921515610100600160a81b03191692909217919093169091021790556101408201516009820155610160820151600a8201805460ff1916911515919091179055610180820151600b8201556101a090910151600c909101556103b63390565b6001600160a01b03166103c860015490565b7f68d72977fb47b474e850de31fa3e3fdceff2fc7ae0de285763b8f70ef283d56b6103f442600a61088e565b610401426201518061088e565b6040805160808082525f9082015260a06020820181905261023e908201527f4c6f72656d20497073756d2069732073696d706c792064756d6d79207465787460c08201527f206f6620746865207072696e74696e6720616e64207479706573657474696e6760e08201527f20696e6475737472792e204c6f72656d20497073756d20686173206265656e206101008201527f74686520696e6475737472792773207374616e646172642064756d6d792074656101208201527f787420657665722073696e6365207468652031353030732c207768656e20616e6101408201527f20756e6b6e6f776e207072696e74657220746f6f6b20612067616c6c6579206f6101608201527f66207479706520616e6420736372616d626c656420697420746f206d616b65206101808201527f6120747970652073706563696d656e20626f6f6b2e20497420686173207375726101a08201527f7669766564206e6f74206f6e6c7920666976652063656e7475726965732c20626101c08201527f757420616c736f20746865206c65617020696e746f20656c656374726f6e69636101e08201527f207479706573657474696e672c2072656d61696e696e6720657373656e7469616102008201527f6c6c7920756e6368616e6765642e2049742077617320706f70756c61726973656102208201527f6420696e207468652031393630732077697468207468652072656c65617365206102408201527f6f66204c657472617365742073686565747320636f6e7461696e696e67204c6f6102608201527f72656d20497073756d2070617373616765732c20616e64206d6f7265207265636102808201527f656e746c792077697468206465736b746f70207075626c697368696e6720736f6102a08201527f667477617265206c696b6520416c64757320506167654d616b657220696e636c6102c08201527f7564696e672076657273696f6e73206f66204c6f72656d20497073756d2e00006102e08201529081019290925260608201526103000160405180910390a350506109f1565b5f80546001600160a01b038381166001600160a01b0319831681178455604051919092169283917f8be0079c531659141344cd1fd0a4f28419497f9722a3daafe3b4186f6b6457e09190a35050565b828054828255905f5260205f2090810192821561078d579160200282015b8281111561078d578251829061077d9082610937565b5091602001919060010190610767565b506107999291506107fc565b5090565b828054828255905f5260205f209081019282156107f0579160200282015b828111156107f057825182546001600160a01b0319166001600160a01b039091161782556020909201916001909101906107bb565b50610799929150610818565b80821115610799575f61080f828261082c565b506001016107fc565b5b80821115610799575f8155600101610819565b508054610838906108b3565b5f825580601f10610847575050565b601f0160209004905f5260205f20908101906108639190610818565b50565b634e487b7160e01b5f52604160045260245ffd5b634e487b7160e01b5f52603260045260245ffd5b808201808211156108ad57634e487b7160e01b5f52601160045260245ffd5b92915050565b600181811c908216806108c757607f821691505b6020821081036108e557634e487b7160e01b5f52602260045260245ffd5b50919050565b601f82111561093257805f5260205f20601f840160051c810160208510156109105750805b601f840160051c820191505b8181101561092f575f815560010161091c565b50505b505050565b81516001600160401b0381111561095057610950610866565b6109648161095e84546108b3565b846108eb565b6020601f821160018114610996575f831561097f5750848201515b5f19600385901b1c1916600184901b17845561092f565b5f84815260208120601f198516915b828110156109c557878501518255602094850194600190920191016109a5565b50848210156109e257868401515f19600387901b60f8161c191681555b50505050600190811b01905550565b613290806109fe5f395ff3fe6080604052600436106101f1575f3560e01c806376c5e3ee11610108578063c3105a6b1161009d578063e0ea29fc1161006d578063e0ea29fc14610599578063f2fde38b146105c5578063f48272d2146105e4578063fdd5ad231461061b578063fe7e8e5b14610631575f5ffd5b8063c3105a6b14610526578063d97d9fd214610552578063ddca3f4314610565578063e0caa7291461057a575f5ffd5b80638da5cb5b116100d85780638da5cb5b146104b05780639012c4a8146104d6578063b8de4343146104f5578063bbe4fd5014610514575f5ffd5b806376c5e3ee1461044b57806379c4be941461046a5780637a897de9146104895780638456cb591461049c575f5ffd5b8063397c46861161018957806356a6d9ef1161015957806356a6d9ef146103bd5780635c975abb146103dc5780635de3b598146103f95780636db2feb214610418578063715018a614610437575f5ffd5b8063397c46861461034a5780633ccfd60b146103695780633dea5bc31461037d5780633f4ba83a146103a9575f5ffd5b80632c30a81c116101c45780632c30a81c1461028b5780632cbbd738146102c75780633049b04b146102f357806335da0a1514610329575f5ffd5b806312065fe0146101f55780631982f1d3146102165780631cc6fdad1461024657806322a012401461025c575b5f5ffd5b348015610200575f5ffd5b50475b6040519081526020015b60405180910390f35b348015610221575f5ffd5b50610235610230366004612528565b61065e565b60405161020d95949392919061256d565b348015610251575f5ffd5b506002546102039081565b348015610267575f5ffd5b5061027b610276366004612663565b610720565b604051901515815260200161020d565b348015610296575f5ffd5b506102aa6102a5366004612528565b610758565b60408051931515845260208401929092529082015260600161020d565b3480156102d2575f5ffd5b506102e66102e1366004612528565b610799565b60405161020d919061274b565b3480156102fe575f5ffd5b5061020361030d366004612893565b600760209081525f928352604080842090915290825290205481565b348015610334575f5ffd5b506103486103433660046129e3565b610b07565b005b348015610355575f5ffd5b50610203610364366004612ae6565b610cae565b348015610374575f5ffd5b50610348610cd9565b348015610388575f5ffd5b5061039c610397366004612b10565b610d65565b60405161020d9190612b2b565b3480156103b4575f5ffd5b50610348610dce565b3480156103c8575f5ffd5b506103486103d7366004612ae6565b610de0565b3480156103e7575f5ffd5b505f54600160a01b900460ff1661027b565b348015610404575f5ffd5b5061027b610413366004612b6d565b610e5c565b348015610423575f5ffd5b5061027b610432366004612528565b610e90565b348015610442575f5ffd5b50610348610eb5565b348015610456575f5ffd5b5061027b610465366004612893565b610ec6565b348015610475575f5ffd5b50610203610484366004612b10565b610f6f565b610348610497366004612b8d565b610fd7565b3480156104a7575f5ffd5b50610348611513565b3480156104bb575f5ffd5b505f546040516001600160a01b03909116815260200161020d565b3480156104e1575f5ffd5b506103486104f0366004612528565b611523565b348015610500575f5ffd5b5061034861050f366004612c20565b611530565b34801561051f575f5ffd5b5042610203565b348015610531575f5ffd5b50610545610540366004612b6d565b6115a0565b60405161020d9190612c64565b610203610560366004612c76565b61164b565b348015610570575f5ffd5b5061020360035481565b348015610585575f5ffd5b50610545610594366004612b6d565b611989565b3480156105a4575f5ffd5b506105b86105b3366004612528565b611a2b565b60405161020d9190612d83565b3480156105d0575f5ffd5b506103486105df366004612b10565b611c9f565b3480156105ef575f5ffd5b506106036105fe366004612528565b611cdc565b60405161020d9c9b9a99989796959493929190612e31565b348015610626575f5ffd5b506001546102039081565b34801561063c575f5ffd5b5061065061064b366004612b10565b611e59565b60405161020d929190612ec1565b60056020525f90815260409020805460018201805491929161067f90613003565b80601f01602080910402602001604051908101604052809291908181526020018280546106ab90613003565b80156106f65780601f106106cd576101008083540402835291602001916106f6565b820191905f5260205f20905b8154815290600101906020018083116106d957829003601f168201915b505050506002830154600390930154919260ff8116926101009091046001600160a01b0316915085565b5f6107296122aa565b5f848152600660209081526040808320868452909152902061074b8382613086565b50600190505b9392505050565b5f81815260046020819052604082206003810154910154829182914281111561078957600194509092509050610792565b5f945090925090505b9193909250565b610817604051806101c001604052806060815260200160608152602001606081526020015f81526020015f8152602001606081526020015f6001600160a01b031681526020015f81526020015f151581526020015f6001600160a01b031681526020015f81526020015f151581526020015f81526020015f81525090565b5f828152600460205260409081902081516101c0810190925280548290829061083f90613003565b80601f016020809104026020016040519081016040528092919081815260200182805461086b90613003565b80156108b65780601f1061088d576101008083540402835291602001916108b6565b820191905f5260205f20905b81548152906001019060200180831161089957829003601f168201915b505050505081526020016001820180546108cf90613003565b80601f01602080910402602001604051908101604052809291908181526020018280546108fb90613003565b80156109465780601f1061091d57610100808354040283529160200191610946565b820191905f5260205f20905b81548152906001019060200180831161092957829003601f168201915b5050505050815260200160028201805480602002602001604051908101604052809291908181526020015f905b82821015610a1b578382905f5260205f2001805461099090613003565b80601f01602080910402602001604051908101604052809291908181526020018280546109bc90613003565b8015610a075780601f106109de57610100808354040283529160200191610a07565b820191905f5260205f20905b8154815290600101906020018083116109ea57829003601f168201915b505050505081526020019060010190610973565b505050508152602001600382015481526020016004820154815260200160058201805480602002602001604051908101604052809291908181526020018280548015610a8e57602002820191905f5260205f20905b81546001600160a01b03168152600190910190602001808311610a70575b505050918352505060068201546001600160a01b03908116602083015260078301546040830152600883015460ff80821615156060850152610100918290049092166080840152600984015460a0840152600a840154909116151560c0830152600b83015460e0830152600c9092015491015292915050565b5f8a8152600460205260409020600601548a906001600160a01b03163314610b935760405162461bcd60e51b815260206004820152603460248201527f5468652073656e646572206973206e6f7420746865206d616e61676572206f66604482015273103a34329032b73a32b932b2103837b63624b21760611b60648201526084015b60405180910390fd5b5f8b8152600460205260409020610baa8b82613086565b505f8b8152600460205260409020600101610bc58a82613086565b505f8b81526004602090815260409091208951610bea926002909201918b019061240e565b505f8b81526004602090815260409091208851610c0f926005909201918a0190612462565b505f8b8152600460205260409020600781018790556008810180546001600160a81b031916871515610100600160a81b031916176101006001600160a01b0388160217905560098101849055600a01805460ff1916831515179055336001600160a01b03168b7fa3a8f6e6f61cd97a866c0816363d95dadc283c7d9697713ad96302d0cd2ea14d60405160405180910390a35050505050505050505050565b6008602052815f5260405f208181548110610cc7575f80fd5b905f5260205f20015f91509150505481565b610ce16122aa565b475f610cf45f546001600160a01b031690565b6001600160a01b0316826040515f6040518083038185875af1925050503d805f8114610d3b576040519150601f19603f3d011682016040523d82523d5f602084013e610d40565b606091505b5050905080610d615760405162461bcd60e51b8152600401610b8a90613140565b5050565b6001600160a01b0381165f90815260086020908152604091829020805483518184028101840190945280845260609392830182828015610dc257602002820191905f5260205f20905b815481526020019060010190808311610dae575b50505050509050919050565b610dd66122aa565b610dde6122d6565b565b610de86122aa565b5f826001600160a01b0316826040515f6040518083038185875af1925050503d805f8114610e31576040519150601f19603f3d011682016040523d82523d5f602084013e610e36565b606091505b5050905080610e575760405162461bcd60e51b8152600401610b8a90613140565b505050565b5f610e656122aa565b5f8381526006602090815260408083208584529091528120610e86916124c1565b5060015b92915050565b5f818152600460208190526040822001544210610eae576001610e8a565b5f92915050565b610ebd6122aa565b610dde5f61232a565b5f805b5f848152600460205260409020600501548111610f43575f84815260046020526040902060050180546001600160a01b038516919083908110610f0e57610f0e613160565b5f918252602090912001546001600160a01b031603610f31576001915050610e8a565b80610f3b81613188565b915050610ec9565b5060405163f2e7fc4760e01b8152600481018490526001600160a01b0383166024820152604401610b8a565b6040516370a0823160e01b81523060048201525f906001600160a01b038316906370a0823190602401602060405180830381865afa158015610fb3573d5f5f3e3d5ffd5b505050506040513d601f19601f82011682018060405250810190610e8a91906131a0565b5f8581526004602052604090206005015415610ff957610ff78533610ec6565b505b5f8581526004602052604090206003015442101561102c57604051630a8d68c960e21b8152426004820152602401610b8a565b5f8581526004602081905260409091200154421061108c5760405162461bcd60e51b815260206004820152601e60248201527f54686520656e746572656420706f6c6c204944206973206578706972656400006044820152606401610b8a565b5f858152600460205260409020600a015460ff16156110e35760405162461bcd60e51b8152602060048201526013602482015272151a1a5cc81c1bdb1b081a5cc81c185d5cd959606a1b6044820152606401610b8a565b5f8581526004602090815260408083206007908101549083528184203385529092529091205410611129576040516304f3b74b60e41b8152336004820152602401610b8a565b5f8581526004602052604090206008015460ff16156113a0575f8581526004602052604090206008015461010090046001600160a01b0316611237575f858152600460205260409020600901543410156111b3575f8581526004602081905260409182902060090154915163bc03bccd60e01b815290810191909152346024820152604401610b8a565b5f858152600460205260408082206006015490516001600160a01b039091169034908381818185875af1925050503d805f811461120b576040519150601f19603f3d011682016040523d82523d5f602084013e611210565b606091505b50509050806112315760405162461bcd60e51b8152600401610b8a90613140565b506113a0565b5f8581526004602052604081206008015461010090046001600160a01b03166365aeaa9530336040516001600160e01b031960e085901b1681526001600160a01b03928316600482015291166024820152604401602060405180830381865afa1580156112a6573d5f5f3e3d5ffd5b505050506040513d601f19601f820116820180604052508101906112ca91906131a0565b5f87815260046020526040902060090154909150811461131b575f8681526004602081905260409182902060090154915163a24f8be960e01b8152610b8a9291849101918252602082015260400190565b5f86815260046020819052604091829020600881015460068201546009909201549351633b06cddd60e11b81526001600160a01b0361010090920482169463760d9bba9461137194339416928a918a91016131b7565b5f604051808303815f87803b158015611388575f5ffd5b505af115801561139a573d5f5f3e3d5ffd5b50505050505b5f858152600460205260408120600c018054600192906113c19084906131fc565b90915550505f85815260076020908152604080832033845290915281208054600192906113ef9084906131fc565b90915550506002805460010190556040518060a001604052808681526020018581526020018460ff1681526020016114243390565b6001600160a01b031681526020014281525060055f61144260025490565b81526020808201929092526040015f20825181559082015160018201906114699082613086565b50604082015160028201805460608501516001600160a01b0316610100026001600160a81b031990911660ff909316929092179190911790556080909101516003909101556114b53390565b6001600160a01b0316857fcc8498191b5ce61c56efc7b9fd57855fd7cd7f3bcb39131fd0693c6dbf67dcec60045f8981526020019081526020015f20600c015460405161150491815260200190565b60405180910390a35050505050565b61151b6122aa565b610dde612379565b61152b6122aa565b600355565b6115386122aa565b604051633b06cddd60e11b81526001600160a01b0386169063760d9bba9061156c90309088908890889088906004016131b7565b5f604051808303815f87803b158015611583575f5ffd5b505af1158015611595573d5f5f3e3d5ffd5b505050505050505050565b5f82815260066020908152604080832084845290915290208054606091906115c790613003565b80601f01602080910402602001604051908101604052809291908181526020018280546115f390613003565b801561163e5780601f106116155761010080835404028352916020019161163e565b820191905f5260205f20905b81548152906001019060200180831161162157829003601f168201915b5050505050905092915050565b5f4289116116b05760405162461bcd60e51b815260206004820152602c60248201527f53746172742074696d65206d7573742062652067726561746572207468616e2060448201526b63757272656e742074696d6560a01b6064820152608401610b8a565b8888116117105760405162461bcd60e51b815260206004820152602860248201527f456e642074696d65206d7573742062652067726561746572207468616e2073746044820152676172742074696d6560c01b6064820152608401610b8a565b8415611757575f546001600160a01b03163314611757576003543410156117575760035460405163bc03bccd60e01b81526004810191909152346024820152604401610b8a565b611765600180546001019055565b604051806101c001604052808d81526020018c81526020018b81526020018a815260200189815260200188815260200161179c3390565b6001600160a01b031681526020018781526020018615158152602001856001600160a01b0316815260200184815260200183151581526020014281526020015f81525060045f6117eb60015490565b815260208101919091526040015f20815181906118089082613086565b506020820151600182019061181d9082613086565b506040820151805161183991600284019160209091019061240e565b50606082015160038201556080820151600482015560a08201518051611869916005840191602090910190612462565b5060c08201516006820180546001600160a01b0319166001600160a01b0392831617905560e0830151600783015561010080840151600880850180546101208801516001600160a81b0319909116931515610100600160a81b0319169390931792909416909202179091556101408301516009830155610160830151600a8301805460ff1916911515919091179055610180830151600b8301556101a090920151600c90910155335f818152602092835260408120600180548254808301845592845294909220019290925590545f1b7f68d72977fb47b474e850de31fa3e3fdceff2fc7ae0de285763b8f70ef283d56b8e8e8d8d60405161196e949392919061320f565b60405180910390a36001549c9b505050505050505050505050565b600660209081525f9283526040808420909152908252902080546119ac90613003565b80601f01602080910402602001604051908101604052809291908181526020018280546119d890613003565b8015611a235780601f106119fa57610100808354040283529160200191611a23565b820191905f5260205f20905b815481529060010190602001808311611a0657829003601f168201915b505050505081565b5f818152600460205260408120600c0154606091816001600160401b03811115611a5757611a576125ae565b604051908082528060200260200182016040528015611ac857816020015b611ab56040518060c001604052805f81526020015f8152602001606081526020015f60ff1681526020015f6001600160a01b031681526020015f81525090565b815260200190600190039081611a755790505b5090505f5b82811015611c97578460055f611ae48460016131fc565b815260208101919091526040015f205403611c8f576040518060c00160405280826001611b1191906131fc565b815260200160055f611b248560016131fc565b5f1b81526020019081526020015f205f0154815260200160055f846001611b4b91906131fc565b5f1b81526020019081526020015f206001018054611b6890613003565b80601f0160208091040260200160405190810160405280929190818152602001828054611b9490613003565b8015611bdf5780601f10611bb657610100808354040283529160200191611bdf565b820191905f5260205f20905b815481529060010190602001808311611bc257829003601f168201915b505050918352505060200160055f611bf88560016131fc565b81526020808201929092526040015f9081206002015460ff168352910190600590611c248560016131fc565b81526020808201929092526040015f9081206002015461010090046001600160a01b03168352910190600590611c5b8560016131fc565b5f1b81526020019081526020015f2060030154815250828281518110611c8357611c83613160565b60200260200101819052505b600101611acd565b509392505050565b611ca76122aa565b6001600160a01b038116611cd057604051631e4fbdf760e01b81525f6004820152602401610b8a565b611cd98161232a565b50565b60046020525f9081526040902080548190611cf690613003565b80601f0160208091040260200160405190810160405280929190818152602001828054611d2290613003565b8015611d6d5780601f10611d4457610100808354040283529160200191611d6d565b820191905f5260205f20905b815481529060010190602001808311611d5057829003601f168201915b505050505090806001018054611d8290613003565b80601f0160208091040260200160405190810160405280929190818152602001828054611dae90613003565b8015611df95780601f10611dd057610100808354040283529160200191611df9565b820191905f5260205f20905b815481529060010190602001808311611ddc57829003601f168201915b505050600384015460048501546006860154600787015460088801546009890154600a8a0154600b8b0154600c909b0154999a96999598506001600160a01b039485169750929560ff80841696610100909404909516949193909116918c565b60605f5f611e6660015490565b6001600160401b03811115611e7d57611e7d6125ae565b604051908082528060200260200182016040528015611f1b57816020015b611f08604051806101a001604052805f81526020016060815260200160608152602001606081526020015f81526020015f8152602001606081526020015f81526020015f81526020015f6001600160a01b031681526020015f151581526020015f81526020015f81525090565b815260200190600190039081611e9b5790505b5090505f60015b600154811161229f575f818152600460205260409020600601546001600160a01b0380881691160361228d57604080516101a0810182528281525f838152600460209081529290208054600195509192830191611f7e90613003565b80601f0160208091040260200160405190810160405280929190818152602001828054611faa90613003565b8015611ff55780601f10611fcc57610100808354040283529160200191611ff5565b820191905f5260205f20905b815481529060010190602001808311611fd857829003601f168201915b5050505050815260200160045f845f1b81526020019081526020015f20600101805461202090613003565b80601f016020809104026020016040519081016040528092919081815260200182805461204c90613003565b80156120975780601f1061206e57610100808354040283529160200191612097565b820191905f5260205f20905b81548152906001019060200180831161207a57829003601f168201915b50505091835250505f8381526004602090815260408083206002018054825181850281018501909352808352948301949193909284015b82821015612176578382905f5260205f200180546120eb90613003565b80601f016020809104026020016040519081016040528092919081815260200182805461211790613003565b80156121625780601f1061213957610100808354040283529160200191612162565b820191905f5260205f20905b81548152906001019060200180831161214557829003601f168201915b5050505050815260200190600101906120ce565b505050908252505f8381526004602081815260408084206003810154838701528084015482870152938790529181526005909201805482518185028101850190935280835260609094019391929091908301828280156121fd57602002820191905f5260205f20905b81546001600160a01b031681526001909101906020018083116121df575b50505091835250505f83815260046020818152604080842060078101548387015260098101549186019190915260068101546001600160a01b03166060860152600a81015460ff1615156080860152600b81015460a08601529286905252600c015460c09091015283612271600184613247565b8151811061228157612281613160565b60200260200101819052505b8061229781613188565b915050611f22565b509094909350915050565b5f546001600160a01b03163314610dde5760405163118cdaa760e01b8152336004820152602401610b8a565b6122de6123bb565b5f805460ff60a01b191690557f5db9ee0a495bf2e6ff9c91a7834c1ba4fdd244a5e8aa4e537bd38aeae4b073aa335b6040516001600160a01b03909116815260200160405180910390a1565b5f80546001600160a01b038381166001600160a01b0319831681178455604051919092169283917f8be0079c531659141344cd1fd0a4f28419497f9722a3daafe3b4186f6b6457e09190a35050565b6123816123e4565b5f805460ff60a01b1916600160a01b1790557f62e78cea01bee320cd4e420270b5ea74000d11b0c9f74754ebdbfc544b05a25861230d3390565b5f54600160a01b900460ff16610dde57604051638dfc202b60e01b815260040160405180910390fd5b5f54600160a01b900460ff1615610dde5760405163d93c066560e01b815260040160405180910390fd5b828054828255905f5260205f20908101928215612452579160200282015b8281111561245257825182906124429082613086565b509160200191906001019061242c565b5061245e9291506124f8565b5090565b828054828255905f5260205f209081019282156124b5579160200282015b828111156124b557825182546001600160a01b0319166001600160a01b03909116178255602090920191600190910190612480565b5061245e929150612514565b5080546124cd90613003565b5f825580601f106124dc575050565b601f0160209004905f5260205f2090810190611cd99190612514565b8082111561245e575f61250b82826124c1565b506001016124f8565b5b8082111561245e575f8155600101612515565b5f60208284031215612538575f5ffd5b5035919050565b5f81518084528060208401602086015e5f602082860101526020601f19601f83011685010191505092915050565b85815260a060208201525f61258560a083018761253f565b60ff959095166040830152506001600160a01b0392909216606083015260809091015292915050565b634e487b7160e01b5f52604160045260245ffd5b604051601f8201601f191681016001600160401b03811182821017156125ea576125ea6125ae565b604052919050565b5f82601f830112612601575f5ffd5b8135602083015f5f6001600160401b03841115612620576126206125ae565b50601f8301601f1916602001612635816125c2565b915050828152858383011115612649575f5ffd5b828260208301375f92810160200192909252509392505050565b5f5f5f60608486031215612675575f5ffd5b833592506020840135915060408401356001600160401b03811115612698575f5ffd5b6126a4868287016125f2565b9150509250925092565b5f82825180855260208501945060208160051b830101602085015f5b838110156126fc57601f198584030188526126e683835161253f565b60209889019890935091909101906001016126ca565b50909695505050505050565b5f8151808452602084019350602083015f5b828110156127415781516001600160a01b031686526020958601959091019060010161271a565b5093949350505050565b602081525f82516101c060208401526127686101e084018261253f565b90506020840151601f19848303016040850152612785828261253f565b9150506040840151601f198483030160608501526127a382826126ae565b91505060608401516080840152608084015160a084015260a0840151601f198483030160c08501526127d58282612708565b91505060c08401516127f260e08501826001600160a01b03169052565b5060e084015161010084015261010084015161281361012085018215159052565b506101208401516001600160a01b0381166101408501525061014084015161016084015261016084015161284c61018085018215159052565b506101808401516101a08401526101a08401516101c08401528091505092915050565b6001600160a01b0381168114611cd9575f5ffd5b803561288e8161286f565b919050565b5f5f604083850312156128a4575f5ffd5b8235915060208301356128b68161286f565b809150509250929050565b5f6001600160401b038211156128d9576128d96125ae565b5060051b60200190565b5f82601f8301126128f2575f5ffd5b8135612905612900826128c1565b6125c2565b8082825260208201915060208360051b860101925085831115612926575f5ffd5b602085015b838110156129665780356001600160401b03811115612948575f5ffd5b612957886020838a01016125f2565b8452506020928301920161292b565b5095945050505050565b5f82601f83011261297f575f5ffd5b813561298d612900826128c1565b8082825260208201915060208360051b8601019250858311156129ae575f5ffd5b602085015b838110156129665780356129c68161286f565b8352602092830192016129b3565b8035801515811461288e575f5ffd5b5f5f5f5f5f5f5f5f5f5f6101408b8d0312156129fd575f5ffd5b8a35995060208b01356001600160401b03811115612a19575f5ffd5b612a258d828e016125f2565b99505060408b01356001600160401b03811115612a40575f5ffd5b612a4c8d828e016125f2565b98505060608b01356001600160401b03811115612a67575f5ffd5b612a738d828e016128e3565b97505060808b01356001600160401b03811115612a8e575f5ffd5b612a9a8d828e01612970565b96505060a08b01359450612ab060c08c016129d4565b9350612abe60e08c01612883565b92506101008b01359150612ad56101208c016129d4565b90509295989b9194979a5092959850565b5f5f60408385031215612af7575f5ffd5b8235612b028161286f565b946020939093013593505050565b5f60208284031215612b20575f5ffd5b81356107518161286f565b602080825282518282018190525f918401906040840190835b81811015612b62578351835260209384019390920191600101612b44565b509095945050505050565b5f5f60408385031215612b7e575f5ffd5b50508035926020909101359150565b5f5f5f5f5f60a08688031215612ba1575f5ffd5b8535945060208601356001600160401b03811115612bbd575f5ffd5b612bc9888289016125f2565b945050604086013560ff81168114612bdf575f5ffd5b9250612bed606087016129d4565b915060808601356001600160401b03811115612c07575f5ffd5b612c13888289016125f2565b9150509295509295909350565b5f5f5f5f5f60a08688031215612c34575f5ffd5b8535612c3f8161286f565b94506020860135612c4f8161286f565b935060408601359250612bed606087016129d4565b602081525f610751602083018461253f565b5f5f5f5f5f5f5f5f5f5f5f6101608c8e031215612c91575f5ffd5b8b356001600160401b03811115612ca6575f5ffd5b612cb28e828f016125f2565b9b505060208c01356001600160401b03811115612ccd575f5ffd5b612cd98e828f016125f2565b9a505060408c01356001600160401b03811115612cf4575f5ffd5b612d008e828f016128e3565b99505060608c0135975060808c0135965060a08c01356001600160401b03811115612d29575f5ffd5b612d358e828f01612970565b96505060c08c01359450612d4b60e08d016129d4565b9350612d5a6101008d01612883565b92506101208c01359150612d716101408d016129d4565b90509295989b509295989b9093969950565b5f602082016020835280845180835260408501915060408160051b8601019250602086015f5b82811015612e2557603f1987860301845281518051865260208101516020870152604081015160c06040880152612de360c088018261253f565b60608381015160ff16908901526080808401516001600160a01b03169089015260a0928301519290970191909152506020938401939190910190600101612da9565b50929695505050505050565b61018081525f612e4561018083018f61253f565b8281036020840152612e57818f61253f565b604084018e9052606084018d90526001600160a01b038c8116608086015260a085018c90528a151560c0860152891660e085015261010084018890528615156101208501529150612ea59050565b61014082019390935261016001529a9950505050505050505050565b5f604082016040835280855180835260608501915060608160051b8601019250602087015f5b82811015612ff057605f1987860301845281518051865260208101516101a06020880152612f196101a088018261253f565b905060408201518782036040890152612f32828261253f565b91505060608201518782036060890152612f4c82826126ae565b9150506080820151608088015260a082015160a088015260c082015187820360c0890152612f7a8282612708565b91505060e082015160e0880152610100820151610100880152610120820151612faf6101208901826001600160a01b03169052565b50610140820151612fc561014089018215159052565b5061016082810151908801526101809182015191909601526020938401939190910190600101612ee7565b5050505083151560208401529050610751565b600181811c9082168061301757607f821691505b60208210810361303557634e487b7160e01b5f52602260045260245ffd5b50919050565b601f821115610e5757805f5260205f20601f840160051c810160208510156130605750805b601f840160051c820191505b8181101561307f575f815560010161306c565b5050505050565b81516001600160401b0381111561309f5761309f6125ae565b6130b3816130ad8454613003565b8461303b565b6020601f8211600181146130e5575f83156130ce5750848201515b5f19600385901b1c1916600184901b17845561307f565b5f84815260208120601f198516915b8281101561311457878501518255602094850194600190920191016130f4565b508482101561313157868401515f19600387901b60f8161c191681555b50505050600190811b01905550565b60208082526006908201526511985a5b195960d21b604082015260600190565b634e487b7160e01b5f52603260045260245ffd5b634e487b7160e01b5f52601160045260245ffd5b5f6001820161319957613199613174565b5060010190565b5f602082840312156131b0575f5ffd5b5051919050565b6001600160a01b0386811682528516602082015260408101849052821515606082015260a0608082018190525f906131f19083018461253f565b979650505050505050565b80820180821115610e8a57610e8a613174565b608081525f613221608083018761253f565b8281036020840152613233818761253f565b604084019590955250506060015292915050565b81810381811115610e8a57610e8a61317456fea26469706673582212201c7de4dc915015a10b9cde14be2f742aa125b6ba3ff13569bc3e93dfe71d062964736f6c634300081c00334c6f72656d20497073756d2069732073696d706c792064756d6d792074657874206f6620746865207072696e74696e6720616e64207479706573657474696e6720696e6475737472792e204c6f72656d20497073756d20686173206265656e2074686520696e6475737472792773207374616e646172642064756d6d79207465787420657665722073696e6365207468652031353030732c207768656e20616e20756e6b6e6f776e207072696e74657220746f6f6b20612067616c6c6579206f66207479706520616e6420736372616d626c656420697420746f206d616b65206120747970652073706563696d656e20626f6f6b2e20497420686173207375727669766564206e6f74206f6e6c7920666976652063656e7475726965732c2062757420616c736f20746865206c65617020696e746f20656c656374726f6e6963207479706573657474696e672c2072656d61696e696e6720657373656e7469616c6c7920756e6368616e6765642e2049742077617320706f70756c61726973656420696e207468652031393630732077697468207468652072656c65617365206f66204c657472617365742073686565747320636f6e7461696e696e67204c6f72656d20497073756d2070617373616765732c20616e64206d6f726520726563656e746c792077697468206465736b746f70207075626c697368696e6720736f667477617265206c696b6520416c64757320506167654d616b657220696e636c7564696e672076657273696f6e73206f66204c6f72656d20497073756d2e",
			"opcodes": "PUSH1 0x80 PUSH1 0x40 MSTORE PUSH0 PUSH1 0x3 SSTORE CALLVALUE DUP1 ISZERO PUSH2 0x13 JUMPI PUSH0 PUSH0 REVERT JUMPDEST POP CALLER DUP1 PUSH2 0x39 JUMPI PUSH1 0x40 MLOAD PUSH4 0x1E4FBDF7 PUSH1 0xE0 SHL DUP2 MSTORE PUSH0 PUSH1 0x4 DUP3 ADD MSTORE PUSH1 0x24 ADD PUSH1 0x40 MLOAD DUP1 SWAP2 SUB SWAP1 REVERT JUMPDEST PUSH2 0x42 DUP2 PUSH2 0x6FA JUMP JUMPDEST POP PUSH0 DUP1 SLOAD PUSH1 0xFF PUSH1 0xA0 SHL NOT AND DUP2 SSTORE PUSH1 0x40 DUP1 MLOAD PUSH1 0x2 DUP1 DUP3 MSTORE PUSH1 0x60 DUP3 ADD DUP4 MSTORE SWAP1 SWAP2 PUSH1 0x20 DUP4 ADD SWAP1 DUP1 CALLDATASIZE DUP4 CALLDATACOPY ADD SWAP1 POP POP SWAP1 POP CALLER DUP2 PUSH0 DUP2 MLOAD DUP2 LT PUSH2 0x82 JUMPI PUSH2 0x82 PUSH2 0x87A JUMP JUMPDEST PUSH1 0x20 MUL PUSH1 0x20 ADD ADD SWAP1 PUSH1 0x1 PUSH1 0x1 PUSH1 0xA0 SHL SUB AND SWAP1 DUP2 PUSH1 0x1 PUSH1 0x1 PUSH1 0xA0 SHL SUB AND DUP2 MSTORE POP POP PUSH20 0xAB8483F64D9C6D1ECF9B849AE677DD3315835CB2 DUP2 PUSH1 0x1 DUP2 MLOAD DUP2 LT PUSH2 0xCA JUMPI PUSH2 0xCA PUSH2 0x87A JUMP JUMPDEST PUSH1 0x1 PUSH1 0x1 PUSH1 0xA0 SHL SUB SWAP3 SWAP1 SWAP3 AND PUSH1 0x20 SWAP3 DUP4 MUL SWAP2 SWAP1 SWAP2 ADD SWAP1 SWAP2 ADD MSTORE PUSH1 0x40 DUP1 MLOAD PUSH1 0x3 DUP1 DUP3 MSTORE PUSH1 0x80 DUP3 ADD SWAP1 SWAP3 MSTORE PUSH0 SWAP2 DUP2 PUSH1 0x20 ADD JUMPDEST PUSH1 0x60 DUP2 MSTORE PUSH1 0x20 ADD SWAP1 PUSH1 0x1 SWAP1 SUB SWAP1 DUP2 PUSH2 0xFA JUMPI SWAP1 POP POP SWAP1 POP PUSH1 0x40 MLOAD DUP1 PUSH1 0x40 ADD PUSH1 0x40 MSTORE DUP1 PUSH1 0x8 DUP2 MSTORE PUSH1 0x20 ADD PUSH8 0x4F7074696F6E2031 PUSH1 0xC0 SHL DUP2 MSTORE POP DUP2 PUSH0 DUP2 MLOAD DUP2 LT PUSH2 0x144 JUMPI PUSH2 0x144 PUSH2 0x87A JUMP JUMPDEST PUSH1 0x20 MUL PUSH1 0x20 ADD ADD DUP2 SWAP1 MSTORE POP PUSH1 0x40 MLOAD DUP1 PUSH1 0x40 ADD PUSH1 0x40 MSTORE DUP1 PUSH1 0x8 DUP2 MSTORE PUSH1 0x20 ADD PUSH8 0x27B83A34B7B71019 PUSH1 0xC1 SHL DUP2 MSTORE POP DUP2 PUSH1 0x1 DUP2 MLOAD DUP2 LT PUSH2 0x183 JUMPI PUSH2 0x183 PUSH2 0x87A JUMP JUMPDEST PUSH1 0x20 MUL PUSH1 0x20 ADD ADD DUP2 SWAP1 MSTORE POP PUSH1 0x40 MLOAD DUP1 PUSH1 0x40 ADD PUSH1 0x40 MSTORE DUP1 PUSH1 0x8 DUP2 MSTORE PUSH1 0x20 ADD PUSH8 0x4F7074696F6E2033 PUSH1 0xC0 SHL DUP2 MSTORE POP DUP2 PUSH1 0x2 DUP2 MLOAD DUP2 LT PUSH2 0x1C2 JUMPI PUSH2 0x1C2 PUSH2 0x87A JUMP JUMPDEST PUSH1 0x20 SWAP1 DUP2 MUL SWAP2 SWAP1 SWAP2 ADD ADD MSTORE PUSH2 0x1DB PUSH1 0x1 DUP1 SLOAD PUSH1 0x1 ADD SWAP1 SSTORE JUMP JUMPDEST PUSH1 0x40 MLOAD DUP1 PUSH2 0x1C0 ADD PUSH1 0x40 MSTORE DUP1 PUSH1 0x40 MLOAD DUP1 PUSH1 0x20 ADD PUSH1 0x40 MSTORE DUP1 PUSH0 DUP2 MSTORE POP DUP2 MSTORE PUSH1 0x20 ADD PUSH1 0x40 MLOAD DUP1 PUSH2 0x260 ADD PUSH1 0x40 MSTORE DUP1 PUSH2 0x23E DUP2 MSTORE PUSH1 0x20 ADD PUSH2 0x3C8E PUSH2 0x23E SWAP2 CODECOPY DUP2 MSTORE PUSH1 0x20 DUP2 ADD DUP4 SWAP1 MSTORE PUSH1 0x40 ADD PUSH2 0x22E TIMESTAMP PUSH1 0xA PUSH2 0x88E JUMP JUMPDEST DUP2 MSTORE PUSH1 0x20 ADD PUSH2 0x240 TIMESTAMP PUSH3 0x15180 PUSH2 0x88E JUMP JUMPDEST DUP2 MSTORE PUSH1 0x20 DUP1 DUP3 ADD DUP6 SWAP1 MSTORE CALLER PUSH1 0x40 DUP1 DUP5 ADD SWAP2 SWAP1 SWAP2 MSTORE PUSH1 0x1 PUSH1 0x60 DUP5 ADD DUP2 SWAP1 MSTORE PUSH1 0x80 DUP5 ADD DUP2 SWAP1 MSTORE PUSH0 PUSH1 0xA0 DUP6 ADD DUP2 SWAP1 MSTORE PUSH8 0xDE0B6B3A7640000 PUSH1 0xC0 DUP7 ADD MSTORE PUSH1 0xE0 DUP6 ADD DUP2 SWAP1 MSTORE TIMESTAMP PUSH2 0x100 DUP7 ADD MSTORE PUSH2 0x120 SWAP1 SWAP5 ADD DUP5 SWAP1 MSTORE SLOAD DUP4 MSTORE PUSH1 0x4 SWAP1 SWAP2 MSTORE SWAP1 KECCAK256 DUP2 MLOAD DUP2 SWAP1 PUSH2 0x2A9 SWAP1 DUP3 PUSH2 0x937 JUMP JUMPDEST POP PUSH1 0x20 DUP3 ADD MLOAD PUSH1 0x1 DUP3 ADD SWAP1 PUSH2 0x2BE SWAP1 DUP3 PUSH2 0x937 JUMP JUMPDEST POP PUSH1 0x40 DUP3 ADD MLOAD DUP1 MLOAD PUSH2 0x2DA SWAP2 PUSH1 0x2 DUP5 ADD SWAP2 PUSH1 0x20 SWAP1 SWAP2 ADD SWAP1 PUSH2 0x749 JUMP JUMPDEST POP PUSH1 0x60 DUP3 ADD MLOAD PUSH1 0x3 DUP3 ADD SSTORE PUSH1 0x80 DUP3 ADD MLOAD PUSH1 0x4 DUP3 ADD SSTORE PUSH1 0xA0 DUP3 ADD MLOAD DUP1 MLOAD PUSH2 0x30A SWAP2 PUSH1 0x5 DUP5 ADD SWAP2 PUSH1 0x20 SWAP1 SWAP2 ADD SWAP1 PUSH2 0x79D JUMP JUMPDEST POP PUSH1 0xC0 DUP3 ADD MLOAD PUSH1 0x6 DUP3 ADD DUP1 SLOAD PUSH1 0x1 PUSH1 0x1 PUSH1 0xA0 SHL SUB NOT AND PUSH1 0x1 PUSH1 0x1 PUSH1 0xA0 SHL SUB SWAP3 DUP4 AND OR SWAP1 SSTORE PUSH1 0xE0 DUP4 ADD MLOAD PUSH1 0x7 DUP4 ADD SSTORE PUSH2 0x100 DUP1 DUP5 ADD MLOAD PUSH1 0x8 DUP5 ADD DUP1 SLOAD PUSH2 0x120 DUP8 ADD MLOAD PUSH1 0x1 PUSH1 0x1 PUSH1 0xA8 SHL SUB NOT SWAP1 SWAP2 AND SWAP3 ISZERO ISZERO PUSH2 0x100 PUSH1 0x1 PUSH1 0xA8 SHL SUB NOT AND SWAP3 SWAP1 SWAP3 OR SWAP2 SWAP1 SWAP4 AND SWAP1 SWAP2 MUL OR SWAP1 SSTORE PUSH2 0x140 DUP3 ADD MLOAD PUSH1 0x9 DUP3 ADD SSTORE PUSH2 0x160 DUP3 ADD MLOAD PUSH1 0xA DUP3 ADD DUP1 SLOAD PUSH1 0xFF NOT AND SWAP2 ISZERO ISZERO SWAP2 SWAP1 SWAP2 OR SWAP1 SSTORE PUSH2 0x180 DUP3 ADD MLOAD PUSH1 0xB DUP3 ADD SSTORE PUSH2 0x1A0 SWAP1 SWAP2 ADD MLOAD PUSH1 0xC SWAP1 SWAP2 ADD SSTORE PUSH2 0x3B6 CALLER SWAP1 JUMP JUMPDEST PUSH1 0x1 PUSH1 0x1 PUSH1 0xA0 SHL SUB AND PUSH2 0x3C8 PUSH1 0x1 SLOAD SWAP1 JUMP JUMPDEST PUSH32 0x68D72977FB47B474E850DE31FA3E3FDCEFF2FC7AE0DE285763B8F70EF283D56B PUSH2 0x3F4 TIMESTAMP PUSH1 0xA PUSH2 0x88E JUMP JUMPDEST PUSH2 0x401 TIMESTAMP PUSH3 0x15180 PUSH2 0x88E JUMP JUMPDEST PUSH1 0x40 DUP1 MLOAD PUSH1 0x80 DUP1 DUP3 MSTORE PUSH0 SWAP1 DUP3 ADD MSTORE PUSH1 0xA0 PUSH1 0x20 DUP3 ADD DUP2 SWAP1 MSTORE PUSH2 0x23E SWAP1 DUP3 ADD MSTORE PUSH32 0x4C6F72656D20497073756D2069732073696D706C792064756D6D792074657874 PUSH1 0xC0 DUP3 ADD MSTORE PUSH32 0x206F6620746865207072696E74696E6720616E64207479706573657474696E67 PUSH1 0xE0 DUP3 ADD MSTORE PUSH32 0x20696E6475737472792E204C6F72656D20497073756D20686173206265656E20 PUSH2 0x100 DUP3 ADD MSTORE PUSH32 0x74686520696E6475737472792773207374616E646172642064756D6D79207465 PUSH2 0x120 DUP3 ADD MSTORE PUSH32 0x787420657665722073696E6365207468652031353030732C207768656E20616E PUSH2 0x140 DUP3 ADD MSTORE PUSH32 0x20756E6B6E6F776E207072696E74657220746F6F6B20612067616C6C6579206F PUSH2 0x160 DUP3 ADD MSTORE PUSH32 0x66207479706520616E6420736372616D626C656420697420746F206D616B6520 PUSH2 0x180 DUP3 ADD MSTORE PUSH32 0x6120747970652073706563696D656E20626F6F6B2E2049742068617320737572 PUSH2 0x1A0 DUP3 ADD MSTORE PUSH32 0x7669766564206E6F74206F6E6C7920666976652063656E7475726965732C2062 PUSH2 0x1C0 DUP3 ADD MSTORE PUSH32 0x757420616C736F20746865206C65617020696E746F20656C656374726F6E6963 PUSH2 0x1E0 DUP3 ADD MSTORE PUSH32 0x207479706573657474696E672C2072656D61696E696E6720657373656E746961 PUSH2 0x200 DUP3 ADD MSTORE PUSH32 0x6C6C7920756E6368616E6765642E2049742077617320706F70756C6172697365 PUSH2 0x220 DUP3 ADD MSTORE PUSH32 0x6420696E207468652031393630732077697468207468652072656C6561736520 PUSH2 0x240 DUP3 ADD MSTORE PUSH32 0x6F66204C657472617365742073686565747320636F6E7461696E696E67204C6F PUSH2 0x260 DUP3 ADD MSTORE PUSH32 0x72656D20497073756D2070617373616765732C20616E64206D6F726520726563 PUSH2 0x280 DUP3 ADD MSTORE PUSH32 0x656E746C792077697468206465736B746F70207075626C697368696E6720736F PUSH2 0x2A0 DUP3 ADD MSTORE PUSH32 0x667477617265206C696B6520416C64757320506167654D616B657220696E636C PUSH2 0x2C0 DUP3 ADD MSTORE PUSH32 0x7564696E672076657273696F6E73206F66204C6F72656D20497073756D2E0000 PUSH2 0x2E0 DUP3 ADD MSTORE SWAP1 DUP2 ADD SWAP3 SWAP1 SWAP3 MSTORE PUSH1 0x60 DUP3 ADD MSTORE PUSH2 0x300 ADD PUSH1 0x40 MLOAD DUP1 SWAP2 SUB SWAP1 LOG3 POP POP PUSH2 0x9F1 JUMP JUMPDEST PUSH0 DUP1 SLOAD PUSH1 0x1 PUSH1 0x1 PUSH1 0xA0 SHL SUB DUP4 DUP2 AND PUSH1 0x1 PUSH1 0x1 PUSH1 0xA0 SHL SUB NOT DUP4 AND DUP2 OR DUP5 SSTORE PUSH1 0x40 MLOAD SWAP2 SWAP1 SWAP3 AND SWAP3 DUP4 SWAP2 PUSH32 0x8BE0079C531659141344CD1FD0A4F28419497F9722A3DAAFE3B4186F6B6457E0 SWAP2 SWAP1 LOG3 POP POP JUMP JUMPDEST DUP3 DUP1 SLOAD DUP3 DUP3 SSTORE SWAP1 PUSH0 MSTORE PUSH1 0x20 PUSH0 KECCAK256 SWAP1 DUP2 ADD SWAP3 DUP3 ISZERO PUSH2 0x78D JUMPI SWAP2 PUSH1 0x20 MUL DUP3 ADD JUMPDEST DUP3 DUP2 GT ISZERO PUSH2 0x78D JUMPI DUP3 MLOAD DUP3 SWAP1 PUSH2 0x77D SWAP1 DUP3 PUSH2 0x937 JUMP JUMPDEST POP SWAP2 PUSH1 0x20 ADD SWAP2 SWAP1 PUSH1 0x1 ADD SWAP1 PUSH2 0x767 JUMP JUMPDEST POP PUSH2 0x799 SWAP3 SWAP2 POP PUSH2 0x7FC JUMP JUMPDEST POP SWAP1 JUMP JUMPDEST DUP3 DUP1 SLOAD DUP3 DUP3 SSTORE SWAP1 PUSH0 MSTORE PUSH1 0x20 PUSH0 KECCAK256 SWAP1 DUP2 ADD SWAP3 DUP3 ISZERO PUSH2 0x7F0 JUMPI SWAP2 PUSH1 0x20 MUL DUP3 ADD JUMPDEST DUP3 DUP2 GT ISZERO PUSH2 0x7F0 JUMPI DUP3 MLOAD DUP3 SLOAD PUSH1 0x1 PUSH1 0x1 PUSH1 0xA0 SHL SUB NOT AND PUSH1 0x1 PUSH1 0x1 PUSH1 0xA0 SHL SUB SWAP1 SWAP2 AND OR DUP3 SSTORE PUSH1 0x20 SWAP1 SWAP3 ADD SWAP2 PUSH1 0x1 SWAP1 SWAP2 ADD SWAP1 PUSH2 0x7BB JUMP JUMPDEST POP PUSH2 0x799 SWAP3 SWAP2 POP PUSH2 0x818 JUMP JUMPDEST DUP1 DUP3 GT ISZERO PUSH2 0x799 JUMPI PUSH0 PUSH2 0x80F DUP3 DUP3 PUSH2 0x82C JUMP JUMPDEST POP PUSH1 0x1 ADD PUSH2 0x7FC JUMP JUMPDEST JUMPDEST DUP1 DUP3 GT ISZERO PUSH2 0x799 JUMPI PUSH0 DUP2 SSTORE PUSH1 0x1 ADD PUSH2 0x819 JUMP JUMPDEST POP DUP1 SLOAD PUSH2 0x838 SWAP1 PUSH2 0x8B3 JUMP JUMPDEST PUSH0 DUP3 SSTORE DUP1 PUSH1 0x1F LT PUSH2 0x847 JUMPI POP POP JUMP JUMPDEST PUSH1 0x1F ADD PUSH1 0x20 SWAP1 DIV SWAP1 PUSH0 MSTORE PUSH1 0x20 PUSH0 KECCAK256 SWAP1 DUP2 ADD SWAP1 PUSH2 0x863 SWAP2 SWAP1 PUSH2 0x818 JUMP JUMPDEST POP JUMP JUMPDEST PUSH4 0x4E487B71 PUSH1 0xE0 SHL PUSH0 MSTORE PUSH1 0x41 PUSH1 0x4 MSTORE PUSH1 0x24 PUSH0 REVERT JUMPDEST PUSH4 0x4E487B71 PUSH1 0xE0 SHL PUSH0 MSTORE PUSH1 0x32 PUSH1 0x4 MSTORE PUSH1 0x24 PUSH0 REVERT JUMPDEST DUP1 DUP3 ADD DUP1 DUP3 GT ISZERO PUSH2 0x8AD JUMPI PUSH4 0x4E487B71 PUSH1 0xE0 SHL PUSH0 MSTORE PUSH1 0x11 PUSH1 0x4 MSTORE PUSH1 0x24 PUSH0 REVERT JUMPDEST SWAP3 SWAP2 POP POP JUMP JUMPDEST PUSH1 0x1 DUP2 DUP2 SHR SWAP1 DUP3 AND DUP1 PUSH2 0x8C7 JUMPI PUSH1 0x7F DUP3 AND SWAP2 POP JUMPDEST PUSH1 0x20 DUP3 LT DUP2 SUB PUSH2 0x8E5 JUMPI PUSH4 0x4E487B71 PUSH1 0xE0 SHL PUSH0 MSTORE PUSH1 0x22 PUSH1 0x4 MSTORE PUSH1 0x24 PUSH0 REVERT JUMPDEST POP SWAP2 SWAP1 POP JUMP JUMPDEST PUSH1 0x1F DUP3 GT ISZERO PUSH2 0x932 JUMPI DUP1 PUSH0 MSTORE PUSH1 0x20 PUSH0 KECCAK256 PUSH1 0x1F DUP5 ADD PUSH1 0x5 SHR DUP2 ADD PUSH1 0x20 DUP6 LT ISZERO PUSH2 0x910 JUMPI POP DUP1 JUMPDEST PUSH1 0x1F DUP5 ADD PUSH1 0x5 SHR DUP3 ADD SWAP2 POP JUMPDEST DUP2 DUP2 LT ISZERO PUSH2 0x92F JUMPI PUSH0 DUP2 SSTORE PUSH1 0x1 ADD PUSH2 0x91C JUMP JUMPDEST POP POP JUMPDEST POP POP POP JUMP JUMPDEST DUP2 MLOAD PUSH1 0x1 PUSH1 0x1 PUSH1 0x40 SHL SUB DUP2 GT ISZERO PUSH2 0x950 JUMPI PUSH2 0x950 PUSH2 0x866 JUMP JUMPDEST PUSH2 0x964 DUP2 PUSH2 0x95E DUP5 SLOAD PUSH2 0x8B3 JUMP JUMPDEST DUP5 PUSH2 0x8EB JUMP JUMPDEST PUSH1 0x20 PUSH1 0x1F DUP3 GT PUSH1 0x1 DUP2 EQ PUSH2 0x996 JUMPI PUSH0 DUP4 ISZERO PUSH2 0x97F JUMPI POP DUP5 DUP3 ADD MLOAD JUMPDEST PUSH0 NOT PUSH1 0x3 DUP6 SWAP1 SHL SHR NOT AND PUSH1 0x1 DUP5 SWAP1 SHL OR DUP5 SSTORE PUSH2 0x92F JUMP JUMPDEST PUSH0 DUP5 DUP2 MSTORE PUSH1 0x20 DUP2 KECCAK256 PUSH1 0x1F NOT DUP6 AND SWAP2 JUMPDEST DUP3 DUP2 LT ISZERO PUSH2 0x9C5 JUMPI DUP8 DUP6 ADD MLOAD DUP3 SSTORE PUSH1 0x20 SWAP5 DUP6 ADD SWAP5 PUSH1 0x1 SWAP1 SWAP3 ADD SWAP2 ADD PUSH2 0x9A5 JUMP JUMPDEST POP DUP5 DUP3 LT ISZERO PUSH2 0x9E2 JUMPI DUP7 DUP5 ADD MLOAD PUSH0 NOT PUSH1 0x3 DUP8 SWAP1 SHL PUSH1 0xF8 AND SHR NOT AND DUP2 SSTORE JUMPDEST POP POP POP POP PUSH1 0x1 SWAP1 DUP2 SHL ADD SWAP1 SSTORE POP JUMP JUMPDEST PUSH2 0x3290 DUP1 PUSH2 0x9FE PUSH0 CODECOPY PUSH0 RETURN INVALID PUSH1 0x80 PUSH1 0x40 MSTORE PUSH1 0x4 CALLDATASIZE LT PUSH2 0x1F1 JUMPI PUSH0 CALLDATALOAD PUSH1 0xE0 SHR DUP1 PUSH4 0x76C5E3EE GT PUSH2 0x108 JUMPI DUP1 PUSH4 0xC3105A6B GT PUSH2 0x9D JUMPI DUP1 PUSH4 0xE0EA29FC GT PUSH2 0x6D JUMPI DUP1 PUSH4 0xE0EA29FC EQ PUSH2 0x599 JUMPI DUP1 PUSH4 0xF2FDE38B EQ PUSH2 0x5C5 JUMPI DUP1 PUSH4 0xF48272D2 EQ PUSH2 0x5E4 JUMPI DUP1 PUSH4 0xFDD5AD23 EQ PUSH2 0x61B JUMPI DUP1 PUSH4 0xFE7E8E5B EQ PUSH2 0x631 JUMPI PUSH0 PUSH0 REVERT JUMPDEST DUP1 PUSH4 0xC3105A6B EQ PUSH2 0x526 JUMPI DUP1 PUSH4 0xD97D9FD2 EQ PUSH2 0x552 JUMPI DUP1 PUSH4 0xDDCA3F43 EQ PUSH2 0x565 JUMPI DUP1 PUSH4 0xE0CAA729 EQ PUSH2 0x57A JUMPI PUSH0 PUSH0 REVERT JUMPDEST DUP1 PUSH4 0x8DA5CB5B GT PUSH2 0xD8 JUMPI DUP1 PUSH4 0x8DA5CB5B EQ PUSH2 0x4B0 JUMPI DUP1 PUSH4 0x9012C4A8 EQ PUSH2 0x4D6 JUMPI DUP1 PUSH4 0xB8DE4343 EQ PUSH2 0x4F5 JUMPI DUP1 PUSH4 0xBBE4FD50 EQ PUSH2 0x514 JUMPI PUSH0 PUSH0 REVERT JUMPDEST DUP1 PUSH4 0x76C5E3EE EQ PUSH2 0x44B JUMPI DUP1 PUSH4 0x79C4BE94 EQ PUSH2 0x46A JUMPI DUP1 PUSH4 0x7A897DE9 EQ PUSH2 0x489 JUMPI DUP1 PUSH4 0x8456CB59 EQ PUSH2 0x49C JUMPI PUSH0 PUSH0 REVERT JUMPDEST DUP1 PUSH4 0x397C4686 GT PUSH2 0x189 JUMPI DUP1 PUSH4 0x56A6D9EF GT PUSH2 0x159 JUMPI DUP1 PUSH4 0x56A6D9EF EQ PUSH2 0x3BD JUMPI DUP1 PUSH4 0x5C975ABB EQ PUSH2 0x3DC JUMPI DUP1 PUSH4 0x5DE3B598 EQ PUSH2 0x3F9 JUMPI DUP1 PUSH4 0x6DB2FEB2 EQ PUSH2 0x418 JUMPI DUP1 PUSH4 0x715018A6 EQ PUSH2 0x437 JUMPI PUSH0 PUSH0 REVERT JUMPDEST DUP1 PUSH4 0x397C4686 EQ PUSH2 0x34A JUMPI DUP1 PUSH4 0x3CCFD60B EQ PUSH2 0x369 JUMPI DUP1 PUSH4 0x3DEA5BC3 EQ PUSH2 0x37D JUMPI DUP1 PUSH4 0x3F4BA83A EQ PUSH2 0x3A9 JUMPI PUSH0 PUSH0 REVERT JUMPDEST DUP1 PUSH4 0x2C30A81C GT PUSH2 0x1C4 JUMPI DUP1 PUSH4 0x2C30A81C EQ PUSH2 0x28B JUMPI DUP1 PUSH4 0x2CBBD738 EQ PUSH2 0x2C7 JUMPI DUP1 PUSH4 0x3049B04B EQ PUSH2 0x2F3 JUMPI DUP1 PUSH4 0x35DA0A15 EQ PUSH2 0x329 JUMPI PUSH0 PUSH0 REVERT JUMPDEST DUP1 PUSH4 0x12065FE0 EQ PUSH2 0x1F5 JUMPI DUP1 PUSH4 0x1982F1D3 EQ PUSH2 0x216 JUMPI DUP1 PUSH4 0x1CC6FDAD EQ PUSH2 0x246 JUMPI DUP1 PUSH4 0x22A01240 EQ PUSH2 0x25C JUMPI JUMPDEST PUSH0 PUSH0 REVERT JUMPDEST CALLVALUE DUP1 ISZERO PUSH2 0x200 JUMPI PUSH0 PUSH0 REVERT JUMPDEST POP SELFBALANCE JUMPDEST PUSH1 0x40 MLOAD SWAP1 DUP2 MSTORE PUSH1 0x20 ADD JUMPDEST PUSH1 0x40 MLOAD DUP1 SWAP2 SUB SWAP1 RETURN JUMPDEST CALLVALUE DUP1 ISZERO PUSH2 0x221 JUMPI PUSH0 PUSH0 REVERT JUMPDEST POP PUSH2 0x235 PUSH2 0x230 CALLDATASIZE PUSH1 0x4 PUSH2 0x2528 JUMP JUMPDEST PUSH2 0x65E JUMP JUMPDEST PUSH1 0x40 MLOAD PUSH2 0x20D SWAP6 SWAP5 SWAP4 SWAP3 SWAP2 SWAP1 PUSH2 0x256D JUMP JUMPDEST CALLVALUE DUP1 ISZERO PUSH2 0x251 JUMPI PUSH0 PUSH0 REVERT JUMPDEST POP PUSH1 0x2 SLOAD PUSH2 0x203 SWAP1 DUP2 JUMP JUMPDEST CALLVALUE DUP1 ISZERO PUSH2 0x267 JUMPI PUSH0 PUSH0 REVERT JUMPDEST POP PUSH2 0x27B PUSH2 0x276 CALLDATASIZE PUSH1 0x4 PUSH2 0x2663 JUMP JUMPDEST PUSH2 0x720 JUMP JUMPDEST PUSH1 0x40 MLOAD SWAP1 ISZERO ISZERO DUP2 MSTORE PUSH1 0x20 ADD PUSH2 0x20D JUMP JUMPDEST CALLVALUE DUP1 ISZERO PUSH2 0x296 JUMPI PUSH0 PUSH0 REVERT JUMPDEST POP PUSH2 0x2AA PUSH2 0x2A5 CALLDATASIZE PUSH1 0x4 PUSH2 0x2528 JUMP JUMPDEST PUSH2 0x758 JUMP JUMPDEST PUSH1 0x40 DUP1 MLOAD SWAP4 ISZERO ISZERO DUP5 MSTORE PUSH1 0x20 DUP5 ADD SWAP3 SWAP1 SWAP3 MSTORE SWAP1 DUP3 ADD MSTORE PUSH1 0x60 ADD PUSH2 0x20D JUMP JUMPDEST CALLVALUE DUP1 ISZERO PUSH2 0x2D2 JUMPI PUSH0 PUSH0 REVERT JUMPDEST POP PUSH2 0x2E6 PUSH2 0x2E1 CALLDATASIZE PUSH1 0x4 PUSH2 0x2528 JUMP JUMPDEST PUSH2 0x799 JUMP JUMPDEST PUSH1 0x40 MLOAD PUSH2 0x20D SWAP2 SWAP1 PUSH2 0x274B JUMP JUMPDEST CALLVALUE DUP1 ISZERO PUSH2 0x2FE JUMPI PUSH0 PUSH0 REVERT JUMPDEST POP PUSH2 0x203 PUSH2 0x30D CALLDATASIZE PUSH1 0x4 PUSH2 0x2893 JUMP JUMPDEST PUSH1 0x7 PUSH1 0x20 SWAP1 DUP2 MSTORE PUSH0 SWAP3 DUP4 MSTORE PUSH1 0x40 DUP1 DUP5 KECCAK256 SWAP1 SWAP2 MSTORE SWAP1 DUP3 MSTORE SWAP1 KECCAK256 SLOAD DUP2 JUMP JUMPDEST CALLVALUE DUP1 ISZERO PUSH2 0x334 JUMPI PUSH0 PUSH0 REVERT JUMPDEST POP PUSH2 0x348 PUSH2 0x343 CALLDATASIZE PUSH1 0x4 PUSH2 0x29E3 JUMP JUMPDEST PUSH2 0xB07 JUMP JUMPDEST STOP JUMPDEST CALLVALUE DUP1 ISZERO PUSH2 0x355 JUMPI PUSH0 PUSH0 REVERT JUMPDEST POP PUSH2 0x203 PUSH2 0x364 CALLDATASIZE PUSH1 0x4 PUSH2 0x2AE6 JUMP JUMPDEST PUSH2 0xCAE JUMP JUMPDEST CALLVALUE DUP1 ISZERO PUSH2 0x374 JUMPI PUSH0 PUSH0 REVERT JUMPDEST POP PUSH2 0x348 PUSH2 0xCD9 JUMP JUMPDEST CALLVALUE DUP1 ISZERO PUSH2 0x388 JUMPI PUSH0 PUSH0 REVERT JUMPDEST POP PUSH2 0x39C PUSH2 0x397 CALLDATASIZE PUSH1 0x4 PUSH2 0x2B10 JUMP JUMPDEST PUSH2 0xD65 JUMP JUMPDEST PUSH1 0x40 MLOAD PUSH2 0x20D SWAP2 SWAP1 PUSH2 0x2B2B JUMP JUMPDEST CALLVALUE DUP1 ISZERO PUSH2 0x3B4 JUMPI PUSH0 PUSH0 REVERT JUMPDEST POP PUSH2 0x348 PUSH2 0xDCE JUMP JUMPDEST CALLVALUE DUP1 ISZERO PUSH2 0x3C8 JUMPI PUSH0 PUSH0 REVERT JUMPDEST POP PUSH2 0x348 PUSH2 0x3D7 CALLDATASIZE PUSH1 0x4 PUSH2 0x2AE6 JUMP JUMPDEST PUSH2 0xDE0 JUMP JUMPDEST CALLVALUE DUP1 ISZERO PUSH2 0x3E7 JUMPI PUSH0 PUSH0 REVERT JUMPDEST POP PUSH0 SLOAD PUSH1 0x1 PUSH1 0xA0 SHL SWAP1 DIV PUSH1 0xFF AND PUSH2 0x27B JUMP JUMPDEST CALLVALUE DUP1 ISZERO PUSH2 0x404 JUMPI PUSH0 PUSH0 REVERT JUMPDEST POP PUSH2 0x27B PUSH2 0x413 CALLDATASIZE PUSH1 0x4 PUSH2 0x2B6D JUMP JUMPDEST PUSH2 0xE5C JUMP JUMPDEST CALLVALUE DUP1 ISZERO PUSH2 0x423 JUMPI PUSH0 PUSH0 REVERT JUMPDEST POP PUSH2 0x27B PUSH2 0x432 CALLDATASIZE PUSH1 0x4 PUSH2 0x2528 JUMP JUMPDEST PUSH2 0xE90 JUMP JUMPDEST CALLVALUE DUP1 ISZERO PUSH2 0x442 JUMPI PUSH0 PUSH0 REVERT JUMPDEST POP PUSH2 0x348 PUSH2 0xEB5 JUMP JUMPDEST CALLVALUE DUP1 ISZERO PUSH2 0x456 JUMPI PUSH0 PUSH0 REVERT JUMPDEST POP PUSH2 0x27B PUSH2 0x465 CALLDATASIZE PUSH1 0x4 PUSH2 0x2893 JUMP JUMPDEST PUSH2 0xEC6 JUMP JUMPDEST CALLVALUE DUP1 ISZERO PUSH2 0x475 JUMPI PUSH0 PUSH0 REVERT JUMPDEST POP PUSH2 0x203 PUSH2 0x484 CALLDATASIZE PUSH1 0x4 PUSH2 0x2B10 JUMP JUMPDEST PUSH2 0xF6F JUMP JUMPDEST PUSH2 0x348 PUSH2 0x497 CALLDATASIZE PUSH1 0x4 PUSH2 0x2B8D JUMP JUMPDEST PUSH2 0xFD7 JUMP JUMPDEST CALLVALUE DUP1 ISZERO PUSH2 0x4A7 JUMPI PUSH0 PUSH0 REVERT JUMPDEST POP PUSH2 0x348 PUSH2 0x1513 JUMP JUMPDEST CALLVALUE DUP1 ISZERO PUSH2 0x4BB JUMPI PUSH0 PUSH0 REVERT JUMPDEST POP PUSH0 SLOAD PUSH1 0x40 MLOAD PUSH1 0x1 PUSH1 0x1 PUSH1 0xA0 SHL SUB SWAP1 SWAP2 AND DUP2 MSTORE PUSH1 0x20 ADD PUSH2 0x20D JUMP JUMPDEST CALLVALUE DUP1 ISZERO PUSH2 0x4E1 JUMPI PUSH0 PUSH0 REVERT JUMPDEST POP PUSH2 0x348 PUSH2 0x4F0 CALLDATASIZE PUSH1 0x4 PUSH2 0x2528 JUMP JUMPDEST PUSH2 0x1523 JUMP JUMPDEST CALLVALUE DUP1 ISZERO PUSH2 0x500 JUMPI PUSH0 PUSH0 REVERT JUMPDEST POP PUSH2 0x348 PUSH2 0x50F CALLDATASIZE PUSH1 0x4 PUSH2 0x2C20 JUMP JUMPDEST PUSH2 0x1530 JUMP JUMPDEST CALLVALUE DUP1 ISZERO PUSH2 0x51F JUMPI PUSH0 PUSH0 REVERT JUMPDEST POP TIMESTAMP PUSH2 0x203 JUMP JUMPDEST CALLVALUE DUP1 ISZERO PUSH2 0x531 JUMPI PUSH0 PUSH0 REVERT JUMPDEST POP PUSH2 0x545 PUSH2 0x540 CALLDATASIZE PUSH1 0x4 PUSH2 0x2B6D JUMP JUMPDEST PUSH2 0x15A0 JUMP JUMPDEST PUSH1 0x40 MLOAD PUSH2 0x20D SWAP2 SWAP1 PUSH2 0x2C64 JUMP JUMPDEST PUSH2 0x203 PUSH2 0x560 CALLDATASIZE PUSH1 0x4 PUSH2 0x2C76 JUMP JUMPDEST PUSH2 0x164B JUMP JUMPDEST CALLVALUE DUP1 ISZERO PUSH2 0x570 JUMPI PUSH0 PUSH0 REVERT JUMPDEST POP PUSH2 0x203 PUSH1 0x3 SLOAD DUP2 JUMP JUMPDEST CALLVALUE DUP1 ISZERO PUSH2 0x585 JUMPI PUSH0 PUSH0 REVERT JUMPDEST POP PUSH2 0x545 PUSH2 0x594 CALLDATASIZE PUSH1 0x4 PUSH2 0x2B6D JUMP JUMPDEST PUSH2 0x1989 JUMP JUMPDEST CALLVALUE DUP1 ISZERO PUSH2 0x5A4 JUMPI PUSH0 PUSH0 REVERT JUMPDEST POP PUSH2 0x5B8 PUSH2 0x5B3 CALLDATASIZE PUSH1 0x4 PUSH2 0x2528 JUMP JUMPDEST PUSH2 0x1A2B JUMP JUMPDEST PUSH1 0x40 MLOAD PUSH2 0x20D SWAP2 SWAP1 PUSH2 0x2D83 JUMP JUMPDEST CALLVALUE DUP1 ISZERO PUSH2 0x5D0 JUMPI PUSH0 PUSH0 REVERT JUMPDEST POP PUSH2 0x348 PUSH2 0x5DF CALLDATASIZE PUSH1 0x4 PUSH2 0x2B10 JUMP JUMPDEST PUSH2 0x1C9F JUMP JUMPDEST CALLVALUE DUP1 ISZERO PUSH2 0x5EF JUMPI PUSH0 PUSH0 REVERT JUMPDEST POP PUSH2 0x603 PUSH2 0x5FE CALLDATASIZE PUSH1 0x4 PUSH2 0x2528 JUMP JUMPDEST PUSH2 0x1CDC JUMP JUMPDEST PUSH1 0x40 MLOAD PUSH2 0x20D SWAP13 SWAP12 SWAP11 SWAP10 SWAP9 SWAP8 SWAP7 SWAP6 SWAP5 SWAP4 SWAP3 SWAP2 SWAP1 PUSH2 0x2E31 JUMP JUMPDEST CALLVALUE DUP1 ISZERO PUSH2 0x626 JUMPI PUSH0 PUSH0 REVERT JUMPDEST POP PUSH1 0x1 SLOAD PUSH2 0x203 SWAP1 DUP2 JUMP JUMPDEST CALLVALUE DUP1 ISZERO PUSH2 0x63C JUMPI PUSH0 PUSH0 REVERT JUMPDEST POP PUSH2 0x650 PUSH2 0x64B CALLDATASIZE PUSH1 0x4 PUSH2 0x2B10 JUMP JUMPDEST PUSH2 0x1E59 JUMP JUMPDEST PUSH1 0x40 MLOAD PUSH2 0x20D SWAP3 SWAP2 SWAP1 PUSH2 0x2EC1 JUMP JUMPDEST PUSH1 0x5 PUSH1 0x20 MSTORE PUSH0 SWAP1 DUP2 MSTORE PUSH1 0x40 SWAP1 KECCAK256 DUP1 SLOAD PUSH1 0x1 DUP3 ADD DUP1 SLOAD SWAP2 SWAP3 SWAP2 PUSH2 0x67F SWAP1 PUSH2 0x3003 JUMP JUMPDEST DUP1 PUSH1 0x1F ADD PUSH1 0x20 DUP1 SWAP2 DIV MUL PUSH1 0x20 ADD PUSH1 0x40 MLOAD SWAP1 DUP2 ADD PUSH1 0x40 MSTORE DUP1 SWAP3 SWAP2 SWAP1 DUP2 DUP2 MSTORE PUSH1 0x20 ADD DUP3 DUP1 SLOAD PUSH2 0x6AB SWAP1 PUSH2 0x3003 JUMP JUMPDEST DUP1 ISZERO PUSH2 0x6F6 JUMPI DUP1 PUSH1 0x1F LT PUSH2 0x6CD JUMPI PUSH2 0x100 DUP1 DUP4 SLOAD DIV MUL DUP4 MSTORE SWAP2 PUSH1 0x20 ADD SWAP2 PUSH2 0x6F6 JUMP JUMPDEST DUP3 ADD SWAP2 SWAP1 PUSH0 MSTORE PUSH1 0x20 PUSH0 KECCAK256 SWAP1 JUMPDEST DUP2 SLOAD DUP2 MSTORE SWAP1 PUSH1 0x1 ADD SWAP1 PUSH1 0x20 ADD DUP1 DUP4 GT PUSH2 0x6D9 JUMPI DUP3 SWAP1 SUB PUSH1 0x1F AND DUP3 ADD SWAP2 JUMPDEST POP POP POP POP PUSH1 0x2 DUP4 ADD SLOAD PUSH1 0x3 SWAP1 SWAP4 ADD SLOAD SWAP2 SWAP3 PUSH1 0xFF DUP2 AND SWAP3 PUSH2 0x100 SWAP1 SWAP2 DIV PUSH1 0x1 PUSH1 0x1 PUSH1 0xA0 SHL SUB AND SWAP2 POP DUP6 JUMP JUMPDEST PUSH0 PUSH2 0x729 PUSH2 0x22AA JUMP JUMPDEST PUSH0 DUP5 DUP2 MSTORE PUSH1 0x6 PUSH1 0x20 SWAP1 DUP2 MSTORE PUSH1 0x40 DUP1 DUP4 KECCAK256 DUP7 DUP5 MSTORE SWAP1 SWAP2 MSTORE SWAP1 KECCAK256 PUSH2 0x74B DUP4 DUP3 PUSH2 0x3086 JUMP JUMPDEST POP PUSH1 0x1 SWAP1 POP JUMPDEST SWAP4 SWAP3 POP POP POP JUMP JUMPDEST PUSH0 DUP2 DUP2 MSTORE PUSH1 0x4 PUSH1 0x20 DUP2 SWAP1 MSTORE PUSH1 0x40 DUP3 KECCAK256 PUSH1 0x3 DUP2 ADD SLOAD SWAP2 ADD SLOAD DUP3 SWAP2 DUP3 SWAP2 TIMESTAMP DUP2 GT ISZERO PUSH2 0x789 JUMPI PUSH1 0x1 SWAP5 POP SWAP1 SWAP3 POP SWAP1 POP PUSH2 0x792 JUMP JUMPDEST PUSH0 SWAP5 POP SWAP1 SWAP3 POP SWAP1 POP JUMPDEST SWAP2 SWAP4 SWAP1 SWAP3 POP JUMP JUMPDEST PUSH2 0x817 PUSH1 0x40 MLOAD DUP1 PUSH2 0x1C0 ADD PUSH1 0x40 MSTORE DUP1 PUSH1 0x60 DUP2 MSTORE PUSH1 0x20 ADD PUSH1 0x60 DUP2 MSTORE PUSH1 0x20 ADD PUSH1 0x60 DUP2 MSTORE PUSH1 0x20 ADD PUSH0 DUP2 MSTORE PUSH1 0x20 ADD PUSH0 DUP2 MSTORE PUSH1 0x20 ADD PUSH1 0x60 DUP2 MSTORE PUSH1 0x20 ADD PUSH0 PUSH1 0x1 PUSH1 0x1 PUSH1 0xA0 SHL SUB AND DUP2 MSTORE PUSH1 0x20 ADD PUSH0 DUP2 MSTORE PUSH1 0x20 ADD PUSH0 ISZERO ISZERO DUP2 MSTORE PUSH1 0x20 ADD PUSH0 PUSH1 0x1 PUSH1 0x1 PUSH1 0xA0 SHL SUB AND DUP2 MSTORE PUSH1 0x20 ADD PUSH0 DUP2 MSTORE PUSH1 0x20 ADD PUSH0 ISZERO ISZERO DUP2 MSTORE PUSH1 0x20 ADD PUSH0 DUP2 MSTORE PUSH1 0x20 ADD PUSH0 DUP2 MSTORE POP SWAP1 JUMP JUMPDEST PUSH0 DUP3 DUP2 MSTORE PUSH1 0x4 PUSH1 0x20 MSTORE PUSH1 0x40 SWAP1 DUP2 SWAP1 KECCAK256 DUP2 MLOAD PUSH2 0x1C0 DUP2 ADD SWAP1 SWAP3 MSTORE DUP1 SLOAD DUP3 SWAP1 DUP3 SWAP1 PUSH2 0x83F SWAP1 PUSH2 0x3003 JUMP JUMPDEST DUP1 PUSH1 0x1F ADD PUSH1 0x20 DUP1 SWAP2 DIV MUL PUSH1 0x20 ADD PUSH1 0x40 MLOAD SWAP1 DUP2 ADD PUSH1 0x40 MSTORE DUP1 SWAP3 SWAP2 SWAP1 DUP2 DUP2 MSTORE PUSH1 0x20 ADD DUP3 DUP1 SLOAD PUSH2 0x86B SWAP1 PUSH2 0x3003 JUMP JUMPDEST DUP1 ISZERO PUSH2 0x8B6 JUMPI DUP1 PUSH1 0x1F LT PUSH2 0x88D JUMPI PUSH2 0x100 DUP1 DUP4 SLOAD DIV MUL DUP4 MSTORE SWAP2 PUSH1 0x20 ADD SWAP2 PUSH2 0x8B6 JUMP JUMPDEST DUP3 ADD SWAP2 SWAP1 PUSH0 MSTORE PUSH1 0x20 PUSH0 KECCAK256 SWAP1 JUMPDEST DUP2 SLOAD DUP2 MSTORE SWAP1 PUSH1 0x1 ADD SWAP1 PUSH1 0x20 ADD DUP1 DUP4 GT PUSH2 0x899 JUMPI DUP3 SWAP1 SUB PUSH1 0x1F AND DUP3 ADD SWAP2 JUMPDEST POP POP POP POP POP DUP2 MSTORE PUSH1 0x20 ADD PUSH1 0x1 DUP3 ADD DUP1 SLOAD PUSH2 0x8CF SWAP1 PUSH2 0x3003 JUMP JUMPDEST DUP1 PUSH1 0x1F ADD PUSH1 0x20 DUP1 SWAP2 DIV MUL PUSH1 0x20 ADD PUSH1 0x40 MLOAD SWAP1 DUP2 ADD PUSH1 0x40 MSTORE DUP1 SWAP3 SWAP2 SWAP1 DUP2 DUP2 MSTORE PUSH1 0x20 ADD DUP3 DUP1 SLOAD PUSH2 0x8FB SWAP1 PUSH2 0x3003 JUMP JUMPDEST DUP1 ISZERO PUSH2 0x946 JUMPI DUP1 PUSH1 0x1F LT PUSH2 0x91D JUMPI PUSH2 0x100 DUP1 DUP4 SLOAD DIV MUL DUP4 MSTORE SWAP2 PUSH1 0x20 ADD SWAP2 PUSH2 0x946 JUMP JUMPDEST DUP3 ADD SWAP2 SWAP1 PUSH0 MSTORE PUSH1 0x20 PUSH0 KECCAK256 SWAP1 JUMPDEST DUP2 SLOAD DUP2 MSTORE SWAP1 PUSH1 0x1 ADD SWAP1 PUSH1 0x20 ADD DUP1 DUP4 GT PUSH2 0x929 JUMPI DUP3 SWAP1 SUB PUSH1 0x1F AND DUP3 ADD SWAP2 JUMPDEST POP POP POP POP POP DUP2 MSTORE PUSH1 0x20 ADD PUSH1 0x2 DUP3 ADD DUP1 SLOAD DUP1 PUSH1 0x20 MUL PUSH1 0x20 ADD PUSH1 0x40 MLOAD SWAP1 DUP2 ADD PUSH1 0x40 MSTORE DUP1 SWAP3 SWAP2 SWAP1 DUP2 DUP2 MSTORE PUSH1 0x20 ADD PUSH0 SWAP1 JUMPDEST DUP3 DUP3 LT ISZERO PUSH2 0xA1B JUMPI DUP4 DUP3 SWAP1 PUSH0 MSTORE PUSH1 0x20 PUSH0 KECCAK256 ADD DUP1 SLOAD PUSH2 0x990 SWAP1 PUSH2 0x3003 JUMP JUMPDEST DUP1 PUSH1 0x1F ADD PUSH1 0x20 DUP1 SWAP2 DIV MUL PUSH1 0x20 ADD PUSH1 0x40 MLOAD SWAP1 DUP2 ADD PUSH1 0x40 MSTORE DUP1 SWAP3 SWAP2 SWAP1 DUP2 DUP2 MSTORE PUSH1 0x20 ADD DUP3 DUP1 SLOAD PUSH2 0x9BC SWAP1 PUSH2 0x3003 JUMP JUMPDEST DUP1 ISZERO PUSH2 0xA07 JUMPI DUP1 PUSH1 0x1F LT PUSH2 0x9DE JUMPI PUSH2 0x100 DUP1 DUP4 SLOAD DIV MUL DUP4 MSTORE SWAP2 PUSH1 0x20 ADD SWAP2 PUSH2 0xA07 JUMP JUMPDEST DUP3 ADD SWAP2 SWAP1 PUSH0 MSTORE PUSH1 0x20 PUSH0 KECCAK256 SWAP1 JUMPDEST DUP2 SLOAD DUP2 MSTORE SWAP1 PUSH1 0x1 ADD SWAP1 PUSH1 0x20 ADD DUP1 DUP4 GT PUSH2 0x9EA JUMPI DUP3 SWAP1 SUB PUSH1 0x1F AND DUP3 ADD SWAP2 JUMPDEST POP POP POP POP POP DUP2 MSTORE PUSH1 0x20 ADD SWAP1 PUSH1 0x1 ADD SWAP1 PUSH2 0x973 JUMP JUMPDEST POP POP POP POP DUP2 MSTORE PUSH1 0x20 ADD PUSH1 0x3 DUP3 ADD SLOAD DUP2 MSTORE PUSH1 0x20 ADD PUSH1 0x4 DUP3 ADD SLOAD DUP2 MSTORE PUSH1 0x20 ADD PUSH1 0x5 DUP3 ADD DUP1 SLOAD DUP1 PUSH1 0x20 MUL PUSH1 0x20 ADD PUSH1 0x40 MLOAD SWAP1 DUP2 ADD PUSH1 0x40 MSTORE DUP1 SWAP3 SWAP2 SWAP1 DUP2 DUP2 MSTORE PUSH1 0x20 ADD DUP3 DUP1 SLOAD DUP1 ISZERO PUSH2 0xA8E JUMPI PUSH1 0x20 MUL DUP3 ADD SWAP2 SWAP1 PUSH0 MSTORE PUSH1 0x20 PUSH0 KECCAK256 SWAP1 JUMPDEST DUP2 SLOAD PUSH1 0x1 PUSH1 0x1 PUSH1 0xA0 SHL SUB AND DUP2 MSTORE PUSH1 0x1 SWAP1 SWAP2 ADD SWAP1 PUSH1 0x20 ADD DUP1 DUP4 GT PUSH2 0xA70 JUMPI JUMPDEST POP POP POP SWAP2 DUP4 MSTORE POP POP PUSH1 0x6 DUP3 ADD SLOAD PUSH1 0x1 PUSH1 0x1 PUSH1 0xA0 SHL SUB SWAP1 DUP2 AND PUSH1 0x20 DUP4 ADD MSTORE PUSH1 0x7 DUP4 ADD SLOAD PUSH1 0x40 DUP4 ADD MSTORE PUSH1 0x8 DUP4 ADD SLOAD PUSH1 0xFF DUP1 DUP3 AND ISZERO ISZERO PUSH1 0x60 DUP6 ADD MSTORE PUSH2 0x100 SWAP2 DUP3 SWAP1 DIV SWAP1 SWAP3 AND PUSH1 0x80 DUP5 ADD MSTORE PUSH1 0x9 DUP5 ADD SLOAD PUSH1 0xA0 DUP5 ADD MSTORE PUSH1 0xA DUP5 ADD SLOAD SWAP1 SWAP2 AND ISZERO ISZERO PUSH1 0xC0 DUP4 ADD MSTORE PUSH1 0xB DUP4 ADD SLOAD PUSH1 0xE0 DUP4 ADD MSTORE PUSH1 0xC SWAP1 SWAP3 ADD SLOAD SWAP2 ADD MSTORE SWAP3 SWAP2 POP POP JUMP JUMPDEST PUSH0 DUP11 DUP2 MSTORE PUSH1 0x4 PUSH1 0x20 MSTORE PUSH1 0x40 SWAP1 KECCAK256 PUSH1 0x6 ADD SLOAD DUP11 SWAP1 PUSH1 0x1 PUSH1 0x1 PUSH1 0xA0 SHL SUB AND CALLER EQ PUSH2 0xB93 JUMPI PUSH1 0x40 MLOAD PUSH3 0x461BCD PUSH1 0xE5 SHL DUP2 MSTORE PUSH1 0x20 PUSH1 0x4 DUP3 ADD MSTORE PUSH1 0x34 PUSH1 0x24 DUP3 ADD MSTORE PUSH32 0x5468652073656E646572206973206E6F7420746865206D616E61676572206F66 PUSH1 0x44 DUP3 ADD MSTORE PUSH20 0x103A34329032B73A32B932B2103837B63624B217 PUSH1 0x61 SHL PUSH1 0x64 DUP3 ADD MSTORE PUSH1 0x84 ADD JUMPDEST PUSH1 0x40 MLOAD DUP1 SWAP2 SUB SWAP1 REVERT JUMPDEST PUSH0 DUP12 DUP2 MSTORE PUSH1 0x4 PUSH1 0x20 MSTORE PUSH1 0x40 SWAP1 KECCAK256 PUSH2 0xBAA DUP12 DUP3 PUSH2 0x3086 JUMP JUMPDEST POP PUSH0 DUP12 DUP2 MSTORE PUSH1 0x4 PUSH1 0x20 MSTORE PUSH1 0x40 SWAP1 KECCAK256 PUSH1 0x1 ADD PUSH2 0xBC5 DUP11 DUP3 PUSH2 0x3086 JUMP JUMPDEST POP PUSH0 DUP12 DUP2 MSTORE PUSH1 0x4 PUSH1 0x20 SWAP1 DUP2 MSTORE PUSH1 0x40 SWAP1 SWAP2 KECCAK256 DUP10 MLOAD PUSH2 0xBEA SWAP3 PUSH1 0x2 SWAP1 SWAP3 ADD SWAP2 DUP12 ADD SWAP1 PUSH2 0x240E JUMP JUMPDEST POP PUSH0 DUP12 DUP2 MSTORE PUSH1 0x4 PUSH1 0x20 SWAP1 DUP2 MSTORE PUSH1 0x40 SWAP1 SWAP2 KECCAK256 DUP9 MLOAD PUSH2 0xC0F SWAP3 PUSH1 0x5 SWAP1 SWAP3 ADD SWAP2 DUP11 ADD SWAP1 PUSH2 0x2462 JUMP JUMPDEST POP PUSH0 DUP12 DUP2 MSTORE PUSH1 0x4 PUSH1 0x20 MSTORE PUSH1 0x40 SWAP1 KECCAK256 PUSH1 0x7 DUP2 ADD DUP8 SWAP1 SSTORE PUSH1 0x8 DUP2 ADD DUP1 SLOAD PUSH1 0x1 PUSH1 0x1 PUSH1 0xA8 SHL SUB NOT AND DUP8 ISZERO ISZERO PUSH2 0x100 PUSH1 0x1 PUSH1 0xA8 SHL SUB NOT AND OR PUSH2 0x100 PUSH1 0x1 PUSH1 0x1 PUSH1 0xA0 SHL SUB DUP9 AND MUL OR SWAP1 SSTORE PUSH1 0x9 DUP2 ADD DUP5 SWAP1 SSTORE PUSH1 0xA ADD DUP1 SLOAD PUSH1 0xFF NOT AND DUP4 ISZERO ISZERO OR SWAP1 SSTORE CALLER PUSH1 0x1 PUSH1 0x1 PUSH1 0xA0 SHL SUB AND DUP12 PUSH32 0xA3A8F6E6F61CD97A866C0816363D95DADC283C7D9697713AD96302D0CD2EA14D PUSH1 0x40 MLOAD PUSH1 0x40 MLOAD DUP1 SWAP2 SUB SWAP1 LOG3 POP POP POP POP POP POP POP POP POP POP POP JUMP JUMPDEST PUSH1 0x8 PUSH1 0x20 MSTORE DUP2 PUSH0 MSTORE PUSH1 0x40 PUSH0 KECCAK256 DUP2 DUP2 SLOAD DUP2 LT PUSH2 0xCC7 JUMPI PUSH0 DUP1 REVERT JUMPDEST SWAP1 PUSH0 MSTORE PUSH1 0x20 PUSH0 KECCAK256 ADD PUSH0 SWAP2 POP SWAP2 POP POP SLOAD DUP2 JUMP JUMPDEST PUSH2 0xCE1 PUSH2 0x22AA JUMP JUMPDEST SELFBALANCE PUSH0 PUSH2 0xCF4 PUSH0 SLOAD PUSH1 0x1 PUSH1 0x1 PUSH1 0xA0 SHL SUB AND SWAP1 JUMP JUMPDEST PUSH1 0x1 PUSH1 0x1 PUSH1 0xA0 SHL SUB AND DUP3 PUSH1 0x40 MLOAD PUSH0 PUSH1 0x40 MLOAD DUP1 DUP4 SUB DUP2 DUP6 DUP8 GAS CALL SWAP3 POP POP POP RETURNDATASIZE DUP1 PUSH0 DUP2 EQ PUSH2 0xD3B JUMPI PUSH1 0x40 MLOAD SWAP2 POP PUSH1 0x1F NOT PUSH1 0x3F RETURNDATASIZE ADD AND DUP3 ADD PUSH1 0x40 MSTORE RETURNDATASIZE DUP3 MSTORE RETURNDATASIZE PUSH0 PUSH1 0x20 DUP5 ADD RETURNDATACOPY PUSH2 0xD40 JUMP JUMPDEST PUSH1 0x60 SWAP2 POP JUMPDEST POP POP SWAP1 POP DUP1 PUSH2 0xD61 JUMPI PUSH1 0x40 MLOAD PUSH3 0x461BCD PUSH1 0xE5 SHL DUP2 MSTORE PUSH1 0x4 ADD PUSH2 0xB8A SWAP1 PUSH2 0x3140 JUMP JUMPDEST POP POP JUMP JUMPDEST PUSH1 0x1 PUSH1 0x1 PUSH1 0xA0 SHL SUB DUP2 AND PUSH0 SWAP1 DUP2 MSTORE PUSH1 0x8 PUSH1 0x20 SWAP1 DUP2 MSTORE PUSH1 0x40 SWAP2 DUP3 SWAP1 KECCAK256 DUP1 SLOAD DUP4 MLOAD DUP2 DUP5 MUL DUP2 ADD DUP5 ADD SWAP1 SWAP5 MSTORE DUP1 DUP5 MSTORE PUSH1 0x60 SWAP4 SWAP3 DUP4 ADD DUP3 DUP3 DUP1 ISZERO PUSH2 0xDC2 JUMPI PUSH1 0x20 MUL DUP3 ADD SWAP2 SWAP1 PUSH0 MSTORE PUSH1 0x20 PUSH0 KECCAK256 SWAP1 JUMPDEST DUP2 SLOAD DUP2 MSTORE PUSH1 0x20 ADD SWAP1 PUSH1 0x1 ADD SWAP1 DUP1 DUP4 GT PUSH2 0xDAE JUMPI JUMPDEST POP POP POP POP POP SWAP1 POP SWAP2 SWAP1 POP JUMP JUMPDEST PUSH2 0xDD6 PUSH2 0x22AA JUMP JUMPDEST PUSH2 0xDDE PUSH2 0x22D6 JUMP JUMPDEST JUMP JUMPDEST PUSH2 0xDE8 PUSH2 0x22AA JUMP JUMPDEST PUSH0 DUP3 PUSH1 0x1 PUSH1 0x1 PUSH1 0xA0 SHL SUB AND DUP3 PUSH1 0x40 MLOAD PUSH0 PUSH1 0x40 MLOAD DUP1 DUP4 SUB DUP2 DUP6 DUP8 GAS CALL SWAP3 POP POP POP RETURNDATASIZE DUP1 PUSH0 DUP2 EQ PUSH2 0xE31 JUMPI PUSH1 0x40 MLOAD SWAP2 POP PUSH1 0x1F NOT PUSH1 0x3F RETURNDATASIZE ADD AND DUP3 ADD PUSH1 0x40 MSTORE RETURNDATASIZE DUP3 MSTORE RETURNDATASIZE PUSH0 PUSH1 0x20 DUP5 ADD RETURNDATACOPY PUSH2 0xE36 JUMP JUMPDEST PUSH1 0x60 SWAP2 POP JUMPDEST POP POP SWAP1 POP DUP1 PUSH2 0xE57 JUMPI PUSH1 0x40 MLOAD PUSH3 0x461BCD PUSH1 0xE5 SHL DUP2 MSTORE PUSH1 0x4 ADD PUSH2 0xB8A SWAP1 PUSH2 0x3140 JUMP JUMPDEST POP POP POP JUMP JUMPDEST PUSH0 PUSH2 0xE65 PUSH2 0x22AA JUMP JUMPDEST PUSH0 DUP4 DUP2 MSTORE PUSH1 0x6 PUSH1 0x20 SWAP1 DUP2 MSTORE PUSH1 0x40 DUP1 DUP4 KECCAK256 DUP6 DUP5 MSTORE SWAP1 SWAP2 MSTORE DUP2 KECCAK256 PUSH2 0xE86 SWAP2 PUSH2 0x24C1 JUMP JUMPDEST POP PUSH1 0x1 JUMPDEST SWAP3 SWAP2 POP POP JUMP JUMPDEST PUSH0 DUP2 DUP2 MSTORE PUSH1 0x4 PUSH1 0x20 DUP2 SWAP1 MSTORE PUSH1 0x40 DUP3 KECCAK256 ADD SLOAD TIMESTAMP LT PUSH2 0xEAE JUMPI PUSH1 0x1 PUSH2 0xE8A JUMP JUMPDEST PUSH0 SWAP3 SWAP2 POP POP JUMP JUMPDEST PUSH2 0xEBD PUSH2 0x22AA JUMP JUMPDEST PUSH2 0xDDE PUSH0 PUSH2 0x232A JUMP JUMPDEST PUSH0 DUP1 JUMPDEST PUSH0 DUP5 DUP2 MSTORE PUSH1 0x4 PUSH1 0x20 MSTORE PUSH1 0x40 SWAP1 KECCAK256 PUSH1 0x5 ADD SLOAD DUP2 GT PUSH2 0xF43 JUMPI PUSH0 DUP5 DUP2 MSTORE PUSH1 0x4 PUSH1 0x20 MSTORE PUSH1 0x40 SWAP1 KECCAK256 PUSH1 0x5 ADD DUP1 SLOAD PUSH1 0x1 PUSH1 0x1 PUSH1 0xA0 SHL SUB DUP6 AND SWAP2 SWAP1 DUP4 SWAP1 DUP2 LT PUSH2 0xF0E JUMPI PUSH2 0xF0E PUSH2 0x3160 JUMP JUMPDEST PUSH0 SWAP2 DUP3 MSTORE PUSH1 0x20 SWAP1 SWAP2 KECCAK256 ADD SLOAD PUSH1 0x1 PUSH1 0x1 PUSH1 0xA0 SHL SUB AND SUB PUSH2 0xF31 JUMPI PUSH1 0x1 SWAP2 POP POP PUSH2 0xE8A JUMP JUMPDEST DUP1 PUSH2 0xF3B DUP2 PUSH2 0x3188 JUMP JUMPDEST SWAP2 POP POP PUSH2 0xEC9 JUMP JUMPDEST POP PUSH1 0x40 MLOAD PUSH4 0xF2E7FC47 PUSH1 0xE0 SHL DUP2 MSTORE PUSH1 0x4 DUP2 ADD DUP5 SWAP1 MSTORE PUSH1 0x1 PUSH1 0x1 PUSH1 0xA0 SHL SUB DUP4 AND PUSH1 0x24 DUP3 ADD MSTORE PUSH1 0x44 ADD PUSH2 0xB8A JUMP JUMPDEST PUSH1 0x40 MLOAD PUSH4 0x70A08231 PUSH1 0xE0 SHL DUP2 MSTORE ADDRESS PUSH1 0x4 DUP3 ADD MSTORE PUSH0 SWAP1 PUSH1 0x1 PUSH1 0x1 PUSH1 0xA0 SHL SUB DUP4 AND SWAP1 PUSH4 0x70A08231 SWAP1 PUSH1 0x24 ADD PUSH1 0x20 PUSH1 0x40 MLOAD DUP1 DUP4 SUB DUP2 DUP7 GAS STATICCALL ISZERO DUP1 ISZERO PUSH2 0xFB3 JUMPI RETURNDATASIZE PUSH0 PUSH0 RETURNDATACOPY RETURNDATASIZE PUSH0 REVERT JUMPDEST POP POP POP POP PUSH1 0x40 MLOAD RETURNDATASIZE PUSH1 0x1F NOT PUSH1 0x1F DUP3 ADD AND DUP3 ADD DUP1 PUSH1 0x40 MSTORE POP DUP2 ADD SWAP1 PUSH2 0xE8A SWAP2 SWAP1 PUSH2 0x31A0 JUMP JUMPDEST PUSH0 DUP6 DUP2 MSTORE PUSH1 0x4 PUSH1 0x20 MSTORE PUSH1 0x40 SWAP1 KECCAK256 PUSH1 0x5 ADD SLOAD ISZERO PUSH2 0xFF9 JUMPI PUSH2 0xFF7 DUP6 CALLER PUSH2 0xEC6 JUMP JUMPDEST POP JUMPDEST PUSH0 DUP6 DUP2 MSTORE PUSH1 0x4 PUSH1 0x20 MSTORE PUSH1 0x40 SWAP1 KECCAK256 PUSH1 0x3 ADD SLOAD TIMESTAMP LT ISZERO PUSH2 0x102C JUMPI PUSH1 0x40 MLOAD PUSH4 0xA8D68C9 PUSH1 0xE2 SHL DUP2 MSTORE TIMESTAMP PUSH1 0x4 DUP3 ADD MSTORE PUSH1 0x24 ADD PUSH2 0xB8A JUMP JUMPDEST PUSH0 DUP6 DUP2 MSTORE PUSH1 0x4 PUSH1 0x20 DUP2 SWAP1 MSTORE PUSH1 0x40 SWAP1 SWAP2 KECCAK256 ADD SLOAD TIMESTAMP LT PUSH2 0x108C JUMPI PUSH1 0x40 MLOAD PUSH3 0x461BCD PUSH1 0xE5 SHL DUP2 MSTORE PUSH1 0x20 PUSH1 0x4 DUP3 ADD MSTORE PUSH1 0x1E PUSH1 0x24 DUP3 ADD MSTORE PUSH32 0x54686520656E746572656420706F6C6C20494420697320657870697265640000 PUSH1 0x44 DUP3 ADD MSTORE PUSH1 0x64 ADD PUSH2 0xB8A JUMP JUMPDEST PUSH0 DUP6 DUP2 MSTORE PUSH1 0x4 PUSH1 0x20 MSTORE PUSH1 0x40 SWAP1 KECCAK256 PUSH1 0xA ADD SLOAD PUSH1 0xFF AND ISZERO PUSH2 0x10E3 JUMPI PUSH1 0x40 MLOAD PUSH3 0x461BCD PUSH1 0xE5 SHL DUP2 MSTORE PUSH1 0x20 PUSH1 0x4 DUP3 ADD MSTORE PUSH1 0x13 PUSH1 0x24 DUP3 ADD MSTORE PUSH19 0x151A1A5CC81C1BDB1B081A5CC81C185D5CD959 PUSH1 0x6A SHL PUSH1 0x44 DUP3 ADD MSTORE PUSH1 0x64 ADD PUSH2 0xB8A JUMP JUMPDEST PUSH0 DUP6 DUP2 MSTORE PUSH1 0x4 PUSH1 0x20 SWAP1 DUP2 MSTORE PUSH1 0x40 DUP1 DUP4 KECCAK256 PUSH1 0x7 SWAP1 DUP2 ADD SLOAD SWAP1 DUP4 MSTORE DUP2 DUP5 KECCAK256 CALLER DUP6 MSTORE SWAP1 SWAP3 MSTORE SWAP1 SWAP2 KECCAK256 SLOAD LT PUSH2 0x1129 JUMPI PUSH1 0x40 MLOAD PUSH4 0x4F3B74B PUSH1 0xE4 SHL DUP2 MSTORE CALLER PUSH1 0x4 DUP3 ADD MSTORE PUSH1 0x24 ADD PUSH2 0xB8A JUMP JUMPDEST PUSH0 DUP6 DUP2 MSTORE PUSH1 0x4 PUSH1 0x20 MSTORE PUSH1 0x40 SWAP1 KECCAK256 PUSH1 0x8 ADD SLOAD PUSH1 0xFF AND ISZERO PUSH2 0x13A0 JUMPI PUSH0 DUP6 DUP2 MSTORE PUSH1 0x4 PUSH1 0x20 MSTORE PUSH1 0x40 SWAP1 KECCAK256 PUSH1 0x8 ADD SLOAD PUSH2 0x100 SWAP1 DIV PUSH1 0x1 PUSH1 0x1 PUSH1 0xA0 SHL SUB AND PUSH2 0x1237 JUMPI PUSH0 DUP6 DUP2 MSTORE PUSH1 0x4 PUSH1 0x20 MSTORE PUSH1 0x40 SWAP1 KECCAK256 PUSH1 0x9 ADD SLOAD CALLVALUE LT ISZERO PUSH2 0x11B3 JUMPI PUSH0 DUP6 DUP2 MSTORE PUSH1 0x4 PUSH1 0x20 DUP2 SWAP1 MSTORE PUSH1 0x40 SWAP2 DUP3 SWAP1 KECCAK256 PUSH1 0x9 ADD SLOAD SWAP2 MLOAD PUSH4 0xBC03BCCD PUSH1 0xE0 SHL DUP2 MSTORE SWAP1 DUP2 ADD SWAP2 SWAP1 SWAP2 MSTORE CALLVALUE PUSH1 0x24 DUP3 ADD MSTORE PUSH1 0x44 ADD PUSH2 0xB8A JUMP JUMPDEST PUSH0 DUP6 DUP2 MSTORE PUSH1 0x4 PUSH1 0x20 MSTORE PUSH1 0x40 DUP1 DUP3 KECCAK256 PUSH1 0x6 ADD SLOAD SWAP1 MLOAD PUSH1 0x1 PUSH1 0x1 PUSH1 0xA0 SHL SUB SWAP1 SWAP2 AND SWAP1 CALLVALUE SWAP1 DUP4 DUP2 DUP2 DUP2 DUP6 DUP8 GAS CALL SWAP3 POP POP POP RETURNDATASIZE DUP1 PUSH0 DUP2 EQ PUSH2 0x120B JUMPI PUSH1 0x40 MLOAD SWAP2 POP PUSH1 0x1F NOT PUSH1 0x3F RETURNDATASIZE ADD AND DUP3 ADD PUSH1 0x40 MSTORE RETURNDATASIZE DUP3 MSTORE RETURNDATASIZE PUSH0 PUSH1 0x20 DUP5 ADD RETURNDATACOPY PUSH2 0x1210 JUMP JUMPDEST PUSH1 0x60 SWAP2 POP JUMPDEST POP POP SWAP1 POP DUP1 PUSH2 0x1231 JUMPI PUSH1 0x40 MLOAD PUSH3 0x461BCD PUSH1 0xE5 SHL DUP2 MSTORE PUSH1 0x4 ADD PUSH2 0xB8A SWAP1 PUSH2 0x3140 JUMP JUMPDEST POP PUSH2 0x13A0 JUMP JUMPDEST PUSH0 DUP6 DUP2 MSTORE PUSH1 0x4 PUSH1 0x20 MSTORE PUSH1 0x40 DUP2 KECCAK256 PUSH1 0x8 ADD SLOAD PUSH2 0x100 SWAP1 DIV PUSH1 0x1 PUSH1 0x1 PUSH1 0xA0 SHL SUB AND PUSH4 0x65AEAA95 ADDRESS CALLER PUSH1 0x40 MLOAD PUSH1 0x1 PUSH1 0x1 PUSH1 0xE0 SHL SUB NOT PUSH1 0xE0 DUP6 SWAP1 SHL AND DUP2 MSTORE PUSH1 0x1 PUSH1 0x1 PUSH1 0xA0 SHL SUB SWAP3 DUP4 AND PUSH1 0x4 DUP3 ADD MSTORE SWAP2 AND PUSH1 0x24 DUP3 ADD MSTORE PUSH1 0x44 ADD PUSH1 0x20 PUSH1 0x40 MLOAD DUP1 DUP4 SUB DUP2 DUP7 GAS STATICCALL ISZERO DUP1 ISZERO PUSH2 0x12A6 JUMPI RETURNDATASIZE PUSH0 PUSH0 RETURNDATACOPY RETURNDATASIZE PUSH0 REVERT JUMPDEST POP POP POP POP PUSH1 0x40 MLOAD RETURNDATASIZE PUSH1 0x1F NOT PUSH1 0x1F DUP3 ADD AND DUP3 ADD DUP1 PUSH1 0x40 MSTORE POP DUP2 ADD SWAP1 PUSH2 0x12CA SWAP2 SWAP1 PUSH2 0x31A0 JUMP JUMPDEST PUSH0 DUP8 DUP2 MSTORE PUSH1 0x4 PUSH1 0x20 MSTORE PUSH1 0x40 SWAP1 KECCAK256 PUSH1 0x9 ADD SLOAD SWAP1 SWAP2 POP DUP2 EQ PUSH2 0x131B JUMPI PUSH0 DUP7 DUP2 MSTORE PUSH1 0x4 PUSH1 0x20 DUP2 SWAP1 MSTORE PUSH1 0x40 SWAP2 DUP3 SWAP1 KECCAK256 PUSH1 0x9 ADD SLOAD SWAP2 MLOAD PUSH4 0xA24F8BE9 PUSH1 0xE0 SHL DUP2 MSTORE PUSH2 0xB8A SWAP3 SWAP2 DUP5 SWAP2 ADD SWAP2 DUP3 MSTORE PUSH1 0x20 DUP3 ADD MSTORE PUSH1 0x40 ADD SWAP1 JUMP JUMPDEST PUSH0 DUP7 DUP2 MSTORE PUSH1 0x4 PUSH1 0x20 DUP2 SWAP1 MSTORE PUSH1 0x40 SWAP2 DUP3 SWAP1 KECCAK256 PUSH1 0x8 DUP2 ADD SLOAD PUSH1 0x6 DUP3 ADD SLOAD PUSH1 0x9 SWAP1 SWAP3 ADD SLOAD SWAP4 MLOAD PUSH4 0x3B06CDDD PUSH1 0xE1 SHL DUP2 MSTORE PUSH1 0x1 PUSH1 0x1 PUSH1 0xA0 SHL SUB PUSH2 0x100 SWAP1 SWAP3 DIV DUP3 AND SWAP5 PUSH4 0x760D9BBA SWAP5 PUSH2 0x1371 SWAP5 CALLER SWAP5 AND SWAP3 DUP11 SWAP2 DUP11 SWAP2 ADD PUSH2 0x31B7 JUMP JUMPDEST PUSH0 PUSH1 0x40 MLOAD DUP1 DUP4 SUB DUP2 PUSH0 DUP8 DUP1 EXTCODESIZE ISZERO DUP1 ISZERO PUSH2 0x1388 JUMPI PUSH0 PUSH0 REVERT JUMPDEST POP GAS CALL ISZERO DUP1 ISZERO PUSH2 0x139A JUMPI RETURNDATASIZE PUSH0 PUSH0 RETURNDATACOPY RETURNDATASIZE PUSH0 REVERT JUMPDEST POP POP POP POP POP JUMPDEST PUSH0 DUP6 DUP2 MSTORE PUSH1 0x4 PUSH1 0x20 MSTORE PUSH1 0x40 DUP2 KECCAK256 PUSH1 0xC ADD DUP1 SLOAD PUSH1 0x1 SWAP3 SWAP1 PUSH2 0x13C1 SWAP1 DUP5 SWAP1 PUSH2 0x31FC JUMP JUMPDEST SWAP1 SWAP2 SSTORE POP POP PUSH0 DUP6 DUP2 MSTORE PUSH1 0x7 PUSH1 0x20 SWAP1 DUP2 MSTORE PUSH1 0x40 DUP1 DUP4 KECCAK256 CALLER DUP5 MSTORE SWAP1 SWAP2 MSTORE DUP2 KECCAK256 DUP1 SLOAD PUSH1 0x1 SWAP3 SWAP1 PUSH2 0x13EF SWAP1 DUP5 SWAP1 PUSH2 0x31FC JUMP JUMPDEST SWAP1 SWAP2 SSTORE POP POP PUSH1 0x2 DUP1 SLOAD PUSH1 0x1 ADD SWAP1 SSTORE PUSH1 0x40 MLOAD DUP1 PUSH1 0xA0 ADD PUSH1 0x40 MSTORE DUP1 DUP7 DUP2 MSTORE PUSH1 0x20 ADD DUP6 DUP2 MSTORE PUSH1 0x20 ADD DUP5 PUSH1 0xFF AND DUP2 MSTORE PUSH1 0x20 ADD PUSH2 0x1424 CALLER SWAP1 JUMP JUMPDEST PUSH1 0x1 PUSH1 0x1 PUSH1 0xA0 SHL SUB AND DUP2 MSTORE PUSH1 0x20 ADD TIMESTAMP DUP2 MSTORE POP PUSH1 0x5 PUSH0 PUSH2 0x1442 PUSH1 0x2 SLOAD SWAP1 JUMP JUMPDEST DUP2 MSTORE PUSH1 0x20 DUP1 DUP3 ADD SWAP3 SWAP1 SWAP3 MSTORE PUSH1 0x40 ADD PUSH0 KECCAK256 DUP3 MLOAD DUP2 SSTORE SWAP1 DUP3 ADD MLOAD PUSH1 0x1 DUP3 ADD SWAP1 PUSH2 0x1469 SWAP1 DUP3 PUSH2 0x3086 JUMP JUMPDEST POP PUSH1 0x40 DUP3 ADD MLOAD PUSH1 0x2 DUP3 ADD DUP1 SLOAD PUSH1 0x60 DUP6 ADD MLOAD PUSH1 0x1 PUSH1 0x1 PUSH1 0xA0 SHL SUB AND PUSH2 0x100 MUL PUSH1 0x1 PUSH1 0x1 PUSH1 0xA8 SHL SUB NOT SWAP1 SWAP2 AND PUSH1 0xFF SWAP1 SWAP4 AND SWAP3 SWAP1 SWAP3 OR SWAP2 SWAP1 SWAP2 OR SWAP1 SSTORE PUSH1 0x80 SWAP1 SWAP2 ADD MLOAD PUSH1 0x3 SWAP1 SWAP2 ADD SSTORE PUSH2 0x14B5 CALLER SWAP1 JUMP JUMPDEST PUSH1 0x1 PUSH1 0x1 PUSH1 0xA0 SHL SUB AND DUP6 PUSH32 0xCC8498191B5CE61C56EFC7B9FD57855FD7CD7F3BCB39131FD0693C6DBF67DCEC PUSH1 0x4 PUSH0 DUP10 DUP2 MSTORE PUSH1 0x20 ADD SWAP1 DUP2 MSTORE PUSH1 0x20 ADD PUSH0 KECCAK256 PUSH1 0xC ADD SLOAD PUSH1 0x40 MLOAD PUSH2 0x1504 SWAP2 DUP2 MSTORE PUSH1 0x20 ADD SWAP1 JUMP JUMPDEST PUSH1 0x40 MLOAD DUP1 SWAP2 SUB SWAP1 LOG3 POP POP POP POP POP JUMP JUMPDEST PUSH2 0x151B PUSH2 0x22AA JUMP JUMPDEST PUSH2 0xDDE PUSH2 0x2379 JUMP JUMPDEST PUSH2 0x152B PUSH2 0x22AA JUMP JUMPDEST PUSH1 0x3 SSTORE JUMP JUMPDEST PUSH2 0x1538 PUSH2 0x22AA JUMP JUMPDEST PUSH1 0x40 MLOAD PUSH4 0x3B06CDDD PUSH1 0xE1 SHL DUP2 MSTORE PUSH1 0x1 PUSH1 0x1 PUSH1 0xA0 SHL SUB DUP7 AND SWAP1 PUSH4 0x760D9BBA SWAP1 PUSH2 0x156C SWAP1 ADDRESS SWAP1 DUP9 SWAP1 DUP9 SWAP1 DUP9 SWAP1 DUP9 SWAP1 PUSH1 0x4 ADD PUSH2 0x31B7 JUMP JUMPDEST PUSH0 PUSH1 0x40 MLOAD DUP1 DUP4 SUB DUP2 PUSH0 DUP8 DUP1 EXTCODESIZE ISZERO DUP1 ISZERO PUSH2 0x1583 JUMPI PUSH0 PUSH0 REVERT JUMPDEST POP GAS CALL ISZERO DUP1 ISZERO PUSH2 0x1595 JUMPI RETURNDATASIZE PUSH0 PUSH0 RETURNDATACOPY RETURNDATASIZE PUSH0 REVERT JUMPDEST POP POP POP POP POP POP POP POP POP JUMP JUMPDEST PUSH0 DUP3 DUP2 MSTORE PUSH1 0x6 PUSH1 0x20 SWAP1 DUP2 MSTORE PUSH1 0x40 DUP1 DUP4 KECCAK256 DUP5 DUP5 MSTORE SWAP1 SWAP2 MSTORE SWAP1 KECCAK256 DUP1 SLOAD PUSH1 0x60 SWAP2 SWAP1 PUSH2 0x15C7 SWAP1 PUSH2 0x3003 JUMP JUMPDEST DUP1 PUSH1 0x1F ADD PUSH1 0x20 DUP1 SWAP2 DIV MUL PUSH1 0x20 ADD PUSH1 0x40 MLOAD SWAP1 DUP2 ADD PUSH1 0x40 MSTORE DUP1 SWAP3 SWAP2 SWAP1 DUP2 DUP2 MSTORE PUSH1 0x20 ADD DUP3 DUP1 SLOAD PUSH2 0x15F3 SWAP1 PUSH2 0x3003 JUMP JUMPDEST DUP1 ISZERO PUSH2 0x163E JUMPI DUP1 PUSH1 0x1F LT PUSH2 0x1615 JUMPI PUSH2 0x100 DUP1 DUP4 SLOAD DIV MUL DUP4 MSTORE SWAP2 PUSH1 0x20 ADD SWAP2 PUSH2 0x163E JUMP JUMPDEST DUP3 ADD SWAP2 SWAP1 PUSH0 MSTORE PUSH1 0x20 PUSH0 KECCAK256 SWAP1 JUMPDEST DUP2 SLOAD DUP2 MSTORE SWAP1 PUSH1 0x1 ADD SWAP1 PUSH1 0x20 ADD DUP1 DUP4 GT PUSH2 0x1621 JUMPI DUP3 SWAP1 SUB PUSH1 0x1F AND DUP3 ADD SWAP2 JUMPDEST POP POP POP POP POP SWAP1 POP SWAP3 SWAP2 POP POP JUMP JUMPDEST PUSH0 TIMESTAMP DUP10 GT PUSH2 0x16B0 JUMPI PUSH1 0x40 MLOAD PUSH3 0x461BCD PUSH1 0xE5 SHL DUP2 MSTORE PUSH1 0x20 PUSH1 0x4 DUP3 ADD MSTORE PUSH1 0x2C PUSH1 0x24 DUP3 ADD MSTORE PUSH32 0x53746172742074696D65206D7573742062652067726561746572207468616E20 PUSH1 0x44 DUP3 ADD MSTORE PUSH12 0x63757272656E742074696D65 PUSH1 0xA0 SHL PUSH1 0x64 DUP3 ADD MSTORE PUSH1 0x84 ADD PUSH2 0xB8A JUMP JUMPDEST DUP9 DUP9 GT PUSH2 0x1710 JUMPI PUSH1 0x40 MLOAD PUSH3 0x461BCD PUSH1 0xE5 SHL DUP2 MSTORE PUSH1 0x20 PUSH1 0x4 DUP3 ADD MSTORE PUSH1 0x28 PUSH1 0x24 DUP3 ADD MSTORE PUSH32 0x456E642074696D65206D7573742062652067726561746572207468616E207374 PUSH1 0x44 DUP3 ADD MSTORE PUSH8 0x6172742074696D65 PUSH1 0xC0 SHL PUSH1 0x64 DUP3 ADD MSTORE PUSH1 0x84 ADD PUSH2 0xB8A JUMP JUMPDEST DUP5 ISZERO PUSH2 0x1757 JUMPI PUSH0 SLOAD PUSH1 0x1 PUSH1 0x1 PUSH1 0xA0 SHL SUB AND CALLER EQ PUSH2 0x1757 JUMPI PUSH1 0x3 SLOAD CALLVALUE LT ISZERO PUSH2 0x1757 JUMPI PUSH1 0x3 SLOAD PUSH1 0x40 MLOAD PUSH4 0xBC03BCCD PUSH1 0xE0 SHL DUP2 MSTORE PUSH1 0x4 DUP2 ADD SWAP2 SWAP1 SWAP2 MSTORE CALLVALUE PUSH1 0x24 DUP3 ADD MSTORE PUSH1 0x44 ADD PUSH2 0xB8A JUMP JUMPDEST PUSH2 0x1765 PUSH1 0x1 DUP1 SLOAD PUSH1 0x1 ADD SWAP1 SSTORE JUMP JUMPDEST PUSH1 0x40 MLOAD DUP1 PUSH2 0x1C0 ADD PUSH1 0x40 MSTORE DUP1 DUP14 DUP2 MSTORE PUSH1 0x20 ADD DUP13 DUP2 MSTORE PUSH1 0x20 ADD DUP12 DUP2 MSTORE PUSH1 0x20 ADD DUP11 DUP2 MSTORE PUSH1 0x20 ADD DUP10 DUP2 MSTORE PUSH1 0x20 ADD DUP9 DUP2 MSTORE PUSH1 0x20 ADD PUSH2 0x179C CALLER SWAP1 JUMP JUMPDEST PUSH1 0x1 PUSH1 0x1 PUSH1 0xA0 SHL SUB AND DUP2 MSTORE PUSH1 0x20 ADD DUP8 DUP2 MSTORE PUSH1 0x20 ADD DUP7 ISZERO ISZERO DUP2 MSTORE PUSH1 0x20 ADD DUP6 PUSH1 0x1 PUSH1 0x1 PUSH1 0xA0 SHL SUB AND DUP2 MSTORE PUSH1 0x20 ADD DUP5 DUP2 MSTORE PUSH1 0x20 ADD DUP4 ISZERO ISZERO DUP2 MSTORE PUSH1 0x20 ADD TIMESTAMP DUP2 MSTORE PUSH1 0x20 ADD PUSH0 DUP2 MSTORE POP PUSH1 0x4 PUSH0 PUSH2 0x17EB PUSH1 0x1 SLOAD SWAP1 JUMP JUMPDEST DUP2 MSTORE PUSH1 0x20 DUP2 ADD SWAP2 SWAP1 SWAP2 MSTORE PUSH1 0x40 ADD PUSH0 KECCAK256 DUP2 MLOAD DUP2 SWAP1 PUSH2 0x1808 SWAP1 DUP3 PUSH2 0x3086 JUMP JUMPDEST POP PUSH1 0x20 DUP3 ADD MLOAD PUSH1 0x1 DUP3 ADD SWAP1 PUSH2 0x181D SWAP1 DUP3 PUSH2 0x3086 JUMP JUMPDEST POP PUSH1 0x40 DUP3 ADD MLOAD DUP1 MLOAD PUSH2 0x1839 SWAP2 PUSH1 0x2 DUP5 ADD SWAP2 PUSH1 0x20 SWAP1 SWAP2 ADD SWAP1 PUSH2 0x240E JUMP JUMPDEST POP PUSH1 0x60 DUP3 ADD MLOAD PUSH1 0x3 DUP3 ADD SSTORE PUSH1 0x80 DUP3 ADD MLOAD PUSH1 0x4 DUP3 ADD SSTORE PUSH1 0xA0 DUP3 ADD MLOAD DUP1 MLOAD PUSH2 0x1869 SWAP2 PUSH1 0x5 DUP5 ADD SWAP2 PUSH1 0x20 SWAP1 SWAP2 ADD SWAP1 PUSH2 0x2462 JUMP JUMPDEST POP PUSH1 0xC0 DUP3 ADD MLOAD PUSH1 0x6 DUP3 ADD DUP1 SLOAD PUSH1 0x1 PUSH1 0x1 PUSH1 0xA0 SHL SUB NOT AND PUSH1 0x1 PUSH1 0x1 PUSH1 0xA0 SHL SUB SWAP3 DUP4 AND OR SWAP1 SSTORE PUSH1 0xE0 DUP4 ADD MLOAD PUSH1 0x7 DUP4 ADD SSTORE PUSH2 0x100 DUP1 DUP5 ADD MLOAD PUSH1 0x8 DUP1 DUP6 ADD DUP1 SLOAD PUSH2 0x120 DUP9 ADD MLOAD PUSH1 0x1 PUSH1 0x1 PUSH1 0xA8 SHL SUB NOT SWAP1 SWAP2 AND SWAP4 ISZERO ISZERO PUSH2 0x100 PUSH1 0x1 PUSH1 0xA8 SHL SUB NOT AND SWAP4 SWAP1 SWAP4 OR SWAP3 SWAP1 SWAP5 AND SWAP1 SWAP3 MUL OR SWAP1 SWAP2 SSTORE PUSH2 0x140 DUP4 ADD MLOAD PUSH1 0x9 DUP4 ADD SSTORE PUSH2 0x160 DUP4 ADD MLOAD PUSH1 0xA DUP4 ADD DUP1 SLOAD PUSH1 0xFF NOT AND SWAP2 ISZERO ISZERO SWAP2 SWAP1 SWAP2 OR SWAP1 SSTORE PUSH2 0x180 DUP4 ADD MLOAD PUSH1 0xB DUP4 ADD SSTORE PUSH2 0x1A0 SWAP1 SWAP3 ADD MLOAD PUSH1 0xC SWAP1 SWAP2 ADD SSTORE CALLER PUSH0 DUP2 DUP2 MSTORE PUSH1 0x20 SWAP3 DUP4 MSTORE PUSH1 0x40 DUP2 KECCAK256 PUSH1 0x1 DUP1 SLOAD DUP3 SLOAD DUP1 DUP4 ADD DUP5 SSTORE SWAP3 DUP5 MSTORE SWAP5 SWAP1 SWAP3 KECCAK256 ADD SWAP3 SWAP1 SWAP3 SSTORE SWAP1 SLOAD PUSH0 SHL PUSH32 0x68D72977FB47B474E850DE31FA3E3FDCEFF2FC7AE0DE285763B8F70EF283D56B DUP15 DUP15 DUP14 DUP14 PUSH1 0x40 MLOAD PUSH2 0x196E SWAP5 SWAP4 SWAP3 SWAP2 SWAP1 PUSH2 0x320F JUMP JUMPDEST PUSH1 0x40 MLOAD DUP1 SWAP2 SUB SWAP1 LOG3 PUSH1 0x1 SLOAD SWAP13 SWAP12 POP POP POP POP POP POP POP POP POP POP POP POP JUMP JUMPDEST PUSH1 0x6 PUSH1 0x20 SWAP1 DUP2 MSTORE PUSH0 SWAP3 DUP4 MSTORE PUSH1 0x40 DUP1 DUP5 KECCAK256 SWAP1 SWAP2 MSTORE SWAP1 DUP3 MSTORE SWAP1 KECCAK256 DUP1 SLOAD PUSH2 0x19AC SWAP1 PUSH2 0x3003 JUMP JUMPDEST DUP1 PUSH1 0x1F ADD PUSH1 0x20 DUP1 SWAP2 DIV MUL PUSH1 0x20 ADD PUSH1 0x40 MLOAD SWAP1 DUP2 ADD PUSH1 0x40 MSTORE DUP1 SWAP3 SWAP2 SWAP1 DUP2 DUP2 MSTORE PUSH1 0x20 ADD DUP3 DUP1 SLOAD PUSH2 0x19D8 SWAP1 PUSH2 0x3003 JUMP JUMPDEST DUP1 ISZERO PUSH2 0x1A23 JUMPI DUP1 PUSH1 0x1F LT PUSH2 0x19FA JUMPI PUSH2 0x100 DUP1 DUP4 SLOAD DIV MUL DUP4 MSTORE SWAP2 PUSH1 0x20 ADD SWAP2 PUSH2 0x1A23 JUMP JUMPDEST DUP3 ADD SWAP2 SWAP1 PUSH0 MSTORE PUSH1 0x20 PUSH0 KECCAK256 SWAP1 JUMPDEST DUP2 SLOAD DUP2 MSTORE SWAP1 PUSH1 0x1 ADD SWAP1 PUSH1 0x20 ADD DUP1 DUP4 GT PUSH2 0x1A06 JUMPI DUP3 SWAP1 SUB PUSH1 0x1F AND DUP3 ADD SWAP2 JUMPDEST POP POP POP POP POP DUP2 JUMP JUMPDEST PUSH0 DUP2 DUP2 MSTORE PUSH1 0x4 PUSH1 0x20 MSTORE PUSH1 0x40 DUP2 KECCAK256 PUSH1 0xC ADD SLOAD PUSH1 0x60 SWAP2 DUP2 PUSH1 0x1 PUSH1 0x1 PUSH1 0x40 SHL SUB DUP2 GT ISZERO PUSH2 0x1A57 JUMPI PUSH2 0x1A57 PUSH2 0x25AE JUMP JUMPDEST PUSH1 0x40 MLOAD SWAP1 DUP1 DUP3 MSTORE DUP1 PUSH1 0x20 MUL PUSH1 0x20 ADD DUP3 ADD PUSH1 0x40 MSTORE DUP1 ISZERO PUSH2 0x1AC8 JUMPI DUP2 PUSH1 0x20 ADD JUMPDEST PUSH2 0x1AB5 PUSH1 0x40 MLOAD DUP1 PUSH1 0xC0 ADD PUSH1 0x40 MSTORE DUP1 PUSH0 DUP2 MSTORE PUSH1 0x20 ADD PUSH0 DUP2 MSTORE PUSH1 0x20 ADD PUSH1 0x60 DUP2 MSTORE PUSH1 0x20 ADD PUSH0 PUSH1 0xFF AND DUP2 MSTORE PUSH1 0x20 ADD PUSH0 PUSH1 0x1 PUSH1 0x1 PUSH1 0xA0 SHL SUB AND DUP2 MSTORE PUSH1 0x20 ADD PUSH0 DUP2 MSTORE POP SWAP1 JUMP JUMPDEST DUP2 MSTORE PUSH1 0x20 ADD SWAP1 PUSH1 0x1 SWAP1 SUB SWAP1 DUP2 PUSH2 0x1A75 JUMPI SWAP1 POP JUMPDEST POP SWAP1 POP PUSH0 JUMPDEST DUP3 DUP2 LT ISZERO PUSH2 0x1C97 JUMPI DUP5 PUSH1 0x5 PUSH0 PUSH2 0x1AE4 DUP5 PUSH1 0x1 PUSH2 0x31FC JUMP JUMPDEST DUP2 MSTORE PUSH1 0x20 DUP2 ADD SWAP2 SWAP1 SWAP2 MSTORE PUSH1 0x40 ADD PUSH0 KECCAK256 SLOAD SUB PUSH2 0x1C8F JUMPI PUSH1 0x40 MLOAD DUP1 PUSH1 0xC0 ADD PUSH1 0x40 MSTORE DUP1 DUP3 PUSH1 0x1 PUSH2 0x1B11 SWAP2 SWAP1 PUSH2 0x31FC JUMP JUMPDEST DUP2 MSTORE PUSH1 0x20 ADD PUSH1 0x5 PUSH0 PUSH2 0x1B24 DUP6 PUSH1 0x1 PUSH2 0x31FC JUMP JUMPDEST PUSH0 SHL DUP2 MSTORE PUSH1 0x20 ADD SWAP1 DUP2 MSTORE PUSH1 0x20 ADD PUSH0 KECCAK256 PUSH0 ADD SLOAD DUP2 MSTORE PUSH1 0x20 ADD PUSH1 0x5 PUSH0 DUP5 PUSH1 0x1 PUSH2 0x1B4B SWAP2 SWAP1 PUSH2 0x31FC JUMP JUMPDEST PUSH0 SHL DUP2 MSTORE PUSH1 0x20 ADD SWAP1 DUP2 MSTORE PUSH1 0x20 ADD PUSH0 KECCAK256 PUSH1 0x1 ADD DUP1 SLOAD PUSH2 0x1B68 SWAP1 PUSH2 0x3003 JUMP JUMPDEST DUP1 PUSH1 0x1F ADD PUSH1 0x20 DUP1 SWAP2 DIV MUL PUSH1 0x20 ADD PUSH1 0x40 MLOAD SWAP1 DUP2 ADD PUSH1 0x40 MSTORE DUP1 SWAP3 SWAP2 SWAP1 DUP2 DUP2 MSTORE PUSH1 0x20 ADD DUP3 DUP1 SLOAD PUSH2 0x1B94 SWAP1 PUSH2 0x3003 JUMP JUMPDEST DUP1 ISZERO PUSH2 0x1BDF JUMPI DUP1 PUSH1 0x1F LT PUSH2 0x1BB6 JUMPI PUSH2 0x100 DUP1 DUP4 SLOAD DIV MUL DUP4 MSTORE SWAP2 PUSH1 0x20 ADD SWAP2 PUSH2 0x1BDF JUMP JUMPDEST DUP3 ADD SWAP2 SWAP1 PUSH0 MSTORE PUSH1 0x20 PUSH0 KECCAK256 SWAP1 JUMPDEST DUP2 SLOAD DUP2 MSTORE SWAP1 PUSH1 0x1 ADD SWAP1 PUSH1 0x20 ADD DUP1 DUP4 GT PUSH2 0x1BC2 JUMPI DUP3 SWAP1 SUB PUSH1 0x1F AND DUP3 ADD SWAP2 JUMPDEST POP POP POP SWAP2 DUP4 MSTORE POP POP PUSH1 0x20 ADD PUSH1 0x5 PUSH0 PUSH2 0x1BF8 DUP6 PUSH1 0x1 PUSH2 0x31FC JUMP JUMPDEST DUP2 MSTORE PUSH1 0x20 DUP1 DUP3 ADD SWAP3 SWAP1 SWAP3 MSTORE PUSH1 0x40 ADD PUSH0 SWAP1 DUP2 KECCAK256 PUSH1 0x2 ADD SLOAD PUSH1 0xFF AND DUP4 MSTORE SWAP2 ADD SWAP1 PUSH1 0x5 SWAP1 PUSH2 0x1C24 DUP6 PUSH1 0x1 PUSH2 0x31FC JUMP JUMPDEST DUP2 MSTORE PUSH1 0x20 DUP1 DUP3 ADD SWAP3 SWAP1 SWAP3 MSTORE PUSH1 0x40 ADD PUSH0 SWAP1 DUP2 KECCAK256 PUSH1 0x2 ADD SLOAD PUSH2 0x100 SWAP1 DIV PUSH1 0x1 PUSH1 0x1 PUSH1 0xA0 SHL SUB AND DUP4 MSTORE SWAP2 ADD SWAP1 PUSH1 0x5 SWAP1 PUSH2 0x1C5B DUP6 PUSH1 0x1 PUSH2 0x31FC JUMP JUMPDEST PUSH0 SHL DUP2 MSTORE PUSH1 0x20 ADD SWAP1 DUP2 MSTORE PUSH1 0x20 ADD PUSH0 KECCAK256 PUSH1 0x3 ADD SLOAD DUP2 MSTORE POP DUP3 DUP3 DUP2 MLOAD DUP2 LT PUSH2 0x1C83 JUMPI PUSH2 0x1C83 PUSH2 0x3160 JUMP JUMPDEST PUSH1 0x20 MUL PUSH1 0x20 ADD ADD DUP2 SWAP1 MSTORE POP JUMPDEST PUSH1 0x1 ADD PUSH2 0x1ACD JUMP JUMPDEST POP SWAP4 SWAP3 POP POP POP JUMP JUMPDEST PUSH2 0x1CA7 PUSH2 0x22AA JUMP JUMPDEST PUSH1 0x1 PUSH1 0x1 PUSH1 0xA0 SHL SUB DUP2 AND PUSH2 0x1CD0 JUMPI PUSH1 0x40 MLOAD PUSH4 0x1E4FBDF7 PUSH1 0xE0 SHL DUP2 MSTORE PUSH0 PUSH1 0x4 DUP3 ADD MSTORE PUSH1 0x24 ADD PUSH2 0xB8A JUMP JUMPDEST PUSH2 0x1CD9 DUP2 PUSH2 0x232A JUMP JUMPDEST POP JUMP JUMPDEST PUSH1 0x4 PUSH1 0x20 MSTORE PUSH0 SWAP1 DUP2 MSTORE PUSH1 0x40 SWAP1 KECCAK256 DUP1 SLOAD DUP2 SWAP1 PUSH2 0x1CF6 SWAP1 PUSH2 0x3003 JUMP JUMPDEST DUP1 PUSH1 0x1F ADD PUSH1 0x20 DUP1 SWAP2 DIV MUL PUSH1 0x20 ADD PUSH1 0x40 MLOAD SWAP1 DUP2 ADD PUSH1 0x40 MSTORE DUP1 SWAP3 SWAP2 SWAP1 DUP2 DUP2 MSTORE PUSH1 0x20 ADD DUP3 DUP1 SLOAD PUSH2 0x1D22 SWAP1 PUSH2 0x3003 JUMP JUMPDEST DUP1 ISZERO PUSH2 0x1D6D JUMPI DUP1 PUSH1 0x1F LT PUSH2 0x1D44 JUMPI PUSH2 0x100 DUP1 DUP4 SLOAD DIV MUL DUP4 MSTORE SWAP2 PUSH1 0x20 ADD SWAP2 PUSH2 0x1D6D JUMP JUMPDEST DUP3 ADD SWAP2 SWAP1 PUSH0 MSTORE PUSH1 0x20 PUSH0 KECCAK256 SWAP1 JUMPDEST DUP2 SLOAD DUP2 MSTORE SWAP1 PUSH1 0x1 ADD SWAP1 PUSH1 0x20 ADD DUP1 DUP4 GT PUSH2 0x1D50 JUMPI DUP3 SWAP1 SUB PUSH1 0x1F AND DUP3 ADD SWAP2 JUMPDEST POP POP POP POP POP SWAP1 DUP1 PUSH1 0x1 ADD DUP1 SLOAD PUSH2 0x1D82 SWAP1 PUSH2 0x3003 JUMP JUMPDEST DUP1 PUSH1 0x1F ADD PUSH1 0x20 DUP1 SWAP2 DIV MUL PUSH1 0x20 ADD PUSH1 0x40 MLOAD SWAP1 DUP2 ADD PUSH1 0x40 MSTORE DUP1 SWAP3 SWAP2 SWAP1 DUP2 DUP2 MSTORE PUSH1 0x20 ADD DUP3 DUP1 SLOAD PUSH2 0x1DAE SWAP1 PUSH2 0x3003 JUMP JUMPDEST DUP1 ISZERO PUSH2 0x1DF9 JUMPI DUP1 PUSH1 0x1F LT PUSH2 0x1DD0 JUMPI PUSH2 0x100 DUP1 DUP4 SLOAD DIV MUL DUP4 MSTORE SWAP2 PUSH1 0x20 ADD SWAP2 PUSH2 0x1DF9 JUMP JUMPDEST DUP3 ADD SWAP2 SWAP1 PUSH0 MSTORE PUSH1 0x20 PUSH0 KECCAK256 SWAP1 JUMPDEST DUP2 SLOAD DUP2 MSTORE SWAP1 PUSH1 0x1 ADD SWAP1 PUSH1 0x20 ADD DUP1 DUP4 GT PUSH2 0x1DDC JUMPI DUP3 SWAP1 SUB PUSH1 0x1F AND DUP3 ADD SWAP2 JUMPDEST POP POP POP PUSH1 0x3 DUP5 ADD SLOAD PUSH1 0x4 DUP6 ADD SLOAD PUSH1 0x6 DUP7 ADD SLOAD PUSH1 0x7 DUP8 ADD SLOAD PUSH1 0x8 DUP9 ADD SLOAD PUSH1 0x9 DUP10 ADD SLOAD PUSH1 0xA DUP11 ADD SLOAD PUSH1 0xB DUP12 ADD SLOAD PUSH1 0xC SWAP1 SWAP12 ADD SLOAD SWAP10 SWAP11 SWAP7 SWAP10 SWAP6 SWAP9 POP PUSH1 0x1 PUSH1 0x1 PUSH1 0xA0 SHL SUB SWAP5 DUP6 AND SWAP8 POP SWAP3 SWAP6 PUSH1 0xFF DUP1 DUP5 AND SWAP7 PUSH2 0x100 SWAP1 SWAP5 DIV SWAP1 SWAP6 AND SWAP5 SWAP2 SWAP4 SWAP1 SWAP2 AND SWAP2 DUP13 JUMP JUMPDEST PUSH1 0x60 PUSH0 PUSH0 PUSH2 0x1E66 PUSH1 0x1 SLOAD SWAP1 JUMP JUMPDEST PUSH1 0x1 PUSH1 0x1 PUSH1 0x40 SHL SUB DUP2 GT ISZERO PUSH2 0x1E7D JUMPI PUSH2 0x1E7D PUSH2 0x25AE JUMP JUMPDEST PUSH1 0x40 MLOAD SWAP1 DUP1 DUP3 MSTORE DUP1 PUSH1 0x20 MUL PUSH1 0x20 ADD DUP3 ADD PUSH1 0x40 MSTORE DUP1 ISZERO PUSH2 0x1F1B JUMPI DUP2 PUSH1 0x20 ADD JUMPDEST PUSH2 0x1F08 PUSH1 0x40 MLOAD DUP1 PUSH2 0x1A0 ADD PUSH1 0x40 MSTORE DUP1 PUSH0 DUP2 MSTORE PUSH1 0x20 ADD PUSH1 0x60 DUP2 MSTORE PUSH1 0x20 ADD PUSH1 0x60 DUP2 MSTORE PUSH1 0x20 ADD PUSH1 0x60 DUP2 MSTORE PUSH1 0x20 ADD PUSH0 DUP2 MSTORE PUSH1 0x20 ADD PUSH0 DUP2 MSTORE PUSH1 0x20 ADD PUSH1 0x60 DUP2 MSTORE PUSH1 0x20 ADD PUSH0 DUP2 MSTORE PUSH1 0x20 ADD PUSH0 DUP2 MSTORE PUSH1 0x20 ADD PUSH0 PUSH1 0x1 PUSH1 0x1 PUSH1 0xA0 SHL SUB AND DUP2 MSTORE PUSH1 0x20 ADD PUSH0 ISZERO ISZERO DUP2 MSTORE PUSH1 0x20 ADD PUSH0 DUP2 MSTORE PUSH1 0x20 ADD PUSH0 DUP2 MSTORE POP SWAP1 JUMP JUMPDEST DUP2 MSTORE PUSH1 0x20 ADD SWAP1 PUSH1 0x1 SWAP1 SUB SWAP1 DUP2 PUSH2 0x1E9B JUMPI SWAP1 POP JUMPDEST POP SWAP1 POP PUSH0 PUSH1 0x1 JUMPDEST PUSH1 0x1 SLOAD DUP2 GT PUSH2 0x229F JUMPI PUSH0 DUP2 DUP2 MSTORE PUSH1 0x4 PUSH1 0x20 MSTORE PUSH1 0x40 SWAP1 KECCAK256 PUSH1 0x6 ADD SLOAD PUSH1 0x1 PUSH1 0x1 PUSH1 0xA0 SHL SUB DUP1 DUP9 AND SWAP2 AND SUB PUSH2 0x228D JUMPI PUSH1 0x40 DUP1 MLOAD PUSH2 0x1A0 DUP2 ADD DUP3 MSTORE DUP3 DUP2 MSTORE PUSH0 DUP4 DUP2 MSTORE PUSH1 0x4 PUSH1 0x20 SWAP1 DUP2 MSTORE SWAP3 SWAP1 KECCAK256 DUP1 SLOAD PUSH1 0x1 SWAP6 POP SWAP2 SWAP3 DUP4 ADD SWAP2 PUSH2 0x1F7E SWAP1 PUSH2 0x3003 JUMP JUMPDEST DUP1 PUSH1 0x1F ADD PUSH1 0x20 DUP1 SWAP2 DIV MUL PUSH1 0x20 ADD PUSH1 0x40 MLOAD SWAP1 DUP2 ADD PUSH1 0x40 MSTORE DUP1 SWAP3 SWAP2 SWAP1 DUP2 DUP2 MSTORE PUSH1 0x20 ADD DUP3 DUP1 SLOAD PUSH2 0x1FAA SWAP1 PUSH2 0x3003 JUMP JUMPDEST DUP1 ISZERO PUSH2 0x1FF5 JUMPI DUP1 PUSH1 0x1F LT PUSH2 0x1FCC JUMPI PUSH2 0x100 DUP1 DUP4 SLOAD DIV MUL DUP4 MSTORE SWAP2 PUSH1 0x20 ADD SWAP2 PUSH2 0x1FF5 JUMP JUMPDEST DUP3 ADD SWAP2 SWAP1 PUSH0 MSTORE PUSH1 0x20 PUSH0 KECCAK256 SWAP1 JUMPDEST DUP2 SLOAD DUP2 MSTORE SWAP1 PUSH1 0x1 ADD SWAP1 PUSH1 0x20 ADD DUP1 DUP4 GT PUSH2 0x1FD8 JUMPI DUP3 SWAP1 SUB PUSH1 0x1F AND DUP3 ADD SWAP2 JUMPDEST POP POP POP POP POP DUP2 MSTORE PUSH1 0x20 ADD PUSH1 0x4 PUSH0 DUP5 PUSH0 SHL DUP2 MSTORE PUSH1 0x20 ADD SWAP1 DUP2 MSTORE PUSH1 0x20 ADD PUSH0 KECCAK256 PUSH1 0x1 ADD DUP1 SLOAD PUSH2 0x2020 SWAP1 PUSH2 0x3003 JUMP JUMPDEST DUP1 PUSH1 0x1F ADD PUSH1 0x20 DUP1 SWAP2 DIV MUL PUSH1 0x20 ADD PUSH1 0x40 MLOAD SWAP1 DUP2 ADD PUSH1 0x40 MSTORE DUP1 SWAP3 SWAP2 SWAP1 DUP2 DUP2 MSTORE PUSH1 0x20 ADD DUP3 DUP1 SLOAD PUSH2 0x204C SWAP1 PUSH2 0x3003 JUMP JUMPDEST DUP1 ISZERO PUSH2 0x2097 JUMPI DUP1 PUSH1 0x1F LT PUSH2 0x206E JUMPI PUSH2 0x100 DUP1 DUP4 SLOAD DIV MUL DUP4 MSTORE SWAP2 PUSH1 0x20 ADD SWAP2 PUSH2 0x2097 JUMP JUMPDEST DUP3 ADD SWAP2 SWAP1 PUSH0 MSTORE PUSH1 0x20 PUSH0 KECCAK256 SWAP1 JUMPDEST DUP2 SLOAD DUP2 MSTORE SWAP1 PUSH1 0x1 ADD SWAP1 PUSH1 0x20 ADD DUP1 DUP4 GT PUSH2 0x207A JUMPI DUP3 SWAP1 SUB PUSH1 0x1F AND DUP3 ADD SWAP2 JUMPDEST POP POP POP SWAP2 DUP4 MSTORE POP POP PUSH0 DUP4 DUP2 MSTORE PUSH1 0x4 PUSH1 0x20 SWAP1 DUP2 MSTORE PUSH1 0x40 DUP1 DUP4 KECCAK256 PUSH1 0x2 ADD DUP1 SLOAD DUP3 MLOAD DUP2 DUP6 MUL DUP2 ADD DUP6 ADD SWAP1 SWAP4 MSTORE DUP1 DUP4 MSTORE SWAP5 DUP4 ADD SWAP5 SWAP2 SWAP4 SWAP1 SWAP3 DUP5 ADD JUMPDEST DUP3 DUP3 LT ISZERO PUSH2 0x2176 JUMPI DUP4 DUP3 SWAP1 PUSH0 MSTORE PUSH1 0x20 PUSH0 KECCAK256 ADD DUP1 SLOAD PUSH2 0x20EB SWAP1 PUSH2 0x3003 JUMP JUMPDEST DUP1 PUSH1 0x1F ADD PUSH1 0x20 DUP1 SWAP2 DIV MUL PUSH1 0x20 ADD PUSH1 0x40 MLOAD SWAP1 DUP2 ADD PUSH1 0x40 MSTORE DUP1 SWAP3 SWAP2 SWAP1 DUP2 DUP2 MSTORE PUSH1 0x20 ADD DUP3 DUP1 SLOAD PUSH2 0x2117 SWAP1 PUSH2 0x3003 JUMP JUMPDEST DUP1 ISZERO PUSH2 0x2162 JUMPI DUP1 PUSH1 0x1F LT PUSH2 0x2139 JUMPI PUSH2 0x100 DUP1 DUP4 SLOAD DIV MUL DUP4 MSTORE SWAP2 PUSH1 0x20 ADD SWAP2 PUSH2 0x2162 JUMP JUMPDEST DUP3 ADD SWAP2 SWAP1 PUSH0 MSTORE PUSH1 0x20 PUSH0 KECCAK256 SWAP1 JUMPDEST DUP2 SLOAD DUP2 MSTORE SWAP1 PUSH1 0x1 ADD SWAP1 PUSH1 0x20 ADD DUP1 DUP4 GT PUSH2 0x2145 JUMPI DUP3 SWAP1 SUB PUSH1 0x1F AND DUP3 ADD SWAP2 JUMPDEST POP POP POP POP POP DUP2 MSTORE PUSH1 0x20 ADD SWAP1 PUSH1 0x1 ADD SWAP1 PUSH2 0x20CE JUMP JUMPDEST POP POP POP SWAP1 DUP3 MSTORE POP PUSH0 DUP4 DUP2 MSTORE PUSH1 0x4 PUSH1 0x20 DUP2 DUP2 MSTORE PUSH1 0x40 DUP1 DUP5 KECCAK256 PUSH1 0x3 DUP2 ADD SLOAD DUP4 DUP8 ADD MSTORE DUP1 DUP5 ADD SLOAD DUP3 DUP8 ADD MSTORE SWAP4 DUP8 SWAP1 MSTORE SWAP2 DUP2 MSTORE PUSH1 0x5 SWAP1 SWAP3 ADD DUP1 SLOAD DUP3 MLOAD DUP2 DUP6 MUL DUP2 ADD DUP6 ADD SWAP1 SWAP4 MSTORE DUP1 DUP4 MSTORE PUSH1 0x60 SWAP1 SWAP5 ADD SWAP4 SWAP2 SWAP3 SWAP1 SWAP2 SWAP1 DUP4 ADD DUP3 DUP3 DUP1 ISZERO PUSH2 0x21FD JUMPI PUSH1 0x20 MUL DUP3 ADD SWAP2 SWAP1 PUSH0 MSTORE PUSH1 0x20 PUSH0 KECCAK256 SWAP1 JUMPDEST DUP2 SLOAD PUSH1 0x1 PUSH1 0x1 PUSH1 0xA0 SHL SUB AND DUP2 MSTORE PUSH1 0x1 SWAP1 SWAP2 ADD SWAP1 PUSH1 0x20 ADD DUP1 DUP4 GT PUSH2 0x21DF JUMPI JUMPDEST POP POP POP SWAP2 DUP4 MSTORE POP POP PUSH0 DUP4 DUP2 MSTORE PUSH1 0x4 PUSH1 0x20 DUP2 DUP2 MSTORE PUSH1 0x40 DUP1 DUP5 KECCAK256 PUSH1 0x7 DUP2 ADD SLOAD DUP4 DUP8 ADD MSTORE PUSH1 0x9 DUP2 ADD SLOAD SWAP2 DUP7 ADD SWAP2 SWAP1 SWAP2 MSTORE PUSH1 0x6 DUP2 ADD SLOAD PUSH1 0x1 PUSH1 0x1 PUSH1 0xA0 SHL SUB AND PUSH1 0x60 DUP7 ADD MSTORE PUSH1 0xA DUP2 ADD SLOAD PUSH1 0xFF AND ISZERO ISZERO PUSH1 0x80 DUP7 ADD MSTORE PUSH1 0xB DUP2 ADD SLOAD PUSH1 0xA0 DUP7 ADD MSTORE SWAP3 DUP7 SWAP1 MSTORE MSTORE PUSH1 0xC ADD SLOAD PUSH1 0xC0 SWAP1 SWAP2 ADD MSTORE DUP4 PUSH2 0x2271 PUSH1 0x1 DUP5 PUSH2 0x3247 JUMP JUMPDEST DUP2 MLOAD DUP2 LT PUSH2 0x2281 JUMPI PUSH2 0x2281 PUSH2 0x3160 JUMP JUMPDEST PUSH1 0x20 MUL PUSH1 0x20 ADD ADD DUP2 SWAP1 MSTORE POP JUMPDEST DUP1 PUSH2 0x2297 DUP2 PUSH2 0x3188 JUMP JUMPDEST SWAP2 POP POP PUSH2 0x1F22 JUMP JUMPDEST POP SWAP1 SWAP5 SWAP1 SWAP4 POP SWAP2 POP POP JUMP JUMPDEST PUSH0 SLOAD PUSH1 0x1 PUSH1 0x1 PUSH1 0xA0 SHL SUB AND CALLER EQ PUSH2 0xDDE JUMPI PUSH1 0x40 MLOAD PUSH4 0x118CDAA7 PUSH1 0xE0 SHL DUP2 MSTORE CALLER PUSH1 0x4 DUP3 ADD MSTORE PUSH1 0x24 ADD PUSH2 0xB8A JUMP JUMPDEST PUSH2 0x22DE PUSH2 0x23BB JUMP JUMPDEST PUSH0 DUP1 SLOAD PUSH1 0xFF PUSH1 0xA0 SHL NOT AND SWAP1 SSTORE PUSH32 0x5DB9EE0A495BF2E6FF9C91A7834C1BA4FDD244A5E8AA4E537BD38AEAE4B073AA CALLER JUMPDEST PUSH1 0x40 MLOAD PUSH1 0x1 PUSH1 0x1 PUSH1 0xA0 SHL SUB SWAP1 SWAP2 AND DUP2 MSTORE PUSH1 0x20 ADD PUSH1 0x40 MLOAD DUP1 SWAP2 SUB SWAP1 LOG1 JUMP JUMPDEST PUSH0 DUP1 SLOAD PUSH1 0x1 PUSH1 0x1 PUSH1 0xA0 SHL SUB DUP4 DUP2 AND PUSH1 0x1 PUSH1 0x1 PUSH1 0xA0 SHL SUB NOT DUP4 AND DUP2 OR DUP5 SSTORE PUSH1 0x40 MLOAD SWAP2 SWAP1 SWAP3 AND SWAP3 DUP4 SWAP2 PUSH32 0x8BE0079C531659141344CD1FD0A4F28419497F9722A3DAAFE3B4186F6B6457E0 SWAP2 SWAP1 LOG3 POP POP JUMP JUMPDEST PUSH2 0x2381 PUSH2 0x23E4 JUMP JUMPDEST PUSH0 DUP1 SLOAD PUSH1 0xFF PUSH1 0xA0 SHL NOT AND PUSH1 0x1 PUSH1 0xA0 SHL OR SWAP1 SSTORE PUSH32 0x62E78CEA01BEE320CD4E420270B5EA74000D11B0C9F74754EBDBFC544B05A258 PUSH2 0x230D CALLER SWAP1 JUMP JUMPDEST PUSH0 SLOAD PUSH1 0x1 PUSH1 0xA0 SHL SWAP1 DIV PUSH1 0xFF AND PUSH2 0xDDE JUMPI PUSH1 0x40 MLOAD PUSH4 0x8DFC202B PUSH1 0xE0 SHL DUP2 MSTORE PUSH1 0x4 ADD PUSH1 0x40 MLOAD DUP1 SWAP2 SUB SWAP1 REVERT JUMPDEST PUSH0 SLOAD PUSH1 0x1 PUSH1 0xA0 SHL SWAP1 DIV PUSH1 0xFF AND ISZERO PUSH2 0xDDE JUMPI PUSH1 0x40 MLOAD PUSH4 0xD93C0665 PUSH1 0xE0 SHL DUP2 MSTORE PUSH1 0x4 ADD PUSH1 0x40 MLOAD DUP1 SWAP2 SUB SWAP1 REVERT JUMPDEST DUP3 DUP1 SLOAD DUP3 DUP3 SSTORE SWAP1 PUSH0 MSTORE PUSH1 0x20 PUSH0 KECCAK256 SWAP1 DUP2 ADD SWAP3 DUP3 ISZERO PUSH2 0x2452 JUMPI SWAP2 PUSH1 0x20 MUL DUP3 ADD JUMPDEST DUP3 DUP2 GT ISZERO PUSH2 0x2452 JUMPI DUP3 MLOAD DUP3 SWAP1 PUSH2 0x2442 SWAP1 DUP3 PUSH2 0x3086 JUMP JUMPDEST POP SWAP2 PUSH1 0x20 ADD SWAP2 SWAP1 PUSH1 0x1 ADD SWAP1 PUSH2 0x242C JUMP JUMPDEST POP PUSH2 0x245E SWAP3 SWAP2 POP PUSH2 0x24F8 JUMP JUMPDEST POP SWAP1 JUMP JUMPDEST DUP3 DUP1 SLOAD DUP3 DUP3 SSTORE SWAP1 PUSH0 MSTORE PUSH1 0x20 PUSH0 KECCAK256 SWAP1 DUP2 ADD SWAP3 DUP3 ISZERO PUSH2 0x24B5 JUMPI SWAP2 PUSH1 0x20 MUL DUP3 ADD JUMPDEST DUP3 DUP2 GT ISZERO PUSH2 0x24B5 JUMPI DUP3 MLOAD DUP3 SLOAD PUSH1 0x1 PUSH1 0x1 PUSH1 0xA0 SHL SUB NOT AND PUSH1 0x1 PUSH1 0x1 PUSH1 0xA0 SHL SUB SWAP1 SWAP2 AND OR DUP3 SSTORE PUSH1 0x20 SWAP1 SWAP3 ADD SWAP2 PUSH1 0x1 SWAP1 SWAP2 ADD SWAP1 PUSH2 0x2480 JUMP JUMPDEST POP PUSH2 0x245E SWAP3 SWAP2 POP PUSH2 0x2514 JUMP JUMPDEST POP DUP1 SLOAD PUSH2 0x24CD SWAP1 PUSH2 0x3003 JUMP JUMPDEST PUSH0 DUP3 SSTORE DUP1 PUSH1 0x1F LT PUSH2 0x24DC JUMPI POP POP JUMP JUMPDEST PUSH1 0x1F ADD PUSH1 0x20 SWAP1 DIV SWAP1 PUSH0 MSTORE PUSH1 0x20 PUSH0 KECCAK256 SWAP1 DUP2 ADD SWAP1 PUSH2 0x1CD9 SWAP2 SWAP1 PUSH2 0x2514 JUMP JUMPDEST DUP1 DUP3 GT ISZERO PUSH2 0x245E JUMPI PUSH0 PUSH2 0x250B DUP3 DUP3 PUSH2 0x24C1 JUMP JUMPDEST POP PUSH1 0x1 ADD PUSH2 0x24F8 JUMP JUMPDEST JUMPDEST DUP1 DUP3 GT ISZERO PUSH2 0x245E JUMPI PUSH0 DUP2 SSTORE PUSH1 0x1 ADD PUSH2 0x2515 JUMP JUMPDEST PUSH0 PUSH1 0x20 DUP3 DUP5 SUB SLT ISZERO PUSH2 0x2538 JUMPI PUSH0 PUSH0 REVERT JUMPDEST POP CALLDATALOAD SWAP2 SWAP1 POP JUMP JUMPDEST PUSH0 DUP2 MLOAD DUP1 DUP5 MSTORE DUP1 PUSH1 0x20 DUP5 ADD PUSH1 0x20 DUP7 ADD MCOPY PUSH0 PUSH1 0x20 DUP3 DUP7 ADD ADD MSTORE PUSH1 0x20 PUSH1 0x1F NOT PUSH1 0x1F DUP4 ADD AND DUP6 ADD ADD SWAP2 POP POP SWAP3 SWAP2 POP POP JUMP JUMPDEST DUP6 DUP2 MSTORE PUSH1 0xA0 PUSH1 0x20 DUP3 ADD MSTORE PUSH0 PUSH2 0x2585 PUSH1 0xA0 DUP4 ADD DUP8 PUSH2 0x253F JUMP JUMPDEST PUSH1 0xFF SWAP6 SWAP1 SWAP6 AND PUSH1 0x40 DUP4 ADD MSTORE POP PUSH1 0x1 PUSH1 0x1 PUSH1 0xA0 SHL SUB SWAP3 SWAP1 SWAP3 AND PUSH1 0x60 DUP4 ADD MSTORE PUSH1 0x80 SWAP1 SWAP2 ADD MSTORE SWAP3 SWAP2 POP POP JUMP JUMPDEST PUSH4 0x4E487B71 PUSH1 0xE0 SHL PUSH0 MSTORE PUSH1 0x41 PUSH1 0x4 MSTORE PUSH1 0x24 PUSH0 REVERT JUMPDEST PUSH1 0x40 MLOAD PUSH1 0x1F DUP3 ADD PUSH1 0x1F NOT AND DUP2 ADD PUSH1 0x1 PUSH1 0x1 PUSH1 0x40 SHL SUB DUP2 GT DUP3 DUP3 LT OR ISZERO PUSH2 0x25EA JUMPI PUSH2 0x25EA PUSH2 0x25AE JUMP JUMPDEST PUSH1 0x40 MSTORE SWAP2 SWAP1 POP JUMP JUMPDEST PUSH0 DUP3 PUSH1 0x1F DUP4 ADD SLT PUSH2 0x2601 JUMPI PUSH0 PUSH0 REVERT JUMPDEST DUP2 CALLDATALOAD PUSH1 0x20 DUP4 ADD PUSH0 PUSH0 PUSH1 0x1 PUSH1 0x1 PUSH1 0x40 SHL SUB DUP5 GT ISZERO PUSH2 0x2620 JUMPI PUSH2 0x2620 PUSH2 0x25AE JUMP JUMPDEST POP PUSH1 0x1F DUP4 ADD PUSH1 0x1F NOT AND PUSH1 0x20 ADD PUSH2 0x2635 DUP2 PUSH2 0x25C2 JUMP JUMPDEST SWAP2 POP POP DUP3 DUP2 MSTORE DUP6 DUP4 DUP4 ADD GT ISZERO PUSH2 0x2649 JUMPI PUSH0 PUSH0 REVERT JUMPDEST DUP3 DUP3 PUSH1 0x20 DUP4 ADD CALLDATACOPY PUSH0 SWAP3 DUP2 ADD PUSH1 0x20 ADD SWAP3 SWAP1 SWAP3 MSTORE POP SWAP4 SWAP3 POP POP POP JUMP JUMPDEST PUSH0 PUSH0 PUSH0 PUSH1 0x60 DUP5 DUP7 SUB SLT ISZERO PUSH2 0x2675 JUMPI PUSH0 PUSH0 REVERT JUMPDEST DUP4 CALLDATALOAD SWAP3 POP PUSH1 0x20 DUP5 ADD CALLDATALOAD SWAP2 POP PUSH1 0x40 DUP5 ADD CALLDATALOAD PUSH1 0x1 PUSH1 0x1 PUSH1 0x40 SHL SUB DUP2 GT ISZERO PUSH2 0x2698 JUMPI PUSH0 PUSH0 REVERT JUMPDEST PUSH2 0x26A4 DUP7 DUP3 DUP8 ADD PUSH2 0x25F2 JUMP JUMPDEST SWAP2 POP POP SWAP3 POP SWAP3 POP SWAP3 JUMP JUMPDEST PUSH0 DUP3 DUP3 MLOAD DUP1 DUP6 MSTORE PUSH1 0x20 DUP6 ADD SWAP5 POP PUSH1 0x20 DUP2 PUSH1 0x5 SHL DUP4 ADD ADD PUSH1 0x20 DUP6 ADD PUSH0 JUMPDEST DUP4 DUP2 LT ISZERO PUSH2 0x26FC JUMPI PUSH1 0x1F NOT DUP6 DUP5 SUB ADD DUP9 MSTORE PUSH2 0x26E6 DUP4 DUP4 MLOAD PUSH2 0x253F JUMP JUMPDEST PUSH1 0x20 SWAP9 DUP10 ADD SWAP9 SWAP1 SWAP4 POP SWAP2 SWAP1 SWAP2 ADD SWAP1 PUSH1 0x1 ADD PUSH2 0x26CA JUMP JUMPDEST POP SWAP1 SWAP7 SWAP6 POP POP POP POP POP POP JUMP JUMPDEST PUSH0 DUP2 MLOAD DUP1 DUP5 MSTORE PUSH1 0x20 DUP5 ADD SWAP4 POP PUSH1 0x20 DUP4 ADD PUSH0 JUMPDEST DUP3 DUP2 LT ISZERO PUSH2 0x2741 JUMPI DUP2 MLOAD PUSH1 0x1 PUSH1 0x1 PUSH1 0xA0 SHL SUB AND DUP7 MSTORE PUSH1 0x20 SWAP6 DUP7 ADD SWAP6 SWAP1 SWAP2 ADD SWAP1 PUSH1 0x1 ADD PUSH2 0x271A JUMP JUMPDEST POP SWAP4 SWAP5 SWAP4 POP POP POP POP JUMP JUMPDEST PUSH1 0x20 DUP2 MSTORE PUSH0 DUP3 MLOAD PUSH2 0x1C0 PUSH1 0x20 DUP5 ADD MSTORE PUSH2 0x2768 PUSH2 0x1E0 DUP5 ADD DUP3 PUSH2 0x253F JUMP JUMPDEST SWAP1 POP PUSH1 0x20 DUP5 ADD MLOAD PUSH1 0x1F NOT DUP5 DUP4 SUB ADD PUSH1 0x40 DUP6 ADD MSTORE PUSH2 0x2785 DUP3 DUP3 PUSH2 0x253F JUMP JUMPDEST SWAP2 POP POP PUSH1 0x40 DUP5 ADD MLOAD PUSH1 0x1F NOT DUP5 DUP4 SUB ADD PUSH1 0x60 DUP6 ADD MSTORE PUSH2 0x27A3 DUP3 DUP3 PUSH2 0x26AE JUMP JUMPDEST SWAP2 POP POP PUSH1 0x60 DUP5 ADD MLOAD PUSH1 0x80 DUP5 ADD MSTORE PUSH1 0x80 DUP5 ADD MLOAD PUSH1 0xA0 DUP5 ADD MSTORE PUSH1 0xA0 DUP5 ADD MLOAD PUSH1 0x1F NOT DUP5 DUP4 SUB ADD PUSH1 0xC0 DUP6 ADD MSTORE PUSH2 0x27D5 DUP3 DUP3 PUSH2 0x2708 JUMP JUMPDEST SWAP2 POP POP PUSH1 0xC0 DUP5 ADD MLOAD PUSH2 0x27F2 PUSH1 0xE0 DUP6 ADD DUP3 PUSH1 0x1 PUSH1 0x1 PUSH1 0xA0 SHL SUB AND SWAP1 MSTORE JUMP JUMPDEST POP PUSH1 0xE0 DUP5 ADD MLOAD PUSH2 0x100 DUP5 ADD MSTORE PUSH2 0x100 DUP5 ADD MLOAD PUSH2 0x2813 PUSH2 0x120 DUP6 ADD DUP3 ISZERO ISZERO SWAP1 MSTORE JUMP JUMPDEST POP PUSH2 0x120 DUP5 ADD MLOAD PUSH1 0x1 PUSH1 0x1 PUSH1 0xA0 SHL SUB DUP2 AND PUSH2 0x140 DUP6 ADD MSTORE POP PUSH2 0x140 DUP5 ADD MLOAD PUSH2 0x160 DUP5 ADD MSTORE PUSH2 0x160 DUP5 ADD MLOAD PUSH2 0x284C PUSH2 0x180 DUP6 ADD DUP3 ISZERO ISZERO SWAP1 MSTORE JUMP JUMPDEST POP PUSH2 0x180 DUP5 ADD MLOAD PUSH2 0x1A0 DUP5 ADD MSTORE PUSH2 0x1A0 DUP5 ADD MLOAD PUSH2 0x1C0 DUP5 ADD MSTORE DUP1 SWAP2 POP POP SWAP3 SWAP2 POP POP JUMP JUMPDEST PUSH1 0x1 PUSH1 0x1 PUSH1 0xA0 SHL SUB DUP2 AND DUP2 EQ PUSH2 0x1CD9 JUMPI PUSH0 PUSH0 REVERT JUMPDEST DUP1 CALLDATALOAD PUSH2 0x288E DUP2 PUSH2 0x286F JUMP JUMPDEST SWAP2 SWAP1 POP JUMP JUMPDEST PUSH0 PUSH0 PUSH1 0x40 DUP4 DUP6 SUB SLT ISZERO PUSH2 0x28A4 JUMPI PUSH0 PUSH0 REVERT JUMPDEST DUP3 CALLDATALOAD SWAP2 POP PUSH1 0x20 DUP4 ADD CALLDATALOAD PUSH2 0x28B6 DUP2 PUSH2 0x286F JUMP JUMPDEST DUP1 SWAP2 POP POP SWAP3 POP SWAP3 SWAP1 POP JUMP JUMPDEST PUSH0 PUSH1 0x1 PUSH1 0x1 PUSH1 0x40 SHL SUB DUP3 GT ISZERO PUSH2 0x28D9 JUMPI PUSH2 0x28D9 PUSH2 0x25AE JUMP JUMPDEST POP PUSH1 0x5 SHL PUSH1 0x20 ADD SWAP1 JUMP JUMPDEST PUSH0 DUP3 PUSH1 0x1F DUP4 ADD SLT PUSH2 0x28F2 JUMPI PUSH0 PUSH0 REVERT JUMPDEST DUP2 CALLDATALOAD PUSH2 0x2905 PUSH2 0x2900 DUP3 PUSH2 0x28C1 JUMP JUMPDEST PUSH2 0x25C2 JUMP JUMPDEST DUP1 DUP3 DUP3 MSTORE PUSH1 0x20 DUP3 ADD SWAP2 POP PUSH1 0x20 DUP4 PUSH1 0x5 SHL DUP7 ADD ADD SWAP3 POP DUP6 DUP4 GT ISZERO PUSH2 0x2926 JUMPI PUSH0 PUSH0 REVERT JUMPDEST PUSH1 0x20 DUP6 ADD JUMPDEST DUP4 DUP2 LT ISZERO PUSH2 0x2966 JUMPI DUP1 CALLDATALOAD PUSH1 0x1 PUSH1 0x1 PUSH1 0x40 SHL SUB DUP2 GT ISZERO PUSH2 0x2948 JUMPI PUSH0 PUSH0 REVERT JUMPDEST PUSH2 0x2957 DUP9 PUSH1 0x20 DUP4 DUP11 ADD ADD PUSH2 0x25F2 JUMP JUMPDEST DUP5 MSTORE POP PUSH1 0x20 SWAP3 DUP4 ADD SWAP3 ADD PUSH2 0x292B JUMP JUMPDEST POP SWAP6 SWAP5 POP POP POP POP POP JUMP JUMPDEST PUSH0 DUP3 PUSH1 0x1F DUP4 ADD SLT PUSH2 0x297F JUMPI PUSH0 PUSH0 REVERT JUMPDEST DUP2 CALLDATALOAD PUSH2 0x298D PUSH2 0x2900 DUP3 PUSH2 0x28C1 JUMP JUMPDEST DUP1 DUP3 DUP3 MSTORE PUSH1 0x20 DUP3 ADD SWAP2 POP PUSH1 0x20 DUP4 PUSH1 0x5 SHL DUP7 ADD ADD SWAP3 POP DUP6 DUP4 GT ISZERO PUSH2 0x29AE JUMPI PUSH0 PUSH0 REVERT JUMPDEST PUSH1 0x20 DUP6 ADD JUMPDEST DUP4 DUP2 LT ISZERO PUSH2 0x2966 JUMPI DUP1 CALLDATALOAD PUSH2 0x29C6 DUP2 PUSH2 0x286F JUMP JUMPDEST DUP4 MSTORE PUSH1 0x20 SWAP3 DUP4 ADD SWAP3 ADD PUSH2 0x29B3 JUMP JUMPDEST DUP1 CALLDATALOAD DUP1 ISZERO ISZERO DUP2 EQ PUSH2 0x288E JUMPI PUSH0 PUSH0 REVERT JUMPDEST PUSH0 PUSH0 PUSH0 PUSH0 PUSH0 PUSH0 PUSH0 PUSH0 PUSH0 PUSH0 PUSH2 0x140 DUP12 DUP14 SUB SLT ISZERO PUSH2 0x29FD JUMPI PUSH0 PUSH0 REVERT JUMPDEST DUP11 CALLDATALOAD SWAP10 POP PUSH1 0x20 DUP12 ADD CALLDATALOAD PUSH1 0x1 PUSH1 0x1 PUSH1 0x40 SHL SUB DUP2 GT ISZERO PUSH2 0x2A19 JUMPI PUSH0 PUSH0 REVERT JUMPDEST PUSH2 0x2A25 DUP14 DUP3 DUP15 ADD PUSH2 0x25F2 JUMP JUMPDEST SWAP10 POP POP PUSH1 0x40 DUP12 ADD CALLDATALOAD PUSH1 0x1 PUSH1 0x1 PUSH1 0x40 SHL SUB DUP2 GT ISZERO PUSH2 0x2A40 JUMPI PUSH0 PUSH0 REVERT JUMPDEST PUSH2 0x2A4C DUP14 DUP3 DUP15 ADD PUSH2 0x25F2 JUMP JUMPDEST SWAP9 POP POP PUSH1 0x60 DUP12 ADD CALLDATALOAD PUSH1 0x1 PUSH1 0x1 PUSH1 0x40 SHL SUB DUP2 GT ISZERO PUSH2 0x2A67 JUMPI PUSH0 PUSH0 REVERT JUMPDEST PUSH2 0x2A73 DUP14 DUP3 DUP15 ADD PUSH2 0x28E3 JUMP JUMPDEST SWAP8 POP POP PUSH1 0x80 DUP12 ADD CALLDATALOAD PUSH1 0x1 PUSH1 0x1 PUSH1 0x40 SHL SUB DUP2 GT ISZERO PUSH2 0x2A8E JUMPI PUSH0 PUSH0 REVERT JUMPDEST PUSH2 0x2A9A DUP14 DUP3 DUP15 ADD PUSH2 0x2970 JUMP JUMPDEST SWAP7 POP POP PUSH1 0xA0 DUP12 ADD CALLDATALOAD SWAP5 POP PUSH2 0x2AB0 PUSH1 0xC0 DUP13 ADD PUSH2 0x29D4 JUMP JUMPDEST SWAP4 POP PUSH2 0x2ABE PUSH1 0xE0 DUP13 ADD PUSH2 0x2883 JUMP JUMPDEST SWAP3 POP PUSH2 0x100 DUP12 ADD CALLDATALOAD SWAP2 POP PUSH2 0x2AD5 PUSH2 0x120 DUP13 ADD PUSH2 0x29D4 JUMP JUMPDEST SWAP1 POP SWAP3 SWAP6 SWAP9 SWAP12 SWAP2 SWAP5 SWAP8 SWAP11 POP SWAP3 SWAP6 SWAP9 POP JUMP JUMPDEST PUSH0 PUSH0 PUSH1 0x40 DUP4 DUP6 SUB SLT ISZERO PUSH2 0x2AF7 JUMPI PUSH0 PUSH0 REVERT JUMPDEST DUP3 CALLDATALOAD PUSH2 0x2B02 DUP2 PUSH2 0x286F JUMP JUMPDEST SWAP5 PUSH1 0x20 SWAP4 SWAP1 SWAP4 ADD CALLDATALOAD SWAP4 POP POP POP JUMP JUMPDEST PUSH0 PUSH1 0x20 DUP3 DUP5 SUB SLT ISZERO PUSH2 0x2B20 JUMPI PUSH0 PUSH0 REVERT JUMPDEST DUP2 CALLDATALOAD PUSH2 0x751 DUP2 PUSH2 0x286F JUMP JUMPDEST PUSH1 0x20 DUP1 DUP3 MSTORE DUP3 MLOAD DUP3 DUP3 ADD DUP2 SWAP1 MSTORE PUSH0 SWAP2 DUP5 ADD SWAP1 PUSH1 0x40 DUP5 ADD SWAP1 DUP4 JUMPDEST DUP2 DUP2 LT ISZERO PUSH2 0x2B62 JUMPI DUP4 MLOAD DUP4 MSTORE PUSH1 0x20 SWAP4 DUP5 ADD SWAP4 SWAP1 SWAP3 ADD SWAP2 PUSH1 0x1 ADD PUSH2 0x2B44 JUMP JUMPDEST POP SWAP1 SWAP6 SWAP5 POP POP POP POP POP JUMP JUMPDEST PUSH0 PUSH0 PUSH1 0x40 DUP4 DUP6 SUB SLT ISZERO PUSH2 0x2B7E JUMPI PUSH0 PUSH0 REVERT JUMPDEST POP POP DUP1 CALLDATALOAD SWAP3 PUSH1 0x20 SWAP1 SWAP2 ADD CALLDATALOAD SWAP2 POP JUMP JUMPDEST PUSH0 PUSH0 PUSH0 PUSH0 PUSH0 PUSH1 0xA0 DUP7 DUP9 SUB SLT ISZERO PUSH2 0x2BA1 JUMPI PUSH0 PUSH0 REVERT JUMPDEST DUP6 CALLDATALOAD SWAP5 POP PUSH1 0x20 DUP7 ADD CALLDATALOAD PUSH1 0x1 PUSH1 0x1 PUSH1 0x40 SHL SUB DUP2 GT ISZERO PUSH2 0x2BBD JUMPI PUSH0 PUSH0 REVERT JUMPDEST PUSH2 0x2BC9 DUP9 DUP3 DUP10 ADD PUSH2 0x25F2 JUMP JUMPDEST SWAP5 POP POP PUSH1 0x40 DUP7 ADD CALLDATALOAD PUSH1 0xFF DUP2 AND DUP2 EQ PUSH2 0x2BDF JUMPI PUSH0 PUSH0 REVERT JUMPDEST SWAP3 POP PUSH2 0x2BED PUSH1 0x60 DUP8 ADD PUSH2 0x29D4 JUMP JUMPDEST SWAP2 POP PUSH1 0x80 DUP7 ADD CALLDATALOAD PUSH1 0x1 PUSH1 0x1 PUSH1 0x40 SHL SUB DUP2 GT ISZERO PUSH2 0x2C07 JUMPI PUSH0 PUSH0 REVERT JUMPDEST PUSH2 0x2C13 DUP9 DUP3 DUP10 ADD PUSH2 0x25F2 JUMP JUMPDEST SWAP2 POP POP SWAP3 SWAP6 POP SWAP3 SWAP6 SWAP1 SWAP4 POP JUMP JUMPDEST PUSH0 PUSH0 PUSH0 PUSH0 PUSH0 PUSH1 0xA0 DUP7 DUP9 SUB SLT ISZERO PUSH2 0x2C34 JUMPI PUSH0 PUSH0 REVERT JUMPDEST DUP6 CALLDATALOAD PUSH2 0x2C3F DUP2 PUSH2 0x286F JUMP JUMPDEST SWAP5 POP PUSH1 0x20 DUP7 ADD CALLDATALOAD PUSH2 0x2C4F DUP2 PUSH2 0x286F JUMP JUMPDEST SWAP4 POP PUSH1 0x40 DUP7 ADD CALLDATALOAD SWAP3 POP PUSH2 0x2BED PUSH1 0x60 DUP8 ADD PUSH2 0x29D4 JUMP JUMPDEST PUSH1 0x20 DUP2 MSTORE PUSH0 PUSH2 0x751 PUSH1 0x20 DUP4 ADD DUP5 PUSH2 0x253F JUMP JUMPDEST PUSH0 PUSH0 PUSH0 PUSH0 PUSH0 PUSH0 PUSH0 PUSH0 PUSH0 PUSH0 PUSH0 PUSH2 0x160 DUP13 DUP15 SUB SLT ISZERO PUSH2 0x2C91 JUMPI PUSH0 PUSH0 REVERT JUMPDEST DUP12 CALLDATALOAD PUSH1 0x1 PUSH1 0x1 PUSH1 0x40 SHL SUB DUP2 GT ISZERO PUSH2 0x2CA6 JUMPI PUSH0 PUSH0 REVERT JUMPDEST PUSH2 0x2CB2 DUP15 DUP3 DUP16 ADD PUSH2 0x25F2 JUMP JUMPDEST SWAP12 POP POP PUSH1 0x20 DUP13 ADD CALLDATALOAD PUSH1 0x1 PUSH1 0x1 PUSH1 0x40 SHL SUB DUP2 GT ISZERO PUSH2 0x2CCD JUMPI PUSH0 PUSH0 REVERT JUMPDEST PUSH2 0x2CD9 DUP15 DUP3 DUP16 ADD PUSH2 0x25F2 JUMP JUMPDEST SWAP11 POP POP PUSH1 0x40 DUP13 ADD CALLDATALOAD PUSH1 0x1 PUSH1 0x1 PUSH1 0x40 SHL SUB DUP2 GT ISZERO PUSH2 0x2CF4 JUMPI PUSH0 PUSH0 REVERT JUMPDEST PUSH2 0x2D00 DUP15 DUP3 DUP16 ADD PUSH2 0x28E3 JUMP JUMPDEST SWAP10 POP POP PUSH1 0x60 DUP13 ADD CALLDATALOAD SWAP8 POP PUSH1 0x80 DUP13 ADD CALLDATALOAD SWAP7 POP PUSH1 0xA0 DUP13 ADD CALLDATALOAD PUSH1 0x1 PUSH1 0x1 PUSH1 0x40 SHL SUB DUP2 GT ISZERO PUSH2 0x2D29 JUMPI PUSH0 PUSH0 REVERT JUMPDEST PUSH2 0x2D35 DUP15 DUP3 DUP16 ADD PUSH2 0x2970 JUMP JUMPDEST SWAP7 POP POP PUSH1 0xC0 DUP13 ADD CALLDATALOAD SWAP5 POP PUSH2 0x2D4B PUSH1 0xE0 DUP14 ADD PUSH2 0x29D4 JUMP JUMPDEST SWAP4 POP PUSH2 0x2D5A PUSH2 0x100 DUP14 ADD PUSH2 0x2883 JUMP JUMPDEST SWAP3 POP PUSH2 0x120 DUP13 ADD CALLDATALOAD SWAP2 POP PUSH2 0x2D71 PUSH2 0x140 DUP14 ADD PUSH2 0x29D4 JUMP JUMPDEST SWAP1 POP SWAP3 SWAP6 SWAP9 SWAP12 POP SWAP3 SWAP6 SWAP9 SWAP12 SWAP1 SWAP4 SWAP7 SWAP10 POP JUMP JUMPDEST PUSH0 PUSH1 0x20 DUP3 ADD PUSH1 0x20 DUP4 MSTORE DUP1 DUP5 MLOAD DUP1 DUP4 MSTORE PUSH1 0x40 DUP6 ADD SWAP2 POP PUSH1 0x40 DUP2 PUSH1 0x5 SHL DUP7 ADD ADD SWAP3 POP PUSH1 0x20 DUP7 ADD PUSH0 JUMPDEST DUP3 DUP2 LT ISZERO PUSH2 0x2E25 JUMPI PUSH1 0x3F NOT DUP8 DUP7 SUB ADD DUP5 MSTORE DUP2 MLOAD DUP1 MLOAD DUP7 MSTORE PUSH1 0x20 DUP2 ADD MLOAD PUSH1 0x20 DUP8 ADD MSTORE PUSH1 0x40 DUP2 ADD MLOAD PUSH1 0xC0 PUSH1 0x40 DUP9 ADD MSTORE PUSH2 0x2DE3 PUSH1 0xC0 DUP9 ADD DUP3 PUSH2 0x253F JUMP JUMPDEST PUSH1 0x60 DUP4 DUP2 ADD MLOAD PUSH1 0xFF AND SWAP1 DUP10 ADD MSTORE PUSH1 0x80 DUP1 DUP5 ADD MLOAD PUSH1 0x1 PUSH1 0x1 PUSH1 0xA0 SHL SUB AND SWAP1 DUP10 ADD MSTORE PUSH1 0xA0 SWAP3 DUP4 ADD MLOAD SWAP3 SWAP1 SWAP8 ADD SWAP2 SWAP1 SWAP2 MSTORE POP PUSH1 0x20 SWAP4 DUP5 ADD SWAP4 SWAP2 SWAP1 SWAP2 ADD SWAP1 PUSH1 0x1 ADD PUSH2 0x2DA9 JUMP JUMPDEST POP SWAP3 SWAP7 SWAP6 POP POP POP POP POP POP JUMP JUMPDEST PUSH2 0x180 DUP2 MSTORE PUSH0 PUSH2 0x2E45 PUSH2 0x180 DUP4 ADD DUP16 PUSH2 0x253F JUMP JUMPDEST DUP3 DUP2 SUB PUSH1 0x20 DUP5 ADD MSTORE PUSH2 0x2E57 DUP2 DUP16 PUSH2 0x253F JUMP JUMPDEST PUSH1 0x40 DUP5 ADD DUP15 SWAP1 MSTORE PUSH1 0x60 DUP5 ADD DUP14 SWAP1 MSTORE PUSH1 0x1 PUSH1 0x1 PUSH1 0xA0 SHL SUB DUP13 DUP2 AND PUSH1 0x80 DUP7 ADD MSTORE PUSH1 0xA0 DUP6 ADD DUP13 SWAP1 MSTORE DUP11 ISZERO ISZERO PUSH1 0xC0 DUP7 ADD MSTORE DUP10 AND PUSH1 0xE0 DUP6 ADD MSTORE PUSH2 0x100 DUP5 ADD DUP9 SWAP1 MSTORE DUP7 ISZERO ISZERO PUSH2 0x120 DUP6 ADD MSTORE SWAP2 POP PUSH2 0x2EA5 SWAP1 POP JUMP JUMPDEST PUSH2 0x140 DUP3 ADD SWAP4 SWAP1 SWAP4 MSTORE PUSH2 0x160 ADD MSTORE SWAP11 SWAP10 POP POP POP POP POP POP POP POP POP POP JUMP JUMPDEST PUSH0 PUSH1 0x40 DUP3 ADD PUSH1 0x40 DUP4 MSTORE DUP1 DUP6 MLOAD DUP1 DUP4 MSTORE PUSH1 0x60 DUP6 ADD SWAP2 POP PUSH1 0x60 DUP2 PUSH1 0x5 SHL DUP7 ADD ADD SWAP3 POP PUSH1 0x20 DUP8 ADD PUSH0 JUMPDEST DUP3 DUP2 LT ISZERO PUSH2 0x2FF0 JUMPI PUSH1 0x5F NOT DUP8 DUP7 SUB ADD DUP5 MSTORE DUP2 MLOAD DUP1 MLOAD DUP7 MSTORE PUSH1 0x20 DUP2 ADD MLOAD PUSH2 0x1A0 PUSH1 0x20 DUP9 ADD MSTORE PUSH2 0x2F19 PUSH2 0x1A0 DUP9 ADD DUP3 PUSH2 0x253F JUMP JUMPDEST SWAP1 POP PUSH1 0x40 DUP3 ADD MLOAD DUP8 DUP3 SUB PUSH1 0x40 DUP10 ADD MSTORE PUSH2 0x2F32 DUP3 DUP3 PUSH2 0x253F JUMP JUMPDEST SWAP2 POP POP PUSH1 0x60 DUP3 ADD MLOAD DUP8 DUP3 SUB PUSH1 0x60 DUP10 ADD MSTORE PUSH2 0x2F4C DUP3 DUP3 PUSH2 0x26AE JUMP JUMPDEST SWAP2 POP POP PUSH1 0x80 DUP3 ADD MLOAD PUSH1 0x80 DUP9 ADD MSTORE PUSH1 0xA0 DUP3 ADD MLOAD PUSH1 0xA0 DUP9 ADD MSTORE PUSH1 0xC0 DUP3 ADD MLOAD DUP8 DUP3 SUB PUSH1 0xC0 DUP10 ADD MSTORE PUSH2 0x2F7A DUP3 DUP3 PUSH2 0x2708 JUMP JUMPDEST SWAP2 POP POP PUSH1 0xE0 DUP3 ADD MLOAD PUSH1 0xE0 DUP9 ADD MSTORE PUSH2 0x100 DUP3 ADD MLOAD PUSH2 0x100 DUP9 ADD MSTORE PUSH2 0x120 DUP3 ADD MLOAD PUSH2 0x2FAF PUSH2 0x120 DUP10 ADD DUP3 PUSH1 0x1 PUSH1 0x1 PUSH1 0xA0 SHL SUB AND SWAP1 MSTORE JUMP JUMPDEST POP PUSH2 0x140 DUP3 ADD MLOAD PUSH2 0x2FC5 PUSH2 0x140 DUP10 ADD DUP3 ISZERO ISZERO SWAP1 MSTORE JUMP JUMPDEST POP PUSH2 0x160 DUP3 DUP2 ADD MLOAD SWAP1 DUP9 ADD MSTORE PUSH2 0x180 SWAP2 DUP3 ADD MLOAD SWAP2 SWAP1 SWAP7 ADD MSTORE PUSH1 0x20 SWAP4 DUP5 ADD SWAP4 SWAP2 SWAP1 SWAP2 ADD SWAP1 PUSH1 0x1 ADD PUSH2 0x2EE7 JUMP JUMPDEST POP POP POP POP DUP4 ISZERO ISZERO PUSH1 0x20 DUP5 ADD MSTORE SWAP1 POP PUSH2 0x751 JUMP JUMPDEST PUSH1 0x1 DUP2 DUP2 SHR SWAP1 DUP3 AND DUP1 PUSH2 0x3017 JUMPI PUSH1 0x7F DUP3 AND SWAP2 POP JUMPDEST PUSH1 0x20 DUP3 LT DUP2 SUB PUSH2 0x3035 JUMPI PUSH4 0x4E487B71 PUSH1 0xE0 SHL PUSH0 MSTORE PUSH1 0x22 PUSH1 0x4 MSTORE PUSH1 0x24 PUSH0 REVERT JUMPDEST POP SWAP2 SWAP1 POP JUMP JUMPDEST PUSH1 0x1F DUP3 GT ISZERO PUSH2 0xE57 JUMPI DUP1 PUSH0 MSTORE PUSH1 0x20 PUSH0 KECCAK256 PUSH1 0x1F DUP5 ADD PUSH1 0x5 SHR DUP2 ADD PUSH1 0x20 DUP6 LT ISZERO PUSH2 0x3060 JUMPI POP DUP1 JUMPDEST PUSH1 0x1F DUP5 ADD PUSH1 0x5 SHR DUP3 ADD SWAP2 POP JUMPDEST DUP2 DUP2 LT ISZERO PUSH2 0x307F JUMPI PUSH0 DUP2 SSTORE PUSH1 0x1 ADD PUSH2 0x306C JUMP JUMPDEST POP POP POP POP POP JUMP JUMPDEST DUP2 MLOAD PUSH1 0x1 PUSH1 0x1 PUSH1 0x40 SHL SUB DUP2 GT ISZERO PUSH2 0x309F JUMPI PUSH2 0x309F PUSH2 0x25AE JUMP JUMPDEST PUSH2 0x30B3 DUP2 PUSH2 0x30AD DUP5 SLOAD PUSH2 0x3003 JUMP JUMPDEST DUP5 PUSH2 0x303B JUMP JUMPDEST PUSH1 0x20 PUSH1 0x1F DUP3 GT PUSH1 0x1 DUP2 EQ PUSH2 0x30E5 JUMPI PUSH0 DUP4 ISZERO PUSH2 0x30CE JUMPI POP DUP5 DUP3 ADD MLOAD JUMPDEST PUSH0 NOT PUSH1 0x3 DUP6 SWAP1 SHL SHR NOT AND PUSH1 0x1 DUP5 SWAP1 SHL OR DUP5 SSTORE PUSH2 0x307F JUMP JUMPDEST PUSH0 DUP5 DUP2 MSTORE PUSH1 0x20 DUP2 KECCAK256 PUSH1 0x1F NOT DUP6 AND SWAP2 JUMPDEST DUP3 DUP2 LT ISZERO PUSH2 0x3114 JUMPI DUP8 DUP6 ADD MLOAD DUP3 SSTORE PUSH1 0x20 SWAP5 DUP6 ADD SWAP5 PUSH1 0x1 SWAP1 SWAP3 ADD SWAP2 ADD PUSH2 0x30F4 JUMP JUMPDEST POP DUP5 DUP3 LT ISZERO PUSH2 0x3131 JUMPI DUP7 DUP5 ADD MLOAD PUSH0 NOT PUSH1 0x3 DUP8 SWAP1 SHL PUSH1 0xF8 AND SHR NOT AND DUP2 SSTORE JUMPDEST POP POP POP POP PUSH1 0x1 SWAP1 DUP2 SHL ADD SWAP1 SSTORE POP JUMP JUMPDEST PUSH1 0x20 DUP1 DUP3 MSTORE PUSH1 0x6 SWAP1 DUP3 ADD MSTORE PUSH6 0x11985A5B1959 PUSH1 0xD2 SHL PUSH1 0x40 DUP3 ADD MSTORE PUSH1 0x60 ADD SWAP1 JUMP JUMPDEST PUSH4 0x4E487B71 PUSH1 0xE0 SHL PUSH0 MSTORE PUSH1 0x32 PUSH1 0x4 MSTORE PUSH1 0x24 PUSH0 REVERT JUMPDEST PUSH4 0x4E487B71 PUSH1 0xE0 SHL PUSH0 MSTORE PUSH1 0x11 PUSH1 0x4 MSTORE PUSH1 0x24 PUSH0 REVERT JUMPDEST PUSH0 PUSH1 0x1 DUP3 ADD PUSH2 0x3199 JUMPI PUSH2 0x3199 PUSH2 0x3174 JUMP JUMPDEST POP PUSH1 0x1 ADD SWAP1 JUMP JUMPDEST PUSH0 PUSH1 0x20 DUP3 DUP5 SUB SLT ISZERO PUSH2 0x31B0 JUMPI PUSH0 PUSH0 REVERT JUMPDEST POP MLOAD SWAP2 SWAP1 POP JUMP JUMPDEST PUSH1 0x1 PUSH1 0x1 PUSH1 0xA0 SHL SUB DUP7 DUP2 AND DUP3 MSTORE DUP6 AND PUSH1 0x20 DUP3 ADD MSTORE PUSH1 0x40 DUP2 ADD DUP5 SWAP1 MSTORE DUP3 ISZERO ISZERO PUSH1 0x60 DUP3 ADD MSTORE PUSH1 0xA0 PUSH1 0x80 DUP3 ADD DUP2 SWAP1 MSTORE PUSH0 SWAP1 PUSH2 0x31F1 SWAP1 DUP4 ADD DUP5 PUSH2 0x253F JUMP JUMPDEST SWAP8 SWAP7 POP POP POP POP POP POP POP JUMP JUMPDEST DUP1 DUP3 ADD DUP1 DUP3 GT ISZERO PUSH2 0xE8A JUMPI PUSH2 0xE8A PUSH2 0x3174 JUMP JUMPDEST PUSH1 0x80 DUP2 MSTORE PUSH0 PUSH2 0x3221 PUSH1 0x80 DUP4 ADD DUP8 PUSH2 0x253F JUMP JUMPDEST DUP3 DUP2 SUB PUSH1 0x20 DUP5 ADD MSTORE PUSH2 0x3233 DUP2 DUP8 PUSH2 0x253F JUMP JUMPDEST PUSH1 0x40 DUP5 ADD SWAP6 SWAP1 SWAP6 MSTORE POP POP PUSH1 0x60 ADD MSTORE SWAP3 SWAP2 POP POP JUMP JUMPDEST DUP2 DUP2 SUB DUP2 DUP2 GT ISZERO PUSH2 0xE8A JUMPI PUSH2 0xE8A PUSH2 0x3174 JUMP INVALID LOG2 PUSH5 0x6970667358 0x22 SLT KECCAK256 SHR PUSH30 0xE4DC915015A10B9CDE14BE2F742AA125B6BA3FF13569BC3E93DFE71D0629 PUSH5 0x736F6C6343 STOP ADDMOD SHR STOP CALLER 0x4C PUSH16 0x72656D20497073756D2069732073696D PUSH17 0x6C792064756D6D792074657874206F6620 PUSH21 0x6865207072696E74696E6720616E64207479706573 PUSH6 0x7474696E6720 PUSH10 0x6E6475737472792E204C PUSH16 0x72656D20497073756D20686173206265 PUSH6 0x6E2074686520 PUSH10 0x6E647573747279277320 PUSH20 0x74616E646172642064756D6D7920746578742065 PUSH23 0x65722073696E6365207468652031353030732C20776865 PUSH15 0x20616E20756E6B6E6F776E20707269 PUSH15 0x74657220746F6F6B20612067616C6C PUSH6 0x79206F662074 PUSH26 0x706520616E6420736372616D626C656420697420746F206D616B PUSH6 0x206120747970 PUSH6 0x207370656369 PUSH14 0x656E20626F6F6B2E204974206861 PUSH20 0x207375727669766564206E6F74206F6E6C792066 PUSH10 0x76652063656E74757269 PUSH6 0x732C20627574 KECCAK256 PUSH2 0x6C73 PUSH16 0x20746865206C65617020696E746F2065 PUSH13 0x656374726F6E69632074797065 PUSH20 0x657474696E672C2072656D61696E696E67206573 PUSH20 0x656E7469616C6C7920756E6368616E6765642E20 BLOBHASH PUSH21 0x2077617320706F70756C61726973656420696E2074 PUSH9 0x652031393630732077 PUSH10 0x7468207468652072656C PUSH6 0x617365206F66 KECCAK256 0x4C PUSH6 0x747261736574 KECCAK256 PUSH20 0x686565747320636F6E7461696E696E67204C6F72 PUSH6 0x6D2049707375 PUSH14 0x2070617373616765732C20616E64 KECCAK256 PUSH14 0x6F726520726563656E746C792077 PUSH10 0x7468206465736B746F70 KECCAK256 PUSH17 0x75626C697368696E6720736F6674776172 PUSH6 0x206C696B6520 COINBASE PUSH13 0x64757320506167654D616B6572 KECCAK256 PUSH10 0x6E636C7564696E672076 PUSH6 0x7273696F6E73 KECCAK256 PUSH16 0x66204C6F72656D20497073756D2E0000 "
		},
		"gasEstimates": {
			"creation": {
				"codeDepositCost": "2588800",
				"executionCost": "infinite",
				"totalCost": "infinite"
			},
			"external": {
				"_authorizedSender(bytes32,address)": "infinite",
				"_pollCounter()": "2396",
				"_respondCounter()": "2377",
				"blockStorage(bytes32,bytes32)": "infinite",
				"delKey(bytes32,bytes32)": "infinite",
				"fee()": "2372",
				"getBalance()": "218",
				"getKey(bytes32,bytes32)": "infinite",
				"getLSP7Balance(address)": "infinite",
				"getNow()": "290",
				"getPoll(bytes32)": "infinite",
				"isExpired(bytes32)": "2613",
				"newPoll(string,string,string[],uint256,uint256,address[],uint256,bool,address,uint256,bool)": "infinite",
				"newRespond(bytes32,string,uint8,bool,bytes)": "infinite",
				"owner()": "2344",
				"pause()": "infinite",
				"paused()": "2386",
				"poll(bytes32)": "infinite",
				"pollAccount(address,uint256)": "4765",
				"pollAccountList(address)": "infinite",
				"pollList(address)": "infinite",
				"pollStatus(bytes32)": "4742",
				"renounceOwnership()": "infinite",
				"respond(bytes32)": "infinite",
				"respondCounter(bytes32,address)": "2691",
				"responseList(bytes32)": "infinite",
				"setKey(bytes32,bytes32,string)": "infinite",
				"transferBalance(address,uint256)": "infinite",
				"transferOwnership(address)": "infinite",
				"unpause()": "infinite",
				"updateFee(uint256)": "24552",
				"updatePoll(bytes32,string,bytes,string[],address[],uint256,bool,address,uint256,bool)": "infinite",
				"withdraw()": "infinite",
				"withdrawLSP7(address,address,uint256,bool,bytes)": "infinite"
			}
		},
		"methodIdentifiers": {
			"_authorizedSender(bytes32,address)": "76c5e3ee",
			"_pollCounter()": "fdd5ad23",
			"_respondCounter()": "1cc6fdad",
			"blockStorage(bytes32,bytes32)": "e0caa729",
			"delKey(bytes32,bytes32)": "5de3b598",
			"fee()": "ddca3f43",
			"getBalance()": "12065fe0",
			"getKey(bytes32,bytes32)": "c3105a6b",
			"getLSP7Balance(address)": "79c4be94",
			"getNow()": "bbe4fd50",
			"getPoll(bytes32)": "2cbbd738",
			"isExpired(bytes32)": "6db2feb2",
			"newPoll(string,string,string[],uint256,uint256,address[],uint256,bool,address,uint256,bool)": "d97d9fd2",
			"newRespond(bytes32,string,uint8,bool,bytes)": "7a897de9",
			"owner()": "8da5cb5b",
			"pause()": "8456cb59",
			"paused()": "5c975abb",
			"poll(bytes32)": "f48272d2",
			"pollAccount(address,uint256)": "397c4686",
			"pollAccountList(address)": "3dea5bc3",
			"pollList(address)": "fe7e8e5b",
			"pollStatus(bytes32)": "2c30a81c",
			"renounceOwnership()": "715018a6",
			"respond(bytes32)": "1982f1d3",
			"respondCounter(bytes32,address)": "3049b04b",
			"responseList(bytes32)": "e0ea29fc",
			"setKey(bytes32,bytes32,string)": "22a01240",
			"transferBalance(address,uint256)": "56a6d9ef",
			"transferOwnership(address)": "f2fde38b",
			"unpause()": "3f4ba83a",
			"updateFee(uint256)": "9012c4a8",
			"updatePoll(bytes32,string,bytes,string[],address[],uint256,bool,address,uint256,bool)": "35da0a15",
			"withdraw()": "3ccfd60b",
			"withdrawLSP7(address,address,uint256,bool,bytes)": "b8de4343"
		}
	},
	"abi": [
		{
			"inputs": [],
			"stateMutability": "nonpayable",
			"type": "constructor"
		},
		{
			"inputs": [],
			"name": "EnforcedPause",
			"type": "error"
		},
		{
			"inputs": [],
			"name": "ExpectedPause",
			"type": "error"
		},
		{
			"inputs": [
				{
					"internalType": "uint256",
					"name": "totalAmount",
					"type": "uint256"
				},
				{
					"internalType": "uint256",
					"name": "authorizedAmount",
					"type": "uint256"
				}
			],
			"name": "NotAuthorizedAmount",
			"type": "error"
		},
		{
			"inputs": [
				{
					"internalType": "bytes32",
					"name": "pollId",
					"type": "bytes32"
				},
				{
					"internalType": "address",
					"name": "sender",
					"type": "address"
				}
			],
			"name": "NotWhitelisted",
			"type": "error"
		},
		{
			"inputs": [
				{
					"internalType": "address",
					"name": "owner",
					"type": "address"
				}
			],
			"name": "OwnableInvalidOwner",
			"type": "error"
		},
		{
			"inputs": [
				{
					"internalType": "address",
					"name": "account",
					"type": "address"
				}
			],
			"name": "OwnableUnauthorizedAccount",
			"type": "error"
		},
		{
			"inputs": [
				{
					"internalType": "uint256",
					"name": "value",
					"type": "uint256"
				},
				{
					"internalType": "uint256",
					"name": "amount",
					"type": "uint256"
				}
			],
			"name": "PriceNotMet",
			"type": "error"
		},
		{
			"inputs": [
				{
					"internalType": "address",
					"name": "sender",
					"type": "address"
				}
			],
			"name": "RepetitiveResponse",
			"type": "error"
		},
		{
			"inputs": [
				{
					"internalType": "uint256",
					"name": "now",
					"type": "uint256"
				}
			],
			"name": "TooEarly",
			"type": "error"
		},
		{
			"anonymous": false,
			"inputs": [
				{
					"indexed": true,
					"internalType": "address",
					"name": "previousOwner",
					"type": "address"
				},
				{
					"indexed": true,
					"internalType": "address",
					"name": "newOwner",
					"type": "address"
				}
			],
			"name": "OwnershipTransferred",
			"type": "event"
		},
		{
			"anonymous": false,
			"inputs": [
				{
					"indexed": false,
					"internalType": "address",
					"name": "account",
					"type": "address"
				}
			],
			"name": "Paused",
			"type": "event"
		},
		{
			"anonymous": false,
			"inputs": [
				{
					"indexed": true,
					"internalType": "bytes32",
					"name": "pollId",
					"type": "bytes32"
				},
				{
					"indexed": false,
					"internalType": "string",
					"name": "metadata",
					"type": "string"
				},
				{
					"indexed": false,
					"internalType": "string",
					"name": "q",
					"type": "string"
				},
				{
					"indexed": false,
					"internalType": "uint256",
					"name": "start",
					"type": "uint256"
				},
				{
					"indexed": false,
					"internalType": "uint256",
					"name": "end",
					"type": "uint256"
				},
				{
					"indexed": true,
					"internalType": "address",
					"name": "sender",
					"type": "address"
				}
			],
			"name": "PollAdded",
			"type": "event"
		},
		{
			"anonymous": false,
			"inputs": [
				{
					"indexed": true,
					"internalType": "bytes32",
					"name": "pollId",
					"type": "bytes32"
				},
				{
					"indexed": true,
					"internalType": "address",
					"name": "sender",
					"type": "address"
				}
			],
			"name": "PollUpdated",
			"type": "event"
		},
		{
			"anonymous": false,
			"inputs": [
				{
					"indexed": true,
					"internalType": "bytes32",
					"name": "pollId",
					"type": "bytes32"
				},
				{
					"indexed": false,
					"internalType": "uint256",
					"name": "totalResponse",
					"type": "uint256"
				},
				{
					"indexed": true,
					"internalType": "address",
					"name": "sender",
					"type": "address"
				}
			],
			"name": "RespondAdded",
			"type": "event"
		},
		{
			"anonymous": false,
			"inputs": [
				{
					"indexed": false,
					"internalType": "address",
					"name": "account",
					"type": "address"
				}
			],
			"name": "Unpaused",
			"type": "event"
		},
		{
			"inputs": [
				{
					"internalType": "bytes32",
					"name": "_pollId",
					"type": "bytes32"
				},
				{
					"internalType": "address",
					"name": "sender",
					"type": "address"
				}
			],
			"name": "_authorizedSender",
			"outputs": [
				{
					"internalType": "bool",
					"name": "",
					"type": "bool"
				}
			],
			"stateMutability": "view",
			"type": "function"
		},
		{
			"inputs": [],
			"name": "_pollCounter",
			"outputs": [
				{
					"internalType": "uint256",
					"name": "_value",
					"type": "uint256"
				}
			],
			"stateMutability": "view",
			"type": "function"
		},
		{
			"inputs": [],
			"name": "_respondCounter",
			"outputs": [
				{
					"internalType": "uint256",
					"name": "_value",
					"type": "uint256"
				}
			],
			"stateMutability": "view",
			"type": "function"
		},
		{
			"inputs": [
				{
					"internalType": "bytes32",
					"name": "",
					"type": "bytes32"
				},
				{
					"internalType": "bytes32",
					"name": "",
					"type": "bytes32"
				}
			],
			"name": "blockStorage",
			"outputs": [
				{
					"internalType": "string",
					"name": "",
					"type": "string"
				}
			],
			"stateMutability": "view",
			"type": "function"
		},
		{
			"inputs": [
				{
					"internalType": "bytes32",
					"name": "_pollId",
					"type": "bytes32"
				},
				{
					"internalType": "bytes32",
					"name": "_key",
					"type": "bytes32"
				}
			],
			"name": "delKey",
			"outputs": [
				{
					"internalType": "bool",
					"name": "",
					"type": "bool"
				}
			],
			"stateMutability": "nonpayable",
			"type": "function"
		},
		{
			"inputs": [],
			"name": "fee",
			"outputs": [
				{
					"internalType": "uint256",
					"name": "",
					"type": "uint256"
				}
			],
			"stateMutability": "view",
			"type": "function"
		},
		{
			"inputs": [],
			"name": "getBalance",
			"outputs": [
				{
					"internalType": "uint256",
					"name": "",
					"type": "uint256"
				}
			],
			"stateMutability": "view",
			"type": "function"
		},
		{
			"inputs": [
				{
					"internalType": "bytes32",
					"name": "_pollId",
					"type": "bytes32"
				},
				{
					"internalType": "bytes32",
					"name": "_key",
					"type": "bytes32"
				}
			],
			"name": "getKey",
			"outputs": [
				{
					"internalType": "string",
					"name": "",
					"type": "string"
				}
			],
			"stateMutability": "view",
			"type": "function"
		},
		{
			"inputs": [
				{
					"internalType": "address",
					"name": "_token",
					"type": "address"
				}
			],
			"name": "getLSP7Balance",
			"outputs": [
				{
					"internalType": "uint256",
					"name": "",
					"type": "uint256"
				}
			],
			"stateMutability": "view",
			"type": "function"
		},
		{
			"inputs": [],
			"name": "getNow",
			"outputs": [
				{
					"internalType": "uint256",
					"name": "",
					"type": "uint256"
				}
			],
			"stateMutability": "view",
			"type": "function"
		},
		{
			"inputs": [
				{
					"internalType": "bytes32",
					"name": "_pollId",
					"type": "bytes32"
				}
			],
			"name": "getPoll",
			"outputs": [
				{
					"components": [
						{
							"internalType": "string",
							"name": "metadata",
							"type": "string"
						},
						{
							"internalType": "bytes",
							"name": "q",
							"type": "bytes"
						},
						{
							"internalType": "string[]",
							"name": "choices",
							"type": "string[]"
						},
						{
							"internalType": "uint256",
							"name": "start",
							"type": "uint256"
						},
						{
							"internalType": "uint256",
							"name": "end",
							"type": "uint256"
						},
						{
							"internalType": "address[]",
							"name": "whitelist",
							"type": "address[]"
						},
						{
							"internalType": "address",
							"name": "manager",
							"type": "address"
						},
						{
							"internalType": "uint256",
							"name": "votingLimit",
							"type": "uint256"
						},
						{
							"internalType": "bool",
							"name": "isPayable",
							"type": "bool"
						},
						{
							"internalType": "address",
							"name": "token",
							"type": "address"
						},
						{
							"internalType": "uint256",
							"name": "amount",
							"type": "uint256"
						},
						{
							"internalType": "bool",
							"name": "pause",
							"type": "bool"
						},
						{
							"internalType": "uint256",
							"name": "dt",
							"type": "uint256"
						},
						{
							"internalType": "uint256",
							"name": "respondCounter",
							"type": "uint256"
						}
					],
					"internalType": "struct PollPal.PollStruct",
					"name": "",
					"type": "tuple"
				}
			],
			"stateMutability": "view",
			"type": "function"
		},
		{
			"inputs": [
				{
					"internalType": "bytes32",
					"name": "_pollId",
					"type": "bytes32"
				}
			],
			"name": "isExpired",
			"outputs": [
				{
					"internalType": "bool",
					"name": "",
					"type": "bool"
				}
			],
			"stateMutability": "view",
			"type": "function"
		},
		{
			"inputs": [
				{
					"internalType": "string",
					"name": "_metadata",
					"type": "string"
				},
				{
					"internalType": "string",
					"name": "_q",
					"type": "string"
				},
				{
					"internalType": "string[]",
					"name": "_choices",
					"type": "string[]"
				},
				{
					"internalType": "uint256",
					"name": "_start",
					"type": "uint256"
				},
				{
					"internalType": "uint256",
					"name": "_end",
					"type": "uint256"
				},
				{
					"internalType": "address[]",
					"name": "_whitelist",
					"type": "address[]"
				},
				{
					"internalType": "uint256",
					"name": "_votingLimit",
					"type": "uint256"
				},
				{
					"internalType": "bool",
					"name": "_isPayable",
					"type": "bool"
				},
				{
					"internalType": "address",
					"name": "_token",
					"type": "address"
				},
				{
					"internalType": "uint256",
					"name": "_amount",
					"type": "uint256"
				},
				{
					"internalType": "bool",
					"name": "_pause",
					"type": "bool"
				}
			],
			"name": "newPoll",
			"outputs": [
				{
					"internalType": "bytes32",
					"name": "",
					"type": "bytes32"
				}
			],
			"stateMutability": "payable",
			"type": "function"
		},
		{
			"inputs": [
				{
					"internalType": "bytes32",
					"name": "_pollId",
					"type": "bytes32"
				},
				{
					"internalType": "string",
					"name": "_metadata",
					"type": "string"
				},
				{
					"internalType": "uint8",
					"name": "_choice",
					"type": "uint8"
				},
				{
					"internalType": "bool",
					"name": "_force",
					"type": "bool"
				},
				{
					"internalType": "bytes",
					"name": "_data",
					"type": "bytes"
				}
			],
			"name": "newRespond",
			"outputs": [],
			"stateMutability": "payable",
			"type": "function"
		},
		{
			"inputs": [],
			"name": "owner",
			"outputs": [
				{
					"internalType": "address",
					"name": "",
					"type": "address"
				}
			],
			"stateMutability": "view",
			"type": "function"
		},
		{
			"inputs": [],
			"name": "pause",
			"outputs": [],
			"stateMutability": "nonpayable",
			"type": "function"
		},
		{
			"inputs": [],
			"name": "paused",
			"outputs": [
				{
					"internalType": "bool",
					"name": "",
					"type": "bool"
				}
			],
			"stateMutability": "view",
			"type": "function"
		},
		{
			"inputs": [
				{
					"internalType": "bytes32",
					"name": "",
					"type": "bytes32"
				}
			],
			"name": "poll",
			"outputs": [
				{
					"internalType": "string",
					"name": "metadata",
					"type": "string"
				},
				{
					"internalType": "bytes",
					"name": "q",
					"type": "bytes"
				},
				{
					"internalType": "uint256",
					"name": "start",
					"type": "uint256"
				},
				{
					"internalType": "uint256",
					"name": "end",
					"type": "uint256"
				},
				{
					"internalType": "address",
					"name": "manager",
					"type": "address"
				},
				{
					"internalType": "uint256",
					"name": "votingLimit",
					"type": "uint256"
				},
				{
					"internalType": "bool",
					"name": "isPayable",
					"type": "bool"
				},
				{
					"internalType": "address",
					"name": "token",
					"type": "address"
				},
				{
					"internalType": "uint256",
					"name": "amount",
					"type": "uint256"
				},
				{
					"internalType": "bool",
					"name": "pause",
					"type": "bool"
				},
				{
					"internalType": "uint256",
					"name": "dt",
					"type": "uint256"
				},
				{
					"internalType": "uint256",
					"name": "respondCounter",
					"type": "uint256"
				}
			],
			"stateMutability": "view",
			"type": "function"
		},
		{
			"inputs": [
				{
					"internalType": "address",
					"name": "",
					"type": "address"
				},
				{
					"internalType": "uint256",
					"name": "",
					"type": "uint256"
				}
			],
			"name": "pollAccount",
			"outputs": [
				{
					"internalType": "bytes32",
					"name": "",
					"type": "bytes32"
				}
			],
			"stateMutability": "view",
			"type": "function"
		},
		{
			"inputs": [
				{
					"internalType": "address",
					"name": "_manager",
					"type": "address"
				}
			],
			"name": "pollAccountList",
			"outputs": [
				{
					"internalType": "bytes32[]",
					"name": "",
					"type": "bytes32[]"
				}
			],
			"stateMutability": "view",
			"type": "function"
		},
		{
			"inputs": [
				{
					"internalType": "address",
					"name": "_manager",
					"type": "address"
				}
			],
			"name": "pollList",
			"outputs": [
				{
					"components": [
						{
							"internalType": "bytes32",
							"name": "id",
							"type": "bytes32"
						},
						{
							"internalType": "string",
							"name": "metadata",
							"type": "string"
						},
						{
							"internalType": "bytes",
							"name": "q",
							"type": "bytes"
						},
						{
							"internalType": "string[]",
							"name": "choices",
							"type": "string[]"
						},
						{
							"internalType": "uint256",
							"name": "start",
							"type": "uint256"
						},
						{
							"internalType": "uint256",
							"name": "end",
							"type": "uint256"
						},
						{
							"internalType": "address[]",
							"name": "whitelist",
							"type": "address[]"
						},
						{
							"internalType": "uint256",
							"name": "votingLimit",
							"type": "uint256"
						},
						{
							"internalType": "uint256",
							"name": "price",
							"type": "uint256"
						},
						{
							"internalType": "address",
							"name": "manager",
							"type": "address"
						},
						{
							"internalType": "bool",
							"name": "pause",
							"type": "bool"
						},
						{
							"internalType": "uint256",
							"name": "dt",
							"type": "uint256"
						},
						{
							"internalType": "uint256",
							"name": "respondCounter",
							"type": "uint256"
						}
					],
					"internalType": "struct PollPal.PollListStruct[]",
					"name": "polls",
					"type": "tuple[]"
				},
				{
					"internalType": "bool",
					"name": "",
					"type": "bool"
				}
			],
			"stateMutability": "view",
			"type": "function"
		},
		{
			"inputs": [
				{
					"internalType": "bytes32",
					"name": "_pollId",
					"type": "bytes32"
				}
			],
			"name": "pollStatus",
			"outputs": [
				{
					"internalType": "bool",
					"name": "isActive",
					"type": "bool"
				},
				{
					"internalType": "uint256",
					"name": "start",
					"type": "uint256"
				},
				{
					"internalType": "uint256",
					"name": "end",
					"type": "uint256"
				}
			],
			"stateMutability": "view",
			"type": "function"
		},
		{
			"inputs": [],
			"name": "renounceOwnership",
			"outputs": [],
			"stateMutability": "nonpayable",
			"type": "function"
		},
		{
			"inputs": [
				{
					"internalType": "bytes32",
					"name": "",
					"type": "bytes32"
				}
			],
			"name": "respond",
			"outputs": [
				{
					"internalType": "bytes32",
					"name": "pollId",
					"type": "bytes32"
				},
				{
					"internalType": "string",
					"name": "metadata",
					"type": "string"
				},
				{
					"internalType": "uint8",
					"name": "choice",
					"type": "uint8"
				},
				{
					"internalType": "address",
					"name": "sender",
					"type": "address"
				},
				{
					"internalType": "uint256",
					"name": "dt",
					"type": "uint256"
				}
			],
			"stateMutability": "view",
			"type": "function"
		},
		{
			"inputs": [
				{
					"internalType": "bytes32",
					"name": "",
					"type": "bytes32"
				},
				{
					"internalType": "address",
					"name": "",
					"type": "address"
				}
			],
			"name": "respondCounter",
			"outputs": [
				{
					"internalType": "uint256",
					"name": "",
					"type": "uint256"
				}
			],
			"stateMutability": "view",
			"type": "function"
		},
		{
			"inputs": [
				{
					"internalType": "bytes32",
					"name": "_pollId",
					"type": "bytes32"
				}
			],
			"name": "responseList",
			"outputs": [
				{
					"components": [
						{
							"internalType": "bytes32",
							"name": "respondId",
							"type": "bytes32"
						},
						{
							"internalType": "bytes32",
							"name": "pollId",
							"type": "bytes32"
						},
						{
							"internalType": "string",
							"name": "metadata",
							"type": "string"
						},
						{
							"internalType": "uint8",
							"name": "choice",
							"type": "uint8"
						},
						{
							"internalType": "address",
							"name": "sender",
							"type": "address"
						},
						{
							"internalType": "uint256",
							"name": "dt",
							"type": "uint256"
						}
					],
					"internalType": "struct PollPal.RespondListStruct[]",
					"name": "list",
					"type": "tuple[]"
				}
			],
			"stateMutability": "view",
			"type": "function"
		},
		{
			"inputs": [
				{
					"internalType": "bytes32",
					"name": "_pollId",
					"type": "bytes32"
				},
				{
					"internalType": "bytes32",
					"name": "_key",
					"type": "bytes32"
				},
				{
					"internalType": "string",
					"name": "_val",
					"type": "string"
				}
			],
			"name": "setKey",
			"outputs": [
				{
					"internalType": "bool",
					"name": "",
					"type": "bool"
				}
			],
			"stateMutability": "nonpayable",
			"type": "function"
		},
		{
			"inputs": [
				{
					"internalType": "address payable",
					"name": "_to",
					"type": "address"
				},
				{
					"internalType": "uint256",
					"name": "_amount",
					"type": "uint256"
				}
			],
			"name": "transferBalance",
			"outputs": [],
			"stateMutability": "nonpayable",
			"type": "function"
		},
		{
			"inputs": [
				{
					"internalType": "address",
					"name": "newOwner",
					"type": "address"
				}
			],
			"name": "transferOwnership",
			"outputs": [],
			"stateMutability": "nonpayable",
			"type": "function"
		},
		{
			"inputs": [],
			"name": "unpause",
			"outputs": [],
			"stateMutability": "nonpayable",
			"type": "function"
		},
		{
			"inputs": [
				{
					"internalType": "uint256",
					"name": "_fee",
					"type": "uint256"
				}
			],
			"name": "updateFee",
			"outputs": [],
			"stateMutability": "nonpayable",
			"type": "function"
		},
		{
			"inputs": [
				{
					"internalType": "bytes32",
					"name": "_pollId",
					"type": "bytes32"
				},
				{
					"internalType": "string",
					"name": "_metadata",
					"type": "string"
				},
				{
					"internalType": "bytes",
					"name": "_q",
					"type": "bytes"
				},
				{
					"internalType": "string[]",
					"name": "_choices",
					"type": "string[]"
				},
				{
					"internalType": "address[]",
					"name": "_whitelist",
					"type": "address[]"
				},
				{
					"internalType": "uint256",
					"name": "_votingLimit",
					"type": "uint256"
				},
				{
					"internalType": "bool",
					"name": "_isPayable",
					"type": "bool"
				},
				{
					"internalType": "address",
					"name": "_token",
					"type": "address"
				},
				{
					"internalType": "uint256",
					"name": "_amount",
					"type": "uint256"
				},
				{
					"internalType": "bool",
					"name": "_pause",
					"type": "bool"
				}
			],
			"name": "updatePoll",
			"outputs": [],
			"stateMutability": "nonpayable",
			"type": "function"
		},
		{
			"inputs": [],
			"name": "withdraw",
			"outputs": [],
			"stateMutability": "nonpayable",
			"type": "function"
		},
		{
			"inputs": [
				{
					"internalType": "address",
					"name": "_LSP7Token",
					"type": "address"
				},
				{
					"internalType": "address",
					"name": "_to",
					"type": "address"
				},
				{
					"internalType": "uint256",
					"name": "_amount",
					"type": "uint256"
				},
				{
					"internalType": "bool",
					"name": "_force",
					"type": "bool"
				},
				{
					"internalType": "bytes",
					"name": "_data",
					"type": "bytes"
				}
			],
			"name": "withdrawLSP7",
			"outputs": [],
			"stateMutability": "nonpayable",
			"type": "function"
		}
	]
}