{
	"data": {
		"bytecode": {
			"linkReferences": {},
			"object": "60806040525f600355348015610013575f5ffd5b50338061003957604051631e4fbdf760e01b81525f600482015260240160405180910390fd5b6100428161066b565b505f805460ff60a01b191681556040805182815260036020820181815260a08301845291939284015b606081526020019060019003908161006b579050509050604051806040016040528060088152602001674f7074696f6e203160c01b815250815f815181106100b5576100b56107eb565b60200260200101819052506040518060400160405280600881526020016727b83a34b7b7101960c11b815250816001815181106100f4576100f46107eb565b6020026020010181905250604051806040016040528060088152602001674f7074696f6e203360c01b81525081600281518110610133576101336107eb565b602090810291909101015261014c600180546001019055565b604051806101c0016040528060405180602001604052805f815250815260200160405180610260016040528061023e8152602001613bc161023e913981526020810183905260400161019f42600a6107ff565b81526020016101b142620151806107ff565b8152602080820185905233604080840191909152600160608401819052608084018190525f60a08501819052670de0b6b3a764000060c086015260e0850181905242610100860152610120909401849052548352600490915290208151819061021a90826108a8565b506020820151600182019061022f90826108a8565b506040820151805161024b9160028401916020909101906106ba565b50606082015160038201556080820151600482015560a0820151805161027b91600584019160209091019061070e565b5060c08201516006820180546001600160a01b0319166001600160a01b0392831617905560e08301516007830155610100808401516008840180546101208701516001600160a81b0319909116921515610100600160a81b03191692909217919093169091021790556101408201516009820155610160820151600a8201805460ff1916911515919091179055610180820151600b8201556101a090910151600c909101556103273390565b6001600160a01b031661033960015490565b7f68d72977fb47b474e850de31fa3e3fdceff2fc7ae0de285763b8f70ef283d56b61036542600a6107ff565b61037242620151806107ff565b6040805160808082525f9082015260a06020820181905261023e908201527f4c6f72656d20497073756d2069732073696d706c792064756d6d79207465787460c08201527f206f6620746865207072696e74696e6720616e64207479706573657474696e6760e08201527f20696e6475737472792e204c6f72656d20497073756d20686173206265656e206101008201527f74686520696e6475737472792773207374616e646172642064756d6d792074656101208201527f787420657665722073696e6365207468652031353030732c207768656e20616e6101408201527f20756e6b6e6f776e207072696e74657220746f6f6b20612067616c6c6579206f6101608201527f66207479706520616e6420736372616d626c656420697420746f206d616b65206101808201527f6120747970652073706563696d656e20626f6f6b2e20497420686173207375726101a08201527f7669766564206e6f74206f6e6c7920666976652063656e7475726965732c20626101c08201527f757420616c736f20746865206c65617020696e746f20656c656374726f6e69636101e08201527f207479706573657474696e672c2072656d61696e696e6720657373656e7469616102008201527f6c6c7920756e6368616e6765642e2049742077617320706f70756c61726973656102208201527f6420696e207468652031393630732077697468207468652072656c65617365206102408201527f6f66204c657472617365742073686565747320636f6e7461696e696e67204c6f6102608201527f72656d20497073756d2070617373616765732c20616e64206d6f7265207265636102808201527f656e746c792077697468206465736b746f70207075626c697368696e6720736f6102a08201527f667477617265206c696b6520416c64757320506167654d616b657220696e636c6102c08201527f7564696e672076657273696f6e73206f66204c6f72656d20497073756d2e00006102e08201529081019290925260608201526103000160405180910390a35050610962565b5f80546001600160a01b038381166001600160a01b0319831681178455604051919092169283917f8be0079c531659141344cd1fd0a4f28419497f9722a3daafe3b4186f6b6457e09190a35050565b828054828255905f5260205f209081019282156106fe579160200282015b828111156106fe57825182906106ee90826108a8565b50916020019190600101906106d8565b5061070a92915061076d565b5090565b828054828255905f5260205f20908101928215610761579160200282015b8281111561076157825182546001600160a01b0319166001600160a01b0390911617825560209092019160019091019061072c565b5061070a929150610789565b8082111561070a575f610780828261079d565b5060010161076d565b5b8082111561070a575f815560010161078a565b5080546107a990610824565b5f825580601f106107b8575050565b601f0160209004905f5260205f20908101906107d49190610789565b50565b634e487b7160e01b5f52604160045260245ffd5b634e487b7160e01b5f52603260045260245ffd5b8082018082111561081e57634e487b7160e01b5f52601160045260245ffd5b92915050565b600181811c9082168061083857607f821691505b60208210810361085657634e487b7160e01b5f52602260045260245ffd5b50919050565b601f8211156108a357805f5260205f20601f840160051c810160208510156108815750805b601f840160051c820191505b818110156108a0575f815560010161088d565b50505b505050565b81516001600160401b038111156108c1576108c16107d7565b6108d5816108cf8454610824565b8461085c565b6020601f821160018114610907575f83156108f05750848201515b5f19600385901b1c1916600184901b1784556108a0565b5f84815260208120601f198516915b828110156109365787850151825560209485019460019092019101610916565b508482101561095357868401515f19600387901b60f8161c191681555b50505050600190811b01905550565b6132528061096f5f395ff3fe6080604052600436106101e6575f3560e01c8063715018a611610108578063c3105a6b1161009d578063e0ea29fc1161006d578063e0ea29fc1461056f578063f2fde38b1461059b578063f48272d2146105ba578063fdd5ad23146105f1578063fe7e8e5b14610607575f5ffd5b8063c3105a6b146104fc578063d97d9fd214610528578063ddca3f431461053b578063e0caa72914610550575f5ffd5b80638da5cb5b116100d85780638da5cb5b146104865780639012c4a8146104ac578063b8de4343146104cb578063bbe4fd50146104ea575f5ffd5b8063715018a61461042c57806379c4be94146104405780637a897de91461045f5780638456cb5914610472575f5ffd5b8063397c46861161017e57806356a6d9ef1161014e57806356a6d9ef146103b25780635c975abb146103d15780635de3b598146103ee5780636db2feb21461040d575f5ffd5b8063397c46861461033f5780633ccfd60b1461035e5780633dea5bc3146103725780633f4ba83a1461039e575f5ffd5b80632c30a81c116101b95780632c30a81c146102805780632cbbd738146102bc5780633049b04b146102e857806335da0a151461031e575f5ffd5b806312065fe0146101ea5780631982f1d31461020b5780631cc6fdad1461023b57806322a0124014610251575b5f5ffd5b3480156101f5575f5ffd5b50475b6040519081526020015b60405180910390f35b348015610216575f5ffd5b5061022a6102253660046124ea565b610634565b60405161020295949392919061252f565b348015610246575f5ffd5b506002546101f89081565b34801561025c575f5ffd5b5061027061026b366004612625565b6106f6565b6040519015158152602001610202565b34801561028b575f5ffd5b5061029f61029a3660046124ea565b61072e565b604080519315158452602084019290925290820152606001610202565b3480156102c7575f5ffd5b506102db6102d63660046124ea565b61076f565b604051610202919061270d565b3480156102f3575f5ffd5b506101f8610302366004612855565b600760209081525f928352604080842090915290825290205481565b348015610329575f5ffd5b5061033d6103383660046129a5565b610add565b005b34801561034a575f5ffd5b506101f8610359366004612aa8565b610c84565b348015610369575f5ffd5b5061033d610caf565b34801561037d575f5ffd5b5061039161038c366004612ad2565b610d3b565b6040516102029190612aed565b3480156103a9575f5ffd5b5061033d610da4565b3480156103bd575f5ffd5b5061033d6103cc366004612aa8565b610db6565b3480156103dc575f5ffd5b505f54600160a01b900460ff16610270565b3480156103f9575f5ffd5b50610270610408366004612b2f565b610e32565b348015610418575f5ffd5b506102706104273660046124ea565b610e66565b348015610437575f5ffd5b5061033d610e8b565b34801561044b575f5ffd5b506101f861045a366004612ad2565b610e9c565b61033d61046d366004612b4f565b610f04565b34801561047d575f5ffd5b5061033d61143f565b348015610491575f5ffd5b505f546040516001600160a01b039091168152602001610202565b3480156104b7575f5ffd5b5061033d6104c63660046124ea565b61144f565b3480156104d6575f5ffd5b5061033d6104e5366004612be2565b61145c565b3480156104f5575f5ffd5b50426101f8565b348015610507575f5ffd5b5061051b610516366004612b2f565b6114cc565b6040516102029190612c26565b6101f8610536366004612c38565b611577565b348015610546575f5ffd5b506101f860035481565b34801561055b575f5ffd5b5061051b61056a366004612b2f565b6118b5565b34801561057a575f5ffd5b5061058e6105893660046124ea565b611957565b6040516102029190612d45565b3480156105a6575f5ffd5b5061033d6105b5366004612ad2565b611bcb565b3480156105c5575f5ffd5b506105d96105d43660046124ea565b611c08565b6040516102029c9b9a99989796959493929190612df3565b3480156105fc575f5ffd5b506001546101f89081565b348015610612575f5ffd5b50610626610621366004612ad2565b611d85565b604051610202929190612e83565b60056020525f90815260409020805460018201805491929161065590612fc5565b80601f016020809104026020016040519081016040528092919081815260200182805461068190612fc5565b80156106cc5780601f106106a3576101008083540402835291602001916106cc565b820191905f5260205f20905b8154815290600101906020018083116106af57829003601f168201915b505050506002830154600390930154919260ff8116926101009091046001600160a01b0316915085565b5f6106ff6121d6565b5f84815260066020908152604080832086845290915290206107218382613048565b50600190505b9392505050565b5f81815260046020819052604082206003810154910154829182914281111561075f57600194509092509050610768565b5f945090925090505b9193909250565b6107ed604051806101c001604052806060815260200160608152602001606081526020015f81526020015f8152602001606081526020015f6001600160a01b031681526020015f81526020015f151581526020015f6001600160a01b031681526020015f81526020015f151581526020015f81526020015f81525090565b5f828152600460205260409081902081516101c0810190925280548290829061081590612fc5565b80601f016020809104026020016040519081016040528092919081815260200182805461084190612fc5565b801561088c5780601f106108635761010080835404028352916020019161088c565b820191905f5260205f20905b81548152906001019060200180831161086f57829003601f168201915b505050505081526020016001820180546108a590612fc5565b80601f01602080910402602001604051908101604052809291908181526020018280546108d190612fc5565b801561091c5780601f106108f35761010080835404028352916020019161091c565b820191905f5260205f20905b8154815290600101906020018083116108ff57829003601f168201915b5050505050815260200160028201805480602002602001604051908101604052809291908181526020015f905b828210156109f1578382905f5260205f2001805461096690612fc5565b80601f016020809104026020016040519081016040528092919081815260200182805461099290612fc5565b80156109dd5780601f106109b4576101008083540402835291602001916109dd565b820191905f5260205f20905b8154815290600101906020018083116109c057829003601f168201915b505050505081526020019060010190610949565b505050508152602001600382015481526020016004820154815260200160058201805480602002602001604051908101604052809291908181526020018280548015610a6457602002820191905f5260205f20905b81546001600160a01b03168152600190910190602001808311610a46575b505050918352505060068201546001600160a01b03908116602083015260078301546040830152600883015460ff80821615156060850152610100918290049092166080840152600984015460a0840152600a840154909116151560c0830152600b83015460e0830152600c9092015491015292915050565b5f8a8152600460205260409020600601548a906001600160a01b03163314610b695760405162461bcd60e51b815260206004820152603460248201527f5468652073656e646572206973206e6f7420746865206d616e61676572206f66604482015273103a34329032b73a32b932b2103837b63624b21760611b60648201526084015b60405180910390fd5b5f8b8152600460205260409020610b808b82613048565b505f8b8152600460205260409020600101610b9b8a82613048565b505f8b81526004602090815260409091208951610bc0926002909201918b01906123d0565b505f8b81526004602090815260409091208851610be5926005909201918a0190612424565b505f8b8152600460205260409020600781018790556008810180546001600160a81b031916871515610100600160a81b031916176101006001600160a01b0388160217905560098101849055600a01805460ff1916831515179055336001600160a01b03168b7fa3a8f6e6f61cd97a866c0816363d95dadc283c7d9697713ad96302d0cd2ea14d60405160405180910390a35050505050505050505050565b6008602052815f5260405f208181548110610c9d575f80fd5b905f5260205f20015f91509150505481565b610cb76121d6565b475f610cca5f546001600160a01b031690565b6001600160a01b0316826040515f6040518083038185875af1925050503d805f8114610d11576040519150601f19603f3d011682016040523d82523d5f602084013e610d16565b606091505b5050905080610d375760405162461bcd60e51b8152600401610b6090613102565b5050565b6001600160a01b0381165f90815260086020908152604091829020805483518184028101840190945280845260609392830182828015610d9857602002820191905f5260205f20905b815481526020019060010190808311610d84575b50505050509050919050565b610dac6121d6565b610db4612202565b565b610dbe6121d6565b5f826001600160a01b0316826040515f6040518083038185875af1925050503d805f8114610e07576040519150601f19603f3d011682016040523d82523d5f602084013e610e0c565b606091505b5050905080610e2d5760405162461bcd60e51b8152600401610b6090613102565b505050565b5f610e3b6121d6565b5f8381526006602090815260408083208584529091528120610e5c91612483565b5060015b92915050565b5f818152600460208190526040822001544210610e84576001610e60565b5f92915050565b610e936121d6565b610db45f612256565b6040516370a0823160e01b81523060048201525f906001600160a01b038316906370a0823190602401602060405180830381865afa158015610ee0573d5f5f3e3d5ffd5b505050506040513d601f19601f82011682018060405250810190610e609190613122565b5f8581526004602052604090206005015415610f2557610f23856122a5565b505b5f85815260046020526040902060030154421015610f5857604051630a8d68c960e21b8152426004820152602401610b60565b5f85815260046020819052604090912001544210610fb85760405162461bcd60e51b815260206004820152601e60248201527f54686520656e746572656420706f6c6c204944206973206578706972656400006044820152606401610b60565b5f858152600460205260409020600a015460ff161561100f5760405162461bcd60e51b8152602060048201526013602482015272151a1a5cc81c1bdb1b081a5cc81c185d5cd959606a1b6044820152606401610b60565b5f8581526004602090815260408083206007908101549083528184203385529092529091205410611055576040516304f3b74b60e41b8152336004820152602401610b60565b5f8581526004602052604090206008015460ff16156112cc575f8581526004602052604090206008015461010090046001600160a01b0316611163575f858152600460205260409020600901543410156110df575f8581526004602081905260409182902060090154915163bc03bccd60e01b815290810191909152346024820152604401610b60565b5f858152600460205260408082206006015490516001600160a01b039091169034908381818185875af1925050503d805f8114611137576040519150601f19603f3d011682016040523d82523d5f602084013e61113c565b606091505b505090508061115d5760405162461bcd60e51b8152600401610b6090613102565b506112cc565b5f8581526004602052604081206008015461010090046001600160a01b03166365aeaa9530336040516001600160e01b031960e085901b1681526001600160a01b03928316600482015291166024820152604401602060405180830381865afa1580156111d2573d5f5f3e3d5ffd5b505050506040513d601f19601f820116820180604052508101906111f69190613122565b5f878152600460205260409020600901549091508114611247575f8681526004602081905260409182902060090154915163a24f8be960e01b8152610b609291849101918252602082015260400190565b5f86815260046020819052604091829020600881015460068201546009909201549351633b06cddd60e11b81526001600160a01b0361010090920482169463760d9bba9461129d94339416928a918a9101613139565b5f604051808303815f87803b1580156112b4575f5ffd5b505af11580156112c6573d5f5f3e3d5ffd5b50505050505b5f858152600460205260408120600c018054600192906112ed908490613192565b90915550505f858152600760209081526040808320338452909152812080546001929061131b908490613192565b90915550506002805460010190556040518060a001604052808681526020018581526020018460ff1681526020016113503390565b6001600160a01b031681526020014281525060055f61136e60025490565b81526020808201929092526040015f20825181559082015160018201906113959082613048565b50604082015160028201805460608501516001600160a01b0316610100026001600160a81b031990911660ff909316929092179190911790556080909101516003909101556113e13390565b6001600160a01b0316857fcc8498191b5ce61c56efc7b9fd57855fd7cd7f3bcb39131fd0693c6dbf67dcec60045f8981526020019081526020015f20600c015460405161143091815260200190565b60405180910390a35050505050565b6114476121d6565b610db461233b565b6114576121d6565b600355565b6114646121d6565b604051633b06cddd60e11b81526001600160a01b0386169063760d9bba906114989030908890889088908890600401613139565b5f604051808303815f87803b1580156114af575f5ffd5b505af11580156114c1573d5f5f3e3d5ffd5b505050505050505050565b5f82815260066020908152604080832084845290915290208054606091906114f390612fc5565b80601f016020809104026020016040519081016040528092919081815260200182805461151f90612fc5565b801561156a5780601f106115415761010080835404028352916020019161156a565b820191905f5260205f20905b81548152906001019060200180831161154d57829003601f168201915b5050505050905092915050565b5f4289116115dc5760405162461bcd60e51b815260206004820152602c60248201527f53746172742074696d65206d7573742062652067726561746572207468616e2060448201526b63757272656e742074696d6560a01b6064820152608401610b60565b88881161163c5760405162461bcd60e51b815260206004820152602860248201527f456e642074696d65206d7573742062652067726561746572207468616e2073746044820152676172742074696d6560c01b6064820152608401610b60565b8415611683575f546001600160a01b03163314611683576003543410156116835760035460405163bc03bccd60e01b81526004810191909152346024820152604401610b60565b611691600180546001019055565b604051806101c001604052808d81526020018c81526020018b81526020018a81526020018981526020018881526020016116c83390565b6001600160a01b031681526020018781526020018615158152602001856001600160a01b0316815260200184815260200183151581526020014281526020015f81525060045f61171760015490565b815260208101919091526040015f20815181906117349082613048565b50602082015160018201906117499082613048565b50604082015180516117659160028401916020909101906123d0565b50606082015160038201556080820151600482015560a08201518051611795916005840191602090910190612424565b5060c08201516006820180546001600160a01b0319166001600160a01b0392831617905560e0830151600783015561010080840151600880850180546101208801516001600160a81b0319909116931515610100600160a81b0319169390931792909416909202179091556101408301516009830155610160830151600a8301805460ff1916911515919091179055610180830151600b8301556101a090920151600c90910155335f818152602092835260408120600180548254808301845592845294909220019290925590545f1b7f68d72977fb47b474e850de31fa3e3fdceff2fc7ae0de285763b8f70ef283d56b8e8e8d8d60405161189a94939291906131a5565b60405180910390a36001549c9b505050505050505050505050565b600660209081525f9283526040808420909152908252902080546118d890612fc5565b80601f016020809104026020016040519081016040528092919081815260200182805461190490612fc5565b801561194f5780601f106119265761010080835404028352916020019161194f565b820191905f5260205f20905b81548152906001019060200180831161193257829003601f168201915b505050505081565b5f818152600460205260408120600c0154606091816001600160401b0381111561198357611983612570565b6040519080825280602002602001820160405280156119f457816020015b6119e16040518060c001604052805f81526020015f8152602001606081526020015f60ff1681526020015f6001600160a01b031681526020015f81525090565b8152602001906001900390816119a15790505b5090505f5b82811015611bc3578460055f611a10846001613192565b815260208101919091526040015f205403611bbb576040518060c00160405280826001611a3d9190613192565b815260200160055f611a50856001613192565b5f1b81526020019081526020015f205f0154815260200160055f846001611a779190613192565b5f1b81526020019081526020015f206001018054611a9490612fc5565b80601f0160208091040260200160405190810160405280929190818152602001828054611ac090612fc5565b8015611b0b5780601f10611ae257610100808354040283529160200191611b0b565b820191905f5260205f20905b815481529060010190602001808311611aee57829003601f168201915b505050918352505060200160055f611b24856001613192565b81526020808201929092526040015f9081206002015460ff168352910190600590611b50856001613192565b81526020808201929092526040015f9081206002015461010090046001600160a01b03168352910190600590611b87856001613192565b5f1b81526020019081526020015f2060030154815250828281518110611baf57611baf6131dd565b60200260200101819052505b6001016119f9565b509392505050565b611bd36121d6565b6001600160a01b038116611bfc57604051631e4fbdf760e01b81525f6004820152602401610b60565b611c0581612256565b50565b60046020525f9081526040902080548190611c2290612fc5565b80601f0160208091040260200160405190810160405280929190818152602001828054611c4e90612fc5565b8015611c995780601f10611c7057610100808354040283529160200191611c99565b820191905f5260205f20905b815481529060010190602001808311611c7c57829003601f168201915b505050505090806001018054611cae90612fc5565b80601f0160208091040260200160405190810160405280929190818152602001828054611cda90612fc5565b8015611d255780601f10611cfc57610100808354040283529160200191611d25565b820191905f5260205f20905b815481529060010190602001808311611d0857829003601f168201915b505050600384015460048501546006860154600787015460088801546009890154600a8a0154600b8b0154600c909b0154999a96999598506001600160a01b039485169750929560ff80841696610100909404909516949193909116918c565b60605f5f611d9260015490565b6001600160401b03811115611da957611da9612570565b604051908082528060200260200182016040528015611e4757816020015b611e34604051806101a001604052805f81526020016060815260200160608152602001606081526020015f81526020015f8152602001606081526020015f81526020015f81526020015f6001600160a01b031681526020015f151581526020015f81526020015f81525090565b815260200190600190039081611dc75790505b5090505f60015b60015481116121cb575f818152600460205260409020600601546001600160a01b038088169116036121b957604080516101a0810182528281525f838152600460209081529290208054600195509192830191611eaa90612fc5565b80601f0160208091040260200160405190810160405280929190818152602001828054611ed690612fc5565b8015611f215780601f10611ef857610100808354040283529160200191611f21565b820191905f5260205f20905b815481529060010190602001808311611f0457829003601f168201915b5050505050815260200160045f845f1b81526020019081526020015f206001018054611f4c90612fc5565b80601f0160208091040260200160405190810160405280929190818152602001828054611f7890612fc5565b8015611fc35780601f10611f9a57610100808354040283529160200191611fc3565b820191905f5260205f20905b815481529060010190602001808311611fa657829003601f168201915b50505091835250505f8381526004602090815260408083206002018054825181850281018501909352808352948301949193909284015b828210156120a2578382905f5260205f2001805461201790612fc5565b80601f016020809104026020016040519081016040528092919081815260200182805461204390612fc5565b801561208e5780601f106120655761010080835404028352916020019161208e565b820191905f5260205f20905b81548152906001019060200180831161207157829003601f168201915b505050505081526020019060010190611ffa565b505050908252505f83815260046020818152604080842060038101548387015280840154828701529387905291815260059092018054825181850281018501909352808352606090940193919290919083018282801561212957602002820191905f5260205f20905b81546001600160a01b0316815260019091019060200180831161210b575b50505091835250505f83815260046020818152604080842060078101548387015260098101549186019190915260068101546001600160a01b03166060860152600a81015460ff1615156080860152600b81015460a08601529286905252600c015460c0909101528361219d6001846131f1565b815181106121ad576121ad6131dd565b60200260200101819052505b806121c381613204565b915050611e4e565b509094909350915050565b5f546001600160a01b03163314610db45760405163118cdaa760e01b8152336004820152602401610b60565b61220a61237d565b5f805460ff60a01b191690557f5db9ee0a495bf2e6ff9c91a7834c1ba4fdd244a5e8aa4e537bd38aeae4b073aa335b6040516001600160a01b03909116815260200160405180910390a1565b5f80546001600160a01b038381166001600160a01b0319831681178455604051919092169283917f8be0079c531659141344cd1fd0a4f28419497f9722a3daafe3b4186f6b6457e09190a35050565b5f805b5f838152600460205260409020600501548111612318575f8381526004602052604090206005018054339190839081106122e4576122e46131dd565b5f918252602090912001546001600160a01b0316036123065750600192915050565b8061231081613204565b9150506122a8565b5060405163f2e7fc4760e01b815260048101839052336024820152604401610b60565b6123436123a6565b5f805460ff60a01b1916600160a01b1790557f62e78cea01bee320cd4e420270b5ea74000d11b0c9f74754ebdbfc544b05a2586122393390565b5f54600160a01b900460ff16610db457604051638dfc202b60e01b815260040160405180910390fd5b5f54600160a01b900460ff1615610db45760405163d93c066560e01b815260040160405180910390fd5b828054828255905f5260205f20908101928215612414579160200282015b8281111561241457825182906124049082613048565b50916020019190600101906123ee565b506124209291506124ba565b5090565b828054828255905f5260205f20908101928215612477579160200282015b8281111561247757825182546001600160a01b0319166001600160a01b03909116178255602090920191600190910190612442565b506124209291506124d6565b50805461248f90612fc5565b5f825580601f1061249e575050565b601f0160209004905f5260205f2090810190611c0591906124d6565b80821115612420575f6124cd8282612483565b506001016124ba565b5b80821115612420575f81556001016124d7565b5f602082840312156124fa575f5ffd5b5035919050565b5f81518084528060208401602086015e5f602082860101526020601f19601f83011685010191505092915050565b85815260a060208201525f61254760a0830187612501565b60ff959095166040830152506001600160a01b0392909216606083015260809091015292915050565b634e487b7160e01b5f52604160045260245ffd5b604051601f8201601f191681016001600160401b03811182821017156125ac576125ac612570565b604052919050565b5f82601f8301126125c3575f5ffd5b8135602083015f5f6001600160401b038411156125e2576125e2612570565b50601f8301601f19166020016125f781612584565b91505082815285838301111561260b575f5ffd5b828260208301375f92810160200192909252509392505050565b5f5f5f60608486031215612637575f5ffd5b833592506020840135915060408401356001600160401b0381111561265a575f5ffd5b612666868287016125b4565b9150509250925092565b5f82825180855260208501945060208160051b830101602085015f5b838110156126be57601f198584030188526126a8838351612501565b602098890198909350919091019060010161268c565b50909695505050505050565b5f8151808452602084019350602083015f5b828110156127035781516001600160a01b03168652602095860195909101906001016126dc565b5093949350505050565b602081525f82516101c0602084015261272a6101e0840182612501565b90506020840151601f198483030160408501526127478282612501565b9150506040840151601f198483030160608501526127658282612670565b91505060608401516080840152608084015160a084015260a0840151601f198483030160c085015261279782826126ca565b91505060c08401516127b460e08501826001600160a01b03169052565b5060e08401516101008401526101008401516127d561012085018215159052565b506101208401516001600160a01b0381166101408501525061014084015161016084015261016084015161280e61018085018215159052565b506101808401516101a08401526101a08401516101c08401528091505092915050565b6001600160a01b0381168114611c05575f5ffd5b803561285081612831565b919050565b5f5f60408385031215612866575f5ffd5b82359150602083013561287881612831565b809150509250929050565b5f6001600160401b0382111561289b5761289b612570565b5060051b60200190565b5f82601f8301126128b4575f5ffd5b81356128c76128c282612883565b612584565b8082825260208201915060208360051b8601019250858311156128e8575f5ffd5b602085015b838110156129285780356001600160401b0381111561290a575f5ffd5b612919886020838a01016125b4565b845250602092830192016128ed565b5095945050505050565b5f82601f830112612941575f5ffd5b813561294f6128c282612883565b8082825260208201915060208360051b860101925085831115612970575f5ffd5b602085015b8381101561292857803561298881612831565b835260209283019201612975565b80358015158114612850575f5ffd5b5f5f5f5f5f5f5f5f5f5f6101408b8d0312156129bf575f5ffd5b8a35995060208b01356001600160401b038111156129db575f5ffd5b6129e78d828e016125b4565b99505060408b01356001600160401b03811115612a02575f5ffd5b612a0e8d828e016125b4565b98505060608b01356001600160401b03811115612a29575f5ffd5b612a358d828e016128a5565b97505060808b01356001600160401b03811115612a50575f5ffd5b612a5c8d828e01612932565b96505060a08b01359450612a7260c08c01612996565b9350612a8060e08c01612845565b92506101008b01359150612a976101208c01612996565b90509295989b9194979a5092959850565b5f5f60408385031215612ab9575f5ffd5b8235612ac481612831565b946020939093013593505050565b5f60208284031215612ae2575f5ffd5b813561072781612831565b602080825282518282018190525f918401906040840190835b81811015612b24578351835260209384019390920191600101612b06565b509095945050505050565b5f5f60408385031215612b40575f5ffd5b50508035926020909101359150565b5f5f5f5f5f60a08688031215612b63575f5ffd5b8535945060208601356001600160401b03811115612b7f575f5ffd5b612b8b888289016125b4565b945050604086013560ff81168114612ba1575f5ffd5b9250612baf60608701612996565b915060808601356001600160401b03811115612bc9575f5ffd5b612bd5888289016125b4565b9150509295509295909350565b5f5f5f5f5f60a08688031215612bf6575f5ffd5b8535612c0181612831565b94506020860135612c1181612831565b935060408601359250612baf60608701612996565b602081525f6107276020830184612501565b5f5f5f5f5f5f5f5f5f5f5f6101608c8e031215612c53575f5ffd5b8b356001600160401b03811115612c68575f5ffd5b612c748e828f016125b4565b9b505060208c01356001600160401b03811115612c8f575f5ffd5b612c9b8e828f016125b4565b9a505060408c01356001600160401b03811115612cb6575f5ffd5b612cc28e828f016128a5565b99505060608c0135975060808c0135965060a08c01356001600160401b03811115612ceb575f5ffd5b612cf78e828f01612932565b96505060c08c01359450612d0d60e08d01612996565b9350612d1c6101008d01612845565b92506101208c01359150612d336101408d01612996565b90509295989b509295989b9093969950565b5f602082016020835280845180835260408501915060408160051b8601019250602086015f5b82811015612de757603f1987860301845281518051865260208101516020870152604081015160c06040880152612da560c0880182612501565b60608381015160ff16908901526080808401516001600160a01b03169089015260a0928301519290970191909152506020938401939190910190600101612d6b565b50929695505050505050565b61018081525f612e0761018083018f612501565b8281036020840152612e19818f612501565b604084018e9052606084018d90526001600160a01b038c8116608086015260a085018c90528a151560c0860152891660e085015261010084018890528615156101208501529150612e679050565b61014082019390935261016001529a9950505050505050505050565b5f604082016040835280855180835260608501915060608160051b8601019250602087015f5b82811015612fb257605f1987860301845281518051865260208101516101a06020880152612edb6101a0880182612501565b905060408201518782036040890152612ef48282612501565b91505060608201518782036060890152612f0e8282612670565b9150506080820151608088015260a082015160a088015260c082015187820360c0890152612f3c82826126ca565b91505060e082015160e0880152610100820151610100880152610120820151612f716101208901826001600160a01b03169052565b50610140820151612f8761014089018215159052565b5061016082810151908801526101809182015191909601526020938401939190910190600101612ea9565b5050505083151560208401529050610727565b600181811c90821680612fd957607f821691505b602082108103612ff757634e487b7160e01b5f52602260045260245ffd5b50919050565b601f821115610e2d57805f5260205f20601f840160051c810160208510156130225750805b601f840160051c820191505b81811015613041575f815560010161302e565b5050505050565b81516001600160401b0381111561306157613061612570565b6130758161306f8454612fc5565b84612ffd565b6020601f8211600181146130a7575f83156130905750848201515b5f19600385901b1c1916600184901b178455613041565b5f84815260208120601f198516915b828110156130d657878501518255602094850194600190920191016130b6565b50848210156130f357868401515f19600387901b60f8161c191681555b50505050600190811b01905550565b60208082526006908201526511985a5b195960d21b604082015260600190565b5f60208284031215613132575f5ffd5b5051919050565b6001600160a01b0386811682528516602082015260408101849052821515606082015260a0608082018190525f9061317390830184612501565b979650505050505050565b634e487b7160e01b5f52601160045260245ffd5b80820180821115610e6057610e6061317e565b608081525f6131b76080830187612501565b82810360208401526131c98187612501565b604084019590955250506060015292915050565b634e487b7160e01b5f52603260045260245ffd5b81810381811115610e6057610e6061317e565b5f600182016132155761321561317e565b506001019056fea2646970667358221220dd070655bb380bfb6d3bb7ddd929f55b24e883d327b7f9ff1113e7031f68a98c64736f6c634300081c00334c6f72656d20497073756d2069732073696d706c792064756d6d792074657874206f6620746865207072696e74696e6720616e64207479706573657474696e6720696e6475737472792e204c6f72656d20497073756d20686173206265656e2074686520696e6475737472792773207374616e646172642064756d6d79207465787420657665722073696e6365207468652031353030732c207768656e20616e20756e6b6e6f776e207072696e74657220746f6f6b20612067616c6c6579206f66207479706520616e6420736372616d626c656420697420746f206d616b65206120747970652073706563696d656e20626f6f6b2e20497420686173207375727669766564206e6f74206f6e6c7920666976652063656e7475726965732c2062757420616c736f20746865206c65617020696e746f20656c656374726f6e6963207479706573657474696e672c2072656d61696e696e6720657373656e7469616c6c7920756e6368616e6765642e2049742077617320706f70756c61726973656420696e207468652031393630732077697468207468652072656c65617365206f66204c657472617365742073686565747320636f6e7461696e696e67204c6f72656d20497073756d2070617373616765732c20616e64206d6f726520726563656e746c792077697468206465736b746f70207075626c697368696e6720736f667477617265206c696b6520416c64757320506167654d616b657220696e636c7564696e672076657273696f6e73206f66204c6f72656d20497073756d2e",
			"opcodes": "PUSH1 0x80 PUSH1 0x40 MSTORE PUSH0 PUSH1 0x3 SSTORE CALLVALUE DUP1 ISZERO PUSH2 0x13 JUMPI PUSH0 PUSH0 REVERT JUMPDEST POP CALLER DUP1 PUSH2 0x39 JUMPI PUSH1 0x40 MLOAD PUSH4 0x1E4FBDF7 PUSH1 0xE0 SHL DUP2 MSTORE PUSH0 PUSH1 0x4 DUP3 ADD MSTORE PUSH1 0x24 ADD PUSH1 0x40 MLOAD DUP1 SWAP2 SUB SWAP1 REVERT JUMPDEST PUSH2 0x42 DUP2 PUSH2 0x66B JUMP JUMPDEST POP PUSH0 DUP1 SLOAD PUSH1 0xFF PUSH1 0xA0 SHL NOT AND DUP2 SSTORE PUSH1 0x40 DUP1 MLOAD DUP3 DUP2 MSTORE PUSH1 0x3 PUSH1 0x20 DUP3 ADD DUP2 DUP2 MSTORE PUSH1 0xA0 DUP4 ADD DUP5 MSTORE SWAP2 SWAP4 SWAP3 DUP5 ADD JUMPDEST PUSH1 0x60 DUP2 MSTORE PUSH1 0x20 ADD SWAP1 PUSH1 0x1 SWAP1 SUB SWAP1 DUP2 PUSH2 0x6B JUMPI SWAP1 POP POP SWAP1 POP PUSH1 0x40 MLOAD DUP1 PUSH1 0x40 ADD PUSH1 0x40 MSTORE DUP1 PUSH1 0x8 DUP2 MSTORE PUSH1 0x20 ADD PUSH8 0x4F7074696F6E2031 PUSH1 0xC0 SHL DUP2 MSTORE POP DUP2 PUSH0 DUP2 MLOAD DUP2 LT PUSH2 0xB5 JUMPI PUSH2 0xB5 PUSH2 0x7EB JUMP JUMPDEST PUSH1 0x20 MUL PUSH1 0x20 ADD ADD DUP2 SWAP1 MSTORE POP PUSH1 0x40 MLOAD DUP1 PUSH1 0x40 ADD PUSH1 0x40 MSTORE DUP1 PUSH1 0x8 DUP2 MSTORE PUSH1 0x20 ADD PUSH8 0x27B83A34B7B71019 PUSH1 0xC1 SHL DUP2 MSTORE POP DUP2 PUSH1 0x1 DUP2 MLOAD DUP2 LT PUSH2 0xF4 JUMPI PUSH2 0xF4 PUSH2 0x7EB JUMP JUMPDEST PUSH1 0x20 MUL PUSH1 0x20 ADD ADD DUP2 SWAP1 MSTORE POP PUSH1 0x40 MLOAD DUP1 PUSH1 0x40 ADD PUSH1 0x40 MSTORE DUP1 PUSH1 0x8 DUP2 MSTORE PUSH1 0x20 ADD PUSH8 0x4F7074696F6E2033 PUSH1 0xC0 SHL DUP2 MSTORE POP DUP2 PUSH1 0x2 DUP2 MLOAD DUP2 LT PUSH2 0x133 JUMPI PUSH2 0x133 PUSH2 0x7EB JUMP JUMPDEST PUSH1 0x20 SWAP1 DUP2 MUL SWAP2 SWAP1 SWAP2 ADD ADD MSTORE PUSH2 0x14C PUSH1 0x1 DUP1 SLOAD PUSH1 0x1 ADD SWAP1 SSTORE JUMP JUMPDEST PUSH1 0x40 MLOAD DUP1 PUSH2 0x1C0 ADD PUSH1 0x40 MSTORE DUP1 PUSH1 0x40 MLOAD DUP1 PUSH1 0x20 ADD PUSH1 0x40 MSTORE DUP1 PUSH0 DUP2 MSTORE POP DUP2 MSTORE PUSH1 0x20 ADD PUSH1 0x40 MLOAD DUP1 PUSH2 0x260 ADD PUSH1 0x40 MSTORE DUP1 PUSH2 0x23E DUP2 MSTORE PUSH1 0x20 ADD PUSH2 0x3BC1 PUSH2 0x23E SWAP2 CODECOPY DUP2 MSTORE PUSH1 0x20 DUP2 ADD DUP4 SWAP1 MSTORE PUSH1 0x40 ADD PUSH2 0x19F TIMESTAMP PUSH1 0xA PUSH2 0x7FF JUMP JUMPDEST DUP2 MSTORE PUSH1 0x20 ADD PUSH2 0x1B1 TIMESTAMP PUSH3 0x15180 PUSH2 0x7FF JUMP JUMPDEST DUP2 MSTORE PUSH1 0x20 DUP1 DUP3 ADD DUP6 SWAP1 MSTORE CALLER PUSH1 0x40 DUP1 DUP5 ADD SWAP2 SWAP1 SWAP2 MSTORE PUSH1 0x1 PUSH1 0x60 DUP5 ADD DUP2 SWAP1 MSTORE PUSH1 0x80 DUP5 ADD DUP2 SWAP1 MSTORE PUSH0 PUSH1 0xA0 DUP6 ADD DUP2 SWAP1 MSTORE PUSH8 0xDE0B6B3A7640000 PUSH1 0xC0 DUP7 ADD MSTORE PUSH1 0xE0 DUP6 ADD DUP2 SWAP1 MSTORE TIMESTAMP PUSH2 0x100 DUP7 ADD MSTORE PUSH2 0x120 SWAP1 SWAP5 ADD DUP5 SWAP1 MSTORE SLOAD DUP4 MSTORE PUSH1 0x4 SWAP1 SWAP2 MSTORE SWAP1 KECCAK256 DUP2 MLOAD DUP2 SWAP1 PUSH2 0x21A SWAP1 DUP3 PUSH2 0x8A8 JUMP JUMPDEST POP PUSH1 0x20 DUP3 ADD MLOAD PUSH1 0x1 DUP3 ADD SWAP1 PUSH2 0x22F SWAP1 DUP3 PUSH2 0x8A8 JUMP JUMPDEST POP PUSH1 0x40 DUP3 ADD MLOAD DUP1 MLOAD PUSH2 0x24B SWAP2 PUSH1 0x2 DUP5 ADD SWAP2 PUSH1 0x20 SWAP1 SWAP2 ADD SWAP1 PUSH2 0x6BA JUMP JUMPDEST POP PUSH1 0x60 DUP3 ADD MLOAD PUSH1 0x3 DUP3 ADD SSTORE PUSH1 0x80 DUP3 ADD MLOAD PUSH1 0x4 DUP3 ADD SSTORE PUSH1 0xA0 DUP3 ADD MLOAD DUP1 MLOAD PUSH2 0x27B SWAP2 PUSH1 0x5 DUP5 ADD SWAP2 PUSH1 0x20 SWAP1 SWAP2 ADD SWAP1 PUSH2 0x70E JUMP JUMPDEST POP PUSH1 0xC0 DUP3 ADD MLOAD PUSH1 0x6 DUP3 ADD DUP1 SLOAD PUSH1 0x1 PUSH1 0x1 PUSH1 0xA0 SHL SUB NOT AND PUSH1 0x1 PUSH1 0x1 PUSH1 0xA0 SHL SUB SWAP3 DUP4 AND OR SWAP1 SSTORE PUSH1 0xE0 DUP4 ADD MLOAD PUSH1 0x7 DUP4 ADD SSTORE PUSH2 0x100 DUP1 DUP5 ADD MLOAD PUSH1 0x8 DUP5 ADD DUP1 SLOAD PUSH2 0x120 DUP8 ADD MLOAD PUSH1 0x1 PUSH1 0x1 PUSH1 0xA8 SHL SUB NOT SWAP1 SWAP2 AND SWAP3 ISZERO ISZERO PUSH2 0x100 PUSH1 0x1 PUSH1 0xA8 SHL SUB NOT AND SWAP3 SWAP1 SWAP3 OR SWAP2 SWAP1 SWAP4 AND SWAP1 SWAP2 MUL OR SWAP1 SSTORE PUSH2 0x140 DUP3 ADD MLOAD PUSH1 0x9 DUP3 ADD SSTORE PUSH2 0x160 DUP3 ADD MLOAD PUSH1 0xA DUP3 ADD DUP1 SLOAD PUSH1 0xFF NOT AND SWAP2 ISZERO ISZERO SWAP2 SWAP1 SWAP2 OR SWAP1 SSTORE PUSH2 0x180 DUP3 ADD MLOAD PUSH1 0xB DUP3 ADD SSTORE PUSH2 0x1A0 SWAP1 SWAP2 ADD MLOAD PUSH1 0xC SWAP1 SWAP2 ADD SSTORE PUSH2 0x327 CALLER SWAP1 JUMP JUMPDEST PUSH1 0x1 PUSH1 0x1 PUSH1 0xA0 SHL SUB AND PUSH2 0x339 PUSH1 0x1 SLOAD SWAP1 JUMP JUMPDEST PUSH32 0x68D72977FB47B474E850DE31FA3E3FDCEFF2FC7AE0DE285763B8F70EF283D56B PUSH2 0x365 TIMESTAMP PUSH1 0xA PUSH2 0x7FF JUMP JUMPDEST PUSH2 0x372 TIMESTAMP PUSH3 0x15180 PUSH2 0x7FF JUMP JUMPDEST PUSH1 0x40 DUP1 MLOAD PUSH1 0x80 DUP1 DUP3 MSTORE PUSH0 SWAP1 DUP3 ADD MSTORE PUSH1 0xA0 PUSH1 0x20 DUP3 ADD DUP2 SWAP1 MSTORE PUSH2 0x23E SWAP1 DUP3 ADD MSTORE PUSH32 0x4C6F72656D20497073756D2069732073696D706C792064756D6D792074657874 PUSH1 0xC0 DUP3 ADD MSTORE PUSH32 0x206F6620746865207072696E74696E6720616E64207479706573657474696E67 PUSH1 0xE0 DUP3 ADD MSTORE PUSH32 0x20696E6475737472792E204C6F72656D20497073756D20686173206265656E20 PUSH2 0x100 DUP3 ADD MSTORE PUSH32 0x74686520696E6475737472792773207374616E646172642064756D6D79207465 PUSH2 0x120 DUP3 ADD MSTORE PUSH32 0x787420657665722073696E6365207468652031353030732C207768656E20616E PUSH2 0x140 DUP3 ADD MSTORE PUSH32 0x20756E6B6E6F776E207072696E74657220746F6F6B20612067616C6C6579206F PUSH2 0x160 DUP3 ADD MSTORE PUSH32 0x66207479706520616E6420736372616D626C656420697420746F206D616B6520 PUSH2 0x180 DUP3 ADD MSTORE PUSH32 0x6120747970652073706563696D656E20626F6F6B2E2049742068617320737572 PUSH2 0x1A0 DUP3 ADD MSTORE PUSH32 0x7669766564206E6F74206F6E6C7920666976652063656E7475726965732C2062 PUSH2 0x1C0 DUP3 ADD MSTORE PUSH32 0x757420616C736F20746865206C65617020696E746F20656C656374726F6E6963 PUSH2 0x1E0 DUP3 ADD MSTORE PUSH32 0x207479706573657474696E672C2072656D61696E696E6720657373656E746961 PUSH2 0x200 DUP3 ADD MSTORE PUSH32 0x6C6C7920756E6368616E6765642E2049742077617320706F70756C6172697365 PUSH2 0x220 DUP3 ADD MSTORE PUSH32 0x6420696E207468652031393630732077697468207468652072656C6561736520 PUSH2 0x240 DUP3 ADD MSTORE PUSH32 0x6F66204C657472617365742073686565747320636F6E7461696E696E67204C6F PUSH2 0x260 DUP3 ADD MSTORE PUSH32 0x72656D20497073756D2070617373616765732C20616E64206D6F726520726563 PUSH2 0x280 DUP3 ADD MSTORE PUSH32 0x656E746C792077697468206465736B746F70207075626C697368696E6720736F PUSH2 0x2A0 DUP3 ADD MSTORE PUSH32 0x667477617265206C696B6520416C64757320506167654D616B657220696E636C PUSH2 0x2C0 DUP3 ADD MSTORE PUSH32 0x7564696E672076657273696F6E73206F66204C6F72656D20497073756D2E0000 PUSH2 0x2E0 DUP3 ADD MSTORE SWAP1 DUP2 ADD SWAP3 SWAP1 SWAP3 MSTORE PUSH1 0x60 DUP3 ADD MSTORE PUSH2 0x300 ADD PUSH1 0x40 MLOAD DUP1 SWAP2 SUB SWAP1 LOG3 POP POP PUSH2 0x962 JUMP JUMPDEST PUSH0 DUP1 SLOAD PUSH1 0x1 PUSH1 0x1 PUSH1 0xA0 SHL SUB DUP4 DUP2 AND PUSH1 0x1 PUSH1 0x1 PUSH1 0xA0 SHL SUB NOT DUP4 AND DUP2 OR DUP5 SSTORE PUSH1 0x40 MLOAD SWAP2 SWAP1 SWAP3 AND SWAP3 DUP4 SWAP2 PUSH32 0x8BE0079C531659141344CD1FD0A4F28419497F9722A3DAAFE3B4186F6B6457E0 SWAP2 SWAP1 LOG3 POP POP JUMP JUMPDEST DUP3 DUP1 SLOAD DUP3 DUP3 SSTORE SWAP1 PUSH0 MSTORE PUSH1 0x20 PUSH0 KECCAK256 SWAP1 DUP2 ADD SWAP3 DUP3 ISZERO PUSH2 0x6FE JUMPI SWAP2 PUSH1 0x20 MUL DUP3 ADD JUMPDEST DUP3 DUP2 GT ISZERO PUSH2 0x6FE JUMPI DUP3 MLOAD DUP3 SWAP1 PUSH2 0x6EE SWAP1 DUP3 PUSH2 0x8A8 JUMP JUMPDEST POP SWAP2 PUSH1 0x20 ADD SWAP2 SWAP1 PUSH1 0x1 ADD SWAP1 PUSH2 0x6D8 JUMP JUMPDEST POP PUSH2 0x70A SWAP3 SWAP2 POP PUSH2 0x76D JUMP JUMPDEST POP SWAP1 JUMP JUMPDEST DUP3 DUP1 SLOAD DUP3 DUP3 SSTORE SWAP1 PUSH0 MSTORE PUSH1 0x20 PUSH0 KECCAK256 SWAP1 DUP2 ADD SWAP3 DUP3 ISZERO PUSH2 0x761 JUMPI SWAP2 PUSH1 0x20 MUL DUP3 ADD JUMPDEST DUP3 DUP2 GT ISZERO PUSH2 0x761 JUMPI DUP3 MLOAD DUP3 SLOAD PUSH1 0x1 PUSH1 0x1 PUSH1 0xA0 SHL SUB NOT AND PUSH1 0x1 PUSH1 0x1 PUSH1 0xA0 SHL SUB SWAP1 SWAP2 AND OR DUP3 SSTORE PUSH1 0x20 SWAP1 SWAP3 ADD SWAP2 PUSH1 0x1 SWAP1 SWAP2 ADD SWAP1 PUSH2 0x72C JUMP JUMPDEST POP PUSH2 0x70A SWAP3 SWAP2 POP PUSH2 0x789 JUMP JUMPDEST DUP1 DUP3 GT ISZERO PUSH2 0x70A JUMPI PUSH0 PUSH2 0x780 DUP3 DUP3 PUSH2 0x79D JUMP JUMPDEST POP PUSH1 0x1 ADD PUSH2 0x76D JUMP JUMPDEST JUMPDEST DUP1 DUP3 GT ISZERO PUSH2 0x70A JUMPI PUSH0 DUP2 SSTORE PUSH1 0x1 ADD PUSH2 0x78A JUMP JUMPDEST POP DUP1 SLOAD PUSH2 0x7A9 SWAP1 PUSH2 0x824 JUMP JUMPDEST PUSH0 DUP3 SSTORE DUP1 PUSH1 0x1F LT PUSH2 0x7B8 JUMPI POP POP JUMP JUMPDEST PUSH1 0x1F ADD PUSH1 0x20 SWAP1 DIV SWAP1 PUSH0 MSTORE PUSH1 0x20 PUSH0 KECCAK256 SWAP1 DUP2 ADD SWAP1 PUSH2 0x7D4 SWAP2 SWAP1 PUSH2 0x789 JUMP JUMPDEST POP JUMP JUMPDEST PUSH4 0x4E487B71 PUSH1 0xE0 SHL PUSH0 MSTORE PUSH1 0x41 PUSH1 0x4 MSTORE PUSH1 0x24 PUSH0 REVERT JUMPDEST PUSH4 0x4E487B71 PUSH1 0xE0 SHL PUSH0 MSTORE PUSH1 0x32 PUSH1 0x4 MSTORE PUSH1 0x24 PUSH0 REVERT JUMPDEST DUP1 DUP3 ADD DUP1 DUP3 GT ISZERO PUSH2 0x81E JUMPI PUSH4 0x4E487B71 PUSH1 0xE0 SHL PUSH0 MSTORE PUSH1 0x11 PUSH1 0x4 MSTORE PUSH1 0x24 PUSH0 REVERT JUMPDEST SWAP3 SWAP2 POP POP JUMP JUMPDEST PUSH1 0x1 DUP2 DUP2 SHR SWAP1 DUP3 AND DUP1 PUSH2 0x838 JUMPI PUSH1 0x7F DUP3 AND SWAP2 POP JUMPDEST PUSH1 0x20 DUP3 LT DUP2 SUB PUSH2 0x856 JUMPI PUSH4 0x4E487B71 PUSH1 0xE0 SHL PUSH0 MSTORE PUSH1 0x22 PUSH1 0x4 MSTORE PUSH1 0x24 PUSH0 REVERT JUMPDEST POP SWAP2 SWAP1 POP JUMP JUMPDEST PUSH1 0x1F DUP3 GT ISZERO PUSH2 0x8A3 JUMPI DUP1 PUSH0 MSTORE PUSH1 0x20 PUSH0 KECCAK256 PUSH1 0x1F DUP5 ADD PUSH1 0x5 SHR DUP2 ADD PUSH1 0x20 DUP6 LT ISZERO PUSH2 0x881 JUMPI POP DUP1 JUMPDEST PUSH1 0x1F DUP5 ADD PUSH1 0x5 SHR DUP3 ADD SWAP2 POP JUMPDEST DUP2 DUP2 LT ISZERO PUSH2 0x8A0 JUMPI PUSH0 DUP2 SSTORE PUSH1 0x1 ADD PUSH2 0x88D JUMP JUMPDEST POP POP JUMPDEST POP POP POP JUMP JUMPDEST DUP2 MLOAD PUSH1 0x1 PUSH1 0x1 PUSH1 0x40 SHL SUB DUP2 GT ISZERO PUSH2 0x8C1 JUMPI PUSH2 0x8C1 PUSH2 0x7D7 JUMP JUMPDEST PUSH2 0x8D5 DUP2 PUSH2 0x8CF DUP5 SLOAD PUSH2 0x824 JUMP JUMPDEST DUP5 PUSH2 0x85C JUMP JUMPDEST PUSH1 0x20 PUSH1 0x1F DUP3 GT PUSH1 0x1 DUP2 EQ PUSH2 0x907 JUMPI PUSH0 DUP4 ISZERO PUSH2 0x8F0 JUMPI POP DUP5 DUP3 ADD MLOAD JUMPDEST PUSH0 NOT PUSH1 0x3 DUP6 SWAP1 SHL SHR NOT AND PUSH1 0x1 DUP5 SWAP1 SHL OR DUP5 SSTORE PUSH2 0x8A0 JUMP JUMPDEST PUSH0 DUP5 DUP2 MSTORE PUSH1 0x20 DUP2 KECCAK256 PUSH1 0x1F NOT DUP6 AND SWAP2 JUMPDEST DUP3 DUP2 LT ISZERO PUSH2 0x936 JUMPI DUP8 DUP6 ADD MLOAD DUP3 SSTORE PUSH1 0x20 SWAP5 DUP6 ADD SWAP5 PUSH1 0x1 SWAP1 SWAP3 ADD SWAP2 ADD PUSH2 0x916 JUMP JUMPDEST POP DUP5 DUP3 LT ISZERO PUSH2 0x953 JUMPI DUP7 DUP5 ADD MLOAD PUSH0 NOT PUSH1 0x3 DUP8 SWAP1 SHL PUSH1 0xF8 AND SHR NOT AND DUP2 SSTORE JUMPDEST POP POP POP POP PUSH1 0x1 SWAP1 DUP2 SHL ADD SWAP1 SSTORE POP JUMP JUMPDEST PUSH2 0x3252 DUP1 PUSH2 0x96F PUSH0 CODECOPY PUSH0 RETURN INVALID PUSH1 0x80 PUSH1 0x40 MSTORE PUSH1 0x4 CALLDATASIZE LT PUSH2 0x1E6 JUMPI PUSH0 CALLDATALOAD PUSH1 0xE0 SHR DUP1 PUSH4 0x715018A6 GT PUSH2 0x108 JUMPI DUP1 PUSH4 0xC3105A6B GT PUSH2 0x9D JUMPI DUP1 PUSH4 0xE0EA29FC GT PUSH2 0x6D JUMPI DUP1 PUSH4 0xE0EA29FC EQ PUSH2 0x56F JUMPI DUP1 PUSH4 0xF2FDE38B EQ PUSH2 0x59B JUMPI DUP1 PUSH4 0xF48272D2 EQ PUSH2 0x5BA JUMPI DUP1 PUSH4 0xFDD5AD23 EQ PUSH2 0x5F1 JUMPI DUP1 PUSH4 0xFE7E8E5B EQ PUSH2 0x607 JUMPI PUSH0 PUSH0 REVERT JUMPDEST DUP1 PUSH4 0xC3105A6B EQ PUSH2 0x4FC JUMPI DUP1 PUSH4 0xD97D9FD2 EQ PUSH2 0x528 JUMPI DUP1 PUSH4 0xDDCA3F43 EQ PUSH2 0x53B JUMPI DUP1 PUSH4 0xE0CAA729 EQ PUSH2 0x550 JUMPI PUSH0 PUSH0 REVERT JUMPDEST DUP1 PUSH4 0x8DA5CB5B GT PUSH2 0xD8 JUMPI DUP1 PUSH4 0x8DA5CB5B EQ PUSH2 0x486 JUMPI DUP1 PUSH4 0x9012C4A8 EQ PUSH2 0x4AC JUMPI DUP1 PUSH4 0xB8DE4343 EQ PUSH2 0x4CB JUMPI DUP1 PUSH4 0xBBE4FD50 EQ PUSH2 0x4EA JUMPI PUSH0 PUSH0 REVERT JUMPDEST DUP1 PUSH4 0x715018A6 EQ PUSH2 0x42C JUMPI DUP1 PUSH4 0x79C4BE94 EQ PUSH2 0x440 JUMPI DUP1 PUSH4 0x7A897DE9 EQ PUSH2 0x45F JUMPI DUP1 PUSH4 0x8456CB59 EQ PUSH2 0x472 JUMPI PUSH0 PUSH0 REVERT JUMPDEST DUP1 PUSH4 0x397C4686 GT PUSH2 0x17E JUMPI DUP1 PUSH4 0x56A6D9EF GT PUSH2 0x14E JUMPI DUP1 PUSH4 0x56A6D9EF EQ PUSH2 0x3B2 JUMPI DUP1 PUSH4 0x5C975ABB EQ PUSH2 0x3D1 JUMPI DUP1 PUSH4 0x5DE3B598 EQ PUSH2 0x3EE JUMPI DUP1 PUSH4 0x6DB2FEB2 EQ PUSH2 0x40D JUMPI PUSH0 PUSH0 REVERT JUMPDEST DUP1 PUSH4 0x397C4686 EQ PUSH2 0x33F JUMPI DUP1 PUSH4 0x3CCFD60B EQ PUSH2 0x35E JUMPI DUP1 PUSH4 0x3DEA5BC3 EQ PUSH2 0x372 JUMPI DUP1 PUSH4 0x3F4BA83A EQ PUSH2 0x39E JUMPI PUSH0 PUSH0 REVERT JUMPDEST DUP1 PUSH4 0x2C30A81C GT PUSH2 0x1B9 JUMPI DUP1 PUSH4 0x2C30A81C EQ PUSH2 0x280 JUMPI DUP1 PUSH4 0x2CBBD738 EQ PUSH2 0x2BC JUMPI DUP1 PUSH4 0x3049B04B EQ PUSH2 0x2E8 JUMPI DUP1 PUSH4 0x35DA0A15 EQ PUSH2 0x31E JUMPI PUSH0 PUSH0 REVERT JUMPDEST DUP1 PUSH4 0x12065FE0 EQ PUSH2 0x1EA JUMPI DUP1 PUSH4 0x1982F1D3 EQ PUSH2 0x20B JUMPI DUP1 PUSH4 0x1CC6FDAD EQ PUSH2 0x23B JUMPI DUP1 PUSH4 0x22A01240 EQ PUSH2 0x251 JUMPI JUMPDEST PUSH0 PUSH0 REVERT JUMPDEST CALLVALUE DUP1 ISZERO PUSH2 0x1F5 JUMPI PUSH0 PUSH0 REVERT JUMPDEST POP SELFBALANCE JUMPDEST PUSH1 0x40 MLOAD SWAP1 DUP2 MSTORE PUSH1 0x20 ADD JUMPDEST PUSH1 0x40 MLOAD DUP1 SWAP2 SUB SWAP1 RETURN JUMPDEST CALLVALUE DUP1 ISZERO PUSH2 0x216 JUMPI PUSH0 PUSH0 REVERT JUMPDEST POP PUSH2 0x22A PUSH2 0x225 CALLDATASIZE PUSH1 0x4 PUSH2 0x24EA JUMP JUMPDEST PUSH2 0x634 JUMP JUMPDEST PUSH1 0x40 MLOAD PUSH2 0x202 SWAP6 SWAP5 SWAP4 SWAP3 SWAP2 SWAP1 PUSH2 0x252F JUMP JUMPDEST CALLVALUE DUP1 ISZERO PUSH2 0x246 JUMPI PUSH0 PUSH0 REVERT JUMPDEST POP PUSH1 0x2 SLOAD PUSH2 0x1F8 SWAP1 DUP2 JUMP JUMPDEST CALLVALUE DUP1 ISZERO PUSH2 0x25C JUMPI PUSH0 PUSH0 REVERT JUMPDEST POP PUSH2 0x270 PUSH2 0x26B CALLDATASIZE PUSH1 0x4 PUSH2 0x2625 JUMP JUMPDEST PUSH2 0x6F6 JUMP JUMPDEST PUSH1 0x40 MLOAD SWAP1 ISZERO ISZERO DUP2 MSTORE PUSH1 0x20 ADD PUSH2 0x202 JUMP JUMPDEST CALLVALUE DUP1 ISZERO PUSH2 0x28B JUMPI PUSH0 PUSH0 REVERT JUMPDEST POP PUSH2 0x29F PUSH2 0x29A CALLDATASIZE PUSH1 0x4 PUSH2 0x24EA JUMP JUMPDEST PUSH2 0x72E JUMP JUMPDEST PUSH1 0x40 DUP1 MLOAD SWAP4 ISZERO ISZERO DUP5 MSTORE PUSH1 0x20 DUP5 ADD SWAP3 SWAP1 SWAP3 MSTORE SWAP1 DUP3 ADD MSTORE PUSH1 0x60 ADD PUSH2 0x202 JUMP JUMPDEST CALLVALUE DUP1 ISZERO PUSH2 0x2C7 JUMPI PUSH0 PUSH0 REVERT JUMPDEST POP PUSH2 0x2DB PUSH2 0x2D6 CALLDATASIZE PUSH1 0x4 PUSH2 0x24EA JUMP JUMPDEST PUSH2 0x76F JUMP JUMPDEST PUSH1 0x40 MLOAD PUSH2 0x202 SWAP2 SWAP1 PUSH2 0x270D JUMP JUMPDEST CALLVALUE DUP1 ISZERO PUSH2 0x2F3 JUMPI PUSH0 PUSH0 REVERT JUMPDEST POP PUSH2 0x1F8 PUSH2 0x302 CALLDATASIZE PUSH1 0x4 PUSH2 0x2855 JUMP JUMPDEST PUSH1 0x7 PUSH1 0x20 SWAP1 DUP2 MSTORE PUSH0 SWAP3 DUP4 MSTORE PUSH1 0x40 DUP1 DUP5 KECCAK256 SWAP1 SWAP2 MSTORE SWAP1 DUP3 MSTORE SWAP1 KECCAK256 SLOAD DUP2 JUMP JUMPDEST CALLVALUE DUP1 ISZERO PUSH2 0x329 JUMPI PUSH0 PUSH0 REVERT JUMPDEST POP PUSH2 0x33D PUSH2 0x338 CALLDATASIZE PUSH1 0x4 PUSH2 0x29A5 JUMP JUMPDEST PUSH2 0xADD JUMP JUMPDEST STOP JUMPDEST CALLVALUE DUP1 ISZERO PUSH2 0x34A JUMPI PUSH0 PUSH0 REVERT JUMPDEST POP PUSH2 0x1F8 PUSH2 0x359 CALLDATASIZE PUSH1 0x4 PUSH2 0x2AA8 JUMP JUMPDEST PUSH2 0xC84 JUMP JUMPDEST CALLVALUE DUP1 ISZERO PUSH2 0x369 JUMPI PUSH0 PUSH0 REVERT JUMPDEST POP PUSH2 0x33D PUSH2 0xCAF JUMP JUMPDEST CALLVALUE DUP1 ISZERO PUSH2 0x37D JUMPI PUSH0 PUSH0 REVERT JUMPDEST POP PUSH2 0x391 PUSH2 0x38C CALLDATASIZE PUSH1 0x4 PUSH2 0x2AD2 JUMP JUMPDEST PUSH2 0xD3B JUMP JUMPDEST PUSH1 0x40 MLOAD PUSH2 0x202 SWAP2 SWAP1 PUSH2 0x2AED JUMP JUMPDEST CALLVALUE DUP1 ISZERO PUSH2 0x3A9 JUMPI PUSH0 PUSH0 REVERT JUMPDEST POP PUSH2 0x33D PUSH2 0xDA4 JUMP JUMPDEST CALLVALUE DUP1 ISZERO PUSH2 0x3BD JUMPI PUSH0 PUSH0 REVERT JUMPDEST POP PUSH2 0x33D PUSH2 0x3CC CALLDATASIZE PUSH1 0x4 PUSH2 0x2AA8 JUMP JUMPDEST PUSH2 0xDB6 JUMP JUMPDEST CALLVALUE DUP1 ISZERO PUSH2 0x3DC JUMPI PUSH0 PUSH0 REVERT JUMPDEST POP PUSH0 SLOAD PUSH1 0x1 PUSH1 0xA0 SHL SWAP1 DIV PUSH1 0xFF AND PUSH2 0x270 JUMP JUMPDEST CALLVALUE DUP1 ISZERO PUSH2 0x3F9 JUMPI PUSH0 PUSH0 REVERT JUMPDEST POP PUSH2 0x270 PUSH2 0x408 CALLDATASIZE PUSH1 0x4 PUSH2 0x2B2F JUMP JUMPDEST PUSH2 0xE32 JUMP JUMPDEST CALLVALUE DUP1 ISZERO PUSH2 0x418 JUMPI PUSH0 PUSH0 REVERT JUMPDEST POP PUSH2 0x270 PUSH2 0x427 CALLDATASIZE PUSH1 0x4 PUSH2 0x24EA JUMP JUMPDEST PUSH2 0xE66 JUMP JUMPDEST CALLVALUE DUP1 ISZERO PUSH2 0x437 JUMPI PUSH0 PUSH0 REVERT JUMPDEST POP PUSH2 0x33D PUSH2 0xE8B JUMP JUMPDEST CALLVALUE DUP1 ISZERO PUSH2 0x44B JUMPI PUSH0 PUSH0 REVERT JUMPDEST POP PUSH2 0x1F8 PUSH2 0x45A CALLDATASIZE PUSH1 0x4 PUSH2 0x2AD2 JUMP JUMPDEST PUSH2 0xE9C JUMP JUMPDEST PUSH2 0x33D PUSH2 0x46D CALLDATASIZE PUSH1 0x4 PUSH2 0x2B4F JUMP JUMPDEST PUSH2 0xF04 JUMP JUMPDEST CALLVALUE DUP1 ISZERO PUSH2 0x47D JUMPI PUSH0 PUSH0 REVERT JUMPDEST POP PUSH2 0x33D PUSH2 0x143F JUMP JUMPDEST CALLVALUE DUP1 ISZERO PUSH2 0x491 JUMPI PUSH0 PUSH0 REVERT JUMPDEST POP PUSH0 SLOAD PUSH1 0x40 MLOAD PUSH1 0x1 PUSH1 0x1 PUSH1 0xA0 SHL SUB SWAP1 SWAP2 AND DUP2 MSTORE PUSH1 0x20 ADD PUSH2 0x202 JUMP JUMPDEST CALLVALUE DUP1 ISZERO PUSH2 0x4B7 JUMPI PUSH0 PUSH0 REVERT JUMPDEST POP PUSH2 0x33D PUSH2 0x4C6 CALLDATASIZE PUSH1 0x4 PUSH2 0x24EA JUMP JUMPDEST PUSH2 0x144F JUMP JUMPDEST CALLVALUE DUP1 ISZERO PUSH2 0x4D6 JUMPI PUSH0 PUSH0 REVERT JUMPDEST POP PUSH2 0x33D PUSH2 0x4E5 CALLDATASIZE PUSH1 0x4 PUSH2 0x2BE2 JUMP JUMPDEST PUSH2 0x145C JUMP JUMPDEST CALLVALUE DUP1 ISZERO PUSH2 0x4F5 JUMPI PUSH0 PUSH0 REVERT JUMPDEST POP TIMESTAMP PUSH2 0x1F8 JUMP JUMPDEST CALLVALUE DUP1 ISZERO PUSH2 0x507 JUMPI PUSH0 PUSH0 REVERT JUMPDEST POP PUSH2 0x51B PUSH2 0x516 CALLDATASIZE PUSH1 0x4 PUSH2 0x2B2F JUMP JUMPDEST PUSH2 0x14CC JUMP JUMPDEST PUSH1 0x40 MLOAD PUSH2 0x202 SWAP2 SWAP1 PUSH2 0x2C26 JUMP JUMPDEST PUSH2 0x1F8 PUSH2 0x536 CALLDATASIZE PUSH1 0x4 PUSH2 0x2C38 JUMP JUMPDEST PUSH2 0x1577 JUMP JUMPDEST CALLVALUE DUP1 ISZERO PUSH2 0x546 JUMPI PUSH0 PUSH0 REVERT JUMPDEST POP PUSH2 0x1F8 PUSH1 0x3 SLOAD DUP2 JUMP JUMPDEST CALLVALUE DUP1 ISZERO PUSH2 0x55B JUMPI PUSH0 PUSH0 REVERT JUMPDEST POP PUSH2 0x51B PUSH2 0x56A CALLDATASIZE PUSH1 0x4 PUSH2 0x2B2F JUMP JUMPDEST PUSH2 0x18B5 JUMP JUMPDEST CALLVALUE DUP1 ISZERO PUSH2 0x57A JUMPI PUSH0 PUSH0 REVERT JUMPDEST POP PUSH2 0x58E PUSH2 0x589 CALLDATASIZE PUSH1 0x4 PUSH2 0x24EA JUMP JUMPDEST PUSH2 0x1957 JUMP JUMPDEST PUSH1 0x40 MLOAD PUSH2 0x202 SWAP2 SWAP1 PUSH2 0x2D45 JUMP JUMPDEST CALLVALUE DUP1 ISZERO PUSH2 0x5A6 JUMPI PUSH0 PUSH0 REVERT JUMPDEST POP PUSH2 0x33D PUSH2 0x5B5 CALLDATASIZE PUSH1 0x4 PUSH2 0x2AD2 JUMP JUMPDEST PUSH2 0x1BCB JUMP JUMPDEST CALLVALUE DUP1 ISZERO PUSH2 0x5C5 JUMPI PUSH0 PUSH0 REVERT JUMPDEST POP PUSH2 0x5D9 PUSH2 0x5D4 CALLDATASIZE PUSH1 0x4 PUSH2 0x24EA JUMP JUMPDEST PUSH2 0x1C08 JUMP JUMPDEST PUSH1 0x40 MLOAD PUSH2 0x202 SWAP13 SWAP12 SWAP11 SWAP10 SWAP9 SWAP8 SWAP7 SWAP6 SWAP5 SWAP4 SWAP3 SWAP2 SWAP1 PUSH2 0x2DF3 JUMP JUMPDEST CALLVALUE DUP1 ISZERO PUSH2 0x5FC JUMPI PUSH0 PUSH0 REVERT JUMPDEST POP PUSH1 0x1 SLOAD PUSH2 0x1F8 SWAP1 DUP2 JUMP JUMPDEST CALLVALUE DUP1 ISZERO PUSH2 0x612 JUMPI PUSH0 PUSH0 REVERT JUMPDEST POP PUSH2 0x626 PUSH2 0x621 CALLDATASIZE PUSH1 0x4 PUSH2 0x2AD2 JUMP JUMPDEST PUSH2 0x1D85 JUMP JUMPDEST PUSH1 0x40 MLOAD PUSH2 0x202 SWAP3 SWAP2 SWAP1 PUSH2 0x2E83 JUMP JUMPDEST PUSH1 0x5 PUSH1 0x20 MSTORE PUSH0 SWAP1 DUP2 MSTORE PUSH1 0x40 SWAP1 KECCAK256 DUP1 SLOAD PUSH1 0x1 DUP3 ADD DUP1 SLOAD SWAP2 SWAP3 SWAP2 PUSH2 0x655 SWAP1 PUSH2 0x2FC5 JUMP JUMPDEST DUP1 PUSH1 0x1F ADD PUSH1 0x20 DUP1 SWAP2 DIV MUL PUSH1 0x20 ADD PUSH1 0x40 MLOAD SWAP1 DUP2 ADD PUSH1 0x40 MSTORE DUP1 SWAP3 SWAP2 SWAP1 DUP2 DUP2 MSTORE PUSH1 0x20 ADD DUP3 DUP1 SLOAD PUSH2 0x681 SWAP1 PUSH2 0x2FC5 JUMP JUMPDEST DUP1 ISZERO PUSH2 0x6CC JUMPI DUP1 PUSH1 0x1F LT PUSH2 0x6A3 JUMPI PUSH2 0x100 DUP1 DUP4 SLOAD DIV MUL DUP4 MSTORE SWAP2 PUSH1 0x20 ADD SWAP2 PUSH2 0x6CC JUMP JUMPDEST DUP3 ADD SWAP2 SWAP1 PUSH0 MSTORE PUSH1 0x20 PUSH0 KECCAK256 SWAP1 JUMPDEST DUP2 SLOAD DUP2 MSTORE SWAP1 PUSH1 0x1 ADD SWAP1 PUSH1 0x20 ADD DUP1 DUP4 GT PUSH2 0x6AF JUMPI DUP3 SWAP1 SUB PUSH1 0x1F AND DUP3 ADD SWAP2 JUMPDEST POP POP POP POP PUSH1 0x2 DUP4 ADD SLOAD PUSH1 0x3 SWAP1 SWAP4 ADD SLOAD SWAP2 SWAP3 PUSH1 0xFF DUP2 AND SWAP3 PUSH2 0x100 SWAP1 SWAP2 DIV PUSH1 0x1 PUSH1 0x1 PUSH1 0xA0 SHL SUB AND SWAP2 POP DUP6 JUMP JUMPDEST PUSH0 PUSH2 0x6FF PUSH2 0x21D6 JUMP JUMPDEST PUSH0 DUP5 DUP2 MSTORE PUSH1 0x6 PUSH1 0x20 SWAP1 DUP2 MSTORE PUSH1 0x40 DUP1 DUP4 KECCAK256 DUP7 DUP5 MSTORE SWAP1 SWAP2 MSTORE SWAP1 KECCAK256 PUSH2 0x721 DUP4 DUP3 PUSH2 0x3048 JUMP JUMPDEST POP PUSH1 0x1 SWAP1 POP JUMPDEST SWAP4 SWAP3 POP POP POP JUMP JUMPDEST PUSH0 DUP2 DUP2 MSTORE PUSH1 0x4 PUSH1 0x20 DUP2 SWAP1 MSTORE PUSH1 0x40 DUP3 KECCAK256 PUSH1 0x3 DUP2 ADD SLOAD SWAP2 ADD SLOAD DUP3 SWAP2 DUP3 SWAP2 TIMESTAMP DUP2 GT ISZERO PUSH2 0x75F JUMPI PUSH1 0x1 SWAP5 POP SWAP1 SWAP3 POP SWAP1 POP PUSH2 0x768 JUMP JUMPDEST PUSH0 SWAP5 POP SWAP1 SWAP3 POP SWAP1 POP JUMPDEST SWAP2 SWAP4 SWAP1 SWAP3 POP JUMP JUMPDEST PUSH2 0x7ED PUSH1 0x40 MLOAD DUP1 PUSH2 0x1C0 ADD PUSH1 0x40 MSTORE DUP1 PUSH1 0x60 DUP2 MSTORE PUSH1 0x20 ADD PUSH1 0x60 DUP2 MSTORE PUSH1 0x20 ADD PUSH1 0x60 DUP2 MSTORE PUSH1 0x20 ADD PUSH0 DUP2 MSTORE PUSH1 0x20 ADD PUSH0 DUP2 MSTORE PUSH1 0x20 ADD PUSH1 0x60 DUP2 MSTORE PUSH1 0x20 ADD PUSH0 PUSH1 0x1 PUSH1 0x1 PUSH1 0xA0 SHL SUB AND DUP2 MSTORE PUSH1 0x20 ADD PUSH0 DUP2 MSTORE PUSH1 0x20 ADD PUSH0 ISZERO ISZERO DUP2 MSTORE PUSH1 0x20 ADD PUSH0 PUSH1 0x1 PUSH1 0x1 PUSH1 0xA0 SHL SUB AND DUP2 MSTORE PUSH1 0x20 ADD PUSH0 DUP2 MSTORE PUSH1 0x20 ADD PUSH0 ISZERO ISZERO DUP2 MSTORE PUSH1 0x20 ADD PUSH0 DUP2 MSTORE PUSH1 0x20 ADD PUSH0 DUP2 MSTORE POP SWAP1 JUMP JUMPDEST PUSH0 DUP3 DUP2 MSTORE PUSH1 0x4 PUSH1 0x20 MSTORE PUSH1 0x40 SWAP1 DUP2 SWAP1 KECCAK256 DUP2 MLOAD PUSH2 0x1C0 DUP2 ADD SWAP1 SWAP3 MSTORE DUP1 SLOAD DUP3 SWAP1 DUP3 SWAP1 PUSH2 0x815 SWAP1 PUSH2 0x2FC5 JUMP JUMPDEST DUP1 PUSH1 0x1F ADD PUSH1 0x20 DUP1 SWAP2 DIV MUL PUSH1 0x20 ADD PUSH1 0x40 MLOAD SWAP1 DUP2 ADD PUSH1 0x40 MSTORE DUP1 SWAP3 SWAP2 SWAP1 DUP2 DUP2 MSTORE PUSH1 0x20 ADD DUP3 DUP1 SLOAD PUSH2 0x841 SWAP1 PUSH2 0x2FC5 JUMP JUMPDEST DUP1 ISZERO PUSH2 0x88C JUMPI DUP1 PUSH1 0x1F LT PUSH2 0x863 JUMPI PUSH2 0x100 DUP1 DUP4 SLOAD DIV MUL DUP4 MSTORE SWAP2 PUSH1 0x20 ADD SWAP2 PUSH2 0x88C JUMP JUMPDEST DUP3 ADD SWAP2 SWAP1 PUSH0 MSTORE PUSH1 0x20 PUSH0 KECCAK256 SWAP1 JUMPDEST DUP2 SLOAD DUP2 MSTORE SWAP1 PUSH1 0x1 ADD SWAP1 PUSH1 0x20 ADD DUP1 DUP4 GT PUSH2 0x86F JUMPI DUP3 SWAP1 SUB PUSH1 0x1F AND DUP3 ADD SWAP2 JUMPDEST POP POP POP POP POP DUP2 MSTORE PUSH1 0x20 ADD PUSH1 0x1 DUP3 ADD DUP1 SLOAD PUSH2 0x8A5 SWAP1 PUSH2 0x2FC5 JUMP JUMPDEST DUP1 PUSH1 0x1F ADD PUSH1 0x20 DUP1 SWAP2 DIV MUL PUSH1 0x20 ADD PUSH1 0x40 MLOAD SWAP1 DUP2 ADD PUSH1 0x40 MSTORE DUP1 SWAP3 SWAP2 SWAP1 DUP2 DUP2 MSTORE PUSH1 0x20 ADD DUP3 DUP1 SLOAD PUSH2 0x8D1 SWAP1 PUSH2 0x2FC5 JUMP JUMPDEST DUP1 ISZERO PUSH2 0x91C JUMPI DUP1 PUSH1 0x1F LT PUSH2 0x8F3 JUMPI PUSH2 0x100 DUP1 DUP4 SLOAD DIV MUL DUP4 MSTORE SWAP2 PUSH1 0x20 ADD SWAP2 PUSH2 0x91C JUMP JUMPDEST DUP3 ADD SWAP2 SWAP1 PUSH0 MSTORE PUSH1 0x20 PUSH0 KECCAK256 SWAP1 JUMPDEST DUP2 SLOAD DUP2 MSTORE SWAP1 PUSH1 0x1 ADD SWAP1 PUSH1 0x20 ADD DUP1 DUP4 GT PUSH2 0x8FF JUMPI DUP3 SWAP1 SUB PUSH1 0x1F AND DUP3 ADD SWAP2 JUMPDEST POP POP POP POP POP DUP2 MSTORE PUSH1 0x20 ADD PUSH1 0x2 DUP3 ADD DUP1 SLOAD DUP1 PUSH1 0x20 MUL PUSH1 0x20 ADD PUSH1 0x40 MLOAD SWAP1 DUP2 ADD PUSH1 0x40 MSTORE DUP1 SWAP3 SWAP2 SWAP1 DUP2 DUP2 MSTORE PUSH1 0x20 ADD PUSH0 SWAP1 JUMPDEST DUP3 DUP3 LT ISZERO PUSH2 0x9F1 JUMPI DUP4 DUP3 SWAP1 PUSH0 MSTORE PUSH1 0x20 PUSH0 KECCAK256 ADD DUP1 SLOAD PUSH2 0x966 SWAP1 PUSH2 0x2FC5 JUMP JUMPDEST DUP1 PUSH1 0x1F ADD PUSH1 0x20 DUP1 SWAP2 DIV MUL PUSH1 0x20 ADD PUSH1 0x40 MLOAD SWAP1 DUP2 ADD PUSH1 0x40 MSTORE DUP1 SWAP3 SWAP2 SWAP1 DUP2 DUP2 MSTORE PUSH1 0x20 ADD DUP3 DUP1 SLOAD PUSH2 0x992 SWAP1 PUSH2 0x2FC5 JUMP JUMPDEST DUP1 ISZERO PUSH2 0x9DD JUMPI DUP1 PUSH1 0x1F LT PUSH2 0x9B4 JUMPI PUSH2 0x100 DUP1 DUP4 SLOAD DIV MUL DUP4 MSTORE SWAP2 PUSH1 0x20 ADD SWAP2 PUSH2 0x9DD JUMP JUMPDEST DUP3 ADD SWAP2 SWAP1 PUSH0 MSTORE PUSH1 0x20 PUSH0 KECCAK256 SWAP1 JUMPDEST DUP2 SLOAD DUP2 MSTORE SWAP1 PUSH1 0x1 ADD SWAP1 PUSH1 0x20 ADD DUP1 DUP4 GT PUSH2 0x9C0 JUMPI DUP3 SWAP1 SUB PUSH1 0x1F AND DUP3 ADD SWAP2 JUMPDEST POP POP POP POP POP DUP2 MSTORE PUSH1 0x20 ADD SWAP1 PUSH1 0x1 ADD SWAP1 PUSH2 0x949 JUMP JUMPDEST POP POP POP POP DUP2 MSTORE PUSH1 0x20 ADD PUSH1 0x3 DUP3 ADD SLOAD DUP2 MSTORE PUSH1 0x20 ADD PUSH1 0x4 DUP3 ADD SLOAD DUP2 MSTORE PUSH1 0x20 ADD PUSH1 0x5 DUP3 ADD DUP1 SLOAD DUP1 PUSH1 0x20 MUL PUSH1 0x20 ADD PUSH1 0x40 MLOAD SWAP1 DUP2 ADD PUSH1 0x40 MSTORE DUP1 SWAP3 SWAP2 SWAP1 DUP2 DUP2 MSTORE PUSH1 0x20 ADD DUP3 DUP1 SLOAD DUP1 ISZERO PUSH2 0xA64 JUMPI PUSH1 0x20 MUL DUP3 ADD SWAP2 SWAP1 PUSH0 MSTORE PUSH1 0x20 PUSH0 KECCAK256 SWAP1 JUMPDEST DUP2 SLOAD PUSH1 0x1 PUSH1 0x1 PUSH1 0xA0 SHL SUB AND DUP2 MSTORE PUSH1 0x1 SWAP1 SWAP2 ADD SWAP1 PUSH1 0x20 ADD DUP1 DUP4 GT PUSH2 0xA46 JUMPI JUMPDEST POP POP POP SWAP2 DUP4 MSTORE POP POP PUSH1 0x6 DUP3 ADD SLOAD PUSH1 0x1 PUSH1 0x1 PUSH1 0xA0 SHL SUB SWAP1 DUP2 AND PUSH1 0x20 DUP4 ADD MSTORE PUSH1 0x7 DUP4 ADD SLOAD PUSH1 0x40 DUP4 ADD MSTORE PUSH1 0x8 DUP4 ADD SLOAD PUSH1 0xFF DUP1 DUP3 AND ISZERO ISZERO PUSH1 0x60 DUP6 ADD MSTORE PUSH2 0x100 SWAP2 DUP3 SWAP1 DIV SWAP1 SWAP3 AND PUSH1 0x80 DUP5 ADD MSTORE PUSH1 0x9 DUP5 ADD SLOAD PUSH1 0xA0 DUP5 ADD MSTORE PUSH1 0xA DUP5 ADD SLOAD SWAP1 SWAP2 AND ISZERO ISZERO PUSH1 0xC0 DUP4 ADD MSTORE PUSH1 0xB DUP4 ADD SLOAD PUSH1 0xE0 DUP4 ADD MSTORE PUSH1 0xC SWAP1 SWAP3 ADD SLOAD SWAP2 ADD MSTORE SWAP3 SWAP2 POP POP JUMP JUMPDEST PUSH0 DUP11 DUP2 MSTORE PUSH1 0x4 PUSH1 0x20 MSTORE PUSH1 0x40 SWAP1 KECCAK256 PUSH1 0x6 ADD SLOAD DUP11 SWAP1 PUSH1 0x1 PUSH1 0x1 PUSH1 0xA0 SHL SUB AND CALLER EQ PUSH2 0xB69 JUMPI PUSH1 0x40 MLOAD PUSH3 0x461BCD PUSH1 0xE5 SHL DUP2 MSTORE PUSH1 0x20 PUSH1 0x4 DUP3 ADD MSTORE PUSH1 0x34 PUSH1 0x24 DUP3 ADD MSTORE PUSH32 0x5468652073656E646572206973206E6F7420746865206D616E61676572206F66 PUSH1 0x44 DUP3 ADD MSTORE PUSH20 0x103A34329032B73A32B932B2103837B63624B217 PUSH1 0x61 SHL PUSH1 0x64 DUP3 ADD MSTORE PUSH1 0x84 ADD JUMPDEST PUSH1 0x40 MLOAD DUP1 SWAP2 SUB SWAP1 REVERT JUMPDEST PUSH0 DUP12 DUP2 MSTORE PUSH1 0x4 PUSH1 0x20 MSTORE PUSH1 0x40 SWAP1 KECCAK256 PUSH2 0xB80 DUP12 DUP3 PUSH2 0x3048 JUMP JUMPDEST POP PUSH0 DUP12 DUP2 MSTORE PUSH1 0x4 PUSH1 0x20 MSTORE PUSH1 0x40 SWAP1 KECCAK256 PUSH1 0x1 ADD PUSH2 0xB9B DUP11 DUP3 PUSH2 0x3048 JUMP JUMPDEST POP PUSH0 DUP12 DUP2 MSTORE PUSH1 0x4 PUSH1 0x20 SWAP1 DUP2 MSTORE PUSH1 0x40 SWAP1 SWAP2 KECCAK256 DUP10 MLOAD PUSH2 0xBC0 SWAP3 PUSH1 0x2 SWAP1 SWAP3 ADD SWAP2 DUP12 ADD SWAP1 PUSH2 0x23D0 JUMP JUMPDEST POP PUSH0 DUP12 DUP2 MSTORE PUSH1 0x4 PUSH1 0x20 SWAP1 DUP2 MSTORE PUSH1 0x40 SWAP1 SWAP2 KECCAK256 DUP9 MLOAD PUSH2 0xBE5 SWAP3 PUSH1 0x5 SWAP1 SWAP3 ADD SWAP2 DUP11 ADD SWAP1 PUSH2 0x2424 JUMP JUMPDEST POP PUSH0 DUP12 DUP2 MSTORE PUSH1 0x4 PUSH1 0x20 MSTORE PUSH1 0x40 SWAP1 KECCAK256 PUSH1 0x7 DUP2 ADD DUP8 SWAP1 SSTORE PUSH1 0x8 DUP2 ADD DUP1 SLOAD PUSH1 0x1 PUSH1 0x1 PUSH1 0xA8 SHL SUB NOT AND DUP8 ISZERO ISZERO PUSH2 0x100 PUSH1 0x1 PUSH1 0xA8 SHL SUB NOT AND OR PUSH2 0x100 PUSH1 0x1 PUSH1 0x1 PUSH1 0xA0 SHL SUB DUP9 AND MUL OR SWAP1 SSTORE PUSH1 0x9 DUP2 ADD DUP5 SWAP1 SSTORE PUSH1 0xA ADD DUP1 SLOAD PUSH1 0xFF NOT AND DUP4 ISZERO ISZERO OR SWAP1 SSTORE CALLER PUSH1 0x1 PUSH1 0x1 PUSH1 0xA0 SHL SUB AND DUP12 PUSH32 0xA3A8F6E6F61CD97A866C0816363D95DADC283C7D9697713AD96302D0CD2EA14D PUSH1 0x40 MLOAD PUSH1 0x40 MLOAD DUP1 SWAP2 SUB SWAP1 LOG3 POP POP POP POP POP POP POP POP POP POP POP JUMP JUMPDEST PUSH1 0x8 PUSH1 0x20 MSTORE DUP2 PUSH0 MSTORE PUSH1 0x40 PUSH0 KECCAK256 DUP2 DUP2 SLOAD DUP2 LT PUSH2 0xC9D JUMPI PUSH0 DUP1 REVERT JUMPDEST SWAP1 PUSH0 MSTORE PUSH1 0x20 PUSH0 KECCAK256 ADD PUSH0 SWAP2 POP SWAP2 POP POP SLOAD DUP2 JUMP JUMPDEST PUSH2 0xCB7 PUSH2 0x21D6 JUMP JUMPDEST SELFBALANCE PUSH0 PUSH2 0xCCA PUSH0 SLOAD PUSH1 0x1 PUSH1 0x1 PUSH1 0xA0 SHL SUB AND SWAP1 JUMP JUMPDEST PUSH1 0x1 PUSH1 0x1 PUSH1 0xA0 SHL SUB AND DUP3 PUSH1 0x40 MLOAD PUSH0 PUSH1 0x40 MLOAD DUP1 DUP4 SUB DUP2 DUP6 DUP8 GAS CALL SWAP3 POP POP POP RETURNDATASIZE DUP1 PUSH0 DUP2 EQ PUSH2 0xD11 JUMPI PUSH1 0x40 MLOAD SWAP2 POP PUSH1 0x1F NOT PUSH1 0x3F RETURNDATASIZE ADD AND DUP3 ADD PUSH1 0x40 MSTORE RETURNDATASIZE DUP3 MSTORE RETURNDATASIZE PUSH0 PUSH1 0x20 DUP5 ADD RETURNDATACOPY PUSH2 0xD16 JUMP JUMPDEST PUSH1 0x60 SWAP2 POP JUMPDEST POP POP SWAP1 POP DUP1 PUSH2 0xD37 JUMPI PUSH1 0x40 MLOAD PUSH3 0x461BCD PUSH1 0xE5 SHL DUP2 MSTORE PUSH1 0x4 ADD PUSH2 0xB60 SWAP1 PUSH2 0x3102 JUMP JUMPDEST POP POP JUMP JUMPDEST PUSH1 0x1 PUSH1 0x1 PUSH1 0xA0 SHL SUB DUP2 AND PUSH0 SWAP1 DUP2 MSTORE PUSH1 0x8 PUSH1 0x20 SWAP1 DUP2 MSTORE PUSH1 0x40 SWAP2 DUP3 SWAP1 KECCAK256 DUP1 SLOAD DUP4 MLOAD DUP2 DUP5 MUL DUP2 ADD DUP5 ADD SWAP1 SWAP5 MSTORE DUP1 DUP5 MSTORE PUSH1 0x60 SWAP4 SWAP3 DUP4 ADD DUP3 DUP3 DUP1 ISZERO PUSH2 0xD98 JUMPI PUSH1 0x20 MUL DUP3 ADD SWAP2 SWAP1 PUSH0 MSTORE PUSH1 0x20 PUSH0 KECCAK256 SWAP1 JUMPDEST DUP2 SLOAD DUP2 MSTORE PUSH1 0x20 ADD SWAP1 PUSH1 0x1 ADD SWAP1 DUP1 DUP4 GT PUSH2 0xD84 JUMPI JUMPDEST POP POP POP POP POP SWAP1 POP SWAP2 SWAP1 POP JUMP JUMPDEST PUSH2 0xDAC PUSH2 0x21D6 JUMP JUMPDEST PUSH2 0xDB4 PUSH2 0x2202 JUMP JUMPDEST JUMP JUMPDEST PUSH2 0xDBE PUSH2 0x21D6 JUMP JUMPDEST PUSH0 DUP3 PUSH1 0x1 PUSH1 0x1 PUSH1 0xA0 SHL SUB AND DUP3 PUSH1 0x40 MLOAD PUSH0 PUSH1 0x40 MLOAD DUP1 DUP4 SUB DUP2 DUP6 DUP8 GAS CALL SWAP3 POP POP POP RETURNDATASIZE DUP1 PUSH0 DUP2 EQ PUSH2 0xE07 JUMPI PUSH1 0x40 MLOAD SWAP2 POP PUSH1 0x1F NOT PUSH1 0x3F RETURNDATASIZE ADD AND DUP3 ADD PUSH1 0x40 MSTORE RETURNDATASIZE DUP3 MSTORE RETURNDATASIZE PUSH0 PUSH1 0x20 DUP5 ADD RETURNDATACOPY PUSH2 0xE0C JUMP JUMPDEST PUSH1 0x60 SWAP2 POP JUMPDEST POP POP SWAP1 POP DUP1 PUSH2 0xE2D JUMPI PUSH1 0x40 MLOAD PUSH3 0x461BCD PUSH1 0xE5 SHL DUP2 MSTORE PUSH1 0x4 ADD PUSH2 0xB60 SWAP1 PUSH2 0x3102 JUMP JUMPDEST POP POP POP JUMP JUMPDEST PUSH0 PUSH2 0xE3B PUSH2 0x21D6 JUMP JUMPDEST PUSH0 DUP4 DUP2 MSTORE PUSH1 0x6 PUSH1 0x20 SWAP1 DUP2 MSTORE PUSH1 0x40 DUP1 DUP4 KECCAK256 DUP6 DUP5 MSTORE SWAP1 SWAP2 MSTORE DUP2 KECCAK256 PUSH2 0xE5C SWAP2 PUSH2 0x2483 JUMP JUMPDEST POP PUSH1 0x1 JUMPDEST SWAP3 SWAP2 POP POP JUMP JUMPDEST PUSH0 DUP2 DUP2 MSTORE PUSH1 0x4 PUSH1 0x20 DUP2 SWAP1 MSTORE PUSH1 0x40 DUP3 KECCAK256 ADD SLOAD TIMESTAMP LT PUSH2 0xE84 JUMPI PUSH1 0x1 PUSH2 0xE60 JUMP JUMPDEST PUSH0 SWAP3 SWAP2 POP POP JUMP JUMPDEST PUSH2 0xE93 PUSH2 0x21D6 JUMP JUMPDEST PUSH2 0xDB4 PUSH0 PUSH2 0x2256 JUMP JUMPDEST PUSH1 0x40 MLOAD PUSH4 0x70A08231 PUSH1 0xE0 SHL DUP2 MSTORE ADDRESS PUSH1 0x4 DUP3 ADD MSTORE PUSH0 SWAP1 PUSH1 0x1 PUSH1 0x1 PUSH1 0xA0 SHL SUB DUP4 AND SWAP1 PUSH4 0x70A08231 SWAP1 PUSH1 0x24 ADD PUSH1 0x20 PUSH1 0x40 MLOAD DUP1 DUP4 SUB DUP2 DUP7 GAS STATICCALL ISZERO DUP1 ISZERO PUSH2 0xEE0 JUMPI RETURNDATASIZE PUSH0 PUSH0 RETURNDATACOPY RETURNDATASIZE PUSH0 REVERT JUMPDEST POP POP POP POP PUSH1 0x40 MLOAD RETURNDATASIZE PUSH1 0x1F NOT PUSH1 0x1F DUP3 ADD AND DUP3 ADD DUP1 PUSH1 0x40 MSTORE POP DUP2 ADD SWAP1 PUSH2 0xE60 SWAP2 SWAP1 PUSH2 0x3122 JUMP JUMPDEST PUSH0 DUP6 DUP2 MSTORE PUSH1 0x4 PUSH1 0x20 MSTORE PUSH1 0x40 SWAP1 KECCAK256 PUSH1 0x5 ADD SLOAD ISZERO PUSH2 0xF25 JUMPI PUSH2 0xF23 DUP6 PUSH2 0x22A5 JUMP JUMPDEST POP JUMPDEST PUSH0 DUP6 DUP2 MSTORE PUSH1 0x4 PUSH1 0x20 MSTORE PUSH1 0x40 SWAP1 KECCAK256 PUSH1 0x3 ADD SLOAD TIMESTAMP LT ISZERO PUSH2 0xF58 JUMPI PUSH1 0x40 MLOAD PUSH4 0xA8D68C9 PUSH1 0xE2 SHL DUP2 MSTORE TIMESTAMP PUSH1 0x4 DUP3 ADD MSTORE PUSH1 0x24 ADD PUSH2 0xB60 JUMP JUMPDEST PUSH0 DUP6 DUP2 MSTORE PUSH1 0x4 PUSH1 0x20 DUP2 SWAP1 MSTORE PUSH1 0x40 SWAP1 SWAP2 KECCAK256 ADD SLOAD TIMESTAMP LT PUSH2 0xFB8 JUMPI PUSH1 0x40 MLOAD PUSH3 0x461BCD PUSH1 0xE5 SHL DUP2 MSTORE PUSH1 0x20 PUSH1 0x4 DUP3 ADD MSTORE PUSH1 0x1E PUSH1 0x24 DUP3 ADD MSTORE PUSH32 0x54686520656E746572656420706F6C6C20494420697320657870697265640000 PUSH1 0x44 DUP3 ADD MSTORE PUSH1 0x64 ADD PUSH2 0xB60 JUMP JUMPDEST PUSH0 DUP6 DUP2 MSTORE PUSH1 0x4 PUSH1 0x20 MSTORE PUSH1 0x40 SWAP1 KECCAK256 PUSH1 0xA ADD SLOAD PUSH1 0xFF AND ISZERO PUSH2 0x100F JUMPI PUSH1 0x40 MLOAD PUSH3 0x461BCD PUSH1 0xE5 SHL DUP2 MSTORE PUSH1 0x20 PUSH1 0x4 DUP3 ADD MSTORE PUSH1 0x13 PUSH1 0x24 DUP3 ADD MSTORE PUSH19 0x151A1A5CC81C1BDB1B081A5CC81C185D5CD959 PUSH1 0x6A SHL PUSH1 0x44 DUP3 ADD MSTORE PUSH1 0x64 ADD PUSH2 0xB60 JUMP JUMPDEST PUSH0 DUP6 DUP2 MSTORE PUSH1 0x4 PUSH1 0x20 SWAP1 DUP2 MSTORE PUSH1 0x40 DUP1 DUP4 KECCAK256 PUSH1 0x7 SWAP1 DUP2 ADD SLOAD SWAP1 DUP4 MSTORE DUP2 DUP5 KECCAK256 CALLER DUP6 MSTORE SWAP1 SWAP3 MSTORE SWAP1 SWAP2 KECCAK256 SLOAD LT PUSH2 0x1055 JUMPI PUSH1 0x40 MLOAD PUSH4 0x4F3B74B PUSH1 0xE4 SHL DUP2 MSTORE CALLER PUSH1 0x4 DUP3 ADD MSTORE PUSH1 0x24 ADD PUSH2 0xB60 JUMP JUMPDEST PUSH0 DUP6 DUP2 MSTORE PUSH1 0x4 PUSH1 0x20 MSTORE PUSH1 0x40 SWAP1 KECCAK256 PUSH1 0x8 ADD SLOAD PUSH1 0xFF AND ISZERO PUSH2 0x12CC JUMPI PUSH0 DUP6 DUP2 MSTORE PUSH1 0x4 PUSH1 0x20 MSTORE PUSH1 0x40 SWAP1 KECCAK256 PUSH1 0x8 ADD SLOAD PUSH2 0x100 SWAP1 DIV PUSH1 0x1 PUSH1 0x1 PUSH1 0xA0 SHL SUB AND PUSH2 0x1163 JUMPI PUSH0 DUP6 DUP2 MSTORE PUSH1 0x4 PUSH1 0x20 MSTORE PUSH1 0x40 SWAP1 KECCAK256 PUSH1 0x9 ADD SLOAD CALLVALUE LT ISZERO PUSH2 0x10DF JUMPI PUSH0 DUP6 DUP2 MSTORE PUSH1 0x4 PUSH1 0x20 DUP2 SWAP1 MSTORE PUSH1 0x40 SWAP2 DUP3 SWAP1 KECCAK256 PUSH1 0x9 ADD SLOAD SWAP2 MLOAD PUSH4 0xBC03BCCD PUSH1 0xE0 SHL DUP2 MSTORE SWAP1 DUP2 ADD SWAP2 SWAP1 SWAP2 MSTORE CALLVALUE PUSH1 0x24 DUP3 ADD MSTORE PUSH1 0x44 ADD PUSH2 0xB60 JUMP JUMPDEST PUSH0 DUP6 DUP2 MSTORE PUSH1 0x4 PUSH1 0x20 MSTORE PUSH1 0x40 DUP1 DUP3 KECCAK256 PUSH1 0x6 ADD SLOAD SWAP1 MLOAD PUSH1 0x1 PUSH1 0x1 PUSH1 0xA0 SHL SUB SWAP1 SWAP2 AND SWAP1 CALLVALUE SWAP1 DUP4 DUP2 DUP2 DUP2 DUP6 DUP8 GAS CALL SWAP3 POP POP POP RETURNDATASIZE DUP1 PUSH0 DUP2 EQ PUSH2 0x1137 JUMPI PUSH1 0x40 MLOAD SWAP2 POP PUSH1 0x1F NOT PUSH1 0x3F RETURNDATASIZE ADD AND DUP3 ADD PUSH1 0x40 MSTORE RETURNDATASIZE DUP3 MSTORE RETURNDATASIZE PUSH0 PUSH1 0x20 DUP5 ADD RETURNDATACOPY PUSH2 0x113C JUMP JUMPDEST PUSH1 0x60 SWAP2 POP JUMPDEST POP POP SWAP1 POP DUP1 PUSH2 0x115D JUMPI PUSH1 0x40 MLOAD PUSH3 0x461BCD PUSH1 0xE5 SHL DUP2 MSTORE PUSH1 0x4 ADD PUSH2 0xB60 SWAP1 PUSH2 0x3102 JUMP JUMPDEST POP PUSH2 0x12CC JUMP JUMPDEST PUSH0 DUP6 DUP2 MSTORE PUSH1 0x4 PUSH1 0x20 MSTORE PUSH1 0x40 DUP2 KECCAK256 PUSH1 0x8 ADD SLOAD PUSH2 0x100 SWAP1 DIV PUSH1 0x1 PUSH1 0x1 PUSH1 0xA0 SHL SUB AND PUSH4 0x65AEAA95 ADDRESS CALLER PUSH1 0x40 MLOAD PUSH1 0x1 PUSH1 0x1 PUSH1 0xE0 SHL SUB NOT PUSH1 0xE0 DUP6 SWAP1 SHL AND DUP2 MSTORE PUSH1 0x1 PUSH1 0x1 PUSH1 0xA0 SHL SUB SWAP3 DUP4 AND PUSH1 0x4 DUP3 ADD MSTORE SWAP2 AND PUSH1 0x24 DUP3 ADD MSTORE PUSH1 0x44 ADD PUSH1 0x20 PUSH1 0x40 MLOAD DUP1 DUP4 SUB DUP2 DUP7 GAS STATICCALL ISZERO DUP1 ISZERO PUSH2 0x11D2 JUMPI RETURNDATASIZE PUSH0 PUSH0 RETURNDATACOPY RETURNDATASIZE PUSH0 REVERT JUMPDEST POP POP POP POP PUSH1 0x40 MLOAD RETURNDATASIZE PUSH1 0x1F NOT PUSH1 0x1F DUP3 ADD AND DUP3 ADD DUP1 PUSH1 0x40 MSTORE POP DUP2 ADD SWAP1 PUSH2 0x11F6 SWAP2 SWAP1 PUSH2 0x3122 JUMP JUMPDEST PUSH0 DUP8 DUP2 MSTORE PUSH1 0x4 PUSH1 0x20 MSTORE PUSH1 0x40 SWAP1 KECCAK256 PUSH1 0x9 ADD SLOAD SWAP1 SWAP2 POP DUP2 EQ PUSH2 0x1247 JUMPI PUSH0 DUP7 DUP2 MSTORE PUSH1 0x4 PUSH1 0x20 DUP2 SWAP1 MSTORE PUSH1 0x40 SWAP2 DUP3 SWAP1 KECCAK256 PUSH1 0x9 ADD SLOAD SWAP2 MLOAD PUSH4 0xA24F8BE9 PUSH1 0xE0 SHL DUP2 MSTORE PUSH2 0xB60 SWAP3 SWAP2 DUP5 SWAP2 ADD SWAP2 DUP3 MSTORE PUSH1 0x20 DUP3 ADD MSTORE PUSH1 0x40 ADD SWAP1 JUMP JUMPDEST PUSH0 DUP7 DUP2 MSTORE PUSH1 0x4 PUSH1 0x20 DUP2 SWAP1 MSTORE PUSH1 0x40 SWAP2 DUP3 SWAP1 KECCAK256 PUSH1 0x8 DUP2 ADD SLOAD PUSH1 0x6 DUP3 ADD SLOAD PUSH1 0x9 SWAP1 SWAP3 ADD SLOAD SWAP4 MLOAD PUSH4 0x3B06CDDD PUSH1 0xE1 SHL DUP2 MSTORE PUSH1 0x1 PUSH1 0x1 PUSH1 0xA0 SHL SUB PUSH2 0x100 SWAP1 SWAP3 DIV DUP3 AND SWAP5 PUSH4 0x760D9BBA SWAP5 PUSH2 0x129D SWAP5 CALLER SWAP5 AND SWAP3 DUP11 SWAP2 DUP11 SWAP2 ADD PUSH2 0x3139 JUMP JUMPDEST PUSH0 PUSH1 0x40 MLOAD DUP1 DUP4 SUB DUP2 PUSH0 DUP8 DUP1 EXTCODESIZE ISZERO DUP1 ISZERO PUSH2 0x12B4 JUMPI PUSH0 PUSH0 REVERT JUMPDEST POP GAS CALL ISZERO DUP1 ISZERO PUSH2 0x12C6 JUMPI RETURNDATASIZE PUSH0 PUSH0 RETURNDATACOPY RETURNDATASIZE PUSH0 REVERT JUMPDEST POP POP POP POP POP JUMPDEST PUSH0 DUP6 DUP2 MSTORE PUSH1 0x4 PUSH1 0x20 MSTORE PUSH1 0x40 DUP2 KECCAK256 PUSH1 0xC ADD DUP1 SLOAD PUSH1 0x1 SWAP3 SWAP1 PUSH2 0x12ED SWAP1 DUP5 SWAP1 PUSH2 0x3192 JUMP JUMPDEST SWAP1 SWAP2 SSTORE POP POP PUSH0 DUP6 DUP2 MSTORE PUSH1 0x7 PUSH1 0x20 SWAP1 DUP2 MSTORE PUSH1 0x40 DUP1 DUP4 KECCAK256 CALLER DUP5 MSTORE SWAP1 SWAP2 MSTORE DUP2 KECCAK256 DUP1 SLOAD PUSH1 0x1 SWAP3 SWAP1 PUSH2 0x131B SWAP1 DUP5 SWAP1 PUSH2 0x3192 JUMP JUMPDEST SWAP1 SWAP2 SSTORE POP POP PUSH1 0x2 DUP1 SLOAD PUSH1 0x1 ADD SWAP1 SSTORE PUSH1 0x40 MLOAD DUP1 PUSH1 0xA0 ADD PUSH1 0x40 MSTORE DUP1 DUP7 DUP2 MSTORE PUSH1 0x20 ADD DUP6 DUP2 MSTORE PUSH1 0x20 ADD DUP5 PUSH1 0xFF AND DUP2 MSTORE PUSH1 0x20 ADD PUSH2 0x1350 CALLER SWAP1 JUMP JUMPDEST PUSH1 0x1 PUSH1 0x1 PUSH1 0xA0 SHL SUB AND DUP2 MSTORE PUSH1 0x20 ADD TIMESTAMP DUP2 MSTORE POP PUSH1 0x5 PUSH0 PUSH2 0x136E PUSH1 0x2 SLOAD SWAP1 JUMP JUMPDEST DUP2 MSTORE PUSH1 0x20 DUP1 DUP3 ADD SWAP3 SWAP1 SWAP3 MSTORE PUSH1 0x40 ADD PUSH0 KECCAK256 DUP3 MLOAD DUP2 SSTORE SWAP1 DUP3 ADD MLOAD PUSH1 0x1 DUP3 ADD SWAP1 PUSH2 0x1395 SWAP1 DUP3 PUSH2 0x3048 JUMP JUMPDEST POP PUSH1 0x40 DUP3 ADD MLOAD PUSH1 0x2 DUP3 ADD DUP1 SLOAD PUSH1 0x60 DUP6 ADD MLOAD PUSH1 0x1 PUSH1 0x1 PUSH1 0xA0 SHL SUB AND PUSH2 0x100 MUL PUSH1 0x1 PUSH1 0x1 PUSH1 0xA8 SHL SUB NOT SWAP1 SWAP2 AND PUSH1 0xFF SWAP1 SWAP4 AND SWAP3 SWAP1 SWAP3 OR SWAP2 SWAP1 SWAP2 OR SWAP1 SSTORE PUSH1 0x80 SWAP1 SWAP2 ADD MLOAD PUSH1 0x3 SWAP1 SWAP2 ADD SSTORE PUSH2 0x13E1 CALLER SWAP1 JUMP JUMPDEST PUSH1 0x1 PUSH1 0x1 PUSH1 0xA0 SHL SUB AND DUP6 PUSH32 0xCC8498191B5CE61C56EFC7B9FD57855FD7CD7F3BCB39131FD0693C6DBF67DCEC PUSH1 0x4 PUSH0 DUP10 DUP2 MSTORE PUSH1 0x20 ADD SWAP1 DUP2 MSTORE PUSH1 0x20 ADD PUSH0 KECCAK256 PUSH1 0xC ADD SLOAD PUSH1 0x40 MLOAD PUSH2 0x1430 SWAP2 DUP2 MSTORE PUSH1 0x20 ADD SWAP1 JUMP JUMPDEST PUSH1 0x40 MLOAD DUP1 SWAP2 SUB SWAP1 LOG3 POP POP POP POP POP JUMP JUMPDEST PUSH2 0x1447 PUSH2 0x21D6 JUMP JUMPDEST PUSH2 0xDB4 PUSH2 0x233B JUMP JUMPDEST PUSH2 0x1457 PUSH2 0x21D6 JUMP JUMPDEST PUSH1 0x3 SSTORE JUMP JUMPDEST PUSH2 0x1464 PUSH2 0x21D6 JUMP JUMPDEST PUSH1 0x40 MLOAD PUSH4 0x3B06CDDD PUSH1 0xE1 SHL DUP2 MSTORE PUSH1 0x1 PUSH1 0x1 PUSH1 0xA0 SHL SUB DUP7 AND SWAP1 PUSH4 0x760D9BBA SWAP1 PUSH2 0x1498 SWAP1 ADDRESS SWAP1 DUP9 SWAP1 DUP9 SWAP1 DUP9 SWAP1 DUP9 SWAP1 PUSH1 0x4 ADD PUSH2 0x3139 JUMP JUMPDEST PUSH0 PUSH1 0x40 MLOAD DUP1 DUP4 SUB DUP2 PUSH0 DUP8 DUP1 EXTCODESIZE ISZERO DUP1 ISZERO PUSH2 0x14AF JUMPI PUSH0 PUSH0 REVERT JUMPDEST POP GAS CALL ISZERO DUP1 ISZERO PUSH2 0x14C1 JUMPI RETURNDATASIZE PUSH0 PUSH0 RETURNDATACOPY RETURNDATASIZE PUSH0 REVERT JUMPDEST POP POP POP POP POP POP POP POP POP JUMP JUMPDEST PUSH0 DUP3 DUP2 MSTORE PUSH1 0x6 PUSH1 0x20 SWAP1 DUP2 MSTORE PUSH1 0x40 DUP1 DUP4 KECCAK256 DUP5 DUP5 MSTORE SWAP1 SWAP2 MSTORE SWAP1 KECCAK256 DUP1 SLOAD PUSH1 0x60 SWAP2 SWAP1 PUSH2 0x14F3 SWAP1 PUSH2 0x2FC5 JUMP JUMPDEST DUP1 PUSH1 0x1F ADD PUSH1 0x20 DUP1 SWAP2 DIV MUL PUSH1 0x20 ADD PUSH1 0x40 MLOAD SWAP1 DUP2 ADD PUSH1 0x40 MSTORE DUP1 SWAP3 SWAP2 SWAP1 DUP2 DUP2 MSTORE PUSH1 0x20 ADD DUP3 DUP1 SLOAD PUSH2 0x151F SWAP1 PUSH2 0x2FC5 JUMP JUMPDEST DUP1 ISZERO PUSH2 0x156A JUMPI DUP1 PUSH1 0x1F LT PUSH2 0x1541 JUMPI PUSH2 0x100 DUP1 DUP4 SLOAD DIV MUL DUP4 MSTORE SWAP2 PUSH1 0x20 ADD SWAP2 PUSH2 0x156A JUMP JUMPDEST DUP3 ADD SWAP2 SWAP1 PUSH0 MSTORE PUSH1 0x20 PUSH0 KECCAK256 SWAP1 JUMPDEST DUP2 SLOAD DUP2 MSTORE SWAP1 PUSH1 0x1 ADD SWAP1 PUSH1 0x20 ADD DUP1 DUP4 GT PUSH2 0x154D JUMPI DUP3 SWAP1 SUB PUSH1 0x1F AND DUP3 ADD SWAP2 JUMPDEST POP POP POP POP POP SWAP1 POP SWAP3 SWAP2 POP POP JUMP JUMPDEST PUSH0 TIMESTAMP DUP10 GT PUSH2 0x15DC JUMPI PUSH1 0x40 MLOAD PUSH3 0x461BCD PUSH1 0xE5 SHL DUP2 MSTORE PUSH1 0x20 PUSH1 0x4 DUP3 ADD MSTORE PUSH1 0x2C PUSH1 0x24 DUP3 ADD MSTORE PUSH32 0x53746172742074696D65206D7573742062652067726561746572207468616E20 PUSH1 0x44 DUP3 ADD MSTORE PUSH12 0x63757272656E742074696D65 PUSH1 0xA0 SHL PUSH1 0x64 DUP3 ADD MSTORE PUSH1 0x84 ADD PUSH2 0xB60 JUMP JUMPDEST DUP9 DUP9 GT PUSH2 0x163C JUMPI PUSH1 0x40 MLOAD PUSH3 0x461BCD PUSH1 0xE5 SHL DUP2 MSTORE PUSH1 0x20 PUSH1 0x4 DUP3 ADD MSTORE PUSH1 0x28 PUSH1 0x24 DUP3 ADD MSTORE PUSH32 0x456E642074696D65206D7573742062652067726561746572207468616E207374 PUSH1 0x44 DUP3 ADD MSTORE PUSH8 0x6172742074696D65 PUSH1 0xC0 SHL PUSH1 0x64 DUP3 ADD MSTORE PUSH1 0x84 ADD PUSH2 0xB60 JUMP JUMPDEST DUP5 ISZERO PUSH2 0x1683 JUMPI PUSH0 SLOAD PUSH1 0x1 PUSH1 0x1 PUSH1 0xA0 SHL SUB AND CALLER EQ PUSH2 0x1683 JUMPI PUSH1 0x3 SLOAD CALLVALUE LT ISZERO PUSH2 0x1683 JUMPI PUSH1 0x3 SLOAD PUSH1 0x40 MLOAD PUSH4 0xBC03BCCD PUSH1 0xE0 SHL DUP2 MSTORE PUSH1 0x4 DUP2 ADD SWAP2 SWAP1 SWAP2 MSTORE CALLVALUE PUSH1 0x24 DUP3 ADD MSTORE PUSH1 0x44 ADD PUSH2 0xB60 JUMP JUMPDEST PUSH2 0x1691 PUSH1 0x1 DUP1 SLOAD PUSH1 0x1 ADD SWAP1 SSTORE JUMP JUMPDEST PUSH1 0x40 MLOAD DUP1 PUSH2 0x1C0 ADD PUSH1 0x40 MSTORE DUP1 DUP14 DUP2 MSTORE PUSH1 0x20 ADD DUP13 DUP2 MSTORE PUSH1 0x20 ADD DUP12 DUP2 MSTORE PUSH1 0x20 ADD DUP11 DUP2 MSTORE PUSH1 0x20 ADD DUP10 DUP2 MSTORE PUSH1 0x20 ADD DUP9 DUP2 MSTORE PUSH1 0x20 ADD PUSH2 0x16C8 CALLER SWAP1 JUMP JUMPDEST PUSH1 0x1 PUSH1 0x1 PUSH1 0xA0 SHL SUB AND DUP2 MSTORE PUSH1 0x20 ADD DUP8 DUP2 MSTORE PUSH1 0x20 ADD DUP7 ISZERO ISZERO DUP2 MSTORE PUSH1 0x20 ADD DUP6 PUSH1 0x1 PUSH1 0x1 PUSH1 0xA0 SHL SUB AND DUP2 MSTORE PUSH1 0x20 ADD DUP5 DUP2 MSTORE PUSH1 0x20 ADD DUP4 ISZERO ISZERO DUP2 MSTORE PUSH1 0x20 ADD TIMESTAMP DUP2 MSTORE PUSH1 0x20 ADD PUSH0 DUP2 MSTORE POP PUSH1 0x4 PUSH0 PUSH2 0x1717 PUSH1 0x1 SLOAD SWAP1 JUMP JUMPDEST DUP2 MSTORE PUSH1 0x20 DUP2 ADD SWAP2 SWAP1 SWAP2 MSTORE PUSH1 0x40 ADD PUSH0 KECCAK256 DUP2 MLOAD DUP2 SWAP1 PUSH2 0x1734 SWAP1 DUP3 PUSH2 0x3048 JUMP JUMPDEST POP PUSH1 0x20 DUP3 ADD MLOAD PUSH1 0x1 DUP3 ADD SWAP1 PUSH2 0x1749 SWAP1 DUP3 PUSH2 0x3048 JUMP JUMPDEST POP PUSH1 0x40 DUP3 ADD MLOAD DUP1 MLOAD PUSH2 0x1765 SWAP2 PUSH1 0x2 DUP5 ADD SWAP2 PUSH1 0x20 SWAP1 SWAP2 ADD SWAP1 PUSH2 0x23D0 JUMP JUMPDEST POP PUSH1 0x60 DUP3 ADD MLOAD PUSH1 0x3 DUP3 ADD SSTORE PUSH1 0x80 DUP3 ADD MLOAD PUSH1 0x4 DUP3 ADD SSTORE PUSH1 0xA0 DUP3 ADD MLOAD DUP1 MLOAD PUSH2 0x1795 SWAP2 PUSH1 0x5 DUP5 ADD SWAP2 PUSH1 0x20 SWAP1 SWAP2 ADD SWAP1 PUSH2 0x2424 JUMP JUMPDEST POP PUSH1 0xC0 DUP3 ADD MLOAD PUSH1 0x6 DUP3 ADD DUP1 SLOAD PUSH1 0x1 PUSH1 0x1 PUSH1 0xA0 SHL SUB NOT AND PUSH1 0x1 PUSH1 0x1 PUSH1 0xA0 SHL SUB SWAP3 DUP4 AND OR SWAP1 SSTORE PUSH1 0xE0 DUP4 ADD MLOAD PUSH1 0x7 DUP4 ADD SSTORE PUSH2 0x100 DUP1 DUP5 ADD MLOAD PUSH1 0x8 DUP1 DUP6 ADD DUP1 SLOAD PUSH2 0x120 DUP9 ADD MLOAD PUSH1 0x1 PUSH1 0x1 PUSH1 0xA8 SHL SUB NOT SWAP1 SWAP2 AND SWAP4 ISZERO ISZERO PUSH2 0x100 PUSH1 0x1 PUSH1 0xA8 SHL SUB NOT AND SWAP4 SWAP1 SWAP4 OR SWAP3 SWAP1 SWAP5 AND SWAP1 SWAP3 MUL OR SWAP1 SWAP2 SSTORE PUSH2 0x140 DUP4 ADD MLOAD PUSH1 0x9 DUP4 ADD SSTORE PUSH2 0x160 DUP4 ADD MLOAD PUSH1 0xA DUP4 ADD DUP1 SLOAD PUSH1 0xFF NOT AND SWAP2 ISZERO ISZERO SWAP2 SWAP1 SWAP2 OR SWAP1 SSTORE PUSH2 0x180 DUP4 ADD MLOAD PUSH1 0xB DUP4 ADD SSTORE PUSH2 0x1A0 SWAP1 SWAP3 ADD MLOAD PUSH1 0xC SWAP1 SWAP2 ADD SSTORE CALLER PUSH0 DUP2 DUP2 MSTORE PUSH1 0x20 SWAP3 DUP4 MSTORE PUSH1 0x40 DUP2 KECCAK256 PUSH1 0x1 DUP1 SLOAD DUP3 SLOAD DUP1 DUP4 ADD DUP5 SSTORE SWAP3 DUP5 MSTORE SWAP5 SWAP1 SWAP3 KECCAK256 ADD SWAP3 SWAP1 SWAP3 SSTORE SWAP1 SLOAD PUSH0 SHL PUSH32 0x68D72977FB47B474E850DE31FA3E3FDCEFF2FC7AE0DE285763B8F70EF283D56B DUP15 DUP15 DUP14 DUP14 PUSH1 0x40 MLOAD PUSH2 0x189A SWAP5 SWAP4 SWAP3 SWAP2 SWAP1 PUSH2 0x31A5 JUMP JUMPDEST PUSH1 0x40 MLOAD DUP1 SWAP2 SUB SWAP1 LOG3 PUSH1 0x1 SLOAD SWAP13 SWAP12 POP POP POP POP POP POP POP POP POP POP POP POP JUMP JUMPDEST PUSH1 0x6 PUSH1 0x20 SWAP1 DUP2 MSTORE PUSH0 SWAP3 DUP4 MSTORE PUSH1 0x40 DUP1 DUP5 KECCAK256 SWAP1 SWAP2 MSTORE SWAP1 DUP3 MSTORE SWAP1 KECCAK256 DUP1 SLOAD PUSH2 0x18D8 SWAP1 PUSH2 0x2FC5 JUMP JUMPDEST DUP1 PUSH1 0x1F ADD PUSH1 0x20 DUP1 SWAP2 DIV MUL PUSH1 0x20 ADD PUSH1 0x40 MLOAD SWAP1 DUP2 ADD PUSH1 0x40 MSTORE DUP1 SWAP3 SWAP2 SWAP1 DUP2 DUP2 MSTORE PUSH1 0x20 ADD DUP3 DUP1 SLOAD PUSH2 0x1904 SWAP1 PUSH2 0x2FC5 JUMP JUMPDEST DUP1 ISZERO PUSH2 0x194F JUMPI DUP1 PUSH1 0x1F LT PUSH2 0x1926 JUMPI PUSH2 0x100 DUP1 DUP4 SLOAD DIV MUL DUP4 MSTORE SWAP2 PUSH1 0x20 ADD SWAP2 PUSH2 0x194F JUMP JUMPDEST DUP3 ADD SWAP2 SWAP1 PUSH0 MSTORE PUSH1 0x20 PUSH0 KECCAK256 SWAP1 JUMPDEST DUP2 SLOAD DUP2 MSTORE SWAP1 PUSH1 0x1 ADD SWAP1 PUSH1 0x20 ADD DUP1 DUP4 GT PUSH2 0x1932 JUMPI DUP3 SWAP1 SUB PUSH1 0x1F AND DUP3 ADD SWAP2 JUMPDEST POP POP POP POP POP DUP2 JUMP JUMPDEST PUSH0 DUP2 DUP2 MSTORE PUSH1 0x4 PUSH1 0x20 MSTORE PUSH1 0x40 DUP2 KECCAK256 PUSH1 0xC ADD SLOAD PUSH1 0x60 SWAP2 DUP2 PUSH1 0x1 PUSH1 0x1 PUSH1 0x40 SHL SUB DUP2 GT ISZERO PUSH2 0x1983 JUMPI PUSH2 0x1983 PUSH2 0x2570 JUMP JUMPDEST PUSH1 0x40 MLOAD SWAP1 DUP1 DUP3 MSTORE DUP1 PUSH1 0x20 MUL PUSH1 0x20 ADD DUP3 ADD PUSH1 0x40 MSTORE DUP1 ISZERO PUSH2 0x19F4 JUMPI DUP2 PUSH1 0x20 ADD JUMPDEST PUSH2 0x19E1 PUSH1 0x40 MLOAD DUP1 PUSH1 0xC0 ADD PUSH1 0x40 MSTORE DUP1 PUSH0 DUP2 MSTORE PUSH1 0x20 ADD PUSH0 DUP2 MSTORE PUSH1 0x20 ADD PUSH1 0x60 DUP2 MSTORE PUSH1 0x20 ADD PUSH0 PUSH1 0xFF AND DUP2 MSTORE PUSH1 0x20 ADD PUSH0 PUSH1 0x1 PUSH1 0x1 PUSH1 0xA0 SHL SUB AND DUP2 MSTORE PUSH1 0x20 ADD PUSH0 DUP2 MSTORE POP SWAP1 JUMP JUMPDEST DUP2 MSTORE PUSH1 0x20 ADD SWAP1 PUSH1 0x1 SWAP1 SUB SWAP1 DUP2 PUSH2 0x19A1 JUMPI SWAP1 POP JUMPDEST POP SWAP1 POP PUSH0 JUMPDEST DUP3 DUP2 LT ISZERO PUSH2 0x1BC3 JUMPI DUP5 PUSH1 0x5 PUSH0 PUSH2 0x1A10 DUP5 PUSH1 0x1 PUSH2 0x3192 JUMP JUMPDEST DUP2 MSTORE PUSH1 0x20 DUP2 ADD SWAP2 SWAP1 SWAP2 MSTORE PUSH1 0x40 ADD PUSH0 KECCAK256 SLOAD SUB PUSH2 0x1BBB JUMPI PUSH1 0x40 MLOAD DUP1 PUSH1 0xC0 ADD PUSH1 0x40 MSTORE DUP1 DUP3 PUSH1 0x1 PUSH2 0x1A3D SWAP2 SWAP1 PUSH2 0x3192 JUMP JUMPDEST DUP2 MSTORE PUSH1 0x20 ADD PUSH1 0x5 PUSH0 PUSH2 0x1A50 DUP6 PUSH1 0x1 PUSH2 0x3192 JUMP JUMPDEST PUSH0 SHL DUP2 MSTORE PUSH1 0x20 ADD SWAP1 DUP2 MSTORE PUSH1 0x20 ADD PUSH0 KECCAK256 PUSH0 ADD SLOAD DUP2 MSTORE PUSH1 0x20 ADD PUSH1 0x5 PUSH0 DUP5 PUSH1 0x1 PUSH2 0x1A77 SWAP2 SWAP1 PUSH2 0x3192 JUMP JUMPDEST PUSH0 SHL DUP2 MSTORE PUSH1 0x20 ADD SWAP1 DUP2 MSTORE PUSH1 0x20 ADD PUSH0 KECCAK256 PUSH1 0x1 ADD DUP1 SLOAD PUSH2 0x1A94 SWAP1 PUSH2 0x2FC5 JUMP JUMPDEST DUP1 PUSH1 0x1F ADD PUSH1 0x20 DUP1 SWAP2 DIV MUL PUSH1 0x20 ADD PUSH1 0x40 MLOAD SWAP1 DUP2 ADD PUSH1 0x40 MSTORE DUP1 SWAP3 SWAP2 SWAP1 DUP2 DUP2 MSTORE PUSH1 0x20 ADD DUP3 DUP1 SLOAD PUSH2 0x1AC0 SWAP1 PUSH2 0x2FC5 JUMP JUMPDEST DUP1 ISZERO PUSH2 0x1B0B JUMPI DUP1 PUSH1 0x1F LT PUSH2 0x1AE2 JUMPI PUSH2 0x100 DUP1 DUP4 SLOAD DIV MUL DUP4 MSTORE SWAP2 PUSH1 0x20 ADD SWAP2 PUSH2 0x1B0B JUMP JUMPDEST DUP3 ADD SWAP2 SWAP1 PUSH0 MSTORE PUSH1 0x20 PUSH0 KECCAK256 SWAP1 JUMPDEST DUP2 SLOAD DUP2 MSTORE SWAP1 PUSH1 0x1 ADD SWAP1 PUSH1 0x20 ADD DUP1 DUP4 GT PUSH2 0x1AEE JUMPI DUP3 SWAP1 SUB PUSH1 0x1F AND DUP3 ADD SWAP2 JUMPDEST POP POP POP SWAP2 DUP4 MSTORE POP POP PUSH1 0x20 ADD PUSH1 0x5 PUSH0 PUSH2 0x1B24 DUP6 PUSH1 0x1 PUSH2 0x3192 JUMP JUMPDEST DUP2 MSTORE PUSH1 0x20 DUP1 DUP3 ADD SWAP3 SWAP1 SWAP3 MSTORE PUSH1 0x40 ADD PUSH0 SWAP1 DUP2 KECCAK256 PUSH1 0x2 ADD SLOAD PUSH1 0xFF AND DUP4 MSTORE SWAP2 ADD SWAP1 PUSH1 0x5 SWAP1 PUSH2 0x1B50 DUP6 PUSH1 0x1 PUSH2 0x3192 JUMP JUMPDEST DUP2 MSTORE PUSH1 0x20 DUP1 DUP3 ADD SWAP3 SWAP1 SWAP3 MSTORE PUSH1 0x40 ADD PUSH0 SWAP1 DUP2 KECCAK256 PUSH1 0x2 ADD SLOAD PUSH2 0x100 SWAP1 DIV PUSH1 0x1 PUSH1 0x1 PUSH1 0xA0 SHL SUB AND DUP4 MSTORE SWAP2 ADD SWAP1 PUSH1 0x5 SWAP1 PUSH2 0x1B87 DUP6 PUSH1 0x1 PUSH2 0x3192 JUMP JUMPDEST PUSH0 SHL DUP2 MSTORE PUSH1 0x20 ADD SWAP1 DUP2 MSTORE PUSH1 0x20 ADD PUSH0 KECCAK256 PUSH1 0x3 ADD SLOAD DUP2 MSTORE POP DUP3 DUP3 DUP2 MLOAD DUP2 LT PUSH2 0x1BAF JUMPI PUSH2 0x1BAF PUSH2 0x31DD JUMP JUMPDEST PUSH1 0x20 MUL PUSH1 0x20 ADD ADD DUP2 SWAP1 MSTORE POP JUMPDEST PUSH1 0x1 ADD PUSH2 0x19F9 JUMP JUMPDEST POP SWAP4 SWAP3 POP POP POP JUMP JUMPDEST PUSH2 0x1BD3 PUSH2 0x21D6 JUMP JUMPDEST PUSH1 0x1 PUSH1 0x1 PUSH1 0xA0 SHL SUB DUP2 AND PUSH2 0x1BFC JUMPI PUSH1 0x40 MLOAD PUSH4 0x1E4FBDF7 PUSH1 0xE0 SHL DUP2 MSTORE PUSH0 PUSH1 0x4 DUP3 ADD MSTORE PUSH1 0x24 ADD PUSH2 0xB60 JUMP JUMPDEST PUSH2 0x1C05 DUP2 PUSH2 0x2256 JUMP JUMPDEST POP JUMP JUMPDEST PUSH1 0x4 PUSH1 0x20 MSTORE PUSH0 SWAP1 DUP2 MSTORE PUSH1 0x40 SWAP1 KECCAK256 DUP1 SLOAD DUP2 SWAP1 PUSH2 0x1C22 SWAP1 PUSH2 0x2FC5 JUMP JUMPDEST DUP1 PUSH1 0x1F ADD PUSH1 0x20 DUP1 SWAP2 DIV MUL PUSH1 0x20 ADD PUSH1 0x40 MLOAD SWAP1 DUP2 ADD PUSH1 0x40 MSTORE DUP1 SWAP3 SWAP2 SWAP1 DUP2 DUP2 MSTORE PUSH1 0x20 ADD DUP3 DUP1 SLOAD PUSH2 0x1C4E SWAP1 PUSH2 0x2FC5 JUMP JUMPDEST DUP1 ISZERO PUSH2 0x1C99 JUMPI DUP1 PUSH1 0x1F LT PUSH2 0x1C70 JUMPI PUSH2 0x100 DUP1 DUP4 SLOAD DIV MUL DUP4 MSTORE SWAP2 PUSH1 0x20 ADD SWAP2 PUSH2 0x1C99 JUMP JUMPDEST DUP3 ADD SWAP2 SWAP1 PUSH0 MSTORE PUSH1 0x20 PUSH0 KECCAK256 SWAP1 JUMPDEST DUP2 SLOAD DUP2 MSTORE SWAP1 PUSH1 0x1 ADD SWAP1 PUSH1 0x20 ADD DUP1 DUP4 GT PUSH2 0x1C7C JUMPI DUP3 SWAP1 SUB PUSH1 0x1F AND DUP3 ADD SWAP2 JUMPDEST POP POP POP POP POP SWAP1 DUP1 PUSH1 0x1 ADD DUP1 SLOAD PUSH2 0x1CAE SWAP1 PUSH2 0x2FC5 JUMP JUMPDEST DUP1 PUSH1 0x1F ADD PUSH1 0x20 DUP1 SWAP2 DIV MUL PUSH1 0x20 ADD PUSH1 0x40 MLOAD SWAP1 DUP2 ADD PUSH1 0x40 MSTORE DUP1 SWAP3 SWAP2 SWAP1 DUP2 DUP2 MSTORE PUSH1 0x20 ADD DUP3 DUP1 SLOAD PUSH2 0x1CDA SWAP1 PUSH2 0x2FC5 JUMP JUMPDEST DUP1 ISZERO PUSH2 0x1D25 JUMPI DUP1 PUSH1 0x1F LT PUSH2 0x1CFC JUMPI PUSH2 0x100 DUP1 DUP4 SLOAD DIV MUL DUP4 MSTORE SWAP2 PUSH1 0x20 ADD SWAP2 PUSH2 0x1D25 JUMP JUMPDEST DUP3 ADD SWAP2 SWAP1 PUSH0 MSTORE PUSH1 0x20 PUSH0 KECCAK256 SWAP1 JUMPDEST DUP2 SLOAD DUP2 MSTORE SWAP1 PUSH1 0x1 ADD SWAP1 PUSH1 0x20 ADD DUP1 DUP4 GT PUSH2 0x1D08 JUMPI DUP3 SWAP1 SUB PUSH1 0x1F AND DUP3 ADD SWAP2 JUMPDEST POP POP POP PUSH1 0x3 DUP5 ADD SLOAD PUSH1 0x4 DUP6 ADD SLOAD PUSH1 0x6 DUP7 ADD SLOAD PUSH1 0x7 DUP8 ADD SLOAD PUSH1 0x8 DUP9 ADD SLOAD PUSH1 0x9 DUP10 ADD SLOAD PUSH1 0xA DUP11 ADD SLOAD PUSH1 0xB DUP12 ADD SLOAD PUSH1 0xC SWAP1 SWAP12 ADD SLOAD SWAP10 SWAP11 SWAP7 SWAP10 SWAP6 SWAP9 POP PUSH1 0x1 PUSH1 0x1 PUSH1 0xA0 SHL SUB SWAP5 DUP6 AND SWAP8 POP SWAP3 SWAP6 PUSH1 0xFF DUP1 DUP5 AND SWAP7 PUSH2 0x100 SWAP1 SWAP5 DIV SWAP1 SWAP6 AND SWAP5 SWAP2 SWAP4 SWAP1 SWAP2 AND SWAP2 DUP13 JUMP JUMPDEST PUSH1 0x60 PUSH0 PUSH0 PUSH2 0x1D92 PUSH1 0x1 SLOAD SWAP1 JUMP JUMPDEST PUSH1 0x1 PUSH1 0x1 PUSH1 0x40 SHL SUB DUP2 GT ISZERO PUSH2 0x1DA9 JUMPI PUSH2 0x1DA9 PUSH2 0x2570 JUMP JUMPDEST PUSH1 0x40 MLOAD SWAP1 DUP1 DUP3 MSTORE DUP1 PUSH1 0x20 MUL PUSH1 0x20 ADD DUP3 ADD PUSH1 0x40 MSTORE DUP1 ISZERO PUSH2 0x1E47 JUMPI DUP2 PUSH1 0x20 ADD JUMPDEST PUSH2 0x1E34 PUSH1 0x40 MLOAD DUP1 PUSH2 0x1A0 ADD PUSH1 0x40 MSTORE DUP1 PUSH0 DUP2 MSTORE PUSH1 0x20 ADD PUSH1 0x60 DUP2 MSTORE PUSH1 0x20 ADD PUSH1 0x60 DUP2 MSTORE PUSH1 0x20 ADD PUSH1 0x60 DUP2 MSTORE PUSH1 0x20 ADD PUSH0 DUP2 MSTORE PUSH1 0x20 ADD PUSH0 DUP2 MSTORE PUSH1 0x20 ADD PUSH1 0x60 DUP2 MSTORE PUSH1 0x20 ADD PUSH0 DUP2 MSTORE PUSH1 0x20 ADD PUSH0 DUP2 MSTORE PUSH1 0x20 ADD PUSH0 PUSH1 0x1 PUSH1 0x1 PUSH1 0xA0 SHL SUB AND DUP2 MSTORE PUSH1 0x20 ADD PUSH0 ISZERO ISZERO DUP2 MSTORE PUSH1 0x20 ADD PUSH0 DUP2 MSTORE PUSH1 0x20 ADD PUSH0 DUP2 MSTORE POP SWAP1 JUMP JUMPDEST DUP2 MSTORE PUSH1 0x20 ADD SWAP1 PUSH1 0x1 SWAP1 SUB SWAP1 DUP2 PUSH2 0x1DC7 JUMPI SWAP1 POP JUMPDEST POP SWAP1 POP PUSH0 PUSH1 0x1 JUMPDEST PUSH1 0x1 SLOAD DUP2 GT PUSH2 0x21CB JUMPI PUSH0 DUP2 DUP2 MSTORE PUSH1 0x4 PUSH1 0x20 MSTORE PUSH1 0x40 SWAP1 KECCAK256 PUSH1 0x6 ADD SLOAD PUSH1 0x1 PUSH1 0x1 PUSH1 0xA0 SHL SUB DUP1 DUP9 AND SWAP2 AND SUB PUSH2 0x21B9 JUMPI PUSH1 0x40 DUP1 MLOAD PUSH2 0x1A0 DUP2 ADD DUP3 MSTORE DUP3 DUP2 MSTORE PUSH0 DUP4 DUP2 MSTORE PUSH1 0x4 PUSH1 0x20 SWAP1 DUP2 MSTORE SWAP3 SWAP1 KECCAK256 DUP1 SLOAD PUSH1 0x1 SWAP6 POP SWAP2 SWAP3 DUP4 ADD SWAP2 PUSH2 0x1EAA SWAP1 PUSH2 0x2FC5 JUMP JUMPDEST DUP1 PUSH1 0x1F ADD PUSH1 0x20 DUP1 SWAP2 DIV MUL PUSH1 0x20 ADD PUSH1 0x40 MLOAD SWAP1 DUP2 ADD PUSH1 0x40 MSTORE DUP1 SWAP3 SWAP2 SWAP1 DUP2 DUP2 MSTORE PUSH1 0x20 ADD DUP3 DUP1 SLOAD PUSH2 0x1ED6 SWAP1 PUSH2 0x2FC5 JUMP JUMPDEST DUP1 ISZERO PUSH2 0x1F21 JUMPI DUP1 PUSH1 0x1F LT PUSH2 0x1EF8 JUMPI PUSH2 0x100 DUP1 DUP4 SLOAD DIV MUL DUP4 MSTORE SWAP2 PUSH1 0x20 ADD SWAP2 PUSH2 0x1F21 JUMP JUMPDEST DUP3 ADD SWAP2 SWAP1 PUSH0 MSTORE PUSH1 0x20 PUSH0 KECCAK256 SWAP1 JUMPDEST DUP2 SLOAD DUP2 MSTORE SWAP1 PUSH1 0x1 ADD SWAP1 PUSH1 0x20 ADD DUP1 DUP4 GT PUSH2 0x1F04 JUMPI DUP3 SWAP1 SUB PUSH1 0x1F AND DUP3 ADD SWAP2 JUMPDEST POP POP POP POP POP DUP2 MSTORE PUSH1 0x20 ADD PUSH1 0x4 PUSH0 DUP5 PUSH0 SHL DUP2 MSTORE PUSH1 0x20 ADD SWAP1 DUP2 MSTORE PUSH1 0x20 ADD PUSH0 KECCAK256 PUSH1 0x1 ADD DUP1 SLOAD PUSH2 0x1F4C SWAP1 PUSH2 0x2FC5 JUMP JUMPDEST DUP1 PUSH1 0x1F ADD PUSH1 0x20 DUP1 SWAP2 DIV MUL PUSH1 0x20 ADD PUSH1 0x40 MLOAD SWAP1 DUP2 ADD PUSH1 0x40 MSTORE DUP1 SWAP3 SWAP2 SWAP1 DUP2 DUP2 MSTORE PUSH1 0x20 ADD DUP3 DUP1 SLOAD PUSH2 0x1F78 SWAP1 PUSH2 0x2FC5 JUMP JUMPDEST DUP1 ISZERO PUSH2 0x1FC3 JUMPI DUP1 PUSH1 0x1F LT PUSH2 0x1F9A JUMPI PUSH2 0x100 DUP1 DUP4 SLOAD DIV MUL DUP4 MSTORE SWAP2 PUSH1 0x20 ADD SWAP2 PUSH2 0x1FC3 JUMP JUMPDEST DUP3 ADD SWAP2 SWAP1 PUSH0 MSTORE PUSH1 0x20 PUSH0 KECCAK256 SWAP1 JUMPDEST DUP2 SLOAD DUP2 MSTORE SWAP1 PUSH1 0x1 ADD SWAP1 PUSH1 0x20 ADD DUP1 DUP4 GT PUSH2 0x1FA6 JUMPI DUP3 SWAP1 SUB PUSH1 0x1F AND DUP3 ADD SWAP2 JUMPDEST POP POP POP SWAP2 DUP4 MSTORE POP POP PUSH0 DUP4 DUP2 MSTORE PUSH1 0x4 PUSH1 0x20 SWAP1 DUP2 MSTORE PUSH1 0x40 DUP1 DUP4 KECCAK256 PUSH1 0x2 ADD DUP1 SLOAD DUP3 MLOAD DUP2 DUP6 MUL DUP2 ADD DUP6 ADD SWAP1 SWAP4 MSTORE DUP1 DUP4 MSTORE SWAP5 DUP4 ADD SWAP5 SWAP2 SWAP4 SWAP1 SWAP3 DUP5 ADD JUMPDEST DUP3 DUP3 LT ISZERO PUSH2 0x20A2 JUMPI DUP4 DUP3 SWAP1 PUSH0 MSTORE PUSH1 0x20 PUSH0 KECCAK256 ADD DUP1 SLOAD PUSH2 0x2017 SWAP1 PUSH2 0x2FC5 JUMP JUMPDEST DUP1 PUSH1 0x1F ADD PUSH1 0x20 DUP1 SWAP2 DIV MUL PUSH1 0x20 ADD PUSH1 0x40 MLOAD SWAP1 DUP2 ADD PUSH1 0x40 MSTORE DUP1 SWAP3 SWAP2 SWAP1 DUP2 DUP2 MSTORE PUSH1 0x20 ADD DUP3 DUP1 SLOAD PUSH2 0x2043 SWAP1 PUSH2 0x2FC5 JUMP JUMPDEST DUP1 ISZERO PUSH2 0x208E JUMPI DUP1 PUSH1 0x1F LT PUSH2 0x2065 JUMPI PUSH2 0x100 DUP1 DUP4 SLOAD DIV MUL DUP4 MSTORE SWAP2 PUSH1 0x20 ADD SWAP2 PUSH2 0x208E JUMP JUMPDEST DUP3 ADD SWAP2 SWAP1 PUSH0 MSTORE PUSH1 0x20 PUSH0 KECCAK256 SWAP1 JUMPDEST DUP2 SLOAD DUP2 MSTORE SWAP1 PUSH1 0x1 ADD SWAP1 PUSH1 0x20 ADD DUP1 DUP4 GT PUSH2 0x2071 JUMPI DUP3 SWAP1 SUB PUSH1 0x1F AND DUP3 ADD SWAP2 JUMPDEST POP POP POP POP POP DUP2 MSTORE PUSH1 0x20 ADD SWAP1 PUSH1 0x1 ADD SWAP1 PUSH2 0x1FFA JUMP JUMPDEST POP POP POP SWAP1 DUP3 MSTORE POP PUSH0 DUP4 DUP2 MSTORE PUSH1 0x4 PUSH1 0x20 DUP2 DUP2 MSTORE PUSH1 0x40 DUP1 DUP5 KECCAK256 PUSH1 0x3 DUP2 ADD SLOAD DUP4 DUP8 ADD MSTORE DUP1 DUP5 ADD SLOAD DUP3 DUP8 ADD MSTORE SWAP4 DUP8 SWAP1 MSTORE SWAP2 DUP2 MSTORE PUSH1 0x5 SWAP1 SWAP3 ADD DUP1 SLOAD DUP3 MLOAD DUP2 DUP6 MUL DUP2 ADD DUP6 ADD SWAP1 SWAP4 MSTORE DUP1 DUP4 MSTORE PUSH1 0x60 SWAP1 SWAP5 ADD SWAP4 SWAP2 SWAP3 SWAP1 SWAP2 SWAP1 DUP4 ADD DUP3 DUP3 DUP1 ISZERO PUSH2 0x2129 JUMPI PUSH1 0x20 MUL DUP3 ADD SWAP2 SWAP1 PUSH0 MSTORE PUSH1 0x20 PUSH0 KECCAK256 SWAP1 JUMPDEST DUP2 SLOAD PUSH1 0x1 PUSH1 0x1 PUSH1 0xA0 SHL SUB AND DUP2 MSTORE PUSH1 0x1 SWAP1 SWAP2 ADD SWAP1 PUSH1 0x20 ADD DUP1 DUP4 GT PUSH2 0x210B JUMPI JUMPDEST POP POP POP SWAP2 DUP4 MSTORE POP POP PUSH0 DUP4 DUP2 MSTORE PUSH1 0x4 PUSH1 0x20 DUP2 DUP2 MSTORE PUSH1 0x40 DUP1 DUP5 KECCAK256 PUSH1 0x7 DUP2 ADD SLOAD DUP4 DUP8 ADD MSTORE PUSH1 0x9 DUP2 ADD SLOAD SWAP2 DUP7 ADD SWAP2 SWAP1 SWAP2 MSTORE PUSH1 0x6 DUP2 ADD SLOAD PUSH1 0x1 PUSH1 0x1 PUSH1 0xA0 SHL SUB AND PUSH1 0x60 DUP7 ADD MSTORE PUSH1 0xA DUP2 ADD SLOAD PUSH1 0xFF AND ISZERO ISZERO PUSH1 0x80 DUP7 ADD MSTORE PUSH1 0xB DUP2 ADD SLOAD PUSH1 0xA0 DUP7 ADD MSTORE SWAP3 DUP7 SWAP1 MSTORE MSTORE PUSH1 0xC ADD SLOAD PUSH1 0xC0 SWAP1 SWAP2 ADD MSTORE DUP4 PUSH2 0x219D PUSH1 0x1 DUP5 PUSH2 0x31F1 JUMP JUMPDEST DUP2 MLOAD DUP2 LT PUSH2 0x21AD JUMPI PUSH2 0x21AD PUSH2 0x31DD JUMP JUMPDEST PUSH1 0x20 MUL PUSH1 0x20 ADD ADD DUP2 SWAP1 MSTORE POP JUMPDEST DUP1 PUSH2 0x21C3 DUP2 PUSH2 0x3204 JUMP JUMPDEST SWAP2 POP POP PUSH2 0x1E4E JUMP JUMPDEST POP SWAP1 SWAP5 SWAP1 SWAP4 POP SWAP2 POP POP JUMP JUMPDEST PUSH0 SLOAD PUSH1 0x1 PUSH1 0x1 PUSH1 0xA0 SHL SUB AND CALLER EQ PUSH2 0xDB4 JUMPI PUSH1 0x40 MLOAD PUSH4 0x118CDAA7 PUSH1 0xE0 SHL DUP2 MSTORE CALLER PUSH1 0x4 DUP3 ADD MSTORE PUSH1 0x24 ADD PUSH2 0xB60 JUMP JUMPDEST PUSH2 0x220A PUSH2 0x237D JUMP JUMPDEST PUSH0 DUP1 SLOAD PUSH1 0xFF PUSH1 0xA0 SHL NOT AND SWAP1 SSTORE PUSH32 0x5DB9EE0A495BF2E6FF9C91A7834C1BA4FDD244A5E8AA4E537BD38AEAE4B073AA CALLER JUMPDEST PUSH1 0x40 MLOAD PUSH1 0x1 PUSH1 0x1 PUSH1 0xA0 SHL SUB SWAP1 SWAP2 AND DUP2 MSTORE PUSH1 0x20 ADD PUSH1 0x40 MLOAD DUP1 SWAP2 SUB SWAP1 LOG1 JUMP JUMPDEST PUSH0 DUP1 SLOAD PUSH1 0x1 PUSH1 0x1 PUSH1 0xA0 SHL SUB DUP4 DUP2 AND PUSH1 0x1 PUSH1 0x1 PUSH1 0xA0 SHL SUB NOT DUP4 AND DUP2 OR DUP5 SSTORE PUSH1 0x40 MLOAD SWAP2 SWAP1 SWAP3 AND SWAP3 DUP4 SWAP2 PUSH32 0x8BE0079C531659141344CD1FD0A4F28419497F9722A3DAAFE3B4186F6B6457E0 SWAP2 SWAP1 LOG3 POP POP JUMP JUMPDEST PUSH0 DUP1 JUMPDEST PUSH0 DUP4 DUP2 MSTORE PUSH1 0x4 PUSH1 0x20 MSTORE PUSH1 0x40 SWAP1 KECCAK256 PUSH1 0x5 ADD SLOAD DUP2 GT PUSH2 0x2318 JUMPI PUSH0 DUP4 DUP2 MSTORE PUSH1 0x4 PUSH1 0x20 MSTORE PUSH1 0x40 SWAP1 KECCAK256 PUSH1 0x5 ADD DUP1 SLOAD CALLER SWAP2 SWAP1 DUP4 SWAP1 DUP2 LT PUSH2 0x22E4 JUMPI PUSH2 0x22E4 PUSH2 0x31DD JUMP JUMPDEST PUSH0 SWAP2 DUP3 MSTORE PUSH1 0x20 SWAP1 SWAP2 KECCAK256 ADD SLOAD PUSH1 0x1 PUSH1 0x1 PUSH1 0xA0 SHL SUB AND SUB PUSH2 0x2306 JUMPI POP PUSH1 0x1 SWAP3 SWAP2 POP POP JUMP JUMPDEST DUP1 PUSH2 0x2310 DUP2 PUSH2 0x3204 JUMP JUMPDEST SWAP2 POP POP PUSH2 0x22A8 JUMP JUMPDEST POP PUSH1 0x40 MLOAD PUSH4 0xF2E7FC47 PUSH1 0xE0 SHL DUP2 MSTORE PUSH1 0x4 DUP2 ADD DUP4 SWAP1 MSTORE CALLER PUSH1 0x24 DUP3 ADD MSTORE PUSH1 0x44 ADD PUSH2 0xB60 JUMP JUMPDEST PUSH2 0x2343 PUSH2 0x23A6 JUMP JUMPDEST PUSH0 DUP1 SLOAD PUSH1 0xFF PUSH1 0xA0 SHL NOT AND PUSH1 0x1 PUSH1 0xA0 SHL OR SWAP1 SSTORE PUSH32 0x62E78CEA01BEE320CD4E420270B5EA74000D11B0C9F74754EBDBFC544B05A258 PUSH2 0x2239 CALLER SWAP1 JUMP JUMPDEST PUSH0 SLOAD PUSH1 0x1 PUSH1 0xA0 SHL SWAP1 DIV PUSH1 0xFF AND PUSH2 0xDB4 JUMPI PUSH1 0x40 MLOAD PUSH4 0x8DFC202B PUSH1 0xE0 SHL DUP2 MSTORE PUSH1 0x4 ADD PUSH1 0x40 MLOAD DUP1 SWAP2 SUB SWAP1 REVERT JUMPDEST PUSH0 SLOAD PUSH1 0x1 PUSH1 0xA0 SHL SWAP1 DIV PUSH1 0xFF AND ISZERO PUSH2 0xDB4 JUMPI PUSH1 0x40 MLOAD PUSH4 0xD93C0665 PUSH1 0xE0 SHL DUP2 MSTORE PUSH1 0x4 ADD PUSH1 0x40 MLOAD DUP1 SWAP2 SUB SWAP1 REVERT JUMPDEST DUP3 DUP1 SLOAD DUP3 DUP3 SSTORE SWAP1 PUSH0 MSTORE PUSH1 0x20 PUSH0 KECCAK256 SWAP1 DUP2 ADD SWAP3 DUP3 ISZERO PUSH2 0x2414 JUMPI SWAP2 PUSH1 0x20 MUL DUP3 ADD JUMPDEST DUP3 DUP2 GT ISZERO PUSH2 0x2414 JUMPI DUP3 MLOAD DUP3 SWAP1 PUSH2 0x2404 SWAP1 DUP3 PUSH2 0x3048 JUMP JUMPDEST POP SWAP2 PUSH1 0x20 ADD SWAP2 SWAP1 PUSH1 0x1 ADD SWAP1 PUSH2 0x23EE JUMP JUMPDEST POP PUSH2 0x2420 SWAP3 SWAP2 POP PUSH2 0x24BA JUMP JUMPDEST POP SWAP1 JUMP JUMPDEST DUP3 DUP1 SLOAD DUP3 DUP3 SSTORE SWAP1 PUSH0 MSTORE PUSH1 0x20 PUSH0 KECCAK256 SWAP1 DUP2 ADD SWAP3 DUP3 ISZERO PUSH2 0x2477 JUMPI SWAP2 PUSH1 0x20 MUL DUP3 ADD JUMPDEST DUP3 DUP2 GT ISZERO PUSH2 0x2477 JUMPI DUP3 MLOAD DUP3 SLOAD PUSH1 0x1 PUSH1 0x1 PUSH1 0xA0 SHL SUB NOT AND PUSH1 0x1 PUSH1 0x1 PUSH1 0xA0 SHL SUB SWAP1 SWAP2 AND OR DUP3 SSTORE PUSH1 0x20 SWAP1 SWAP3 ADD SWAP2 PUSH1 0x1 SWAP1 SWAP2 ADD SWAP1 PUSH2 0x2442 JUMP JUMPDEST POP PUSH2 0x2420 SWAP3 SWAP2 POP PUSH2 0x24D6 JUMP JUMPDEST POP DUP1 SLOAD PUSH2 0x248F SWAP1 PUSH2 0x2FC5 JUMP JUMPDEST PUSH0 DUP3 SSTORE DUP1 PUSH1 0x1F LT PUSH2 0x249E JUMPI POP POP JUMP JUMPDEST PUSH1 0x1F ADD PUSH1 0x20 SWAP1 DIV SWAP1 PUSH0 MSTORE PUSH1 0x20 PUSH0 KECCAK256 SWAP1 DUP2 ADD SWAP1 PUSH2 0x1C05 SWAP2 SWAP1 PUSH2 0x24D6 JUMP JUMPDEST DUP1 DUP3 GT ISZERO PUSH2 0x2420 JUMPI PUSH0 PUSH2 0x24CD DUP3 DUP3 PUSH2 0x2483 JUMP JUMPDEST POP PUSH1 0x1 ADD PUSH2 0x24BA JUMP JUMPDEST JUMPDEST DUP1 DUP3 GT ISZERO PUSH2 0x2420 JUMPI PUSH0 DUP2 SSTORE PUSH1 0x1 ADD PUSH2 0x24D7 JUMP JUMPDEST PUSH0 PUSH1 0x20 DUP3 DUP5 SUB SLT ISZERO PUSH2 0x24FA JUMPI PUSH0 PUSH0 REVERT JUMPDEST POP CALLDATALOAD SWAP2 SWAP1 POP JUMP JUMPDEST PUSH0 DUP2 MLOAD DUP1 DUP5 MSTORE DUP1 PUSH1 0x20 DUP5 ADD PUSH1 0x20 DUP7 ADD MCOPY PUSH0 PUSH1 0x20 DUP3 DUP7 ADD ADD MSTORE PUSH1 0x20 PUSH1 0x1F NOT PUSH1 0x1F DUP4 ADD AND DUP6 ADD ADD SWAP2 POP POP SWAP3 SWAP2 POP POP JUMP JUMPDEST DUP6 DUP2 MSTORE PUSH1 0xA0 PUSH1 0x20 DUP3 ADD MSTORE PUSH0 PUSH2 0x2547 PUSH1 0xA0 DUP4 ADD DUP8 PUSH2 0x2501 JUMP JUMPDEST PUSH1 0xFF SWAP6 SWAP1 SWAP6 AND PUSH1 0x40 DUP4 ADD MSTORE POP PUSH1 0x1 PUSH1 0x1 PUSH1 0xA0 SHL SUB SWAP3 SWAP1 SWAP3 AND PUSH1 0x60 DUP4 ADD MSTORE PUSH1 0x80 SWAP1 SWAP2 ADD MSTORE SWAP3 SWAP2 POP POP JUMP JUMPDEST PUSH4 0x4E487B71 PUSH1 0xE0 SHL PUSH0 MSTORE PUSH1 0x41 PUSH1 0x4 MSTORE PUSH1 0x24 PUSH0 REVERT JUMPDEST PUSH1 0x40 MLOAD PUSH1 0x1F DUP3 ADD PUSH1 0x1F NOT AND DUP2 ADD PUSH1 0x1 PUSH1 0x1 PUSH1 0x40 SHL SUB DUP2 GT DUP3 DUP3 LT OR ISZERO PUSH2 0x25AC JUMPI PUSH2 0x25AC PUSH2 0x2570 JUMP JUMPDEST PUSH1 0x40 MSTORE SWAP2 SWAP1 POP JUMP JUMPDEST PUSH0 DUP3 PUSH1 0x1F DUP4 ADD SLT PUSH2 0x25C3 JUMPI PUSH0 PUSH0 REVERT JUMPDEST DUP2 CALLDATALOAD PUSH1 0x20 DUP4 ADD PUSH0 PUSH0 PUSH1 0x1 PUSH1 0x1 PUSH1 0x40 SHL SUB DUP5 GT ISZERO PUSH2 0x25E2 JUMPI PUSH2 0x25E2 PUSH2 0x2570 JUMP JUMPDEST POP PUSH1 0x1F DUP4 ADD PUSH1 0x1F NOT AND PUSH1 0x20 ADD PUSH2 0x25F7 DUP2 PUSH2 0x2584 JUMP JUMPDEST SWAP2 POP POP DUP3 DUP2 MSTORE DUP6 DUP4 DUP4 ADD GT ISZERO PUSH2 0x260B JUMPI PUSH0 PUSH0 REVERT JUMPDEST DUP3 DUP3 PUSH1 0x20 DUP4 ADD CALLDATACOPY PUSH0 SWAP3 DUP2 ADD PUSH1 0x20 ADD SWAP3 SWAP1 SWAP3 MSTORE POP SWAP4 SWAP3 POP POP POP JUMP JUMPDEST PUSH0 PUSH0 PUSH0 PUSH1 0x60 DUP5 DUP7 SUB SLT ISZERO PUSH2 0x2637 JUMPI PUSH0 PUSH0 REVERT JUMPDEST DUP4 CALLDATALOAD SWAP3 POP PUSH1 0x20 DUP5 ADD CALLDATALOAD SWAP2 POP PUSH1 0x40 DUP5 ADD CALLDATALOAD PUSH1 0x1 PUSH1 0x1 PUSH1 0x40 SHL SUB DUP2 GT ISZERO PUSH2 0x265A JUMPI PUSH0 PUSH0 REVERT JUMPDEST PUSH2 0x2666 DUP7 DUP3 DUP8 ADD PUSH2 0x25B4 JUMP JUMPDEST SWAP2 POP POP SWAP3 POP SWAP3 POP SWAP3 JUMP JUMPDEST PUSH0 DUP3 DUP3 MLOAD DUP1 DUP6 MSTORE PUSH1 0x20 DUP6 ADD SWAP5 POP PUSH1 0x20 DUP2 PUSH1 0x5 SHL DUP4 ADD ADD PUSH1 0x20 DUP6 ADD PUSH0 JUMPDEST DUP4 DUP2 LT ISZERO PUSH2 0x26BE JUMPI PUSH1 0x1F NOT DUP6 DUP5 SUB ADD DUP9 MSTORE PUSH2 0x26A8 DUP4 DUP4 MLOAD PUSH2 0x2501 JUMP JUMPDEST PUSH1 0x20 SWAP9 DUP10 ADD SWAP9 SWAP1 SWAP4 POP SWAP2 SWAP1 SWAP2 ADD SWAP1 PUSH1 0x1 ADD PUSH2 0x268C JUMP JUMPDEST POP SWAP1 SWAP7 SWAP6 POP POP POP POP POP POP JUMP JUMPDEST PUSH0 DUP2 MLOAD DUP1 DUP5 MSTORE PUSH1 0x20 DUP5 ADD SWAP4 POP PUSH1 0x20 DUP4 ADD PUSH0 JUMPDEST DUP3 DUP2 LT ISZERO PUSH2 0x2703 JUMPI DUP2 MLOAD PUSH1 0x1 PUSH1 0x1 PUSH1 0xA0 SHL SUB AND DUP7 MSTORE PUSH1 0x20 SWAP6 DUP7 ADD SWAP6 SWAP1 SWAP2 ADD SWAP1 PUSH1 0x1 ADD PUSH2 0x26DC JUMP JUMPDEST POP SWAP4 SWAP5 SWAP4 POP POP POP POP JUMP JUMPDEST PUSH1 0x20 DUP2 MSTORE PUSH0 DUP3 MLOAD PUSH2 0x1C0 PUSH1 0x20 DUP5 ADD MSTORE PUSH2 0x272A PUSH2 0x1E0 DUP5 ADD DUP3 PUSH2 0x2501 JUMP JUMPDEST SWAP1 POP PUSH1 0x20 DUP5 ADD MLOAD PUSH1 0x1F NOT DUP5 DUP4 SUB ADD PUSH1 0x40 DUP6 ADD MSTORE PUSH2 0x2747 DUP3 DUP3 PUSH2 0x2501 JUMP JUMPDEST SWAP2 POP POP PUSH1 0x40 DUP5 ADD MLOAD PUSH1 0x1F NOT DUP5 DUP4 SUB ADD PUSH1 0x60 DUP6 ADD MSTORE PUSH2 0x2765 DUP3 DUP3 PUSH2 0x2670 JUMP JUMPDEST SWAP2 POP POP PUSH1 0x60 DUP5 ADD MLOAD PUSH1 0x80 DUP5 ADD MSTORE PUSH1 0x80 DUP5 ADD MLOAD PUSH1 0xA0 DUP5 ADD MSTORE PUSH1 0xA0 DUP5 ADD MLOAD PUSH1 0x1F NOT DUP5 DUP4 SUB ADD PUSH1 0xC0 DUP6 ADD MSTORE PUSH2 0x2797 DUP3 DUP3 PUSH2 0x26CA JUMP JUMPDEST SWAP2 POP POP PUSH1 0xC0 DUP5 ADD MLOAD PUSH2 0x27B4 PUSH1 0xE0 DUP6 ADD DUP3 PUSH1 0x1 PUSH1 0x1 PUSH1 0xA0 SHL SUB AND SWAP1 MSTORE JUMP JUMPDEST POP PUSH1 0xE0 DUP5 ADD MLOAD PUSH2 0x100 DUP5 ADD MSTORE PUSH2 0x100 DUP5 ADD MLOAD PUSH2 0x27D5 PUSH2 0x120 DUP6 ADD DUP3 ISZERO ISZERO SWAP1 MSTORE JUMP JUMPDEST POP PUSH2 0x120 DUP5 ADD MLOAD PUSH1 0x1 PUSH1 0x1 PUSH1 0xA0 SHL SUB DUP2 AND PUSH2 0x140 DUP6 ADD MSTORE POP PUSH2 0x140 DUP5 ADD MLOAD PUSH2 0x160 DUP5 ADD MSTORE PUSH2 0x160 DUP5 ADD MLOAD PUSH2 0x280E PUSH2 0x180 DUP6 ADD DUP3 ISZERO ISZERO SWAP1 MSTORE JUMP JUMPDEST POP PUSH2 0x180 DUP5 ADD MLOAD PUSH2 0x1A0 DUP5 ADD MSTORE PUSH2 0x1A0 DUP5 ADD MLOAD PUSH2 0x1C0 DUP5 ADD MSTORE DUP1 SWAP2 POP POP SWAP3 SWAP2 POP POP JUMP JUMPDEST PUSH1 0x1 PUSH1 0x1 PUSH1 0xA0 SHL SUB DUP2 AND DUP2 EQ PUSH2 0x1C05 JUMPI PUSH0 PUSH0 REVERT JUMPDEST DUP1 CALLDATALOAD PUSH2 0x2850 DUP2 PUSH2 0x2831 JUMP JUMPDEST SWAP2 SWAP1 POP JUMP JUMPDEST PUSH0 PUSH0 PUSH1 0x40 DUP4 DUP6 SUB SLT ISZERO PUSH2 0x2866 JUMPI PUSH0 PUSH0 REVERT JUMPDEST DUP3 CALLDATALOAD SWAP2 POP PUSH1 0x20 DUP4 ADD CALLDATALOAD PUSH2 0x2878 DUP2 PUSH2 0x2831 JUMP JUMPDEST DUP1 SWAP2 POP POP SWAP3 POP SWAP3 SWAP1 POP JUMP JUMPDEST PUSH0 PUSH1 0x1 PUSH1 0x1 PUSH1 0x40 SHL SUB DUP3 GT ISZERO PUSH2 0x289B JUMPI PUSH2 0x289B PUSH2 0x2570 JUMP JUMPDEST POP PUSH1 0x5 SHL PUSH1 0x20 ADD SWAP1 JUMP JUMPDEST PUSH0 DUP3 PUSH1 0x1F DUP4 ADD SLT PUSH2 0x28B4 JUMPI PUSH0 PUSH0 REVERT JUMPDEST DUP2 CALLDATALOAD PUSH2 0x28C7 PUSH2 0x28C2 DUP3 PUSH2 0x2883 JUMP JUMPDEST PUSH2 0x2584 JUMP JUMPDEST DUP1 DUP3 DUP3 MSTORE PUSH1 0x20 DUP3 ADD SWAP2 POP PUSH1 0x20 DUP4 PUSH1 0x5 SHL DUP7 ADD ADD SWAP3 POP DUP6 DUP4 GT ISZERO PUSH2 0x28E8 JUMPI PUSH0 PUSH0 REVERT JUMPDEST PUSH1 0x20 DUP6 ADD JUMPDEST DUP4 DUP2 LT ISZERO PUSH2 0x2928 JUMPI DUP1 CALLDATALOAD PUSH1 0x1 PUSH1 0x1 PUSH1 0x40 SHL SUB DUP2 GT ISZERO PUSH2 0x290A JUMPI PUSH0 PUSH0 REVERT JUMPDEST PUSH2 0x2919 DUP9 PUSH1 0x20 DUP4 DUP11 ADD ADD PUSH2 0x25B4 JUMP JUMPDEST DUP5 MSTORE POP PUSH1 0x20 SWAP3 DUP4 ADD SWAP3 ADD PUSH2 0x28ED JUMP JUMPDEST POP SWAP6 SWAP5 POP POP POP POP POP JUMP JUMPDEST PUSH0 DUP3 PUSH1 0x1F DUP4 ADD SLT PUSH2 0x2941 JUMPI PUSH0 PUSH0 REVERT JUMPDEST DUP2 CALLDATALOAD PUSH2 0x294F PUSH2 0x28C2 DUP3 PUSH2 0x2883 JUMP JUMPDEST DUP1 DUP3 DUP3 MSTORE PUSH1 0x20 DUP3 ADD SWAP2 POP PUSH1 0x20 DUP4 PUSH1 0x5 SHL DUP7 ADD ADD SWAP3 POP DUP6 DUP4 GT ISZERO PUSH2 0x2970 JUMPI PUSH0 PUSH0 REVERT JUMPDEST PUSH1 0x20 DUP6 ADD JUMPDEST DUP4 DUP2 LT ISZERO PUSH2 0x2928 JUMPI DUP1 CALLDATALOAD PUSH2 0x2988 DUP2 PUSH2 0x2831 JUMP JUMPDEST DUP4 MSTORE PUSH1 0x20 SWAP3 DUP4 ADD SWAP3 ADD PUSH2 0x2975 JUMP JUMPDEST DUP1 CALLDATALOAD DUP1 ISZERO ISZERO DUP2 EQ PUSH2 0x2850 JUMPI PUSH0 PUSH0 REVERT JUMPDEST PUSH0 PUSH0 PUSH0 PUSH0 PUSH0 PUSH0 PUSH0 PUSH0 PUSH0 PUSH0 PUSH2 0x140 DUP12 DUP14 SUB SLT ISZERO PUSH2 0x29BF JUMPI PUSH0 PUSH0 REVERT JUMPDEST DUP11 CALLDATALOAD SWAP10 POP PUSH1 0x20 DUP12 ADD CALLDATALOAD PUSH1 0x1 PUSH1 0x1 PUSH1 0x40 SHL SUB DUP2 GT ISZERO PUSH2 0x29DB JUMPI PUSH0 PUSH0 REVERT JUMPDEST PUSH2 0x29E7 DUP14 DUP3 DUP15 ADD PUSH2 0x25B4 JUMP JUMPDEST SWAP10 POP POP PUSH1 0x40 DUP12 ADD CALLDATALOAD PUSH1 0x1 PUSH1 0x1 PUSH1 0x40 SHL SUB DUP2 GT ISZERO PUSH2 0x2A02 JUMPI PUSH0 PUSH0 REVERT JUMPDEST PUSH2 0x2A0E DUP14 DUP3 DUP15 ADD PUSH2 0x25B4 JUMP JUMPDEST SWAP9 POP POP PUSH1 0x60 DUP12 ADD CALLDATALOAD PUSH1 0x1 PUSH1 0x1 PUSH1 0x40 SHL SUB DUP2 GT ISZERO PUSH2 0x2A29 JUMPI PUSH0 PUSH0 REVERT JUMPDEST PUSH2 0x2A35 DUP14 DUP3 DUP15 ADD PUSH2 0x28A5 JUMP JUMPDEST SWAP8 POP POP PUSH1 0x80 DUP12 ADD CALLDATALOAD PUSH1 0x1 PUSH1 0x1 PUSH1 0x40 SHL SUB DUP2 GT ISZERO PUSH2 0x2A50 JUMPI PUSH0 PUSH0 REVERT JUMPDEST PUSH2 0x2A5C DUP14 DUP3 DUP15 ADD PUSH2 0x2932 JUMP JUMPDEST SWAP7 POP POP PUSH1 0xA0 DUP12 ADD CALLDATALOAD SWAP5 POP PUSH2 0x2A72 PUSH1 0xC0 DUP13 ADD PUSH2 0x2996 JUMP JUMPDEST SWAP4 POP PUSH2 0x2A80 PUSH1 0xE0 DUP13 ADD PUSH2 0x2845 JUMP JUMPDEST SWAP3 POP PUSH2 0x100 DUP12 ADD CALLDATALOAD SWAP2 POP PUSH2 0x2A97 PUSH2 0x120 DUP13 ADD PUSH2 0x2996 JUMP JUMPDEST SWAP1 POP SWAP3 SWAP6 SWAP9 SWAP12 SWAP2 SWAP5 SWAP8 SWAP11 POP SWAP3 SWAP6 SWAP9 POP JUMP JUMPDEST PUSH0 PUSH0 PUSH1 0x40 DUP4 DUP6 SUB SLT ISZERO PUSH2 0x2AB9 JUMPI PUSH0 PUSH0 REVERT JUMPDEST DUP3 CALLDATALOAD PUSH2 0x2AC4 DUP2 PUSH2 0x2831 JUMP JUMPDEST SWAP5 PUSH1 0x20 SWAP4 SWAP1 SWAP4 ADD CALLDATALOAD SWAP4 POP POP POP JUMP JUMPDEST PUSH0 PUSH1 0x20 DUP3 DUP5 SUB SLT ISZERO PUSH2 0x2AE2 JUMPI PUSH0 PUSH0 REVERT JUMPDEST DUP2 CALLDATALOAD PUSH2 0x727 DUP2 PUSH2 0x2831 JUMP JUMPDEST PUSH1 0x20 DUP1 DUP3 MSTORE DUP3 MLOAD DUP3 DUP3 ADD DUP2 SWAP1 MSTORE PUSH0 SWAP2 DUP5 ADD SWAP1 PUSH1 0x40 DUP5 ADD SWAP1 DUP4 JUMPDEST DUP2 DUP2 LT ISZERO PUSH2 0x2B24 JUMPI DUP4 MLOAD DUP4 MSTORE PUSH1 0x20 SWAP4 DUP5 ADD SWAP4 SWAP1 SWAP3 ADD SWAP2 PUSH1 0x1 ADD PUSH2 0x2B06 JUMP JUMPDEST POP SWAP1 SWAP6 SWAP5 POP POP POP POP POP JUMP JUMPDEST PUSH0 PUSH0 PUSH1 0x40 DUP4 DUP6 SUB SLT ISZERO PUSH2 0x2B40 JUMPI PUSH0 PUSH0 REVERT JUMPDEST POP POP DUP1 CALLDATALOAD SWAP3 PUSH1 0x20 SWAP1 SWAP2 ADD CALLDATALOAD SWAP2 POP JUMP JUMPDEST PUSH0 PUSH0 PUSH0 PUSH0 PUSH0 PUSH1 0xA0 DUP7 DUP9 SUB SLT ISZERO PUSH2 0x2B63 JUMPI PUSH0 PUSH0 REVERT JUMPDEST DUP6 CALLDATALOAD SWAP5 POP PUSH1 0x20 DUP7 ADD CALLDATALOAD PUSH1 0x1 PUSH1 0x1 PUSH1 0x40 SHL SUB DUP2 GT ISZERO PUSH2 0x2B7F JUMPI PUSH0 PUSH0 REVERT JUMPDEST PUSH2 0x2B8B DUP9 DUP3 DUP10 ADD PUSH2 0x25B4 JUMP JUMPDEST SWAP5 POP POP PUSH1 0x40 DUP7 ADD CALLDATALOAD PUSH1 0xFF DUP2 AND DUP2 EQ PUSH2 0x2BA1 JUMPI PUSH0 PUSH0 REVERT JUMPDEST SWAP3 POP PUSH2 0x2BAF PUSH1 0x60 DUP8 ADD PUSH2 0x2996 JUMP JUMPDEST SWAP2 POP PUSH1 0x80 DUP7 ADD CALLDATALOAD PUSH1 0x1 PUSH1 0x1 PUSH1 0x40 SHL SUB DUP2 GT ISZERO PUSH2 0x2BC9 JUMPI PUSH0 PUSH0 REVERT JUMPDEST PUSH2 0x2BD5 DUP9 DUP3 DUP10 ADD PUSH2 0x25B4 JUMP JUMPDEST SWAP2 POP POP SWAP3 SWAP6 POP SWAP3 SWAP6 SWAP1 SWAP4 POP JUMP JUMPDEST PUSH0 PUSH0 PUSH0 PUSH0 PUSH0 PUSH1 0xA0 DUP7 DUP9 SUB SLT ISZERO PUSH2 0x2BF6 JUMPI PUSH0 PUSH0 REVERT JUMPDEST DUP6 CALLDATALOAD PUSH2 0x2C01 DUP2 PUSH2 0x2831 JUMP JUMPDEST SWAP5 POP PUSH1 0x20 DUP7 ADD CALLDATALOAD PUSH2 0x2C11 DUP2 PUSH2 0x2831 JUMP JUMPDEST SWAP4 POP PUSH1 0x40 DUP7 ADD CALLDATALOAD SWAP3 POP PUSH2 0x2BAF PUSH1 0x60 DUP8 ADD PUSH2 0x2996 JUMP JUMPDEST PUSH1 0x20 DUP2 MSTORE PUSH0 PUSH2 0x727 PUSH1 0x20 DUP4 ADD DUP5 PUSH2 0x2501 JUMP JUMPDEST PUSH0 PUSH0 PUSH0 PUSH0 PUSH0 PUSH0 PUSH0 PUSH0 PUSH0 PUSH0 PUSH0 PUSH2 0x160 DUP13 DUP15 SUB SLT ISZERO PUSH2 0x2C53 JUMPI PUSH0 PUSH0 REVERT JUMPDEST DUP12 CALLDATALOAD PUSH1 0x1 PUSH1 0x1 PUSH1 0x40 SHL SUB DUP2 GT ISZERO PUSH2 0x2C68 JUMPI PUSH0 PUSH0 REVERT JUMPDEST PUSH2 0x2C74 DUP15 DUP3 DUP16 ADD PUSH2 0x25B4 JUMP JUMPDEST SWAP12 POP POP PUSH1 0x20 DUP13 ADD CALLDATALOAD PUSH1 0x1 PUSH1 0x1 PUSH1 0x40 SHL SUB DUP2 GT ISZERO PUSH2 0x2C8F JUMPI PUSH0 PUSH0 REVERT JUMPDEST PUSH2 0x2C9B DUP15 DUP3 DUP16 ADD PUSH2 0x25B4 JUMP JUMPDEST SWAP11 POP POP PUSH1 0x40 DUP13 ADD CALLDATALOAD PUSH1 0x1 PUSH1 0x1 PUSH1 0x40 SHL SUB DUP2 GT ISZERO PUSH2 0x2CB6 JUMPI PUSH0 PUSH0 REVERT JUMPDEST PUSH2 0x2CC2 DUP15 DUP3 DUP16 ADD PUSH2 0x28A5 JUMP JUMPDEST SWAP10 POP POP PUSH1 0x60 DUP13 ADD CALLDATALOAD SWAP8 POP PUSH1 0x80 DUP13 ADD CALLDATALOAD SWAP7 POP PUSH1 0xA0 DUP13 ADD CALLDATALOAD PUSH1 0x1 PUSH1 0x1 PUSH1 0x40 SHL SUB DUP2 GT ISZERO PUSH2 0x2CEB JUMPI PUSH0 PUSH0 REVERT JUMPDEST PUSH2 0x2CF7 DUP15 DUP3 DUP16 ADD PUSH2 0x2932 JUMP JUMPDEST SWAP7 POP POP PUSH1 0xC0 DUP13 ADD CALLDATALOAD SWAP5 POP PUSH2 0x2D0D PUSH1 0xE0 DUP14 ADD PUSH2 0x2996 JUMP JUMPDEST SWAP4 POP PUSH2 0x2D1C PUSH2 0x100 DUP14 ADD PUSH2 0x2845 JUMP JUMPDEST SWAP3 POP PUSH2 0x120 DUP13 ADD CALLDATALOAD SWAP2 POP PUSH2 0x2D33 PUSH2 0x140 DUP14 ADD PUSH2 0x2996 JUMP JUMPDEST SWAP1 POP SWAP3 SWAP6 SWAP9 SWAP12 POP SWAP3 SWAP6 SWAP9 SWAP12 SWAP1 SWAP4 SWAP7 SWAP10 POP JUMP JUMPDEST PUSH0 PUSH1 0x20 DUP3 ADD PUSH1 0x20 DUP4 MSTORE DUP1 DUP5 MLOAD DUP1 DUP4 MSTORE PUSH1 0x40 DUP6 ADD SWAP2 POP PUSH1 0x40 DUP2 PUSH1 0x5 SHL DUP7 ADD ADD SWAP3 POP PUSH1 0x20 DUP7 ADD PUSH0 JUMPDEST DUP3 DUP2 LT ISZERO PUSH2 0x2DE7 JUMPI PUSH1 0x3F NOT DUP8 DUP7 SUB ADD DUP5 MSTORE DUP2 MLOAD DUP1 MLOAD DUP7 MSTORE PUSH1 0x20 DUP2 ADD MLOAD PUSH1 0x20 DUP8 ADD MSTORE PUSH1 0x40 DUP2 ADD MLOAD PUSH1 0xC0 PUSH1 0x40 DUP9 ADD MSTORE PUSH2 0x2DA5 PUSH1 0xC0 DUP9 ADD DUP3 PUSH2 0x2501 JUMP JUMPDEST PUSH1 0x60 DUP4 DUP2 ADD MLOAD PUSH1 0xFF AND SWAP1 DUP10 ADD MSTORE PUSH1 0x80 DUP1 DUP5 ADD MLOAD PUSH1 0x1 PUSH1 0x1 PUSH1 0xA0 SHL SUB AND SWAP1 DUP10 ADD MSTORE PUSH1 0xA0 SWAP3 DUP4 ADD MLOAD SWAP3 SWAP1 SWAP8 ADD SWAP2 SWAP1 SWAP2 MSTORE POP PUSH1 0x20 SWAP4 DUP5 ADD SWAP4 SWAP2 SWAP1 SWAP2 ADD SWAP1 PUSH1 0x1 ADD PUSH2 0x2D6B JUMP JUMPDEST POP SWAP3 SWAP7 SWAP6 POP POP POP POP POP POP JUMP JUMPDEST PUSH2 0x180 DUP2 MSTORE PUSH0 PUSH2 0x2E07 PUSH2 0x180 DUP4 ADD DUP16 PUSH2 0x2501 JUMP JUMPDEST DUP3 DUP2 SUB PUSH1 0x20 DUP5 ADD MSTORE PUSH2 0x2E19 DUP2 DUP16 PUSH2 0x2501 JUMP JUMPDEST PUSH1 0x40 DUP5 ADD DUP15 SWAP1 MSTORE PUSH1 0x60 DUP5 ADD DUP14 SWAP1 MSTORE PUSH1 0x1 PUSH1 0x1 PUSH1 0xA0 SHL SUB DUP13 DUP2 AND PUSH1 0x80 DUP7 ADD MSTORE PUSH1 0xA0 DUP6 ADD DUP13 SWAP1 MSTORE DUP11 ISZERO ISZERO PUSH1 0xC0 DUP7 ADD MSTORE DUP10 AND PUSH1 0xE0 DUP6 ADD MSTORE PUSH2 0x100 DUP5 ADD DUP9 SWAP1 MSTORE DUP7 ISZERO ISZERO PUSH2 0x120 DUP6 ADD MSTORE SWAP2 POP PUSH2 0x2E67 SWAP1 POP JUMP JUMPDEST PUSH2 0x140 DUP3 ADD SWAP4 SWAP1 SWAP4 MSTORE PUSH2 0x160 ADD MSTORE SWAP11 SWAP10 POP POP POP POP POP POP POP POP POP POP JUMP JUMPDEST PUSH0 PUSH1 0x40 DUP3 ADD PUSH1 0x40 DUP4 MSTORE DUP1 DUP6 MLOAD DUP1 DUP4 MSTORE PUSH1 0x60 DUP6 ADD SWAP2 POP PUSH1 0x60 DUP2 PUSH1 0x5 SHL DUP7 ADD ADD SWAP3 POP PUSH1 0x20 DUP8 ADD PUSH0 JUMPDEST DUP3 DUP2 LT ISZERO PUSH2 0x2FB2 JUMPI PUSH1 0x5F NOT DUP8 DUP7 SUB ADD DUP5 MSTORE DUP2 MLOAD DUP1 MLOAD DUP7 MSTORE PUSH1 0x20 DUP2 ADD MLOAD PUSH2 0x1A0 PUSH1 0x20 DUP9 ADD MSTORE PUSH2 0x2EDB PUSH2 0x1A0 DUP9 ADD DUP3 PUSH2 0x2501 JUMP JUMPDEST SWAP1 POP PUSH1 0x40 DUP3 ADD MLOAD DUP8 DUP3 SUB PUSH1 0x40 DUP10 ADD MSTORE PUSH2 0x2EF4 DUP3 DUP3 PUSH2 0x2501 JUMP JUMPDEST SWAP2 POP POP PUSH1 0x60 DUP3 ADD MLOAD DUP8 DUP3 SUB PUSH1 0x60 DUP10 ADD MSTORE PUSH2 0x2F0E DUP3 DUP3 PUSH2 0x2670 JUMP JUMPDEST SWAP2 POP POP PUSH1 0x80 DUP3 ADD MLOAD PUSH1 0x80 DUP9 ADD MSTORE PUSH1 0xA0 DUP3 ADD MLOAD PUSH1 0xA0 DUP9 ADD MSTORE PUSH1 0xC0 DUP3 ADD MLOAD DUP8 DUP3 SUB PUSH1 0xC0 DUP10 ADD MSTORE PUSH2 0x2F3C DUP3 DUP3 PUSH2 0x26CA JUMP JUMPDEST SWAP2 POP POP PUSH1 0xE0 DUP3 ADD MLOAD PUSH1 0xE0 DUP9 ADD MSTORE PUSH2 0x100 DUP3 ADD MLOAD PUSH2 0x100 DUP9 ADD MSTORE PUSH2 0x120 DUP3 ADD MLOAD PUSH2 0x2F71 PUSH2 0x120 DUP10 ADD DUP3 PUSH1 0x1 PUSH1 0x1 PUSH1 0xA0 SHL SUB AND SWAP1 MSTORE JUMP JUMPDEST POP PUSH2 0x140 DUP3 ADD MLOAD PUSH2 0x2F87 PUSH2 0x140 DUP10 ADD DUP3 ISZERO ISZERO SWAP1 MSTORE JUMP JUMPDEST POP PUSH2 0x160 DUP3 DUP2 ADD MLOAD SWAP1 DUP9 ADD MSTORE PUSH2 0x180 SWAP2 DUP3 ADD MLOAD SWAP2 SWAP1 SWAP7 ADD MSTORE PUSH1 0x20 SWAP4 DUP5 ADD SWAP4 SWAP2 SWAP1 SWAP2 ADD SWAP1 PUSH1 0x1 ADD PUSH2 0x2EA9 JUMP JUMPDEST POP POP POP POP DUP4 ISZERO ISZERO PUSH1 0x20 DUP5 ADD MSTORE SWAP1 POP PUSH2 0x727 JUMP JUMPDEST PUSH1 0x1 DUP2 DUP2 SHR SWAP1 DUP3 AND DUP1 PUSH2 0x2FD9 JUMPI PUSH1 0x7F DUP3 AND SWAP2 POP JUMPDEST PUSH1 0x20 DUP3 LT DUP2 SUB PUSH2 0x2FF7 JUMPI PUSH4 0x4E487B71 PUSH1 0xE0 SHL PUSH0 MSTORE PUSH1 0x22 PUSH1 0x4 MSTORE PUSH1 0x24 PUSH0 REVERT JUMPDEST POP SWAP2 SWAP1 POP JUMP JUMPDEST PUSH1 0x1F DUP3 GT ISZERO PUSH2 0xE2D JUMPI DUP1 PUSH0 MSTORE PUSH1 0x20 PUSH0 KECCAK256 PUSH1 0x1F DUP5 ADD PUSH1 0x5 SHR DUP2 ADD PUSH1 0x20 DUP6 LT ISZERO PUSH2 0x3022 JUMPI POP DUP1 JUMPDEST PUSH1 0x1F DUP5 ADD PUSH1 0x5 SHR DUP3 ADD SWAP2 POP JUMPDEST DUP2 DUP2 LT ISZERO PUSH2 0x3041 JUMPI PUSH0 DUP2 SSTORE PUSH1 0x1 ADD PUSH2 0x302E JUMP JUMPDEST POP POP POP POP POP JUMP JUMPDEST DUP2 MLOAD PUSH1 0x1 PUSH1 0x1 PUSH1 0x40 SHL SUB DUP2 GT ISZERO PUSH2 0x3061 JUMPI PUSH2 0x3061 PUSH2 0x2570 JUMP JUMPDEST PUSH2 0x3075 DUP2 PUSH2 0x306F DUP5 SLOAD PUSH2 0x2FC5 JUMP JUMPDEST DUP5 PUSH2 0x2FFD JUMP JUMPDEST PUSH1 0x20 PUSH1 0x1F DUP3 GT PUSH1 0x1 DUP2 EQ PUSH2 0x30A7 JUMPI PUSH0 DUP4 ISZERO PUSH2 0x3090 JUMPI POP DUP5 DUP3 ADD MLOAD JUMPDEST PUSH0 NOT PUSH1 0x3 DUP6 SWAP1 SHL SHR NOT AND PUSH1 0x1 DUP5 SWAP1 SHL OR DUP5 SSTORE PUSH2 0x3041 JUMP JUMPDEST PUSH0 DUP5 DUP2 MSTORE PUSH1 0x20 DUP2 KECCAK256 PUSH1 0x1F NOT DUP6 AND SWAP2 JUMPDEST DUP3 DUP2 LT ISZERO PUSH2 0x30D6 JUMPI DUP8 DUP6 ADD MLOAD DUP3 SSTORE PUSH1 0x20 SWAP5 DUP6 ADD SWAP5 PUSH1 0x1 SWAP1 SWAP3 ADD SWAP2 ADD PUSH2 0x30B6 JUMP JUMPDEST POP DUP5 DUP3 LT ISZERO PUSH2 0x30F3 JUMPI DUP7 DUP5 ADD MLOAD PUSH0 NOT PUSH1 0x3 DUP8 SWAP1 SHL PUSH1 0xF8 AND SHR NOT AND DUP2 SSTORE JUMPDEST POP POP POP POP PUSH1 0x1 SWAP1 DUP2 SHL ADD SWAP1 SSTORE POP JUMP JUMPDEST PUSH1 0x20 DUP1 DUP3 MSTORE PUSH1 0x6 SWAP1 DUP3 ADD MSTORE PUSH6 0x11985A5B1959 PUSH1 0xD2 SHL PUSH1 0x40 DUP3 ADD MSTORE PUSH1 0x60 ADD SWAP1 JUMP JUMPDEST PUSH0 PUSH1 0x20 DUP3 DUP5 SUB SLT ISZERO PUSH2 0x3132 JUMPI PUSH0 PUSH0 REVERT JUMPDEST POP MLOAD SWAP2 SWAP1 POP JUMP JUMPDEST PUSH1 0x1 PUSH1 0x1 PUSH1 0xA0 SHL SUB DUP7 DUP2 AND DUP3 MSTORE DUP6 AND PUSH1 0x20 DUP3 ADD MSTORE PUSH1 0x40 DUP2 ADD DUP5 SWAP1 MSTORE DUP3 ISZERO ISZERO PUSH1 0x60 DUP3 ADD MSTORE PUSH1 0xA0 PUSH1 0x80 DUP3 ADD DUP2 SWAP1 MSTORE PUSH0 SWAP1 PUSH2 0x3173 SWAP1 DUP4 ADD DUP5 PUSH2 0x2501 JUMP JUMPDEST SWAP8 SWAP7 POP POP POP POP POP POP POP JUMP JUMPDEST PUSH4 0x4E487B71 PUSH1 0xE0 SHL PUSH0 MSTORE PUSH1 0x11 PUSH1 0x4 MSTORE PUSH1 0x24 PUSH0 REVERT JUMPDEST DUP1 DUP3 ADD DUP1 DUP3 GT ISZERO PUSH2 0xE60 JUMPI PUSH2 0xE60 PUSH2 0x317E JUMP JUMPDEST PUSH1 0x80 DUP2 MSTORE PUSH0 PUSH2 0x31B7 PUSH1 0x80 DUP4 ADD DUP8 PUSH2 0x2501 JUMP JUMPDEST DUP3 DUP2 SUB PUSH1 0x20 DUP5 ADD MSTORE PUSH2 0x31C9 DUP2 DUP8 PUSH2 0x2501 JUMP JUMPDEST PUSH1 0x40 DUP5 ADD SWAP6 SWAP1 SWAP6 MSTORE POP POP PUSH1 0x60 ADD MSTORE SWAP3 SWAP2 POP POP JUMP JUMPDEST PUSH4 0x4E487B71 PUSH1 0xE0 SHL PUSH0 MSTORE PUSH1 0x32 PUSH1 0x4 MSTORE PUSH1 0x24 PUSH0 REVERT JUMPDEST DUP2 DUP2 SUB DUP2 DUP2 GT ISZERO PUSH2 0xE60 JUMPI PUSH2 0xE60 PUSH2 0x317E JUMP JUMPDEST PUSH0 PUSH1 0x1 DUP3 ADD PUSH2 0x3215 JUMPI PUSH2 0x3215 PUSH2 0x317E JUMP JUMPDEST POP PUSH1 0x1 ADD SWAP1 JUMP INVALID LOG2 PUSH5 0x6970667358 0x22 SLT KECCAK256 0xDD SMOD MOD SSTORE 0xBB CODESIZE SIGNEXTEND 0xFB PUSH14 0x3BB7DDD929F55B24E883D327B7F9 SELFDESTRUCT GT SGT 0xE7 SUB 0x1F PUSH9 0xA98C64736F6C634300 ADDMOD SHR STOP CALLER 0x4C PUSH16 0x72656D20497073756D2069732073696D PUSH17 0x6C792064756D6D792074657874206F6620 PUSH21 0x6865207072696E74696E6720616E64207479706573 PUSH6 0x7474696E6720 PUSH10 0x6E6475737472792E204C PUSH16 0x72656D20497073756D20686173206265 PUSH6 0x6E2074686520 PUSH10 0x6E647573747279277320 PUSH20 0x74616E646172642064756D6D7920746578742065 PUSH23 0x65722073696E6365207468652031353030732C20776865 PUSH15 0x20616E20756E6B6E6F776E20707269 PUSH15 0x74657220746F6F6B20612067616C6C PUSH6 0x79206F662074 PUSH26 0x706520616E6420736372616D626C656420697420746F206D616B PUSH6 0x206120747970 PUSH6 0x207370656369 PUSH14 0x656E20626F6F6B2E204974206861 PUSH20 0x207375727669766564206E6F74206F6E6C792066 PUSH10 0x76652063656E74757269 PUSH6 0x732C20627574 KECCAK256 PUSH2 0x6C73 PUSH16 0x20746865206C65617020696E746F2065 PUSH13 0x656374726F6E69632074797065 PUSH20 0x657474696E672C2072656D61696E696E67206573 PUSH20 0x656E7469616C6C7920756E6368616E6765642E20 BLOBHASH PUSH21 0x2077617320706F70756C61726973656420696E2074 PUSH9 0x652031393630732077 PUSH10 0x7468207468652072656C PUSH6 0x617365206F66 KECCAK256 0x4C PUSH6 0x747261736574 KECCAK256 PUSH20 0x686565747320636F6E7461696E696E67204C6F72 PUSH6 0x6D2049707375 PUSH14 0x2070617373616765732C20616E64 KECCAK256 PUSH14 0x6F726520726563656E746C792077 PUSH10 0x7468206465736B746F70 KECCAK256 PUSH17 0x75626C697368696E6720736F6674776172 PUSH6 0x206C696B6520 COINBASE PUSH13 0x64757320506167654D616B6572 KECCAK256 PUSH10 0x6E636C7564696E672076 PUSH6 0x7273696F6E73 KECCAK256 PUSH16 0x66204C6F72656D20497073756D2E0000 "
		},
		"gasEstimates": {
			"creation": {
				"codeDepositCost": "2576400",
				"executionCost": "infinite",
				"totalCost": "infinite"
			},
			"external": {
				"_pollCounter()": "2396",
				"_respondCounter()": "2377",
				"blockStorage(bytes32,bytes32)": "infinite",
				"delKey(bytes32,bytes32)": "infinite",
				"fee()": "2372",
				"getBalance()": "218",
				"getKey(bytes32,bytes32)": "infinite",
				"getLSP7Balance(address)": "infinite",
				"getNow()": "290",
				"getPoll(bytes32)": "infinite",
				"isExpired(bytes32)": "2613",
				"newPoll(string,string,string[],uint256,uint256,address[],uint256,bool,address,uint256,bool)": "infinite",
				"newRespond(bytes32,string,uint8,bool,bytes)": "infinite",
				"owner()": "2344",
				"pause()": "infinite",
				"paused()": "2386",
				"poll(bytes32)": "infinite",
				"pollAccount(address,uint256)": "4765",
				"pollAccountList(address)": "infinite",
				"pollList(address)": "infinite",
				"pollStatus(bytes32)": "4742",
				"renounceOwnership()": "infinite",
				"respond(bytes32)": "infinite",
				"respondCounter(bytes32,address)": "2691",
				"responseList(bytes32)": "infinite",
				"setKey(bytes32,bytes32,string)": "infinite",
				"transferBalance(address,uint256)": "infinite",
				"transferOwnership(address)": "infinite",
				"unpause()": "infinite",
				"updateFee(uint256)": "24552",
				"updatePoll(bytes32,string,bytes,string[],address[],uint256,bool,address,uint256,bool)": "infinite",
				"withdraw()": "infinite",
				"withdrawLSP7(address,address,uint256,bool,bytes)": "infinite"
			},
			"internal": {
				"_authorizedSender(bytes32)": "infinite"
			}
		},
		"methodIdentifiers": {
			"_pollCounter()": "fdd5ad23",
			"_respondCounter()": "1cc6fdad",
			"blockStorage(bytes32,bytes32)": "e0caa729",
			"delKey(bytes32,bytes32)": "5de3b598",
			"fee()": "ddca3f43",
			"getBalance()": "12065fe0",
			"getKey(bytes32,bytes32)": "c3105a6b",
			"getLSP7Balance(address)": "79c4be94",
			"getNow()": "bbe4fd50",
			"getPoll(bytes32)": "2cbbd738",
			"isExpired(bytes32)": "6db2feb2",
			"newPoll(string,string,string[],uint256,uint256,address[],uint256,bool,address,uint256,bool)": "d97d9fd2",
			"newRespond(bytes32,string,uint8,bool,bytes)": "7a897de9",
			"owner()": "8da5cb5b",
			"pause()": "8456cb59",
			"paused()": "5c975abb",
			"poll(bytes32)": "f48272d2",
			"pollAccount(address,uint256)": "397c4686",
			"pollAccountList(address)": "3dea5bc3",
			"pollList(address)": "fe7e8e5b",
			"pollStatus(bytes32)": "2c30a81c",
			"renounceOwnership()": "715018a6",
			"respond(bytes32)": "1982f1d3",
			"respondCounter(bytes32,address)": "3049b04b",
			"responseList(bytes32)": "e0ea29fc",
			"setKey(bytes32,bytes32,string)": "22a01240",
			"transferBalance(address,uint256)": "56a6d9ef",
			"transferOwnership(address)": "f2fde38b",
			"unpause()": "3f4ba83a",
			"updateFee(uint256)": "9012c4a8",
			"updatePoll(bytes32,string,bytes,string[],address[],uint256,bool,address,uint256,bool)": "35da0a15",
			"withdraw()": "3ccfd60b",
			"withdrawLSP7(address,address,uint256,bool,bytes)": "b8de4343"
		}
	},
	"abi": [
		{
			"inputs": [],
			"stateMutability": "nonpayable",
			"type": "constructor"
		},
		{
			"inputs": [],
			"name": "EnforcedPause",
			"type": "error"
		},
		{
			"inputs": [],
			"name": "ExpectedPause",
			"type": "error"
		},
		{
			"inputs": [
				{
					"internalType": "uint256",
					"name": "totalAmount",
					"type": "uint256"
				},
				{
					"internalType": "uint256",
					"name": "authorizedAmount",
					"type": "uint256"
				}
			],
			"name": "NotAuthorizedAmount",
			"type": "error"
		},
		{
			"inputs": [
				{
					"internalType": "bytes32",
					"name": "pollId",
					"type": "bytes32"
				},
				{
					"internalType": "address",
					"name": "sender",
					"type": "address"
				}
			],
			"name": "NotWhitelisted",
			"type": "error"
		},
		{
			"inputs": [
				{
					"internalType": "address",
					"name": "owner",
					"type": "address"
				}
			],
			"name": "OwnableInvalidOwner",
			"type": "error"
		},
		{
			"inputs": [
				{
					"internalType": "address",
					"name": "account",
					"type": "address"
				}
			],
			"name": "OwnableUnauthorizedAccount",
			"type": "error"
		},
		{
			"inputs": [
				{
					"internalType": "uint256",
					"name": "value",
					"type": "uint256"
				},
				{
					"internalType": "uint256",
					"name": "amount",
					"type": "uint256"
				}
			],
			"name": "PriceNotMet",
			"type": "error"
		},
		{
			"inputs": [
				{
					"internalType": "address",
					"name": "sender",
					"type": "address"
				}
			],
			"name": "RepetitiveResponse",
			"type": "error"
		},
		{
			"inputs": [
				{
					"internalType": "uint256",
					"name": "now",
					"type": "uint256"
				}
			],
			"name": "TooEarly",
			"type": "error"
		},
		{
			"anonymous": false,
			"inputs": [
				{
					"indexed": true,
					"internalType": "address",
					"name": "previousOwner",
					"type": "address"
				},
				{
					"indexed": true,
					"internalType": "address",
					"name": "newOwner",
					"type": "address"
				}
			],
			"name": "OwnershipTransferred",
			"type": "event"
		},
		{
			"anonymous": false,
			"inputs": [
				{
					"indexed": false,
					"internalType": "address",
					"name": "account",
					"type": "address"
				}
			],
			"name": "Paused",
			"type": "event"
		},
		{
			"anonymous": false,
			"inputs": [
				{
					"indexed": true,
					"internalType": "bytes32",
					"name": "pollId",
					"type": "bytes32"
				},
				{
					"indexed": false,
					"internalType": "string",
					"name": "metadata",
					"type": "string"
				},
				{
					"indexed": false,
					"internalType": "string",
					"name": "q",
					"type": "string"
				},
				{
					"indexed": false,
					"internalType": "uint256",
					"name": "start",
					"type": "uint256"
				},
				{
					"indexed": false,
					"internalType": "uint256",
					"name": "end",
					"type": "uint256"
				},
				{
					"indexed": true,
					"internalType": "address",
					"name": "sender",
					"type": "address"
				}
			],
			"name": "PollAdded",
			"type": "event"
		},
		{
			"anonymous": false,
			"inputs": [
				{
					"indexed": true,
					"internalType": "bytes32",
					"name": "pollId",
					"type": "bytes32"
				},
				{
					"indexed": true,
					"internalType": "address",
					"name": "sender",
					"type": "address"
				}
			],
			"name": "PollUpdated",
			"type": "event"
		},
		{
			"anonymous": false,
			"inputs": [
				{
					"indexed": true,
					"internalType": "bytes32",
					"name": "pollId",
					"type": "bytes32"
				},
				{
					"indexed": false,
					"internalType": "uint256",
					"name": "totalResponse",
					"type": "uint256"
				},
				{
					"indexed": true,
					"internalType": "address",
					"name": "sender",
					"type": "address"
				}
			],
			"name": "RespondAdded",
			"type": "event"
		},
		{
			"anonymous": false,
			"inputs": [
				{
					"indexed": false,
					"internalType": "address",
					"name": "account",
					"type": "address"
				}
			],
			"name": "Unpaused",
			"type": "event"
		},
		{
			"inputs": [],
			"name": "_pollCounter",
			"outputs": [
				{
					"internalType": "uint256",
					"name": "_value",
					"type": "uint256"
				}
			],
			"stateMutability": "view",
			"type": "function"
		},
		{
			"inputs": [],
			"name": "_respondCounter",
			"outputs": [
				{
					"internalType": "uint256",
					"name": "_value",
					"type": "uint256"
				}
			],
			"stateMutability": "view",
			"type": "function"
		},
		{
			"inputs": [
				{
					"internalType": "bytes32",
					"name": "",
					"type": "bytes32"
				},
				{
					"internalType": "bytes32",
					"name": "",
					"type": "bytes32"
				}
			],
			"name": "blockStorage",
			"outputs": [
				{
					"internalType": "string",
					"name": "",
					"type": "string"
				}
			],
			"stateMutability": "view",
			"type": "function"
		},
		{
			"inputs": [
				{
					"internalType": "bytes32",
					"name": "_pollId",
					"type": "bytes32"
				},
				{
					"internalType": "bytes32",
					"name": "_key",
					"type": "bytes32"
				}
			],
			"name": "delKey",
			"outputs": [
				{
					"internalType": "bool",
					"name": "",
					"type": "bool"
				}
			],
			"stateMutability": "nonpayable",
			"type": "function"
		},
		{
			"inputs": [],
			"name": "fee",
			"outputs": [
				{
					"internalType": "uint256",
					"name": "",
					"type": "uint256"
				}
			],
			"stateMutability": "view",
			"type": "function"
		},
		{
			"inputs": [],
			"name": "getBalance",
			"outputs": [
				{
					"internalType": "uint256",
					"name": "",
					"type": "uint256"
				}
			],
			"stateMutability": "view",
			"type": "function"
		},
		{
			"inputs": [
				{
					"internalType": "bytes32",
					"name": "_pollId",
					"type": "bytes32"
				},
				{
					"internalType": "bytes32",
					"name": "_key",
					"type": "bytes32"
				}
			],
			"name": "getKey",
			"outputs": [
				{
					"internalType": "string",
					"name": "",
					"type": "string"
				}
			],
			"stateMutability": "view",
			"type": "function"
		},
		{
			"inputs": [
				{
					"internalType": "address",
					"name": "_token",
					"type": "address"
				}
			],
			"name": "getLSP7Balance",
			"outputs": [
				{
					"internalType": "uint256",
					"name": "",
					"type": "uint256"
				}
			],
			"stateMutability": "view",
			"type": "function"
		},
		{
			"inputs": [],
			"name": "getNow",
			"outputs": [
				{
					"internalType": "uint256",
					"name": "",
					"type": "uint256"
				}
			],
			"stateMutability": "view",
			"type": "function"
		},
		{
			"inputs": [
				{
					"internalType": "bytes32",
					"name": "_pollId",
					"type": "bytes32"
				}
			],
			"name": "getPoll",
			"outputs": [
				{
					"components": [
						{
							"internalType": "string",
							"name": "metadata",
							"type": "string"
						},
						{
							"internalType": "bytes",
							"name": "q",
							"type": "bytes"
						},
						{
							"internalType": "string[]",
							"name": "choices",
							"type": "string[]"
						},
						{
							"internalType": "uint256",
							"name": "start",
							"type": "uint256"
						},
						{
							"internalType": "uint256",
							"name": "end",
							"type": "uint256"
						},
						{
							"internalType": "address[]",
							"name": "whitelist",
							"type": "address[]"
						},
						{
							"internalType": "address",
							"name": "manager",
							"type": "address"
						},
						{
							"internalType": "uint256",
							"name": "votingLimit",
							"type": "uint256"
						},
						{
							"internalType": "bool",
							"name": "isPayable",
							"type": "bool"
						},
						{
							"internalType": "address",
							"name": "token",
							"type": "address"
						},
						{
							"internalType": "uint256",
							"name": "amount",
							"type": "uint256"
						},
						{
							"internalType": "bool",
							"name": "pause",
							"type": "bool"
						},
						{
							"internalType": "uint256",
							"name": "dt",
							"type": "uint256"
						},
						{
							"internalType": "uint256",
							"name": "respondCounter",
							"type": "uint256"
						}
					],
					"internalType": "struct PollPal.PollStruct",
					"name": "",
					"type": "tuple"
				}
			],
			"stateMutability": "view",
			"type": "function"
		},
		{
			"inputs": [
				{
					"internalType": "bytes32",
					"name": "_pollId",
					"type": "bytes32"
				}
			],
			"name": "isExpired",
			"outputs": [
				{
					"internalType": "bool",
					"name": "",
					"type": "bool"
				}
			],
			"stateMutability": "view",
			"type": "function"
		},
		{
			"inputs": [
				{
					"internalType": "string",
					"name": "_metadata",
					"type": "string"
				},
				{
					"internalType": "string",
					"name": "_q",
					"type": "string"
				},
				{
					"internalType": "string[]",
					"name": "_choices",
					"type": "string[]"
				},
				{
					"internalType": "uint256",
					"name": "_start",
					"type": "uint256"
				},
				{
					"internalType": "uint256",
					"name": "_end",
					"type": "uint256"
				},
				{
					"internalType": "address[]",
					"name": "_whitelist",
					"type": "address[]"
				},
				{
					"internalType": "uint256",
					"name": "_votingLimit",
					"type": "uint256"
				},
				{
					"internalType": "bool",
					"name": "_isPayable",
					"type": "bool"
				},
				{
					"internalType": "address",
					"name": "_token",
					"type": "address"
				},
				{
					"internalType": "uint256",
					"name": "_amount",
					"type": "uint256"
				},
				{
					"internalType": "bool",
					"name": "_pause",
					"type": "bool"
				}
			],
			"name": "newPoll",
			"outputs": [
				{
					"internalType": "bytes32",
					"name": "",
					"type": "bytes32"
				}
			],
			"stateMutability": "payable",
			"type": "function"
		},
		{
			"inputs": [
				{
					"internalType": "bytes32",
					"name": "_pollId",
					"type": "bytes32"
				},
				{
					"internalType": "string",
					"name": "_metadata",
					"type": "string"
				},
				{
					"internalType": "uint8",
					"name": "_choice",
					"type": "uint8"
				},
				{
					"internalType": "bool",
					"name": "_force",
					"type": "bool"
				},
				{
					"internalType": "bytes",
					"name": "_data",
					"type": "bytes"
				}
			],
			"name": "newRespond",
			"outputs": [],
			"stateMutability": "payable",
			"type": "function"
		},
		{
			"inputs": [],
			"name": "owner",
			"outputs": [
				{
					"internalType": "address",
					"name": "",
					"type": "address"
				}
			],
			"stateMutability": "view",
			"type": "function"
		},
		{
			"inputs": [],
			"name": "pause",
			"outputs": [],
			"stateMutability": "nonpayable",
			"type": "function"
		},
		{
			"inputs": [],
			"name": "paused",
			"outputs": [
				{
					"internalType": "bool",
					"name": "",
					"type": "bool"
				}
			],
			"stateMutability": "view",
			"type": "function"
		},
		{
			"inputs": [
				{
					"internalType": "bytes32",
					"name": "",
					"type": "bytes32"
				}
			],
			"name": "poll",
			"outputs": [
				{
					"internalType": "string",
					"name": "metadata",
					"type": "string"
				},
				{
					"internalType": "bytes",
					"name": "q",
					"type": "bytes"
				},
				{
					"internalType": "uint256",
					"name": "start",
					"type": "uint256"
				},
				{
					"internalType": "uint256",
					"name": "end",
					"type": "uint256"
				},
				{
					"internalType": "address",
					"name": "manager",
					"type": "address"
				},
				{
					"internalType": "uint256",
					"name": "votingLimit",
					"type": "uint256"
				},
				{
					"internalType": "bool",
					"name": "isPayable",
					"type": "bool"
				},
				{
					"internalType": "address",
					"name": "token",
					"type": "address"
				},
				{
					"internalType": "uint256",
					"name": "amount",
					"type": "uint256"
				},
				{
					"internalType": "bool",
					"name": "pause",
					"type": "bool"
				},
				{
					"internalType": "uint256",
					"name": "dt",
					"type": "uint256"
				},
				{
					"internalType": "uint256",
					"name": "respondCounter",
					"type": "uint256"
				}
			],
			"stateMutability": "view",
			"type": "function"
		},
		{
			"inputs": [
				{
					"internalType": "address",
					"name": "",
					"type": "address"
				},
				{
					"internalType": "uint256",
					"name": "",
					"type": "uint256"
				}
			],
			"name": "pollAccount",
			"outputs": [
				{
					"internalType": "bytes32",
					"name": "",
					"type": "bytes32"
				}
			],
			"stateMutability": "view",
			"type": "function"
		},
		{
			"inputs": [
				{
					"internalType": "address",
					"name": "_manager",
					"type": "address"
				}
			],
			"name": "pollAccountList",
			"outputs": [
				{
					"internalType": "bytes32[]",
					"name": "",
					"type": "bytes32[]"
				}
			],
			"stateMutability": "view",
			"type": "function"
		},
		{
			"inputs": [
				{
					"internalType": "address",
					"name": "_manager",
					"type": "address"
				}
			],
			"name": "pollList",
			"outputs": [
				{
					"components": [
						{
							"internalType": "bytes32",
							"name": "id",
							"type": "bytes32"
						},
						{
							"internalType": "string",
							"name": "metadata",
							"type": "string"
						},
						{
							"internalType": "bytes",
							"name": "q",
							"type": "bytes"
						},
						{
							"internalType": "string[]",
							"name": "choices",
							"type": "string[]"
						},
						{
							"internalType": "uint256",
							"name": "start",
							"type": "uint256"
						},
						{
							"internalType": "uint256",
							"name": "end",
							"type": "uint256"
						},
						{
							"internalType": "address[]",
							"name": "whitelist",
							"type": "address[]"
						},
						{
							"internalType": "uint256",
							"name": "votingLimit",
							"type": "uint256"
						},
						{
							"internalType": "uint256",
							"name": "price",
							"type": "uint256"
						},
						{
							"internalType": "address",
							"name": "manager",
							"type": "address"
						},
						{
							"internalType": "bool",
							"name": "pause",
							"type": "bool"
						},
						{
							"internalType": "uint256",
							"name": "dt",
							"type": "uint256"
						},
						{
							"internalType": "uint256",
							"name": "respondCounter",
							"type": "uint256"
						}
					],
					"internalType": "struct PollPal.PollListStruct[]",
					"name": "polls",
					"type": "tuple[]"
				},
				{
					"internalType": "bool",
					"name": "",
					"type": "bool"
				}
			],
			"stateMutability": "view",
			"type": "function"
		},
		{
			"inputs": [
				{
					"internalType": "bytes32",
					"name": "_pollId",
					"type": "bytes32"
				}
			],
			"name": "pollStatus",
			"outputs": [
				{
					"internalType": "bool",
					"name": "isActive",
					"type": "bool"
				},
				{
					"internalType": "uint256",
					"name": "start",
					"type": "uint256"
				},
				{
					"internalType": "uint256",
					"name": "end",
					"type": "uint256"
				}
			],
			"stateMutability": "view",
			"type": "function"
		},
		{
			"inputs": [],
			"name": "renounceOwnership",
			"outputs": [],
			"stateMutability": "nonpayable",
			"type": "function"
		},
		{
			"inputs": [
				{
					"internalType": "bytes32",
					"name": "",
					"type": "bytes32"
				}
			],
			"name": "respond",
			"outputs": [
				{
					"internalType": "bytes32",
					"name": "pollId",
					"type": "bytes32"
				},
				{
					"internalType": "string",
					"name": "metadata",
					"type": "string"
				},
				{
					"internalType": "uint8",
					"name": "choice",
					"type": "uint8"
				},
				{
					"internalType": "address",
					"name": "sender",
					"type": "address"
				},
				{
					"internalType": "uint256",
					"name": "dt",
					"type": "uint256"
				}
			],
			"stateMutability": "view",
			"type": "function"
		},
		{
			"inputs": [
				{
					"internalType": "bytes32",
					"name": "",
					"type": "bytes32"
				},
				{
					"internalType": "address",
					"name": "",
					"type": "address"
				}
			],
			"name": "respondCounter",
			"outputs": [
				{
					"internalType": "uint256",
					"name": "",
					"type": "uint256"
				}
			],
			"stateMutability": "view",
			"type": "function"
		},
		{
			"inputs": [
				{
					"internalType": "bytes32",
					"name": "_pollId",
					"type": "bytes32"
				}
			],
			"name": "responseList",
			"outputs": [
				{
					"components": [
						{
							"internalType": "bytes32",
							"name": "respondId",
							"type": "bytes32"
						},
						{
							"internalType": "bytes32",
							"name": "pollId",
							"type": "bytes32"
						},
						{
							"internalType": "string",
							"name": "metadata",
							"type": "string"
						},
						{
							"internalType": "uint8",
							"name": "choice",
							"type": "uint8"
						},
						{
							"internalType": "address",
							"name": "sender",
							"type": "address"
						},
						{
							"internalType": "uint256",
							"name": "dt",
							"type": "uint256"
						}
					],
					"internalType": "struct PollPal.RespondListStruct[]",
					"name": "list",
					"type": "tuple[]"
				}
			],
			"stateMutability": "view",
			"type": "function"
		},
		{
			"inputs": [
				{
					"internalType": "bytes32",
					"name": "_pollId",
					"type": "bytes32"
				},
				{
					"internalType": "bytes32",
					"name": "_key",
					"type": "bytes32"
				},
				{
					"internalType": "string",
					"name": "_val",
					"type": "string"
				}
			],
			"name": "setKey",
			"outputs": [
				{
					"internalType": "bool",
					"name": "",
					"type": "bool"
				}
			],
			"stateMutability": "nonpayable",
			"type": "function"
		},
		{
			"inputs": [
				{
					"internalType": "address payable",
					"name": "_to",
					"type": "address"
				},
				{
					"internalType": "uint256",
					"name": "_amount",
					"type": "uint256"
				}
			],
			"name": "transferBalance",
			"outputs": [],
			"stateMutability": "nonpayable",
			"type": "function"
		},
		{
			"inputs": [
				{
					"internalType": "address",
					"name": "newOwner",
					"type": "address"
				}
			],
			"name": "transferOwnership",
			"outputs": [],
			"stateMutability": "nonpayable",
			"type": "function"
		},
		{
			"inputs": [],
			"name": "unpause",
			"outputs": [],
			"stateMutability": "nonpayable",
			"type": "function"
		},
		{
			"inputs": [
				{
					"internalType": "uint256",
					"name": "_fee",
					"type": "uint256"
				}
			],
			"name": "updateFee",
			"outputs": [],
			"stateMutability": "nonpayable",
			"type": "function"
		},
		{
			"inputs": [
				{
					"internalType": "bytes32",
					"name": "_pollId",
					"type": "bytes32"
				},
				{
					"internalType": "string",
					"name": "_metadata",
					"type": "string"
				},
				{
					"internalType": "bytes",
					"name": "_q",
					"type": "bytes"
				},
				{
					"internalType": "string[]",
					"name": "_choices",
					"type": "string[]"
				},
				{
					"internalType": "address[]",
					"name": "_whitelist",
					"type": "address[]"
				},
				{
					"internalType": "uint256",
					"name": "_votingLimit",
					"type": "uint256"
				},
				{
					"internalType": "bool",
					"name": "_isPayable",
					"type": "bool"
				},
				{
					"internalType": "address",
					"name": "_token",
					"type": "address"
				},
				{
					"internalType": "uint256",
					"name": "_amount",
					"type": "uint256"
				},
				{
					"internalType": "bool",
					"name": "_pause",
					"type": "bool"
				}
			],
			"name": "updatePoll",
			"outputs": [],
			"stateMutability": "nonpayable",
			"type": "function"
		},
		{
			"inputs": [],
			"name": "withdraw",
			"outputs": [],
			"stateMutability": "nonpayable",
			"type": "function"
		},
		{
			"inputs": [
				{
					"internalType": "address",
					"name": "_LSP7Token",
					"type": "address"
				},
				{
					"internalType": "address",
					"name": "_to",
					"type": "address"
				},
				{
					"internalType": "uint256",
					"name": "_amount",
					"type": "uint256"
				},
				{
					"internalType": "bool",
					"name": "_force",
					"type": "bool"
				},
				{
					"internalType": "bytes",
					"name": "_data",
					"type": "bytes"
				}
			],
			"name": "withdrawLSP7",
			"outputs": [],
			"stateMutability": "nonpayable",
			"type": "function"
		}
	]
}