{
	"data": {
		"bytecode": {
			"linkReferences": {},
			"object": "60806040525f600355348015610013575f5ffd5b50335f73ffffffffffffffffffffffffffffffffffffffff168173ffffffffffffffffffffffffffffffffffffffff1603610085575f6040517f1e4fbdf700000000000000000000000000000000000000000000000000000000815260040161007c91906108a7565b60405180910390fd5b6100948161062760201b60201c565b505f5f60146101000a81548160ff0219169083151502179055505f600267ffffffffffffffff8111156100ca576100c96108c0565b5b6040519080825280602002602001820160405280156100f85781602001602082028036833780820191505090505b5090506101096106e860201b60201c565b815f8151811061011c5761011b6108ed565b5b602002602001019073ffffffffffffffffffffffffffffffffffffffff16908173ffffffffffffffffffffffffffffffffffffffff168152505073ab8483f64d9c6d1ecf9b849ae677dd3315835cb28160018151811061017f5761017e6108ed565b5b602002602001019073ffffffffffffffffffffffffffffffffffffffff16908173ffffffffffffffffffffffffffffffffffffffff16815250505f600367ffffffffffffffff8111156101d5576101d46108c0565b5b60405190808252806020026020018201604052801561020857816020015b60608152602001906001900390816101f35790505b5090506040518060400160405280600881526020017f4f7074696f6e2031000000000000000000000000000000000000000000000000815250815f81518110610254576102536108ed565b5b60200260200101819052506040518060400160405280600881526020017f4f7074696f6e2032000000000000000000000000000000000000000000000000815250816001815181106102a9576102a86108ed565b5b60200260200101819052506040518060400160405280600881526020017f4f7074696f6e2033000000000000000000000000000000000000000000000000815250816002815181106102fe576102fd6108ed565b5b602002602001018190525061031960016106ef60201b60201c565b604051806101c0016040528060405180602001604052805f815250815260200160405180610260016040528061023e815260200161629161023e91398152602001828152602001600a4261036d9190610950565b815260200162015180426103819190610950565b815260200183815260200161039a6106e860201b60201c565b73ffffffffffffffffffffffffffffffffffffffff168152602001600181526020016001151581526020015f73ffffffffffffffffffffffffffffffffffffffff168152602001670de0b6b3a764000081526020015f151581526020014281526020015f81525060045f610414600161070360201b60201c565b5f1b81526020019081526020015f205f820151815f0190816104369190610b8a565b50602082015181600101908161044c9190610cbb565b50604082015181600201908051906020019061046992919061070f565b50606082015181600301556080820151816004015560a082015181600501908051906020019061049a929190610766565b5060c0820151816006015f6101000a81548173ffffffffffffffffffffffffffffffffffffffff021916908373ffffffffffffffffffffffffffffffffffffffff16021790555060e08201518160070155610100820151816008015f6101000a81548160ff0219169083151502179055506101208201518160080160016101000a81548173ffffffffffffffffffffffffffffffffffffffff021916908373ffffffffffffffffffffffffffffffffffffffff160217905550610140820151816009015561016082015181600a015f6101000a81548160ff02191690831515021790555061018082015181600b01556101a082015181600c01559050506105a56106e860201b60201c565b73ffffffffffffffffffffffffffffffffffffffff166105cb600161070360201b60201c565b5f1b7f68d72977fb47b474e850de31fa3e3fdceff2fc7ae0de285763b8f70ef283d56b600a426105fb9190610950565b620151804261060a9190610950565b6040516106189291906110a8565b60405180910390a350506110f5565b5f5f5f9054906101000a900473ffffffffffffffffffffffffffffffffffffffff169050815f5f6101000a81548173ffffffffffffffffffffffffffffffffffffffff021916908373ffffffffffffffffffffffffffffffffffffffff1602179055508173ffffffffffffffffffffffffffffffffffffffff168173ffffffffffffffffffffffffffffffffffffffff167f8be0079c531659141344cd1fd0a4f28419497f9722a3daafe3b4186f6b6457e060405160405180910390a35050565b5f33905090565b6001815f015f828254019250508190555050565b5f815f01549050919050565b828054828255905f5260205f20908101928215610755579160200282015b828111156107545782518290816107449190610b8a565b509160200191906001019061072d565b5b50905061076291906107ed565b5090565b828054828255905f5260205f209081019282156107dc579160200282015b828111156107db578251825f6101000a81548173ffffffffffffffffffffffffffffffffffffffff021916908373ffffffffffffffffffffffffffffffffffffffff16021790555091602001919060010190610784565b5b5090506107e99190610810565b5090565b5b8082111561080c575f8181610803919061082b565b506001016107ee565b5090565b5b80821115610827575f815f905550600101610811565b5090565b508054610837906109ba565b5f825580601f106108485750610865565b601f0160209004905f5260205f20908101906108649190610810565b5b50565b5f73ffffffffffffffffffffffffffffffffffffffff82169050919050565b5f61089182610868565b9050919050565b6108a181610887565b82525050565b5f6020820190506108ba5f830184610898565b92915050565b7f4e487b71000000000000000000000000000000000000000000000000000000005f52604160045260245ffd5b7f4e487b71000000000000000000000000000000000000000000000000000000005f52603260045260245ffd5b5f819050919050565b7f4e487b71000000000000000000000000000000000000000000000000000000005f52601160045260245ffd5b5f61095a8261091a565b91506109658361091a565b925082820190508082111561097d5761097c610923565b5b92915050565b5f81519050919050565b7f4e487b71000000000000000000000000000000000000000000000000000000005f52602260045260245ffd5b5f60028204905060018216806109d157607f821691505b6020821081036109e4576109e361098d565b5b50919050565b5f819050815f5260205f209050919050565b5f6020601f8301049050919050565b5f82821b905092915050565b5f60088302610a467fffffffffffffffffffffffffffffffffffffffffffffffffffffffffffffffff82610a0b565b610a508683610a0b565b95508019841693508086168417925050509392505050565b5f819050919050565b5f610a8b610a86610a818461091a565b610a68565b61091a565b9050919050565b5f819050919050565b610aa483610a71565b610ab8610ab082610a92565b848454610a17565b825550505050565b5f5f905090565b610acf610ac0565b610ada818484610a9b565b505050565b5b81811015610afd57610af25f82610ac7565b600181019050610ae0565b5050565b601f821115610b4257610b13816109ea565b610b1c846109fc565b81016020851015610b2b578190505b610b3f610b37856109fc565b830182610adf565b50505b505050565b5f82821c905092915050565b5f610b625f1984600802610b47565b1980831691505092915050565b5f610b7a8383610b53565b9150826002028217905092915050565b610b9382610983565b67ffffffffffffffff811115610bac57610bab6108c0565b5b610bb682546109ba565b610bc1828285610b01565b5f60209050601f831160018114610bf2575f8415610be0578287015190505b610bea8582610b6f565b865550610c51565b601f198416610c00866109ea565b5f5b82811015610c2757848901518255600182019150602085019450602081019050610c02565b86831015610c445784890151610c40601f891682610b53565b8355505b6001600288020188555050505b505050505050565b5f81519050919050565b5f819050815f5260205f209050919050565b601f821115610cb657610c8781610c63565b610c90846109fc565b81016020851015610c9f578190505b610cb3610cab856109fc565b830182610adf565b50505b505050565b610cc482610c59565b67ffffffffffffffff811115610cdd57610cdc6108c0565b5b610ce782546109ba565b610cf2828285610c75565b5f60209050601f831160018114610d23575f8415610d11578287015190505b610d1b8582610b6f565b865550610d82565b601f198416610d3186610c63565b5f5b82811015610d5857848901518255600182019150602085019450602081019050610d33565b86831015610d755784890151610d71601f891682610b53565b8355505b6001600288020188555050505b505050505050565b5f82825260208201905092915050565b50565b5f610da85f83610d8a565b9150610db382610d9a565b5f82019050919050565b7f4c6f72656d20497073756d2069732073696d706c792064756d6d7920746578745f8201527f206f6620746865207072696e74696e6720616e64207479706573657474696e6760208201527f20696e6475737472792e204c6f72656d20497073756d20686173206265656e2060408201527f74686520696e6475737472792773207374616e646172642064756d6d7920746560608201527f787420657665722073696e6365207468652031353030732c207768656e20616e60808201527f20756e6b6e6f776e207072696e74657220746f6f6b20612067616c6c6579206f60a08201527f66207479706520616e6420736372616d626c656420697420746f206d616b652060c08201527f6120747970652073706563696d656e20626f6f6b2e204974206861732073757260e08201527f7669766564206e6f74206f6e6c7920666976652063656e7475726965732c20626101008201527f757420616c736f20746865206c65617020696e746f20656c656374726f6e69636101208201527f207479706573657474696e672c2072656d61696e696e6720657373656e7469616101408201527f6c6c7920756e6368616e6765642e2049742077617320706f70756c61726973656101608201527f6420696e207468652031393630732077697468207468652072656c65617365206101808201527f6f66204c657472617365742073686565747320636f6e7461696e696e67204c6f6101a08201527f72656d20497073756d2070617373616765732c20616e64206d6f7265207265636101c08201527f656e746c792077697468206465736b746f70207075626c697368696e6720736f6101e08201527f667477617265206c696b6520416c64757320506167654d616b657220696e636c6102008201527f7564696e672076657273696f6e73206f66204c6f72656d20497073756d2e000061022082015250565b5f61108261023e83610d8a565b915061108d82610dbd565b61024082019050919050565b6110a28161091a565b82525050565b5f6080820190508181035f8301526110bf81610d9d565b905081810360208301526110d281611075565b90506110e16040830185611099565b6110ee6060830184611099565b9392505050565b61518f806111025f395ff3fe6080604052600436106101f8575f3560e01c806376c5e3ee1161010c578063c3105a6b1161009f578063e0ea29fc1161006e578063e0ea29fc1461074e578063f2fde38b1461078a578063f48272d2146107b2578063fdd5ad23146107f9578063fe7e8e5b14610823576101f8565b8063c3105a6b1461067c578063d97d9fd2146106b8578063ddca3f43146106e8578063e0caa72914610712576101f8565b80638da5cb5b116100db5780638da5cb5b146105d85780639012c4a814610602578063b8de43431461062a578063bbe4fd5014610652576101f8565b806376c5e3ee1461052e57806379c4be941461056a5780637a897de9146105a65780638456cb59146105c2576101f8565b8063397c46861161018f57806356a6d9ef1161015e57806356a6d9ef1461044e5780635c975abb146104765780635de3b598146104a05780636db2feb2146104dc578063715018a614610518576101f8565b8063397c4686146103aa5780633ccfd60b146103e65780633dea5bc3146103fc5780633f4ba83a14610438576101f8565b80632c30a81c116101cb5780632c30a81c146102cc5780632cbbd7381461030a5780633049b04b1461034657806335da0a1514610382576101f8565b806312065fe0146101fc5780631982f1d3146102265780631cc6fdad1461026657806322a0124014610290575b5f5ffd5b348015610207575f5ffd5b50610210610860565b60405161021d9190613288565b60405180910390f35b348015610231575f5ffd5b5061024c600480360381019061024791906132e5565b610867565b60405161025d9594939291906133e9565b60405180910390f35b348015610271575f5ffd5b5061027a61094b565b6040516102879190613288565b60405180910390f35b34801561029b575f5ffd5b506102b660048036038101906102b1919061356d565b610956565b6040516102c391906135f3565b60405180910390f35b3480156102d7575f5ffd5b506102f260048036038101906102ed91906132e5565b610998565b6040516103019392919061360c565b60405180910390f35b348015610315575f5ffd5b50610330600480360381019061032b91906132e5565b6109f7565b60405161033d91906139ab565b60405180910390f35b348015610351575f5ffd5b5061036c600480360381019061036791906139f5565b610dbc565b6040516103799190613288565b60405180910390f35b34801561038d575f5ffd5b506103a860048036038101906103a39190613cc7565b610ddc565b005b3480156103b5575f5ffd5b506103d060048036038101906103cb9190613e10565b61104d565b6040516103dd9190613e4e565b60405180910390f35b3480156103f1575f5ffd5b506103fa611078565b005b348015610407575f5ffd5b50610422600480360381019061041d9190613e67565b611137565b60405161042f9190613f49565b60405180910390f35b348015610443575f5ffd5b5061044c6111ca565b005b348015610459575f5ffd5b50610474600480360381019061046f9190613fa4565b6111dc565b005b348015610481575f5ffd5b5061048a611291565b60405161049791906135f3565b60405180910390f35b3480156104ab575f5ffd5b506104c660048036038101906104c19190613fe2565b6112a6565b6040516104d391906135f3565b60405180910390f35b3480156104e7575f5ffd5b5061050260048036038101906104fd91906132e5565b6112e4565b60405161050f91906135f3565b60405180910390f35b348015610523575f5ffd5b5061052c611310565b005b348015610539575f5ffd5b50610554600480360381019061054f91906139f5565b611323565b60405161056191906135f3565b60405180910390f35b348015610575575f5ffd5b50610590600480360381019061058b9190613e67565b61142a565b60405161059d9190613288565b60405180910390f35b6105c060048036038101906105bb919061404a565b6114aa565b005b3480156105cd575f5ffd5b506105d6611c99565b005b3480156105e3575f5ffd5b506105ec611cab565b6040516105f991906140f9565b60405180910390f35b34801561060d575f5ffd5b5061062860048036038101906106239190614112565b611cd2565b005b348015610635575f5ffd5b50610650600480360381019061064b919061413d565b611ce4565b005b34801561065d575f5ffd5b50610666611d61565b6040516106739190613288565b60405180910390f35b348015610687575f5ffd5b506106a2600480360381019061069d9190613fe2565b611d68565b6040516106af91906141d0565b60405180910390f35b6106d260048036038101906106cd91906141f0565b611e19565b6040516106df9190613e4e565b60405180910390f35b3480156106f3575f5ffd5b506106fc612258565b6040516107099190613288565b60405180910390f35b34801561071d575f5ffd5b5061073860048036038101906107339190613fe2565b61225e565b60405161074591906141d0565b60405180910390f35b348015610759575f5ffd5b50610774600480360381019061076f91906132e5565b612304565b604051610781919061449d565b60405180910390f35b348015610795575f5ffd5b506107b060048036038101906107ab9190613e67565b612590565b005b3480156107bd575f5ffd5b506107d860048036038101906107d391906132e5565b612614565b6040516107f09c9b9a99989796959493929190614505565b60405180910390f35b348015610804575f5ffd5b5061080d6127d3565b60405161081a9190613288565b60405180910390f35b34801561082e575f5ffd5b5061084960048036038101906108449190613e67565b6127de565b6040516108579291906147b1565b60405180910390f35b5f47905090565b6005602052805f5260405f205f91509050805f01549080600101805461088c9061480c565b80601f01602080910402602001604051908101604052809291908181526020018280546108b89061480c565b80156109035780601f106108da57610100808354040283529160200191610903565b820191905f5260205f20905b8154815290600101906020018083116108e657829003601f168201915b505050505090806002015f9054906101000a900460ff16908060020160019054906101000a900473ffffffffffffffffffffffffffffffffffffffff16908060030154905085565b6002805f0154905081565b5f61095f612d0e565b8160065f8681526020019081526020015f205f8581526020019081526020015f20908161098c91906149dc565b50600190509392505050565b5f5f5f5f60045f8681526020019081526020015f206003015490505f60045f8781526020019081526020015f20600401549050428111156109e4576001828294509450945050506109f0565b5f828294509450945050505b9193909250565b6109ff612fc1565b60045f8381526020019081526020015f20604051806101c00160405290815f82018054610a2b9061480c565b80601f0160208091040260200160405190810160405280929190818152602001828054610a579061480c565b8015610aa25780601f10610a7957610100808354040283529160200191610aa2565b820191905f5260205f20905b815481529060010190602001808311610a8557829003601f168201915b50505050508152602001600182018054610abb9061480c565b80601f0160208091040260200160405190810160405280929190818152602001828054610ae79061480c565b8015610b325780601f10610b0957610100808354040283529160200191610b32565b820191905f5260205f20905b815481529060010190602001808311610b1557829003601f168201915b5050505050815260200160028201805480602002602001604051908101604052809291908181526020015f905b82821015610c07578382905f5260205f20018054610b7c9061480c565b80601f0160208091040260200160405190810160405280929190818152602001828054610ba89061480c565b8015610bf35780601f10610bca57610100808354040283529160200191610bf3565b820191905f5260205f20905b815481529060010190602001808311610bd657829003601f168201915b505050505081526020019060010190610b5f565b505050508152602001600382015481526020016004820154815260200160058201805480602002602001604051908101604052809291908181526020018280548015610ca557602002820191905f5260205f20905b815f9054906101000a900473ffffffffffffffffffffffffffffffffffffffff1673ffffffffffffffffffffffffffffffffffffffff1681526020019060010190808311610c5c575b50505050508152602001600682015f9054906101000a900473ffffffffffffffffffffffffffffffffffffffff1673ffffffffffffffffffffffffffffffffffffffff1673ffffffffffffffffffffffffffffffffffffffff16815260200160078201548152602001600882015f9054906101000a900460ff161515151581526020016008820160019054906101000a900473ffffffffffffffffffffffffffffffffffffffff1673ffffffffffffffffffffffffffffffffffffffff1673ffffffffffffffffffffffffffffffffffffffff16815260200160098201548152602001600a82015f9054906101000a900460ff16151515158152602001600b8201548152602001600c820154815250509050919050565b6007602052815f5260405f20602052805f5260405f205f91509150505481565b89610de5612d95565b73ffffffffffffffffffffffffffffffffffffffff1660045f8381526020019081526020015f206006015f9054906101000a900473ffffffffffffffffffffffffffffffffffffffff1673ffffffffffffffffffffffffffffffffffffffff1614610e85576040517f08c379a0000000000000000000000000000000000000000000000000000000008152600401610e7c90614b1b565b60405180910390fd5b8960045f8d81526020019081526020015f205f019081610ea591906149dc565b508860045f8d81526020019081526020015f206001019081610ec79190614b91565b508760045f8d81526020019081526020015f206002019080519060200190610ef0929190613056565b508660045f8d81526020019081526020015f206005019080519060200190610f199291906130ad565b508560045f8d81526020019081526020015f20600701819055508460045f8d81526020019081526020015f206008015f6101000a81548160ff0219169083151502179055508360045f8d81526020019081526020015f2060080160016101000a81548173ffffffffffffffffffffffffffffffffffffffff021916908373ffffffffffffffffffffffffffffffffffffffff1602179055508260045f8d81526020019081526020015f20600901819055508160045f8d81526020019081526020015f20600a015f6101000a81548160ff021916908315150217905550610ffd612d95565b73ffffffffffffffffffffffffffffffffffffffff168b7fa3a8f6e6f61cd97a866c0816363d95dadc283c7d9697713ad96302d0cd2ea14d60405160405180910390a35050505050505050505050565b6008602052815f5260405f208181548110611066575f80fd5b905f5260205f20015f91509150505481565b611080612d0e565b5f4790505f61108d611cab565b73ffffffffffffffffffffffffffffffffffffffff16826040516110b090614c8d565b5f6040518083038185875af1925050503d805f81146110ea576040519150601f19603f3d011682016040523d82523d5f602084013e6110ef565b606091505b5050905080611133576040517f08c379a000000000000000000000000000000000000000000000000000000000815260040161112a90614ceb565b60405180910390fd5b5050565b606060085f8373ffffffffffffffffffffffffffffffffffffffff1673ffffffffffffffffffffffffffffffffffffffff1681526020019081526020015f208054806020026020016040519081016040528092919081815260200182805480156111be57602002820191905f5260205f20905b8154815260200190600101908083116111aa575b50505050509050919050565b6111d2612d0e565b6111da612d9c565b565b6111e4612d0e565b5f8273ffffffffffffffffffffffffffffffffffffffff168260405161120990614c8d565b5f6040518083038185875af1925050503d805f8114611243576040519150601f19603f3d011682016040523d82523d5f602084013e611248565b606091505b505090508061128c576040517f08c379a000000000000000000000000000000000000000000000000000000000815260040161128390614ceb565b60405180910390fd5b505050565b5f5f60149054906101000a900460ff16905090565b5f6112af612d0e565b60065f8481526020019081526020015f205f8381526020019081526020015f205f6112da9190613134565b6001905092915050565b5f4260045f8481526020019081526020015f206004015411611307576001611309565b5f5b9050919050565b611318612d0e565b6113215f612dfd565b565b5f5f5f90505b60045f8581526020019081526020015f206005018054905081116113e4578273ffffffffffffffffffffffffffffffffffffffff1660045f8681526020019081526020015f20600501828154811061138457611383614d09565b5b905f5260205f20015f9054906101000a900473ffffffffffffffffffffffffffffffffffffffff1673ffffffffffffffffffffffffffffffffffffffff16036113d1576001915050611424565b80806113dc90614d63565b915050611329565b5082826040517ff2e7fc4700000000000000000000000000000000000000000000000000000000815260040161141b929190614daa565b60405180910390fd5b92915050565b5f8173ffffffffffffffffffffffffffffffffffffffff166370a08231306040518263ffffffff1660e01b815260040161146491906140f9565b602060405180830381865afa15801561147f573d5f5f3e3d5ffd5b505050506040513d601f19601f820116820180604052508101906114a39190614de5565b9050919050565b5f60045f8781526020019081526020015f206005018054905011156114dc576114da856114d5612d95565b611323565b505b4260045f8781526020019081526020015f2060030154111561153557426040517f2a35a32400000000000000000000000000000000000000000000000000000000815260040161152c9190613288565b60405180910390fd5b4260045f8781526020019081526020015f20600401541161158b576040517f08c379a000000000000000000000000000000000000000000000000000000000815260040161158290614e5a565b60405180910390fd5b60045f8681526020019081526020015f20600a015f9054906101000a900460ff16156115ec576040517f08c379a00000000000000000000000000000000000000000000000000000000081526004016115e390614ec2565b60405180910390fd5b60045f8681526020019081526020015f206007015460075f8781526020019081526020015f205f61161b612d95565b73ffffffffffffffffffffffffffffffffffffffff1673ffffffffffffffffffffffffffffffffffffffff1681526020019081526020015f20541061169e57611662612d95565b6040517f4f3b74b000000000000000000000000000000000000000000000000000000000815260040161169591906140f9565b60405180910390fd5b60045f8681526020019081526020015f206008015f9054906101000a900460ff1615611a94575f73ffffffffffffffffffffffffffffffffffffffff1660045f8781526020019081526020015f2060080160019054906101000a900473ffffffffffffffffffffffffffffffffffffffff1673ffffffffffffffffffffffffffffffffffffffff160361187b5760045f8681526020019081526020015f206009015434101561179a5760045f8681526020019081526020015f2060090154346040517fbc03bccd000000000000000000000000000000000000000000000000000000008152600401611791929190614ee0565b60405180910390fd5b5f60045f8781526020019081526020015f206006015f9054906101000a900473ffffffffffffffffffffffffffffffffffffffff1673ffffffffffffffffffffffffffffffffffffffff16346040516117f290614c8d565b5f6040518083038185875af1925050503d805f811461182c576040519150601f19603f3d011682016040523d82523d5f602084013e611831565b606091505b5050905080611875576040517f08c379a000000000000000000000000000000000000000000000000000000000815260040161186c90614ceb565b60405180910390fd5b50611a93565b5f60045f8781526020019081526020015f2060080160019054906101000a900473ffffffffffffffffffffffffffffffffffffffff1673ffffffffffffffffffffffffffffffffffffffff166365aeaa95306118d5612d95565b6040518363ffffffff1660e01b81526004016118f2929190614f07565b602060405180830381865afa15801561190d573d5f5f3e3d5ffd5b505050506040513d601f19601f820116820180604052508101906119319190614de5565b905060045f8781526020019081526020015f206009015481146119a15760045f8781526020019081526020015f2060090154816040517fa24f8be9000000000000000000000000000000000000000000000000000000008152600401611998929190614ee0565b60405180910390fd5b60045f8781526020019081526020015f2060080160019054906101000a900473ffffffffffffffffffffffffffffffffffffffff1673ffffffffffffffffffffffffffffffffffffffff1663760d9bba6119f9612d95565b60045f8a81526020019081526020015f206006015f9054906101000a900473ffffffffffffffffffffffffffffffffffffffff1660045f8b81526020019081526020015f206009015487876040518663ffffffff1660e01b8152600401611a64959493929190614f2e565b5f604051808303815f87803b158015611a7b575f5ffd5b505af1158015611a8d573d5f5f3e3d5ffd5b50505050505b5b600160045f8781526020019081526020015f20600c015f828254611ab89190614f86565b92505081905550600160075f8781526020019081526020015f205f611adb612d95565b73ffffffffffffffffffffffffffffffffffffffff1673ffffffffffffffffffffffffffffffffffffffff1681526020019081526020015f205f828254611b229190614f86565b92505081905550611b336002612ebe565b6040518060a001604052808681526020018581526020018460ff168152602001611b5b612d95565b73ffffffffffffffffffffffffffffffffffffffff1681526020014281525060055f611b876002612ed2565b5f1b81526020019081526020015f205f820151815f01556020820151816001019081611bb391906149dc565b506040820151816002015f6101000a81548160ff021916908360ff16021790555060608201518160020160016101000a81548173ffffffffffffffffffffffffffffffffffffffff021916908373ffffffffffffffffffffffffffffffffffffffff16021790555060808201518160030155905050611c30612d95565b73ffffffffffffffffffffffffffffffffffffffff16857fcc8498191b5ce61c56efc7b9fd57855fd7cd7f3bcb39131fd0693c6dbf67dcec60045f8981526020019081526020015f20600c0154604051611c8a9190613288565b60405180910390a35050505050565b611ca1612d0e565b611ca9612ede565b565b5f5f5f9054906101000a900473ffffffffffffffffffffffffffffffffffffffff16905090565b611cda612d0e565b8060038190555050565b611cec612d0e565b8473ffffffffffffffffffffffffffffffffffffffff1663760d9bba30868686866040518663ffffffff1660e01b8152600401611d2d959493929190614f2e565b5f604051808303815f87803b158015611d44575f5ffd5b505af1158015611d56573d5f5f3e3d5ffd5b505050505050505050565b5f42905090565b606060065f8481526020019081526020015f205f8381526020019081526020015f208054611d959061480c565b80601f0160208091040260200160405190810160405280929190818152602001828054611dc19061480c565b8015611e0c5780601f10611de357610100808354040283529160200191611e0c565b820191905f5260205f20905b815481529060010190602001808311611def57829003601f168201915b5050505050905092915050565b5f428911611e5c576040517f08c379a0000000000000000000000000000000000000000000000000000000008152600401611e5390615029565b60405180910390fd5b888811611e9e576040517f08c379a0000000000000000000000000000000000000000000000000000000008152600401611e95906150b7565b60405180910390fd5b8415611f3257611eac611cab565b73ffffffffffffffffffffffffffffffffffffffff16611eca612d95565b73ffffffffffffffffffffffffffffffffffffffff1614611f3157600354341015611f3057600354346040517fbc03bccd000000000000000000000000000000000000000000000000000000008152600401611f27929190614ee0565b60405180910390fd5b5b5b611f3c6001612ebe565b604051806101c001604052808d81526020018c81526020018b81526020018a8152602001898152602001888152602001611f74612d95565b73ffffffffffffffffffffffffffffffffffffffff16815260200187815260200186151581526020018573ffffffffffffffffffffffffffffffffffffffff16815260200184815260200183151581526020014281526020015f81525060045f611fde6001612ed2565b5f1b81526020019081526020015f205f820151815f01908161200091906149dc565b5060208201518160010190816120169190614b91565b506040820151816002019080519060200190612033929190613056565b50606082015181600301556080820151816004015560a08201518160050190805190602001906120649291906130ad565b5060c0820151816006015f6101000a81548173ffffffffffffffffffffffffffffffffffffffff021916908373ffffffffffffffffffffffffffffffffffffffff16021790555060e08201518160070155610100820151816008015f6101000a81548160ff0219169083151502179055506101208201518160080160016101000a81548173ffffffffffffffffffffffffffffffffffffffff021916908373ffffffffffffffffffffffffffffffffffffffff160217905550610140820151816009015561016082015181600a015f6101000a81548160ff02191690831515021790555061018082015181600b01556101a082015181600c015590505060085f61216c612d95565b73ffffffffffffffffffffffffffffffffffffffff1673ffffffffffffffffffffffffffffffffffffffff1681526020019081526020015f206121af6001612ed2565b5f1b908060018154018082558091505060019003905f5260205f20015f90919091909150556121dc612d95565b73ffffffffffffffffffffffffffffffffffffffff166121fc6001612ed2565b5f1b7f68d72977fb47b474e850de31fa3e3fdceff2fc7ae0de285763b8f70ef283d56b8e8e8d8d60405161223394939291906150d5565b60405180910390a36122456001612ed2565b5f1b90509b9a5050505050505050505050565b60035481565b6006602052815f5260405f20602052805f5260405f205f915091505080546122859061480c565b80601f01602080910402602001604051908101604052809291908181526020018280546122b19061480c565b80156122fc5780601f106122d3576101008083540402835291602001916122fc565b820191905f5260205f20905b8154815290600101906020018083116122df57829003601f168201915b505050505081565b60605f60045f8481526020019081526020015f20600c015490505f8167ffffffffffffffff81111561233957612338613449565b5b60405190808252806020026020018201604052801561237257816020015b61235f613171565b8152602001906001900390816123575790505b5090505f5f90505b82811015612585578460055f6001846123939190614f86565b5f1b81526020019081526020015f205f015403612578576040518060c001604052806001836123c29190614f86565b5f1b815260200160055f6001856123d99190614f86565b5f1b81526020019081526020015f205f0154815260200160055f6001856124009190614f86565b5f1b81526020019081526020015f20600101805461241d9061480c565b80601f01602080910402602001604051908101604052809291908181526020018280546124499061480c565b80156124945780601f1061246b57610100808354040283529160200191612494565b820191905f5260205f20905b81548152906001019060200180831161247757829003601f168201915b5050505050815260200160055f6001856124ae9190614f86565b5f1b81526020019081526020015f206002015f9054906101000a900460ff1660ff16815260200160055f6001856124e59190614f86565b5f1b81526020019081526020015f2060020160019054906101000a900473ffffffffffffffffffffffffffffffffffffffff1673ffffffffffffffffffffffffffffffffffffffff16815260200160055f6001856125439190614f86565b5f1b81526020019081526020015f206003015481525082828151811061256c5761256b614d09565b5b60200260200101819052505b808060010191505061237a565b508092505050919050565b612598612d0e565b5f73ffffffffffffffffffffffffffffffffffffffff168173ffffffffffffffffffffffffffffffffffffffff1603612608575f6040517f1e4fbdf70000000000000000000000000000000000000000000000000000000081526004016125ff91906140f9565b60405180910390fd5b61261181612dfd565b50565b6004602052805f5260405f205f91509050805f0180546126339061480c565b80601f016020809104026020016040519081016040528092919081815260200182805461265f9061480c565b80156126aa5780601f10612681576101008083540402835291602001916126aa565b820191905f5260205f20905b81548152906001019060200180831161268d57829003601f168201915b5050505050908060010180546126bf9061480c565b80601f01602080910402602001604051908101604052809291908181526020018280546126eb9061480c565b80156127365780601f1061270d57610100808354040283529160200191612736565b820191905f5260205f20905b81548152906001019060200180831161271957829003601f168201915b505050505090806003015490806004015490806006015f9054906101000a900473ffffffffffffffffffffffffffffffffffffffff1690806007015490806008015f9054906101000a900460ff16908060080160019054906101000a900473ffffffffffffffffffffffffffffffffffffffff169080600901549080600a015f9054906101000a900460ff169080600b01549080600c015490508c565b6001805f0154905081565b60605f5f6127ec6001612ed2565b67ffffffffffffffff81111561280557612804613449565b5b60405190808252806020026020018201604052801561283e57816020015b61282b6131bb565b8152602001906001900390816128235790505b5090505f5f90505f600190505b6128556001612ed2565b8111612d00578573ffffffffffffffffffffffffffffffffffffffff1660045f835f1b81526020019081526020015f206006015f9054906101000a900473ffffffffffffffffffffffffffffffffffffffff1673ffffffffffffffffffffffffffffffffffffffff1603612ced5760019150604051806101a00160405280825f1b815260200160045f845f1b81526020019081526020015f205f0180546128fb9061480c565b80601f01602080910402602001604051908101604052809291908181526020018280546129279061480c565b80156129725780601f1061294957610100808354040283529160200191612972565b820191905f5260205f20905b81548152906001019060200180831161295557829003601f168201915b5050505050815260200160045f845f1b81526020019081526020015f20600101805461299d9061480c565b80601f01602080910402602001604051908101604052809291908181526020018280546129c99061480c565b8015612a145780601f106129eb57610100808354040283529160200191612a14565b820191905f5260205f20905b8154815290600101906020018083116129f757829003601f168201915b5050505050815260200160045f845f1b81526020019081526020015f20600201805480602002602001604051908101604052809291908181526020015f905b82821015612afb578382905f5260205f20018054612a709061480c565b80601f0160208091040260200160405190810160405280929190818152602001828054612a9c9061480c565b8015612ae75780601f10612abe57610100808354040283529160200191612ae7565b820191905f5260205f20905b815481529060010190602001808311612aca57829003601f168201915b505050505081526020019060010190612a53565b50505050815260200160045f845f1b81526020019081526020015f2060030154815260200160045f845f1b81526020019081526020015f2060040154815260200160045f845f1b81526020019081526020015f20600501805480602002602001604051908101604052809291908181526020018280548015612bcf57602002820191905f5260205f20905b815f9054906101000a900473ffffffffffffffffffffffffffffffffffffffff1673ffffffffffffffffffffffffffffffffffffffff1681526020019060010190808311612b86575b5050505050815260200160045f845f1b81526020019081526020015f2060070154815260200160045f845f1b81526020019081526020015f2060090154815260200160045f845f1b81526020019081526020015f206006015f9054906101000a900473ffffffffffffffffffffffffffffffffffffffff1673ffffffffffffffffffffffffffffffffffffffff16815260200160045f845f1b81526020019081526020015f20600a015f9054906101000a900460ff161515815260200160045f845f1b81526020019081526020015f20600b0154815260200160045f845f1b81526020019081526020015f20600c015481525083600183612cd09190615126565b81518110612ce157612ce0614d09565b5b60200260200101819052505b8080612cf890614d63565b91505061284b565b508181935093505050915091565b612d16612d95565b73ffffffffffffffffffffffffffffffffffffffff16612d34611cab565b73ffffffffffffffffffffffffffffffffffffffff1614612d9357612d57612d95565b6040517f118cdaa7000000000000000000000000000000000000000000000000000000008152600401612d8a91906140f9565b60405180910390fd5b565b5f33905090565b612da4612f40565b5f5f60146101000a81548160ff0219169083151502179055507f5db9ee0a495bf2e6ff9c91a7834c1ba4fdd244a5e8aa4e537bd38aeae4b073aa612de6612d95565b604051612df391906140f9565b60405180910390a1565b5f5f5f9054906101000a900473ffffffffffffffffffffffffffffffffffffffff169050815f5f6101000a81548173ffffffffffffffffffffffffffffffffffffffff021916908373ffffffffffffffffffffffffffffffffffffffff1602179055508173ffffffffffffffffffffffffffffffffffffffff168173ffffffffffffffffffffffffffffffffffffffff167f8be0079c531659141344cd1fd0a4f28419497f9722a3daafe3b4186f6b6457e060405160405180910390a35050565b6001815f015f828254019250508190555050565b5f815f01549050919050565b612ee6612f80565b60015f60146101000a81548160ff0219169083151502179055507f62e78cea01bee320cd4e420270b5ea74000d11b0c9f74754ebdbfc544b05a258612f29612d95565b604051612f3691906140f9565b60405180910390a1565b612f48611291565b612f7e576040517f8dfc202b00000000000000000000000000000000000000000000000000000000815260040160405180910390fd5b565b612f88611291565b15612fbf576040517fd93c066500000000000000000000000000000000000000000000000000000000815260040160405180910390fd5b565b604051806101c001604052806060815260200160608152602001606081526020015f81526020015f8152602001606081526020015f73ffffffffffffffffffffffffffffffffffffffff1681526020015f81526020015f151581526020015f73ffffffffffffffffffffffffffffffffffffffff1681526020015f81526020015f151581526020015f81526020015f81525090565b828054828255905f5260205f2090810192821561309c579160200282015b8281111561309b57825182908161308b91906149dc565b5091602001919060010190613074565b5b5090506130a99190613232565b5090565b828054828255905f5260205f20908101928215613123579160200282015b82811115613122578251825f6101000a81548173ffffffffffffffffffffffffffffffffffffffff021916908373ffffffffffffffffffffffffffffffffffffffff160217905550916020019190600101906130cb565b5b5090506131309190613255565b5090565b5080546131409061480c565b5f825580601f10613151575061316e565b601f0160209004905f5260205f209081019061316d9190613255565b5b50565b6040518060c001604052805f81526020015f8152602001606081526020015f60ff1681526020015f73ffffffffffffffffffffffffffffffffffffffff1681526020015f81525090565b604051806101a001604052805f81526020016060815260200160608152602001606081526020015f81526020015f8152602001606081526020015f81526020015f81526020015f73ffffffffffffffffffffffffffffffffffffffff1681526020015f151581526020015f81526020015f81525090565b5b80821115613251575f81816132489190613134565b50600101613233565b5090565b5b8082111561326c575f815f905550600101613256565b5090565b5f819050919050565b61328281613270565b82525050565b5f60208201905061329b5f830184613279565b92915050565b5f604051905090565b5f5ffd5b5f5ffd5b5f819050919050565b6132c4816132b2565b81146132ce575f5ffd5b50565b5f813590506132df816132bb565b92915050565b5f602082840312156132fa576132f96132aa565b5b5f613307848285016132d1565b91505092915050565b613319816132b2565b82525050565b5f81519050919050565b5f82825260208201905092915050565b8281835e5f83830152505050565b5f601f19601f8301169050919050565b5f6133618261331f565b61336b8185613329565b935061337b818560208601613339565b61338481613347565b840191505092915050565b5f60ff82169050919050565b6133a48161338f565b82525050565b5f73ffffffffffffffffffffffffffffffffffffffff82169050919050565b5f6133d3826133aa565b9050919050565b6133e3816133c9565b82525050565b5f60a0820190506133fc5f830188613310565b818103602083015261340e8187613357565b905061341d604083018661339b565b61342a60608301856133da565b6134376080830184613279565b9695505050505050565b5f5ffd5b5f5ffd5b7f4e487b71000000000000000000000000000000000000000000000000000000005f52604160045260245ffd5b61347f82613347565b810181811067ffffffffffffffff8211171561349e5761349d613449565b5b80604052505050565b5f6134b06132a1565b90506134bc8282613476565b919050565b5f67ffffffffffffffff8211156134db576134da613449565b5b6134e482613347565b9050602081019050919050565b828183375f83830152505050565b5f61351161350c846134c1565b6134a7565b90508281526020810184848401111561352d5761352c613445565b5b6135388482856134f1565b509392505050565b5f82601f83011261355457613553613441565b5b81356135648482602086016134ff565b91505092915050565b5f5f5f60608486031215613584576135836132aa565b5b5f613591868287016132d1565b93505060206135a2868287016132d1565b925050604084013567ffffffffffffffff8111156135c3576135c26132ae565b5b6135cf86828701613540565b9150509250925092565b5f8115159050919050565b6135ed816135d9565b82525050565b5f6020820190506136065f8301846135e4565b92915050565b5f60608201905061361f5f8301866135e4565b61362c6020830185613279565b6136396040830184613279565b949350505050565b5f82825260208201905092915050565b5f61365b8261331f565b6136658185613641565b9350613675818560208601613339565b61367e81613347565b840191505092915050565b5f81519050919050565b5f82825260208201905092915050565b5f6136ad82613689565b6136b78185613693565b93506136c7818560208601613339565b6136d081613347565b840191505092915050565b5f81519050919050565b5f82825260208201905092915050565b5f819050602082019050919050565b5f61370f8383613651565b905092915050565b5f602082019050919050565b5f61372d826136db565b61373781856136e5565b935083602082028501613749856136f5565b805f5b8581101561378457848403895281516137658582613704565b945061377083613717565b925060208a0199505060018101905061374c565b50829750879550505050505092915050565b61379f81613270565b82525050565b5f81519050919050565b5f82825260208201905092915050565b5f819050602082019050919050565b6137d7816133c9565b82525050565b5f6137e883836137ce565b60208301905092915050565b5f602082019050919050565b5f61380a826137a5565b61381481856137af565b935061381f836137bf565b805f5b8381101561384f57815161383688826137dd565b9750613841836137f4565b925050600181019050613822565b5085935050505092915050565b613865816135d9565b82525050565b5f6101c083015f8301518482035f8601526138868282613651565b915050602083015184820360208601526138a082826136a3565b915050604083015184820360408601526138ba8282613723565b91505060608301516138cf6060860182613796565b5060808301516138e26080860182613796565b5060a083015184820360a08601526138fa8282613800565b91505060c083015161390f60c08601826137ce565b5060e083015161392260e0860182613796565b5061010083015161393761010086018261385c565b5061012083015161394c6101208601826137ce565b50610140830151613961610140860182613796565b5061016083015161397661016086018261385c565b5061018083015161398b610180860182613796565b506101a08301516139a06101a0860182613796565b508091505092915050565b5f6020820190508181035f8301526139c3818461386b565b905092915050565b6139d4816133c9565b81146139de575f5ffd5b50565b5f813590506139ef816139cb565b92915050565b5f5f60408385031215613a0b57613a0a6132aa565b5b5f613a18858286016132d1565b9250506020613a29858286016139e1565b9150509250929050565b5f67ffffffffffffffff821115613a4d57613a4c613449565b5b613a5682613347565b9050602081019050919050565b5f613a75613a7084613a33565b6134a7565b905082815260208101848484011115613a9157613a90613445565b5b613a9c8482856134f1565b509392505050565b5f82601f830112613ab857613ab7613441565b5b8135613ac8848260208601613a63565b91505092915050565b5f67ffffffffffffffff821115613aeb57613aea613449565b5b602082029050602081019050919050565b5f5ffd5b5f613b12613b0d84613ad1565b6134a7565b90508083825260208201905060208402830185811115613b3557613b34613afc565b5b835b81811015613b7c57803567ffffffffffffffff811115613b5a57613b59613441565b5b808601613b678982613540565b85526020850194505050602081019050613b37565b5050509392505050565b5f82601f830112613b9a57613b99613441565b5b8135613baa848260208601613b00565b91505092915050565b5f67ffffffffffffffff821115613bcd57613bcc613449565b5b602082029050602081019050919050565b5f613bf0613beb84613bb3565b6134a7565b90508083825260208201905060208402830185811115613c1357613c12613afc565b5b835b81811015613c3c5780613c2888826139e1565b845260208401935050602081019050613c15565b5050509392505050565b5f82601f830112613c5a57613c59613441565b5b8135613c6a848260208601613bde565b91505092915050565b613c7c81613270565b8114613c86575f5ffd5b50565b5f81359050613c9781613c73565b92915050565b613ca6816135d9565b8114613cb0575f5ffd5b50565b5f81359050613cc181613c9d565b92915050565b5f5f5f5f5f5f5f5f5f5f6101408b8d031215613ce657613ce56132aa565b5b5f613cf38d828e016132d1565b9a505060208b013567ffffffffffffffff811115613d1457613d136132ae565b5b613d208d828e01613540565b99505060408b013567ffffffffffffffff811115613d4157613d406132ae565b5b613d4d8d828e01613aa4565b98505060608b013567ffffffffffffffff811115613d6e57613d6d6132ae565b5b613d7a8d828e01613b86565b97505060808b013567ffffffffffffffff811115613d9b57613d9a6132ae565b5b613da78d828e01613c46565b96505060a0613db88d828e01613c89565b95505060c0613dc98d828e01613cb3565b94505060e0613dda8d828e016139e1565b935050610100613dec8d828e01613c89565b925050610120613dfe8d828e01613cb3565b9150509295989b9194979a5092959850565b5f5f60408385031215613e2657613e256132aa565b5b5f613e33858286016139e1565b9250506020613e4485828601613c89565b9150509250929050565b5f602082019050613e615f830184613310565b92915050565b5f60208284031215613e7c57613e7b6132aa565b5b5f613e89848285016139e1565b91505092915050565b5f81519050919050565b5f82825260208201905092915050565b5f819050602082019050919050565b613ec4816132b2565b82525050565b5f613ed58383613ebb565b60208301905092915050565b5f602082019050919050565b5f613ef782613e92565b613f018185613e9c565b9350613f0c83613eac565b805f5b83811015613f3c578151613f238882613eca565b9750613f2e83613ee1565b925050600181019050613f0f565b5085935050505092915050565b5f6020820190508181035f830152613f618184613eed565b905092915050565b5f613f73826133aa565b9050919050565b613f8381613f69565b8114613f8d575f5ffd5b50565b5f81359050613f9e81613f7a565b92915050565b5f5f60408385031215613fba57613fb96132aa565b5b5f613fc785828601613f90565b9250506020613fd885828601613c89565b9150509250929050565b5f5f60408385031215613ff857613ff76132aa565b5b5f614005858286016132d1565b9250506020614016858286016132d1565b9150509250929050565b6140298161338f565b8114614033575f5ffd5b50565b5f8135905061404481614020565b92915050565b5f5f5f5f5f60a08688031215614063576140626132aa565b5b5f614070888289016132d1565b955050602086013567ffffffffffffffff811115614091576140906132ae565b5b61409d88828901613540565b94505060406140ae88828901614036565b93505060606140bf88828901613cb3565b925050608086013567ffffffffffffffff8111156140e0576140df6132ae565b5b6140ec88828901613aa4565b9150509295509295909350565b5f60208201905061410c5f8301846133da565b92915050565b5f60208284031215614127576141266132aa565b5b5f61413484828501613c89565b91505092915050565b5f5f5f5f5f60a08688031215614156576141556132aa565b5b5f614163888289016139e1565b9550506020614174888289016139e1565b945050604061418588828901613c89565b935050606061419688828901613cb3565b925050608086013567ffffffffffffffff8111156141b7576141b66132ae565b5b6141c388828901613aa4565b9150509295509295909350565b5f6020820190508181035f8301526141e88184613357565b905092915050565b5f5f5f5f5f5f5f5f5f5f5f6101608c8e0312156142105761420f6132aa565b5b5f8c013567ffffffffffffffff81111561422d5761422c6132ae565b5b6142398e828f01613540565b9b505060208c013567ffffffffffffffff81111561425a576142596132ae565b5b6142668e828f01613540565b9a505060408c013567ffffffffffffffff811115614287576142866132ae565b5b6142938e828f01613b86565b99505060606142a48e828f01613c89565b98505060806142b58e828f01613c89565b97505060a08c013567ffffffffffffffff8111156142d6576142d56132ae565b5b6142e28e828f01613c46565b96505060c06142f38e828f01613c89565b95505060e06143048e828f01613cb3565b9450506101006143168e828f016139e1565b9350506101206143288e828f01613c89565b92505061014061433a8e828f01613cb3565b9150509295989b509295989b9093969950565b5f81519050919050565b5f82825260208201905092915050565b5f819050602082019050919050565b61437f8161338f565b82525050565b5f60c083015f83015161439a5f860182613ebb565b5060208301516143ad6020860182613ebb565b50604083015184820360408601526143c58282613651565b91505060608301516143da6060860182614376565b5060808301516143ed60808601826137ce565b5060a083015161440060a0860182613796565b508091505092915050565b5f6144168383614385565b905092915050565b5f602082019050919050565b5f6144348261434d565b61443e8185614357565b93508360208202850161445085614367565b805f5b8581101561448b578484038952815161446c858261440b565b94506144778361441e565b925060208a01995050600181019050614453565b50829750879550505050505092915050565b5f6020820190508181035f8301526144b5818461442a565b905092915050565b5f82825260208201905092915050565b5f6144d782613689565b6144e181856144bd565b93506144f1818560208601613339565b6144fa81613347565b840191505092915050565b5f610180820190508181035f83015261451e818f613357565b90508181036020830152614532818e6144cd565b9050614541604083018d613279565b61454e606083018c613279565b61455b608083018b6133da565b61456860a083018a613279565b61457560c08301896135e4565b61458260e08301886133da565b614590610100830187613279565b61459e6101208301866135e4565b6145ac610140830185613279565b6145ba610160830184613279565b9d9c50505050505050505050505050565b5f81519050919050565b5f82825260208201905092915050565b5f819050602082019050919050565b5f6101a083015f83015161460a5f860182613ebb565b50602083015184820360208601526146228282613651565b9150506040830151848203604086015261463c82826136a3565b915050606083015184820360608601526146568282613723565b915050608083015161466b6080860182613796565b5060a083015161467e60a0860182613796565b5060c083015184820360c08601526146968282613800565b91505060e08301516146ab60e0860182613796565b506101008301516146c0610100860182613796565b506101208301516146d56101208601826137ce565b506101408301516146ea61014086018261385c565b506101608301516146ff610160860182613796565b50610180830151614714610180860182613796565b508091505092915050565b5f61472a83836145f4565b905092915050565b5f602082019050919050565b5f614748826145cb565b61475281856145d5565b935083602082028501614764856145e5565b805f5b8581101561479f5784840389528151614780858261471f565b945061478b83614732565b925060208a01995050600181019050614767565b50829750879550505050505092915050565b5f6040820190508181035f8301526147c9818561473e565b90506147d860208301846135e4565b9392505050565b7f4e487b71000000000000000000000000000000000000000000000000000000005f52602260045260245ffd5b5f600282049050600182168061482357607f821691505b602082108103614836576148356147df565b5b50919050565b5f819050815f5260205f209050919050565b5f6020601f8301049050919050565b5f82821b905092915050565b5f600883026148987fffffffffffffffffffffffffffffffffffffffffffffffffffffffffffffffff8261485d565b6148a2868361485d565b95508019841693508086168417925050509392505050565b5f819050919050565b5f6148dd6148d86148d384613270565b6148ba565b613270565b9050919050565b5f819050919050565b6148f6836148c3565b61490a614902826148e4565b848454614869565b825550505050565b5f5f905090565b614921614912565b61492c8184846148ed565b505050565b5b8181101561494f576149445f82614919565b600181019050614932565b5050565b601f821115614994576149658161483c565b61496e8461484e565b8101602085101561497d578190505b6149916149898561484e565b830182614931565b50505b505050565b5f82821c905092915050565b5f6149b45f1984600802614999565b1980831691505092915050565b5f6149cc83836149a5565b9150826002028217905092915050565b6149e58261331f565b67ffffffffffffffff8111156149fe576149fd613449565b5b614a08825461480c565b614a13828285614953565b5f60209050601f831160018114614a44575f8415614a32578287015190505b614a3c85826149c1565b865550614aa3565b601f198416614a528661483c565b5f5b82811015614a7957848901518255600182019150602085019450602081019050614a54565b86831015614a965784890151614a92601f8916826149a5565b8355505b6001600288020188555050505b505050505050565b7f5468652073656e646572206973206e6f7420746865206d616e61676572206f665f8201527f2074686520656e746572656420706f6c6c49642e000000000000000000000000602082015250565b5f614b05603483613329565b9150614b1082614aab565b604082019050919050565b5f6020820190508181035f830152614b3281614af9565b9050919050565b5f819050815f5260205f209050919050565b601f821115614b8c57614b5d81614b39565b614b668461484e565b81016020851015614b75578190505b614b89614b818561484e565b830182614931565b50505b505050565b614b9a82613689565b67ffffffffffffffff811115614bb357614bb2613449565b5b614bbd825461480c565b614bc8828285614b4b565b5f60209050601f831160018114614bf9575f8415614be7578287015190505b614bf185826149c1565b865550614c58565b601f198416614c0786614b39565b5f5b82811015614c2e57848901518255600182019150602085019450602081019050614c09565b86831015614c4b5784890151614c47601f8916826149a5565b8355505b6001600288020188555050505b505050505050565b5f81905092915050565b50565b5f614c785f83614c60565b9150614c8382614c6a565b5f82019050919050565b5f614c9782614c6d565b9150819050919050565b7f4661696c656400000000000000000000000000000000000000000000000000005f82015250565b5f614cd5600683613329565b9150614ce082614ca1565b602082019050919050565b5f6020820190508181035f830152614d0281614cc9565b9050919050565b7f4e487b71000000000000000000000000000000000000000000000000000000005f52603260045260245ffd5b7f4e487b71000000000000000000000000000000000000000000000000000000005f52601160045260245ffd5b5f614d6d82613270565b91507fffffffffffffffffffffffffffffffffffffffffffffffffffffffffffffffff8203614d9f57614d9e614d36565b5b600182019050919050565b5f604082019050614dbd5f830185613310565b614dca60208301846133da565b9392505050565b5f81519050614ddf81613c73565b92915050565b5f60208284031215614dfa57614df96132aa565b5b5f614e0784828501614dd1565b91505092915050565b7f54686520656e746572656420706f6c6c204944206973206578706972656400005f82015250565b5f614e44601e83613329565b9150614e4f82614e10565b602082019050919050565b5f6020820190508181035f830152614e7181614e38565b9050919050565b7f5468697320706f6c6c20697320706175736564000000000000000000000000005f82015250565b5f614eac601383613329565b9150614eb782614e78565b602082019050919050565b5f6020820190508181035f830152614ed981614ea0565b9050919050565b5f604082019050614ef35f830185613279565b614f006020830184613279565b9392505050565b5f604082019050614f1a5f8301856133da565b614f2760208301846133da565b9392505050565b5f60a082019050614f415f8301886133da565b614f4e60208301876133da565b614f5b6040830186613279565b614f6860608301856135e4565b8181036080830152614f7a81846144cd565b90509695505050505050565b5f614f9082613270565b9150614f9b83613270565b9250828201905080821115614fb357614fb2614d36565b5b92915050565b7f53746172742074696d65206d7573742062652067726561746572207468616e205f8201527f63757272656e742074696d650000000000000000000000000000000000000000602082015250565b5f615013602c83613329565b915061501e82614fb9565b604082019050919050565b5f6020820190508181035f83015261504081615007565b9050919050565b7f456e642074696d65206d7573742062652067726561746572207468616e2073745f8201527f6172742074696d65000000000000000000000000000000000000000000000000602082015250565b5f6150a1602883613329565b91506150ac82615047565b604082019050919050565b5f6020820190508181035f8301526150ce81615095565b9050919050565b5f6080820190508181035f8301526150ed8187613357565b905081810360208301526151018186613357565b90506151106040830185613279565b61511d6060830184613279565b95945050505050565b5f61513082613270565b915061513b83613270565b925082820390508181111561515357615152614d36565b5b9291505056fea2646970667358221220d7f77e7de6acfac1a90264b92f095c807fae0daa513bb0969a4708bf5b4a016e64736f6c634300081c00334c6f72656d20497073756d2069732073696d706c792064756d6d792074657874206f6620746865207072696e74696e6720616e64207479706573657474696e6720696e6475737472792e204c6f72656d20497073756d20686173206265656e2074686520696e6475737472792773207374616e646172642064756d6d79207465787420657665722073696e6365207468652031353030732c207768656e20616e20756e6b6e6f776e207072696e74657220746f6f6b20612067616c6c6579206f66207479706520616e6420736372616d626c656420697420746f206d616b65206120747970652073706563696d656e20626f6f6b2e20497420686173207375727669766564206e6f74206f6e6c7920666976652063656e7475726965732c2062757420616c736f20746865206c65617020696e746f20656c656374726f6e6963207479706573657474696e672c2072656d61696e696e6720657373656e7469616c6c7920756e6368616e6765642e2049742077617320706f70756c61726973656420696e207468652031393630732077697468207468652072656c65617365206f66204c657472617365742073686565747320636f6e7461696e696e67204c6f72656d20497073756d2070617373616765732c20616e64206d6f726520726563656e746c792077697468206465736b746f70207075626c697368696e6720736f667477617265206c696b6520416c64757320506167654d616b657220696e636c7564696e672076657273696f6e73206f66204c6f72656d20497073756d2e",
			"opcodes": "PUSH1 0x80 PUSH1 0x40 MSTORE PUSH0 PUSH1 0x3 SSTORE CALLVALUE DUP1 ISZERO PUSH2 0x13 JUMPI PUSH0 PUSH0 REVERT JUMPDEST POP CALLER PUSH0 PUSH20 0xFFFFFFFFFFFFFFFFFFFFFFFFFFFFFFFFFFFFFFFF AND DUP2 PUSH20 0xFFFFFFFFFFFFFFFFFFFFFFFFFFFFFFFFFFFFFFFF AND SUB PUSH2 0x85 JUMPI PUSH0 PUSH1 0x40 MLOAD PUSH32 0x1E4FBDF700000000000000000000000000000000000000000000000000000000 DUP2 MSTORE PUSH1 0x4 ADD PUSH2 0x7C SWAP2 SWAP1 PUSH2 0x8A7 JUMP JUMPDEST PUSH1 0x40 MLOAD DUP1 SWAP2 SUB SWAP1 REVERT JUMPDEST PUSH2 0x94 DUP2 PUSH2 0x627 PUSH1 0x20 SHL PUSH1 0x20 SHR JUMP JUMPDEST POP PUSH0 PUSH0 PUSH1 0x14 PUSH2 0x100 EXP DUP2 SLOAD DUP2 PUSH1 0xFF MUL NOT AND SWAP1 DUP4 ISZERO ISZERO MUL OR SWAP1 SSTORE POP PUSH0 PUSH1 0x2 PUSH8 0xFFFFFFFFFFFFFFFF DUP2 GT ISZERO PUSH2 0xCA JUMPI PUSH2 0xC9 PUSH2 0x8C0 JUMP JUMPDEST JUMPDEST PUSH1 0x40 MLOAD SWAP1 DUP1 DUP3 MSTORE DUP1 PUSH1 0x20 MUL PUSH1 0x20 ADD DUP3 ADD PUSH1 0x40 MSTORE DUP1 ISZERO PUSH2 0xF8 JUMPI DUP2 PUSH1 0x20 ADD PUSH1 0x20 DUP3 MUL DUP1 CALLDATASIZE DUP4 CALLDATACOPY DUP1 DUP3 ADD SWAP2 POP POP SWAP1 POP JUMPDEST POP SWAP1 POP PUSH2 0x109 PUSH2 0x6E8 PUSH1 0x20 SHL PUSH1 0x20 SHR JUMP JUMPDEST DUP2 PUSH0 DUP2 MLOAD DUP2 LT PUSH2 0x11C JUMPI PUSH2 0x11B PUSH2 0x8ED JUMP JUMPDEST JUMPDEST PUSH1 0x20 MUL PUSH1 0x20 ADD ADD SWAP1 PUSH20 0xFFFFFFFFFFFFFFFFFFFFFFFFFFFFFFFFFFFFFFFF AND SWAP1 DUP2 PUSH20 0xFFFFFFFFFFFFFFFFFFFFFFFFFFFFFFFFFFFFFFFF AND DUP2 MSTORE POP POP PUSH20 0xAB8483F64D9C6D1ECF9B849AE677DD3315835CB2 DUP2 PUSH1 0x1 DUP2 MLOAD DUP2 LT PUSH2 0x17F JUMPI PUSH2 0x17E PUSH2 0x8ED JUMP JUMPDEST JUMPDEST PUSH1 0x20 MUL PUSH1 0x20 ADD ADD SWAP1 PUSH20 0xFFFFFFFFFFFFFFFFFFFFFFFFFFFFFFFFFFFFFFFF AND SWAP1 DUP2 PUSH20 0xFFFFFFFFFFFFFFFFFFFFFFFFFFFFFFFFFFFFFFFF AND DUP2 MSTORE POP POP PUSH0 PUSH1 0x3 PUSH8 0xFFFFFFFFFFFFFFFF DUP2 GT ISZERO PUSH2 0x1D5 JUMPI PUSH2 0x1D4 PUSH2 0x8C0 JUMP JUMPDEST JUMPDEST PUSH1 0x40 MLOAD SWAP1 DUP1 DUP3 MSTORE DUP1 PUSH1 0x20 MUL PUSH1 0x20 ADD DUP3 ADD PUSH1 0x40 MSTORE DUP1 ISZERO PUSH2 0x208 JUMPI DUP2 PUSH1 0x20 ADD JUMPDEST PUSH1 0x60 DUP2 MSTORE PUSH1 0x20 ADD SWAP1 PUSH1 0x1 SWAP1 SUB SWAP1 DUP2 PUSH2 0x1F3 JUMPI SWAP1 POP JUMPDEST POP SWAP1 POP PUSH1 0x40 MLOAD DUP1 PUSH1 0x40 ADD PUSH1 0x40 MSTORE DUP1 PUSH1 0x8 DUP2 MSTORE PUSH1 0x20 ADD PUSH32 0x4F7074696F6E2031000000000000000000000000000000000000000000000000 DUP2 MSTORE POP DUP2 PUSH0 DUP2 MLOAD DUP2 LT PUSH2 0x254 JUMPI PUSH2 0x253 PUSH2 0x8ED JUMP JUMPDEST JUMPDEST PUSH1 0x20 MUL PUSH1 0x20 ADD ADD DUP2 SWAP1 MSTORE POP PUSH1 0x40 MLOAD DUP1 PUSH1 0x40 ADD PUSH1 0x40 MSTORE DUP1 PUSH1 0x8 DUP2 MSTORE PUSH1 0x20 ADD PUSH32 0x4F7074696F6E2032000000000000000000000000000000000000000000000000 DUP2 MSTORE POP DUP2 PUSH1 0x1 DUP2 MLOAD DUP2 LT PUSH2 0x2A9 JUMPI PUSH2 0x2A8 PUSH2 0x8ED JUMP JUMPDEST JUMPDEST PUSH1 0x20 MUL PUSH1 0x20 ADD ADD DUP2 SWAP1 MSTORE POP PUSH1 0x40 MLOAD DUP1 PUSH1 0x40 ADD PUSH1 0x40 MSTORE DUP1 PUSH1 0x8 DUP2 MSTORE PUSH1 0x20 ADD PUSH32 0x4F7074696F6E2033000000000000000000000000000000000000000000000000 DUP2 MSTORE POP DUP2 PUSH1 0x2 DUP2 MLOAD DUP2 LT PUSH2 0x2FE JUMPI PUSH2 0x2FD PUSH2 0x8ED JUMP JUMPDEST JUMPDEST PUSH1 0x20 MUL PUSH1 0x20 ADD ADD DUP2 SWAP1 MSTORE POP PUSH2 0x319 PUSH1 0x1 PUSH2 0x6EF PUSH1 0x20 SHL PUSH1 0x20 SHR JUMP JUMPDEST PUSH1 0x40 MLOAD DUP1 PUSH2 0x1C0 ADD PUSH1 0x40 MSTORE DUP1 PUSH1 0x40 MLOAD DUP1 PUSH1 0x20 ADD PUSH1 0x40 MSTORE DUP1 PUSH0 DUP2 MSTORE POP DUP2 MSTORE PUSH1 0x20 ADD PUSH1 0x40 MLOAD DUP1 PUSH2 0x260 ADD PUSH1 0x40 MSTORE DUP1 PUSH2 0x23E DUP2 MSTORE PUSH1 0x20 ADD PUSH2 0x6291 PUSH2 0x23E SWAP2 CODECOPY DUP2 MSTORE PUSH1 0x20 ADD DUP3 DUP2 MSTORE PUSH1 0x20 ADD PUSH1 0xA TIMESTAMP PUSH2 0x36D SWAP2 SWAP1 PUSH2 0x950 JUMP JUMPDEST DUP2 MSTORE PUSH1 0x20 ADD PUSH3 0x15180 TIMESTAMP PUSH2 0x381 SWAP2 SWAP1 PUSH2 0x950 JUMP JUMPDEST DUP2 MSTORE PUSH1 0x20 ADD DUP4 DUP2 MSTORE PUSH1 0x20 ADD PUSH2 0x39A PUSH2 0x6E8 PUSH1 0x20 SHL PUSH1 0x20 SHR JUMP JUMPDEST PUSH20 0xFFFFFFFFFFFFFFFFFFFFFFFFFFFFFFFFFFFFFFFF AND DUP2 MSTORE PUSH1 0x20 ADD PUSH1 0x1 DUP2 MSTORE PUSH1 0x20 ADD PUSH1 0x1 ISZERO ISZERO DUP2 MSTORE PUSH1 0x20 ADD PUSH0 PUSH20 0xFFFFFFFFFFFFFFFFFFFFFFFFFFFFFFFFFFFFFFFF AND DUP2 MSTORE PUSH1 0x20 ADD PUSH8 0xDE0B6B3A7640000 DUP2 MSTORE PUSH1 0x20 ADD PUSH0 ISZERO ISZERO DUP2 MSTORE PUSH1 0x20 ADD TIMESTAMP DUP2 MSTORE PUSH1 0x20 ADD PUSH0 DUP2 MSTORE POP PUSH1 0x4 PUSH0 PUSH2 0x414 PUSH1 0x1 PUSH2 0x703 PUSH1 0x20 SHL PUSH1 0x20 SHR JUMP JUMPDEST PUSH0 SHL DUP2 MSTORE PUSH1 0x20 ADD SWAP1 DUP2 MSTORE PUSH1 0x20 ADD PUSH0 KECCAK256 PUSH0 DUP3 ADD MLOAD DUP2 PUSH0 ADD SWAP1 DUP2 PUSH2 0x436 SWAP2 SWAP1 PUSH2 0xB8A JUMP JUMPDEST POP PUSH1 0x20 DUP3 ADD MLOAD DUP2 PUSH1 0x1 ADD SWAP1 DUP2 PUSH2 0x44C SWAP2 SWAP1 PUSH2 0xCBB JUMP JUMPDEST POP PUSH1 0x40 DUP3 ADD MLOAD DUP2 PUSH1 0x2 ADD SWAP1 DUP1 MLOAD SWAP1 PUSH1 0x20 ADD SWAP1 PUSH2 0x469 SWAP3 SWAP2 SWAP1 PUSH2 0x70F JUMP JUMPDEST POP PUSH1 0x60 DUP3 ADD MLOAD DUP2 PUSH1 0x3 ADD SSTORE PUSH1 0x80 DUP3 ADD MLOAD DUP2 PUSH1 0x4 ADD SSTORE PUSH1 0xA0 DUP3 ADD MLOAD DUP2 PUSH1 0x5 ADD SWAP1 DUP1 MLOAD SWAP1 PUSH1 0x20 ADD SWAP1 PUSH2 0x49A SWAP3 SWAP2 SWAP1 PUSH2 0x766 JUMP JUMPDEST POP PUSH1 0xC0 DUP3 ADD MLOAD DUP2 PUSH1 0x6 ADD PUSH0 PUSH2 0x100 EXP DUP2 SLOAD DUP2 PUSH20 0xFFFFFFFFFFFFFFFFFFFFFFFFFFFFFFFFFFFFFFFF MUL NOT AND SWAP1 DUP4 PUSH20 0xFFFFFFFFFFFFFFFFFFFFFFFFFFFFFFFFFFFFFFFF AND MUL OR SWAP1 SSTORE POP PUSH1 0xE0 DUP3 ADD MLOAD DUP2 PUSH1 0x7 ADD SSTORE PUSH2 0x100 DUP3 ADD MLOAD DUP2 PUSH1 0x8 ADD PUSH0 PUSH2 0x100 EXP DUP2 SLOAD DUP2 PUSH1 0xFF MUL NOT AND SWAP1 DUP4 ISZERO ISZERO MUL OR SWAP1 SSTORE POP PUSH2 0x120 DUP3 ADD MLOAD DUP2 PUSH1 0x8 ADD PUSH1 0x1 PUSH2 0x100 EXP DUP2 SLOAD DUP2 PUSH20 0xFFFFFFFFFFFFFFFFFFFFFFFFFFFFFFFFFFFFFFFF MUL NOT AND SWAP1 DUP4 PUSH20 0xFFFFFFFFFFFFFFFFFFFFFFFFFFFFFFFFFFFFFFFF AND MUL OR SWAP1 SSTORE POP PUSH2 0x140 DUP3 ADD MLOAD DUP2 PUSH1 0x9 ADD SSTORE PUSH2 0x160 DUP3 ADD MLOAD DUP2 PUSH1 0xA ADD PUSH0 PUSH2 0x100 EXP DUP2 SLOAD DUP2 PUSH1 0xFF MUL NOT AND SWAP1 DUP4 ISZERO ISZERO MUL OR SWAP1 SSTORE POP PUSH2 0x180 DUP3 ADD MLOAD DUP2 PUSH1 0xB ADD SSTORE PUSH2 0x1A0 DUP3 ADD MLOAD DUP2 PUSH1 0xC ADD SSTORE SWAP1 POP POP PUSH2 0x5A5 PUSH2 0x6E8 PUSH1 0x20 SHL PUSH1 0x20 SHR JUMP JUMPDEST PUSH20 0xFFFFFFFFFFFFFFFFFFFFFFFFFFFFFFFFFFFFFFFF AND PUSH2 0x5CB PUSH1 0x1 PUSH2 0x703 PUSH1 0x20 SHL PUSH1 0x20 SHR JUMP JUMPDEST PUSH0 SHL PUSH32 0x68D72977FB47B474E850DE31FA3E3FDCEFF2FC7AE0DE285763B8F70EF283D56B PUSH1 0xA TIMESTAMP PUSH2 0x5FB SWAP2 SWAP1 PUSH2 0x950 JUMP JUMPDEST PUSH3 0x15180 TIMESTAMP PUSH2 0x60A SWAP2 SWAP1 PUSH2 0x950 JUMP JUMPDEST PUSH1 0x40 MLOAD PUSH2 0x618 SWAP3 SWAP2 SWAP1 PUSH2 0x10A8 JUMP JUMPDEST PUSH1 0x40 MLOAD DUP1 SWAP2 SUB SWAP1 LOG3 POP POP PUSH2 0x10F5 JUMP JUMPDEST PUSH0 PUSH0 PUSH0 SWAP1 SLOAD SWAP1 PUSH2 0x100 EXP SWAP1 DIV PUSH20 0xFFFFFFFFFFFFFFFFFFFFFFFFFFFFFFFFFFFFFFFF AND SWAP1 POP DUP2 PUSH0 PUSH0 PUSH2 0x100 EXP DUP2 SLOAD DUP2 PUSH20 0xFFFFFFFFFFFFFFFFFFFFFFFFFFFFFFFFFFFFFFFF MUL NOT AND SWAP1 DUP4 PUSH20 0xFFFFFFFFFFFFFFFFFFFFFFFFFFFFFFFFFFFFFFFF AND MUL OR SWAP1 SSTORE POP DUP2 PUSH20 0xFFFFFFFFFFFFFFFFFFFFFFFFFFFFFFFFFFFFFFFF AND DUP2 PUSH20 0xFFFFFFFFFFFFFFFFFFFFFFFFFFFFFFFFFFFFFFFF AND PUSH32 0x8BE0079C531659141344CD1FD0A4F28419497F9722A3DAAFE3B4186F6B6457E0 PUSH1 0x40 MLOAD PUSH1 0x40 MLOAD DUP1 SWAP2 SUB SWAP1 LOG3 POP POP JUMP JUMPDEST PUSH0 CALLER SWAP1 POP SWAP1 JUMP JUMPDEST PUSH1 0x1 DUP2 PUSH0 ADD PUSH0 DUP3 DUP3 SLOAD ADD SWAP3 POP POP DUP2 SWAP1 SSTORE POP POP JUMP JUMPDEST PUSH0 DUP2 PUSH0 ADD SLOAD SWAP1 POP SWAP2 SWAP1 POP JUMP JUMPDEST DUP3 DUP1 SLOAD DUP3 DUP3 SSTORE SWAP1 PUSH0 MSTORE PUSH1 0x20 PUSH0 KECCAK256 SWAP1 DUP2 ADD SWAP3 DUP3 ISZERO PUSH2 0x755 JUMPI SWAP2 PUSH1 0x20 MUL DUP3 ADD JUMPDEST DUP3 DUP2 GT ISZERO PUSH2 0x754 JUMPI DUP3 MLOAD DUP3 SWAP1 DUP2 PUSH2 0x744 SWAP2 SWAP1 PUSH2 0xB8A JUMP JUMPDEST POP SWAP2 PUSH1 0x20 ADD SWAP2 SWAP1 PUSH1 0x1 ADD SWAP1 PUSH2 0x72D JUMP JUMPDEST JUMPDEST POP SWAP1 POP PUSH2 0x762 SWAP2 SWAP1 PUSH2 0x7ED JUMP JUMPDEST POP SWAP1 JUMP JUMPDEST DUP3 DUP1 SLOAD DUP3 DUP3 SSTORE SWAP1 PUSH0 MSTORE PUSH1 0x20 PUSH0 KECCAK256 SWAP1 DUP2 ADD SWAP3 DUP3 ISZERO PUSH2 0x7DC JUMPI SWAP2 PUSH1 0x20 MUL DUP3 ADD JUMPDEST DUP3 DUP2 GT ISZERO PUSH2 0x7DB JUMPI DUP3 MLOAD DUP3 PUSH0 PUSH2 0x100 EXP DUP2 SLOAD DUP2 PUSH20 0xFFFFFFFFFFFFFFFFFFFFFFFFFFFFFFFFFFFFFFFF MUL NOT AND SWAP1 DUP4 PUSH20 0xFFFFFFFFFFFFFFFFFFFFFFFFFFFFFFFFFFFFFFFF AND MUL OR SWAP1 SSTORE POP SWAP2 PUSH1 0x20 ADD SWAP2 SWAP1 PUSH1 0x1 ADD SWAP1 PUSH2 0x784 JUMP JUMPDEST JUMPDEST POP SWAP1 POP PUSH2 0x7E9 SWAP2 SWAP1 PUSH2 0x810 JUMP JUMPDEST POP SWAP1 JUMP JUMPDEST JUMPDEST DUP1 DUP3 GT ISZERO PUSH2 0x80C JUMPI PUSH0 DUP2 DUP2 PUSH2 0x803 SWAP2 SWAP1 PUSH2 0x82B JUMP JUMPDEST POP PUSH1 0x1 ADD PUSH2 0x7EE JUMP JUMPDEST POP SWAP1 JUMP JUMPDEST JUMPDEST DUP1 DUP3 GT ISZERO PUSH2 0x827 JUMPI PUSH0 DUP2 PUSH0 SWAP1 SSTORE POP PUSH1 0x1 ADD PUSH2 0x811 JUMP JUMPDEST POP SWAP1 JUMP JUMPDEST POP DUP1 SLOAD PUSH2 0x837 SWAP1 PUSH2 0x9BA JUMP JUMPDEST PUSH0 DUP3 SSTORE DUP1 PUSH1 0x1F LT PUSH2 0x848 JUMPI POP PUSH2 0x865 JUMP JUMPDEST PUSH1 0x1F ADD PUSH1 0x20 SWAP1 DIV SWAP1 PUSH0 MSTORE PUSH1 0x20 PUSH0 KECCAK256 SWAP1 DUP2 ADD SWAP1 PUSH2 0x864 SWAP2 SWAP1 PUSH2 0x810 JUMP JUMPDEST JUMPDEST POP JUMP JUMPDEST PUSH0 PUSH20 0xFFFFFFFFFFFFFFFFFFFFFFFFFFFFFFFFFFFFFFFF DUP3 AND SWAP1 POP SWAP2 SWAP1 POP JUMP JUMPDEST PUSH0 PUSH2 0x891 DUP3 PUSH2 0x868 JUMP JUMPDEST SWAP1 POP SWAP2 SWAP1 POP JUMP JUMPDEST PUSH2 0x8A1 DUP2 PUSH2 0x887 JUMP JUMPDEST DUP3 MSTORE POP POP JUMP JUMPDEST PUSH0 PUSH1 0x20 DUP3 ADD SWAP1 POP PUSH2 0x8BA PUSH0 DUP4 ADD DUP5 PUSH2 0x898 JUMP JUMPDEST SWAP3 SWAP2 POP POP JUMP JUMPDEST PUSH32 0x4E487B7100000000000000000000000000000000000000000000000000000000 PUSH0 MSTORE PUSH1 0x41 PUSH1 0x4 MSTORE PUSH1 0x24 PUSH0 REVERT JUMPDEST PUSH32 0x4E487B7100000000000000000000000000000000000000000000000000000000 PUSH0 MSTORE PUSH1 0x32 PUSH1 0x4 MSTORE PUSH1 0x24 PUSH0 REVERT JUMPDEST PUSH0 DUP2 SWAP1 POP SWAP2 SWAP1 POP JUMP JUMPDEST PUSH32 0x4E487B7100000000000000000000000000000000000000000000000000000000 PUSH0 MSTORE PUSH1 0x11 PUSH1 0x4 MSTORE PUSH1 0x24 PUSH0 REVERT JUMPDEST PUSH0 PUSH2 0x95A DUP3 PUSH2 0x91A JUMP JUMPDEST SWAP2 POP PUSH2 0x965 DUP4 PUSH2 0x91A JUMP JUMPDEST SWAP3 POP DUP3 DUP3 ADD SWAP1 POP DUP1 DUP3 GT ISZERO PUSH2 0x97D JUMPI PUSH2 0x97C PUSH2 0x923 JUMP JUMPDEST JUMPDEST SWAP3 SWAP2 POP POP JUMP JUMPDEST PUSH0 DUP2 MLOAD SWAP1 POP SWAP2 SWAP1 POP JUMP JUMPDEST PUSH32 0x4E487B7100000000000000000000000000000000000000000000000000000000 PUSH0 MSTORE PUSH1 0x22 PUSH1 0x4 MSTORE PUSH1 0x24 PUSH0 REVERT JUMPDEST PUSH0 PUSH1 0x2 DUP3 DIV SWAP1 POP PUSH1 0x1 DUP3 AND DUP1 PUSH2 0x9D1 JUMPI PUSH1 0x7F DUP3 AND SWAP2 POP JUMPDEST PUSH1 0x20 DUP3 LT DUP2 SUB PUSH2 0x9E4 JUMPI PUSH2 0x9E3 PUSH2 0x98D JUMP JUMPDEST JUMPDEST POP SWAP2 SWAP1 POP JUMP JUMPDEST PUSH0 DUP2 SWAP1 POP DUP2 PUSH0 MSTORE PUSH1 0x20 PUSH0 KECCAK256 SWAP1 POP SWAP2 SWAP1 POP JUMP JUMPDEST PUSH0 PUSH1 0x20 PUSH1 0x1F DUP4 ADD DIV SWAP1 POP SWAP2 SWAP1 POP JUMP JUMPDEST PUSH0 DUP3 DUP3 SHL SWAP1 POP SWAP3 SWAP2 POP POP JUMP JUMPDEST PUSH0 PUSH1 0x8 DUP4 MUL PUSH2 0xA46 PUSH32 0xFFFFFFFFFFFFFFFFFFFFFFFFFFFFFFFFFFFFFFFFFFFFFFFFFFFFFFFFFFFFFFFF DUP3 PUSH2 0xA0B JUMP JUMPDEST PUSH2 0xA50 DUP7 DUP4 PUSH2 0xA0B JUMP JUMPDEST SWAP6 POP DUP1 NOT DUP5 AND SWAP4 POP DUP1 DUP7 AND DUP5 OR SWAP3 POP POP POP SWAP4 SWAP3 POP POP POP JUMP JUMPDEST PUSH0 DUP2 SWAP1 POP SWAP2 SWAP1 POP JUMP JUMPDEST PUSH0 PUSH2 0xA8B PUSH2 0xA86 PUSH2 0xA81 DUP5 PUSH2 0x91A JUMP JUMPDEST PUSH2 0xA68 JUMP JUMPDEST PUSH2 0x91A JUMP JUMPDEST SWAP1 POP SWAP2 SWAP1 POP JUMP JUMPDEST PUSH0 DUP2 SWAP1 POP SWAP2 SWAP1 POP JUMP JUMPDEST PUSH2 0xAA4 DUP4 PUSH2 0xA71 JUMP JUMPDEST PUSH2 0xAB8 PUSH2 0xAB0 DUP3 PUSH2 0xA92 JUMP JUMPDEST DUP5 DUP5 SLOAD PUSH2 0xA17 JUMP JUMPDEST DUP3 SSTORE POP POP POP POP JUMP JUMPDEST PUSH0 PUSH0 SWAP1 POP SWAP1 JUMP JUMPDEST PUSH2 0xACF PUSH2 0xAC0 JUMP JUMPDEST PUSH2 0xADA DUP2 DUP5 DUP5 PUSH2 0xA9B JUMP JUMPDEST POP POP POP JUMP JUMPDEST JUMPDEST DUP2 DUP2 LT ISZERO PUSH2 0xAFD JUMPI PUSH2 0xAF2 PUSH0 DUP3 PUSH2 0xAC7 JUMP JUMPDEST PUSH1 0x1 DUP2 ADD SWAP1 POP PUSH2 0xAE0 JUMP JUMPDEST POP POP JUMP JUMPDEST PUSH1 0x1F DUP3 GT ISZERO PUSH2 0xB42 JUMPI PUSH2 0xB13 DUP2 PUSH2 0x9EA JUMP JUMPDEST PUSH2 0xB1C DUP5 PUSH2 0x9FC JUMP JUMPDEST DUP2 ADD PUSH1 0x20 DUP6 LT ISZERO PUSH2 0xB2B JUMPI DUP2 SWAP1 POP JUMPDEST PUSH2 0xB3F PUSH2 0xB37 DUP6 PUSH2 0x9FC JUMP JUMPDEST DUP4 ADD DUP3 PUSH2 0xADF JUMP JUMPDEST POP POP JUMPDEST POP POP POP JUMP JUMPDEST PUSH0 DUP3 DUP3 SHR SWAP1 POP SWAP3 SWAP2 POP POP JUMP JUMPDEST PUSH0 PUSH2 0xB62 PUSH0 NOT DUP5 PUSH1 0x8 MUL PUSH2 0xB47 JUMP JUMPDEST NOT DUP1 DUP4 AND SWAP2 POP POP SWAP3 SWAP2 POP POP JUMP JUMPDEST PUSH0 PUSH2 0xB7A DUP4 DUP4 PUSH2 0xB53 JUMP JUMPDEST SWAP2 POP DUP3 PUSH1 0x2 MUL DUP3 OR SWAP1 POP SWAP3 SWAP2 POP POP JUMP JUMPDEST PUSH2 0xB93 DUP3 PUSH2 0x983 JUMP JUMPDEST PUSH8 0xFFFFFFFFFFFFFFFF DUP2 GT ISZERO PUSH2 0xBAC JUMPI PUSH2 0xBAB PUSH2 0x8C0 JUMP JUMPDEST JUMPDEST PUSH2 0xBB6 DUP3 SLOAD PUSH2 0x9BA JUMP JUMPDEST PUSH2 0xBC1 DUP3 DUP3 DUP6 PUSH2 0xB01 JUMP JUMPDEST PUSH0 PUSH1 0x20 SWAP1 POP PUSH1 0x1F DUP4 GT PUSH1 0x1 DUP2 EQ PUSH2 0xBF2 JUMPI PUSH0 DUP5 ISZERO PUSH2 0xBE0 JUMPI DUP3 DUP8 ADD MLOAD SWAP1 POP JUMPDEST PUSH2 0xBEA DUP6 DUP3 PUSH2 0xB6F JUMP JUMPDEST DUP7 SSTORE POP PUSH2 0xC51 JUMP JUMPDEST PUSH1 0x1F NOT DUP5 AND PUSH2 0xC00 DUP7 PUSH2 0x9EA JUMP JUMPDEST PUSH0 JUMPDEST DUP3 DUP2 LT ISZERO PUSH2 0xC27 JUMPI DUP5 DUP10 ADD MLOAD DUP3 SSTORE PUSH1 0x1 DUP3 ADD SWAP2 POP PUSH1 0x20 DUP6 ADD SWAP5 POP PUSH1 0x20 DUP2 ADD SWAP1 POP PUSH2 0xC02 JUMP JUMPDEST DUP7 DUP4 LT ISZERO PUSH2 0xC44 JUMPI DUP5 DUP10 ADD MLOAD PUSH2 0xC40 PUSH1 0x1F DUP10 AND DUP3 PUSH2 0xB53 JUMP JUMPDEST DUP4 SSTORE POP JUMPDEST PUSH1 0x1 PUSH1 0x2 DUP9 MUL ADD DUP9 SSTORE POP POP POP JUMPDEST POP POP POP POP POP POP JUMP JUMPDEST PUSH0 DUP2 MLOAD SWAP1 POP SWAP2 SWAP1 POP JUMP JUMPDEST PUSH0 DUP2 SWAP1 POP DUP2 PUSH0 MSTORE PUSH1 0x20 PUSH0 KECCAK256 SWAP1 POP SWAP2 SWAP1 POP JUMP JUMPDEST PUSH1 0x1F DUP3 GT ISZERO PUSH2 0xCB6 JUMPI PUSH2 0xC87 DUP2 PUSH2 0xC63 JUMP JUMPDEST PUSH2 0xC90 DUP5 PUSH2 0x9FC JUMP JUMPDEST DUP2 ADD PUSH1 0x20 DUP6 LT ISZERO PUSH2 0xC9F JUMPI DUP2 SWAP1 POP JUMPDEST PUSH2 0xCB3 PUSH2 0xCAB DUP6 PUSH2 0x9FC JUMP JUMPDEST DUP4 ADD DUP3 PUSH2 0xADF JUMP JUMPDEST POP POP JUMPDEST POP POP POP JUMP JUMPDEST PUSH2 0xCC4 DUP3 PUSH2 0xC59 JUMP JUMPDEST PUSH8 0xFFFFFFFFFFFFFFFF DUP2 GT ISZERO PUSH2 0xCDD JUMPI PUSH2 0xCDC PUSH2 0x8C0 JUMP JUMPDEST JUMPDEST PUSH2 0xCE7 DUP3 SLOAD PUSH2 0x9BA JUMP JUMPDEST PUSH2 0xCF2 DUP3 DUP3 DUP6 PUSH2 0xC75 JUMP JUMPDEST PUSH0 PUSH1 0x20 SWAP1 POP PUSH1 0x1F DUP4 GT PUSH1 0x1 DUP2 EQ PUSH2 0xD23 JUMPI PUSH0 DUP5 ISZERO PUSH2 0xD11 JUMPI DUP3 DUP8 ADD MLOAD SWAP1 POP JUMPDEST PUSH2 0xD1B DUP6 DUP3 PUSH2 0xB6F JUMP JUMPDEST DUP7 SSTORE POP PUSH2 0xD82 JUMP JUMPDEST PUSH1 0x1F NOT DUP5 AND PUSH2 0xD31 DUP7 PUSH2 0xC63 JUMP JUMPDEST PUSH0 JUMPDEST DUP3 DUP2 LT ISZERO PUSH2 0xD58 JUMPI DUP5 DUP10 ADD MLOAD DUP3 SSTORE PUSH1 0x1 DUP3 ADD SWAP2 POP PUSH1 0x20 DUP6 ADD SWAP5 POP PUSH1 0x20 DUP2 ADD SWAP1 POP PUSH2 0xD33 JUMP JUMPDEST DUP7 DUP4 LT ISZERO PUSH2 0xD75 JUMPI DUP5 DUP10 ADD MLOAD PUSH2 0xD71 PUSH1 0x1F DUP10 AND DUP3 PUSH2 0xB53 JUMP JUMPDEST DUP4 SSTORE POP JUMPDEST PUSH1 0x1 PUSH1 0x2 DUP9 MUL ADD DUP9 SSTORE POP POP POP JUMPDEST POP POP POP POP POP POP JUMP JUMPDEST PUSH0 DUP3 DUP3 MSTORE PUSH1 0x20 DUP3 ADD SWAP1 POP SWAP3 SWAP2 POP POP JUMP JUMPDEST POP JUMP JUMPDEST PUSH0 PUSH2 0xDA8 PUSH0 DUP4 PUSH2 0xD8A JUMP JUMPDEST SWAP2 POP PUSH2 0xDB3 DUP3 PUSH2 0xD9A JUMP JUMPDEST PUSH0 DUP3 ADD SWAP1 POP SWAP2 SWAP1 POP JUMP JUMPDEST PUSH32 0x4C6F72656D20497073756D2069732073696D706C792064756D6D792074657874 PUSH0 DUP3 ADD MSTORE PUSH32 0x206F6620746865207072696E74696E6720616E64207479706573657474696E67 PUSH1 0x20 DUP3 ADD MSTORE PUSH32 0x20696E6475737472792E204C6F72656D20497073756D20686173206265656E20 PUSH1 0x40 DUP3 ADD MSTORE PUSH32 0x74686520696E6475737472792773207374616E646172642064756D6D79207465 PUSH1 0x60 DUP3 ADD MSTORE PUSH32 0x787420657665722073696E6365207468652031353030732C207768656E20616E PUSH1 0x80 DUP3 ADD MSTORE PUSH32 0x20756E6B6E6F776E207072696E74657220746F6F6B20612067616C6C6579206F PUSH1 0xA0 DUP3 ADD MSTORE PUSH32 0x66207479706520616E6420736372616D626C656420697420746F206D616B6520 PUSH1 0xC0 DUP3 ADD MSTORE PUSH32 0x6120747970652073706563696D656E20626F6F6B2E2049742068617320737572 PUSH1 0xE0 DUP3 ADD MSTORE PUSH32 0x7669766564206E6F74206F6E6C7920666976652063656E7475726965732C2062 PUSH2 0x100 DUP3 ADD MSTORE PUSH32 0x757420616C736F20746865206C65617020696E746F20656C656374726F6E6963 PUSH2 0x120 DUP3 ADD MSTORE PUSH32 0x207479706573657474696E672C2072656D61696E696E6720657373656E746961 PUSH2 0x140 DUP3 ADD MSTORE PUSH32 0x6C6C7920756E6368616E6765642E2049742077617320706F70756C6172697365 PUSH2 0x160 DUP3 ADD MSTORE PUSH32 0x6420696E207468652031393630732077697468207468652072656C6561736520 PUSH2 0x180 DUP3 ADD MSTORE PUSH32 0x6F66204C657472617365742073686565747320636F6E7461696E696E67204C6F PUSH2 0x1A0 DUP3 ADD MSTORE PUSH32 0x72656D20497073756D2070617373616765732C20616E64206D6F726520726563 PUSH2 0x1C0 DUP3 ADD MSTORE PUSH32 0x656E746C792077697468206465736B746F70207075626C697368696E6720736F PUSH2 0x1E0 DUP3 ADD MSTORE PUSH32 0x667477617265206C696B6520416C64757320506167654D616B657220696E636C PUSH2 0x200 DUP3 ADD MSTORE PUSH32 0x7564696E672076657273696F6E73206F66204C6F72656D20497073756D2E0000 PUSH2 0x220 DUP3 ADD MSTORE POP JUMP JUMPDEST PUSH0 PUSH2 0x1082 PUSH2 0x23E DUP4 PUSH2 0xD8A JUMP JUMPDEST SWAP2 POP PUSH2 0x108D DUP3 PUSH2 0xDBD JUMP JUMPDEST PUSH2 0x240 DUP3 ADD SWAP1 POP SWAP2 SWAP1 POP JUMP JUMPDEST PUSH2 0x10A2 DUP2 PUSH2 0x91A JUMP JUMPDEST DUP3 MSTORE POP POP JUMP JUMPDEST PUSH0 PUSH1 0x80 DUP3 ADD SWAP1 POP DUP2 DUP2 SUB PUSH0 DUP4 ADD MSTORE PUSH2 0x10BF DUP2 PUSH2 0xD9D JUMP JUMPDEST SWAP1 POP DUP2 DUP2 SUB PUSH1 0x20 DUP4 ADD MSTORE PUSH2 0x10D2 DUP2 PUSH2 0x1075 JUMP JUMPDEST SWAP1 POP PUSH2 0x10E1 PUSH1 0x40 DUP4 ADD DUP6 PUSH2 0x1099 JUMP JUMPDEST PUSH2 0x10EE PUSH1 0x60 DUP4 ADD DUP5 PUSH2 0x1099 JUMP JUMPDEST SWAP4 SWAP3 POP POP POP JUMP JUMPDEST PUSH2 0x518F DUP1 PUSH2 0x1102 PUSH0 CODECOPY PUSH0 RETURN INVALID PUSH1 0x80 PUSH1 0x40 MSTORE PUSH1 0x4 CALLDATASIZE LT PUSH2 0x1F8 JUMPI PUSH0 CALLDATALOAD PUSH1 0xE0 SHR DUP1 PUSH4 0x76C5E3EE GT PUSH2 0x10C JUMPI DUP1 PUSH4 0xC3105A6B GT PUSH2 0x9F JUMPI DUP1 PUSH4 0xE0EA29FC GT PUSH2 0x6E JUMPI DUP1 PUSH4 0xE0EA29FC EQ PUSH2 0x74E JUMPI DUP1 PUSH4 0xF2FDE38B EQ PUSH2 0x78A JUMPI DUP1 PUSH4 0xF48272D2 EQ PUSH2 0x7B2 JUMPI DUP1 PUSH4 0xFDD5AD23 EQ PUSH2 0x7F9 JUMPI DUP1 PUSH4 0xFE7E8E5B EQ PUSH2 0x823 JUMPI PUSH2 0x1F8 JUMP JUMPDEST DUP1 PUSH4 0xC3105A6B EQ PUSH2 0x67C JUMPI DUP1 PUSH4 0xD97D9FD2 EQ PUSH2 0x6B8 JUMPI DUP1 PUSH4 0xDDCA3F43 EQ PUSH2 0x6E8 JUMPI DUP1 PUSH4 0xE0CAA729 EQ PUSH2 0x712 JUMPI PUSH2 0x1F8 JUMP JUMPDEST DUP1 PUSH4 0x8DA5CB5B GT PUSH2 0xDB JUMPI DUP1 PUSH4 0x8DA5CB5B EQ PUSH2 0x5D8 JUMPI DUP1 PUSH4 0x9012C4A8 EQ PUSH2 0x602 JUMPI DUP1 PUSH4 0xB8DE4343 EQ PUSH2 0x62A JUMPI DUP1 PUSH4 0xBBE4FD50 EQ PUSH2 0x652 JUMPI PUSH2 0x1F8 JUMP JUMPDEST DUP1 PUSH4 0x76C5E3EE EQ PUSH2 0x52E JUMPI DUP1 PUSH4 0x79C4BE94 EQ PUSH2 0x56A JUMPI DUP1 PUSH4 0x7A897DE9 EQ PUSH2 0x5A6 JUMPI DUP1 PUSH4 0x8456CB59 EQ PUSH2 0x5C2 JUMPI PUSH2 0x1F8 JUMP JUMPDEST DUP1 PUSH4 0x397C4686 GT PUSH2 0x18F JUMPI DUP1 PUSH4 0x56A6D9EF GT PUSH2 0x15E JUMPI DUP1 PUSH4 0x56A6D9EF EQ PUSH2 0x44E JUMPI DUP1 PUSH4 0x5C975ABB EQ PUSH2 0x476 JUMPI DUP1 PUSH4 0x5DE3B598 EQ PUSH2 0x4A0 JUMPI DUP1 PUSH4 0x6DB2FEB2 EQ PUSH2 0x4DC JUMPI DUP1 PUSH4 0x715018A6 EQ PUSH2 0x518 JUMPI PUSH2 0x1F8 JUMP JUMPDEST DUP1 PUSH4 0x397C4686 EQ PUSH2 0x3AA JUMPI DUP1 PUSH4 0x3CCFD60B EQ PUSH2 0x3E6 JUMPI DUP1 PUSH4 0x3DEA5BC3 EQ PUSH2 0x3FC JUMPI DUP1 PUSH4 0x3F4BA83A EQ PUSH2 0x438 JUMPI PUSH2 0x1F8 JUMP JUMPDEST DUP1 PUSH4 0x2C30A81C GT PUSH2 0x1CB JUMPI DUP1 PUSH4 0x2C30A81C EQ PUSH2 0x2CC JUMPI DUP1 PUSH4 0x2CBBD738 EQ PUSH2 0x30A JUMPI DUP1 PUSH4 0x3049B04B EQ PUSH2 0x346 JUMPI DUP1 PUSH4 0x35DA0A15 EQ PUSH2 0x382 JUMPI PUSH2 0x1F8 JUMP JUMPDEST DUP1 PUSH4 0x12065FE0 EQ PUSH2 0x1FC JUMPI DUP1 PUSH4 0x1982F1D3 EQ PUSH2 0x226 JUMPI DUP1 PUSH4 0x1CC6FDAD EQ PUSH2 0x266 JUMPI DUP1 PUSH4 0x22A01240 EQ PUSH2 0x290 JUMPI JUMPDEST PUSH0 PUSH0 REVERT JUMPDEST CALLVALUE DUP1 ISZERO PUSH2 0x207 JUMPI PUSH0 PUSH0 REVERT JUMPDEST POP PUSH2 0x210 PUSH2 0x860 JUMP JUMPDEST PUSH1 0x40 MLOAD PUSH2 0x21D SWAP2 SWAP1 PUSH2 0x3288 JUMP JUMPDEST PUSH1 0x40 MLOAD DUP1 SWAP2 SUB SWAP1 RETURN JUMPDEST CALLVALUE DUP1 ISZERO PUSH2 0x231 JUMPI PUSH0 PUSH0 REVERT JUMPDEST POP PUSH2 0x24C PUSH1 0x4 DUP1 CALLDATASIZE SUB DUP2 ADD SWAP1 PUSH2 0x247 SWAP2 SWAP1 PUSH2 0x32E5 JUMP JUMPDEST PUSH2 0x867 JUMP JUMPDEST PUSH1 0x40 MLOAD PUSH2 0x25D SWAP6 SWAP5 SWAP4 SWAP3 SWAP2 SWAP1 PUSH2 0x33E9 JUMP JUMPDEST PUSH1 0x40 MLOAD DUP1 SWAP2 SUB SWAP1 RETURN JUMPDEST CALLVALUE DUP1 ISZERO PUSH2 0x271 JUMPI PUSH0 PUSH0 REVERT JUMPDEST POP PUSH2 0x27A PUSH2 0x94B JUMP JUMPDEST PUSH1 0x40 MLOAD PUSH2 0x287 SWAP2 SWAP1 PUSH2 0x3288 JUMP JUMPDEST PUSH1 0x40 MLOAD DUP1 SWAP2 SUB SWAP1 RETURN JUMPDEST CALLVALUE DUP1 ISZERO PUSH2 0x29B JUMPI PUSH0 PUSH0 REVERT JUMPDEST POP PUSH2 0x2B6 PUSH1 0x4 DUP1 CALLDATASIZE SUB DUP2 ADD SWAP1 PUSH2 0x2B1 SWAP2 SWAP1 PUSH2 0x356D JUMP JUMPDEST PUSH2 0x956 JUMP JUMPDEST PUSH1 0x40 MLOAD PUSH2 0x2C3 SWAP2 SWAP1 PUSH2 0x35F3 JUMP JUMPDEST PUSH1 0x40 MLOAD DUP1 SWAP2 SUB SWAP1 RETURN JUMPDEST CALLVALUE DUP1 ISZERO PUSH2 0x2D7 JUMPI PUSH0 PUSH0 REVERT JUMPDEST POP PUSH2 0x2F2 PUSH1 0x4 DUP1 CALLDATASIZE SUB DUP2 ADD SWAP1 PUSH2 0x2ED SWAP2 SWAP1 PUSH2 0x32E5 JUMP JUMPDEST PUSH2 0x998 JUMP JUMPDEST PUSH1 0x40 MLOAD PUSH2 0x301 SWAP4 SWAP3 SWAP2 SWAP1 PUSH2 0x360C JUMP JUMPDEST PUSH1 0x40 MLOAD DUP1 SWAP2 SUB SWAP1 RETURN JUMPDEST CALLVALUE DUP1 ISZERO PUSH2 0x315 JUMPI PUSH0 PUSH0 REVERT JUMPDEST POP PUSH2 0x330 PUSH1 0x4 DUP1 CALLDATASIZE SUB DUP2 ADD SWAP1 PUSH2 0x32B SWAP2 SWAP1 PUSH2 0x32E5 JUMP JUMPDEST PUSH2 0x9F7 JUMP JUMPDEST PUSH1 0x40 MLOAD PUSH2 0x33D SWAP2 SWAP1 PUSH2 0x39AB JUMP JUMPDEST PUSH1 0x40 MLOAD DUP1 SWAP2 SUB SWAP1 RETURN JUMPDEST CALLVALUE DUP1 ISZERO PUSH2 0x351 JUMPI PUSH0 PUSH0 REVERT JUMPDEST POP PUSH2 0x36C PUSH1 0x4 DUP1 CALLDATASIZE SUB DUP2 ADD SWAP1 PUSH2 0x367 SWAP2 SWAP1 PUSH2 0x39F5 JUMP JUMPDEST PUSH2 0xDBC JUMP JUMPDEST PUSH1 0x40 MLOAD PUSH2 0x379 SWAP2 SWAP1 PUSH2 0x3288 JUMP JUMPDEST PUSH1 0x40 MLOAD DUP1 SWAP2 SUB SWAP1 RETURN JUMPDEST CALLVALUE DUP1 ISZERO PUSH2 0x38D JUMPI PUSH0 PUSH0 REVERT JUMPDEST POP PUSH2 0x3A8 PUSH1 0x4 DUP1 CALLDATASIZE SUB DUP2 ADD SWAP1 PUSH2 0x3A3 SWAP2 SWAP1 PUSH2 0x3CC7 JUMP JUMPDEST PUSH2 0xDDC JUMP JUMPDEST STOP JUMPDEST CALLVALUE DUP1 ISZERO PUSH2 0x3B5 JUMPI PUSH0 PUSH0 REVERT JUMPDEST POP PUSH2 0x3D0 PUSH1 0x4 DUP1 CALLDATASIZE SUB DUP2 ADD SWAP1 PUSH2 0x3CB SWAP2 SWAP1 PUSH2 0x3E10 JUMP JUMPDEST PUSH2 0x104D JUMP JUMPDEST PUSH1 0x40 MLOAD PUSH2 0x3DD SWAP2 SWAP1 PUSH2 0x3E4E JUMP JUMPDEST PUSH1 0x40 MLOAD DUP1 SWAP2 SUB SWAP1 RETURN JUMPDEST CALLVALUE DUP1 ISZERO PUSH2 0x3F1 JUMPI PUSH0 PUSH0 REVERT JUMPDEST POP PUSH2 0x3FA PUSH2 0x1078 JUMP JUMPDEST STOP JUMPDEST CALLVALUE DUP1 ISZERO PUSH2 0x407 JUMPI PUSH0 PUSH0 REVERT JUMPDEST POP PUSH2 0x422 PUSH1 0x4 DUP1 CALLDATASIZE SUB DUP2 ADD SWAP1 PUSH2 0x41D SWAP2 SWAP1 PUSH2 0x3E67 JUMP JUMPDEST PUSH2 0x1137 JUMP JUMPDEST PUSH1 0x40 MLOAD PUSH2 0x42F SWAP2 SWAP1 PUSH2 0x3F49 JUMP JUMPDEST PUSH1 0x40 MLOAD DUP1 SWAP2 SUB SWAP1 RETURN JUMPDEST CALLVALUE DUP1 ISZERO PUSH2 0x443 JUMPI PUSH0 PUSH0 REVERT JUMPDEST POP PUSH2 0x44C PUSH2 0x11CA JUMP JUMPDEST STOP JUMPDEST CALLVALUE DUP1 ISZERO PUSH2 0x459 JUMPI PUSH0 PUSH0 REVERT JUMPDEST POP PUSH2 0x474 PUSH1 0x4 DUP1 CALLDATASIZE SUB DUP2 ADD SWAP1 PUSH2 0x46F SWAP2 SWAP1 PUSH2 0x3FA4 JUMP JUMPDEST PUSH2 0x11DC JUMP JUMPDEST STOP JUMPDEST CALLVALUE DUP1 ISZERO PUSH2 0x481 JUMPI PUSH0 PUSH0 REVERT JUMPDEST POP PUSH2 0x48A PUSH2 0x1291 JUMP JUMPDEST PUSH1 0x40 MLOAD PUSH2 0x497 SWAP2 SWAP1 PUSH2 0x35F3 JUMP JUMPDEST PUSH1 0x40 MLOAD DUP1 SWAP2 SUB SWAP1 RETURN JUMPDEST CALLVALUE DUP1 ISZERO PUSH2 0x4AB JUMPI PUSH0 PUSH0 REVERT JUMPDEST POP PUSH2 0x4C6 PUSH1 0x4 DUP1 CALLDATASIZE SUB DUP2 ADD SWAP1 PUSH2 0x4C1 SWAP2 SWAP1 PUSH2 0x3FE2 JUMP JUMPDEST PUSH2 0x12A6 JUMP JUMPDEST PUSH1 0x40 MLOAD PUSH2 0x4D3 SWAP2 SWAP1 PUSH2 0x35F3 JUMP JUMPDEST PUSH1 0x40 MLOAD DUP1 SWAP2 SUB SWAP1 RETURN JUMPDEST CALLVALUE DUP1 ISZERO PUSH2 0x4E7 JUMPI PUSH0 PUSH0 REVERT JUMPDEST POP PUSH2 0x502 PUSH1 0x4 DUP1 CALLDATASIZE SUB DUP2 ADD SWAP1 PUSH2 0x4FD SWAP2 SWAP1 PUSH2 0x32E5 JUMP JUMPDEST PUSH2 0x12E4 JUMP JUMPDEST PUSH1 0x40 MLOAD PUSH2 0x50F SWAP2 SWAP1 PUSH2 0x35F3 JUMP JUMPDEST PUSH1 0x40 MLOAD DUP1 SWAP2 SUB SWAP1 RETURN JUMPDEST CALLVALUE DUP1 ISZERO PUSH2 0x523 JUMPI PUSH0 PUSH0 REVERT JUMPDEST POP PUSH2 0x52C PUSH2 0x1310 JUMP JUMPDEST STOP JUMPDEST CALLVALUE DUP1 ISZERO PUSH2 0x539 JUMPI PUSH0 PUSH0 REVERT JUMPDEST POP PUSH2 0x554 PUSH1 0x4 DUP1 CALLDATASIZE SUB DUP2 ADD SWAP1 PUSH2 0x54F SWAP2 SWAP1 PUSH2 0x39F5 JUMP JUMPDEST PUSH2 0x1323 JUMP JUMPDEST PUSH1 0x40 MLOAD PUSH2 0x561 SWAP2 SWAP1 PUSH2 0x35F3 JUMP JUMPDEST PUSH1 0x40 MLOAD DUP1 SWAP2 SUB SWAP1 RETURN JUMPDEST CALLVALUE DUP1 ISZERO PUSH2 0x575 JUMPI PUSH0 PUSH0 REVERT JUMPDEST POP PUSH2 0x590 PUSH1 0x4 DUP1 CALLDATASIZE SUB DUP2 ADD SWAP1 PUSH2 0x58B SWAP2 SWAP1 PUSH2 0x3E67 JUMP JUMPDEST PUSH2 0x142A JUMP JUMPDEST PUSH1 0x40 MLOAD PUSH2 0x59D SWAP2 SWAP1 PUSH2 0x3288 JUMP JUMPDEST PUSH1 0x40 MLOAD DUP1 SWAP2 SUB SWAP1 RETURN JUMPDEST PUSH2 0x5C0 PUSH1 0x4 DUP1 CALLDATASIZE SUB DUP2 ADD SWAP1 PUSH2 0x5BB SWAP2 SWAP1 PUSH2 0x404A JUMP JUMPDEST PUSH2 0x14AA JUMP JUMPDEST STOP JUMPDEST CALLVALUE DUP1 ISZERO PUSH2 0x5CD JUMPI PUSH0 PUSH0 REVERT JUMPDEST POP PUSH2 0x5D6 PUSH2 0x1C99 JUMP JUMPDEST STOP JUMPDEST CALLVALUE DUP1 ISZERO PUSH2 0x5E3 JUMPI PUSH0 PUSH0 REVERT JUMPDEST POP PUSH2 0x5EC PUSH2 0x1CAB JUMP JUMPDEST PUSH1 0x40 MLOAD PUSH2 0x5F9 SWAP2 SWAP1 PUSH2 0x40F9 JUMP JUMPDEST PUSH1 0x40 MLOAD DUP1 SWAP2 SUB SWAP1 RETURN JUMPDEST CALLVALUE DUP1 ISZERO PUSH2 0x60D JUMPI PUSH0 PUSH0 REVERT JUMPDEST POP PUSH2 0x628 PUSH1 0x4 DUP1 CALLDATASIZE SUB DUP2 ADD SWAP1 PUSH2 0x623 SWAP2 SWAP1 PUSH2 0x4112 JUMP JUMPDEST PUSH2 0x1CD2 JUMP JUMPDEST STOP JUMPDEST CALLVALUE DUP1 ISZERO PUSH2 0x635 JUMPI PUSH0 PUSH0 REVERT JUMPDEST POP PUSH2 0x650 PUSH1 0x4 DUP1 CALLDATASIZE SUB DUP2 ADD SWAP1 PUSH2 0x64B SWAP2 SWAP1 PUSH2 0x413D JUMP JUMPDEST PUSH2 0x1CE4 JUMP JUMPDEST STOP JUMPDEST CALLVALUE DUP1 ISZERO PUSH2 0x65D JUMPI PUSH0 PUSH0 REVERT JUMPDEST POP PUSH2 0x666 PUSH2 0x1D61 JUMP JUMPDEST PUSH1 0x40 MLOAD PUSH2 0x673 SWAP2 SWAP1 PUSH2 0x3288 JUMP JUMPDEST PUSH1 0x40 MLOAD DUP1 SWAP2 SUB SWAP1 RETURN JUMPDEST CALLVALUE DUP1 ISZERO PUSH2 0x687 JUMPI PUSH0 PUSH0 REVERT JUMPDEST POP PUSH2 0x6A2 PUSH1 0x4 DUP1 CALLDATASIZE SUB DUP2 ADD SWAP1 PUSH2 0x69D SWAP2 SWAP1 PUSH2 0x3FE2 JUMP JUMPDEST PUSH2 0x1D68 JUMP JUMPDEST PUSH1 0x40 MLOAD PUSH2 0x6AF SWAP2 SWAP1 PUSH2 0x41D0 JUMP JUMPDEST PUSH1 0x40 MLOAD DUP1 SWAP2 SUB SWAP1 RETURN JUMPDEST PUSH2 0x6D2 PUSH1 0x4 DUP1 CALLDATASIZE SUB DUP2 ADD SWAP1 PUSH2 0x6CD SWAP2 SWAP1 PUSH2 0x41F0 JUMP JUMPDEST PUSH2 0x1E19 JUMP JUMPDEST PUSH1 0x40 MLOAD PUSH2 0x6DF SWAP2 SWAP1 PUSH2 0x3E4E JUMP JUMPDEST PUSH1 0x40 MLOAD DUP1 SWAP2 SUB SWAP1 RETURN JUMPDEST CALLVALUE DUP1 ISZERO PUSH2 0x6F3 JUMPI PUSH0 PUSH0 REVERT JUMPDEST POP PUSH2 0x6FC PUSH2 0x2258 JUMP JUMPDEST PUSH1 0x40 MLOAD PUSH2 0x709 SWAP2 SWAP1 PUSH2 0x3288 JUMP JUMPDEST PUSH1 0x40 MLOAD DUP1 SWAP2 SUB SWAP1 RETURN JUMPDEST CALLVALUE DUP1 ISZERO PUSH2 0x71D JUMPI PUSH0 PUSH0 REVERT JUMPDEST POP PUSH2 0x738 PUSH1 0x4 DUP1 CALLDATASIZE SUB DUP2 ADD SWAP1 PUSH2 0x733 SWAP2 SWAP1 PUSH2 0x3FE2 JUMP JUMPDEST PUSH2 0x225E JUMP JUMPDEST PUSH1 0x40 MLOAD PUSH2 0x745 SWAP2 SWAP1 PUSH2 0x41D0 JUMP JUMPDEST PUSH1 0x40 MLOAD DUP1 SWAP2 SUB SWAP1 RETURN JUMPDEST CALLVALUE DUP1 ISZERO PUSH2 0x759 JUMPI PUSH0 PUSH0 REVERT JUMPDEST POP PUSH2 0x774 PUSH1 0x4 DUP1 CALLDATASIZE SUB DUP2 ADD SWAP1 PUSH2 0x76F SWAP2 SWAP1 PUSH2 0x32E5 JUMP JUMPDEST PUSH2 0x2304 JUMP JUMPDEST PUSH1 0x40 MLOAD PUSH2 0x781 SWAP2 SWAP1 PUSH2 0x449D JUMP JUMPDEST PUSH1 0x40 MLOAD DUP1 SWAP2 SUB SWAP1 RETURN JUMPDEST CALLVALUE DUP1 ISZERO PUSH2 0x795 JUMPI PUSH0 PUSH0 REVERT JUMPDEST POP PUSH2 0x7B0 PUSH1 0x4 DUP1 CALLDATASIZE SUB DUP2 ADD SWAP1 PUSH2 0x7AB SWAP2 SWAP1 PUSH2 0x3E67 JUMP JUMPDEST PUSH2 0x2590 JUMP JUMPDEST STOP JUMPDEST CALLVALUE DUP1 ISZERO PUSH2 0x7BD JUMPI PUSH0 PUSH0 REVERT JUMPDEST POP PUSH2 0x7D8 PUSH1 0x4 DUP1 CALLDATASIZE SUB DUP2 ADD SWAP1 PUSH2 0x7D3 SWAP2 SWAP1 PUSH2 0x32E5 JUMP JUMPDEST PUSH2 0x2614 JUMP JUMPDEST PUSH1 0x40 MLOAD PUSH2 0x7F0 SWAP13 SWAP12 SWAP11 SWAP10 SWAP9 SWAP8 SWAP7 SWAP6 SWAP5 SWAP4 SWAP3 SWAP2 SWAP1 PUSH2 0x4505 JUMP JUMPDEST PUSH1 0x40 MLOAD DUP1 SWAP2 SUB SWAP1 RETURN JUMPDEST CALLVALUE DUP1 ISZERO PUSH2 0x804 JUMPI PUSH0 PUSH0 REVERT JUMPDEST POP PUSH2 0x80D PUSH2 0x27D3 JUMP JUMPDEST PUSH1 0x40 MLOAD PUSH2 0x81A SWAP2 SWAP1 PUSH2 0x3288 JUMP JUMPDEST PUSH1 0x40 MLOAD DUP1 SWAP2 SUB SWAP1 RETURN JUMPDEST CALLVALUE DUP1 ISZERO PUSH2 0x82E JUMPI PUSH0 PUSH0 REVERT JUMPDEST POP PUSH2 0x849 PUSH1 0x4 DUP1 CALLDATASIZE SUB DUP2 ADD SWAP1 PUSH2 0x844 SWAP2 SWAP1 PUSH2 0x3E67 JUMP JUMPDEST PUSH2 0x27DE JUMP JUMPDEST PUSH1 0x40 MLOAD PUSH2 0x857 SWAP3 SWAP2 SWAP1 PUSH2 0x47B1 JUMP JUMPDEST PUSH1 0x40 MLOAD DUP1 SWAP2 SUB SWAP1 RETURN JUMPDEST PUSH0 SELFBALANCE SWAP1 POP SWAP1 JUMP JUMPDEST PUSH1 0x5 PUSH1 0x20 MSTORE DUP1 PUSH0 MSTORE PUSH1 0x40 PUSH0 KECCAK256 PUSH0 SWAP2 POP SWAP1 POP DUP1 PUSH0 ADD SLOAD SWAP1 DUP1 PUSH1 0x1 ADD DUP1 SLOAD PUSH2 0x88C SWAP1 PUSH2 0x480C JUMP JUMPDEST DUP1 PUSH1 0x1F ADD PUSH1 0x20 DUP1 SWAP2 DIV MUL PUSH1 0x20 ADD PUSH1 0x40 MLOAD SWAP1 DUP2 ADD PUSH1 0x40 MSTORE DUP1 SWAP3 SWAP2 SWAP1 DUP2 DUP2 MSTORE PUSH1 0x20 ADD DUP3 DUP1 SLOAD PUSH2 0x8B8 SWAP1 PUSH2 0x480C JUMP JUMPDEST DUP1 ISZERO PUSH2 0x903 JUMPI DUP1 PUSH1 0x1F LT PUSH2 0x8DA JUMPI PUSH2 0x100 DUP1 DUP4 SLOAD DIV MUL DUP4 MSTORE SWAP2 PUSH1 0x20 ADD SWAP2 PUSH2 0x903 JUMP JUMPDEST DUP3 ADD SWAP2 SWAP1 PUSH0 MSTORE PUSH1 0x20 PUSH0 KECCAK256 SWAP1 JUMPDEST DUP2 SLOAD DUP2 MSTORE SWAP1 PUSH1 0x1 ADD SWAP1 PUSH1 0x20 ADD DUP1 DUP4 GT PUSH2 0x8E6 JUMPI DUP3 SWAP1 SUB PUSH1 0x1F AND DUP3 ADD SWAP2 JUMPDEST POP POP POP POP POP SWAP1 DUP1 PUSH1 0x2 ADD PUSH0 SWAP1 SLOAD SWAP1 PUSH2 0x100 EXP SWAP1 DIV PUSH1 0xFF AND SWAP1 DUP1 PUSH1 0x2 ADD PUSH1 0x1 SWAP1 SLOAD SWAP1 PUSH2 0x100 EXP SWAP1 DIV PUSH20 0xFFFFFFFFFFFFFFFFFFFFFFFFFFFFFFFFFFFFFFFF AND SWAP1 DUP1 PUSH1 0x3 ADD SLOAD SWAP1 POP DUP6 JUMP JUMPDEST PUSH1 0x2 DUP1 PUSH0 ADD SLOAD SWAP1 POP DUP2 JUMP JUMPDEST PUSH0 PUSH2 0x95F PUSH2 0x2D0E JUMP JUMPDEST DUP2 PUSH1 0x6 PUSH0 DUP7 DUP2 MSTORE PUSH1 0x20 ADD SWAP1 DUP2 MSTORE PUSH1 0x20 ADD PUSH0 KECCAK256 PUSH0 DUP6 DUP2 MSTORE PUSH1 0x20 ADD SWAP1 DUP2 MSTORE PUSH1 0x20 ADD PUSH0 KECCAK256 SWAP1 DUP2 PUSH2 0x98C SWAP2 SWAP1 PUSH2 0x49DC JUMP JUMPDEST POP PUSH1 0x1 SWAP1 POP SWAP4 SWAP3 POP POP POP JUMP JUMPDEST PUSH0 PUSH0 PUSH0 PUSH0 PUSH1 0x4 PUSH0 DUP7 DUP2 MSTORE PUSH1 0x20 ADD SWAP1 DUP2 MSTORE PUSH1 0x20 ADD PUSH0 KECCAK256 PUSH1 0x3 ADD SLOAD SWAP1 POP PUSH0 PUSH1 0x4 PUSH0 DUP8 DUP2 MSTORE PUSH1 0x20 ADD SWAP1 DUP2 MSTORE PUSH1 0x20 ADD PUSH0 KECCAK256 PUSH1 0x4 ADD SLOAD SWAP1 POP TIMESTAMP DUP2 GT ISZERO PUSH2 0x9E4 JUMPI PUSH1 0x1 DUP3 DUP3 SWAP5 POP SWAP5 POP SWAP5 POP POP POP PUSH2 0x9F0 JUMP JUMPDEST PUSH0 DUP3 DUP3 SWAP5 POP SWAP5 POP SWAP5 POP POP POP JUMPDEST SWAP2 SWAP4 SWAP1 SWAP3 POP JUMP JUMPDEST PUSH2 0x9FF PUSH2 0x2FC1 JUMP JUMPDEST PUSH1 0x4 PUSH0 DUP4 DUP2 MSTORE PUSH1 0x20 ADD SWAP1 DUP2 MSTORE PUSH1 0x20 ADD PUSH0 KECCAK256 PUSH1 0x40 MLOAD DUP1 PUSH2 0x1C0 ADD PUSH1 0x40 MSTORE SWAP1 DUP2 PUSH0 DUP3 ADD DUP1 SLOAD PUSH2 0xA2B SWAP1 PUSH2 0x480C JUMP JUMPDEST DUP1 PUSH1 0x1F ADD PUSH1 0x20 DUP1 SWAP2 DIV MUL PUSH1 0x20 ADD PUSH1 0x40 MLOAD SWAP1 DUP2 ADD PUSH1 0x40 MSTORE DUP1 SWAP3 SWAP2 SWAP1 DUP2 DUP2 MSTORE PUSH1 0x20 ADD DUP3 DUP1 SLOAD PUSH2 0xA57 SWAP1 PUSH2 0x480C JUMP JUMPDEST DUP1 ISZERO PUSH2 0xAA2 JUMPI DUP1 PUSH1 0x1F LT PUSH2 0xA79 JUMPI PUSH2 0x100 DUP1 DUP4 SLOAD DIV MUL DUP4 MSTORE SWAP2 PUSH1 0x20 ADD SWAP2 PUSH2 0xAA2 JUMP JUMPDEST DUP3 ADD SWAP2 SWAP1 PUSH0 MSTORE PUSH1 0x20 PUSH0 KECCAK256 SWAP1 JUMPDEST DUP2 SLOAD DUP2 MSTORE SWAP1 PUSH1 0x1 ADD SWAP1 PUSH1 0x20 ADD DUP1 DUP4 GT PUSH2 0xA85 JUMPI DUP3 SWAP1 SUB PUSH1 0x1F AND DUP3 ADD SWAP2 JUMPDEST POP POP POP POP POP DUP2 MSTORE PUSH1 0x20 ADD PUSH1 0x1 DUP3 ADD DUP1 SLOAD PUSH2 0xABB SWAP1 PUSH2 0x480C JUMP JUMPDEST DUP1 PUSH1 0x1F ADD PUSH1 0x20 DUP1 SWAP2 DIV MUL PUSH1 0x20 ADD PUSH1 0x40 MLOAD SWAP1 DUP2 ADD PUSH1 0x40 MSTORE DUP1 SWAP3 SWAP2 SWAP1 DUP2 DUP2 MSTORE PUSH1 0x20 ADD DUP3 DUP1 SLOAD PUSH2 0xAE7 SWAP1 PUSH2 0x480C JUMP JUMPDEST DUP1 ISZERO PUSH2 0xB32 JUMPI DUP1 PUSH1 0x1F LT PUSH2 0xB09 JUMPI PUSH2 0x100 DUP1 DUP4 SLOAD DIV MUL DUP4 MSTORE SWAP2 PUSH1 0x20 ADD SWAP2 PUSH2 0xB32 JUMP JUMPDEST DUP3 ADD SWAP2 SWAP1 PUSH0 MSTORE PUSH1 0x20 PUSH0 KECCAK256 SWAP1 JUMPDEST DUP2 SLOAD DUP2 MSTORE SWAP1 PUSH1 0x1 ADD SWAP1 PUSH1 0x20 ADD DUP1 DUP4 GT PUSH2 0xB15 JUMPI DUP3 SWAP1 SUB PUSH1 0x1F AND DUP3 ADD SWAP2 JUMPDEST POP POP POP POP POP DUP2 MSTORE PUSH1 0x20 ADD PUSH1 0x2 DUP3 ADD DUP1 SLOAD DUP1 PUSH1 0x20 MUL PUSH1 0x20 ADD PUSH1 0x40 MLOAD SWAP1 DUP2 ADD PUSH1 0x40 MSTORE DUP1 SWAP3 SWAP2 SWAP1 DUP2 DUP2 MSTORE PUSH1 0x20 ADD PUSH0 SWAP1 JUMPDEST DUP3 DUP3 LT ISZERO PUSH2 0xC07 JUMPI DUP4 DUP3 SWAP1 PUSH0 MSTORE PUSH1 0x20 PUSH0 KECCAK256 ADD DUP1 SLOAD PUSH2 0xB7C SWAP1 PUSH2 0x480C JUMP JUMPDEST DUP1 PUSH1 0x1F ADD PUSH1 0x20 DUP1 SWAP2 DIV MUL PUSH1 0x20 ADD PUSH1 0x40 MLOAD SWAP1 DUP2 ADD PUSH1 0x40 MSTORE DUP1 SWAP3 SWAP2 SWAP1 DUP2 DUP2 MSTORE PUSH1 0x20 ADD DUP3 DUP1 SLOAD PUSH2 0xBA8 SWAP1 PUSH2 0x480C JUMP JUMPDEST DUP1 ISZERO PUSH2 0xBF3 JUMPI DUP1 PUSH1 0x1F LT PUSH2 0xBCA JUMPI PUSH2 0x100 DUP1 DUP4 SLOAD DIV MUL DUP4 MSTORE SWAP2 PUSH1 0x20 ADD SWAP2 PUSH2 0xBF3 JUMP JUMPDEST DUP3 ADD SWAP2 SWAP1 PUSH0 MSTORE PUSH1 0x20 PUSH0 KECCAK256 SWAP1 JUMPDEST DUP2 SLOAD DUP2 MSTORE SWAP1 PUSH1 0x1 ADD SWAP1 PUSH1 0x20 ADD DUP1 DUP4 GT PUSH2 0xBD6 JUMPI DUP3 SWAP1 SUB PUSH1 0x1F AND DUP3 ADD SWAP2 JUMPDEST POP POP POP POP POP DUP2 MSTORE PUSH1 0x20 ADD SWAP1 PUSH1 0x1 ADD SWAP1 PUSH2 0xB5F JUMP JUMPDEST POP POP POP POP DUP2 MSTORE PUSH1 0x20 ADD PUSH1 0x3 DUP3 ADD SLOAD DUP2 MSTORE PUSH1 0x20 ADD PUSH1 0x4 DUP3 ADD SLOAD DUP2 MSTORE PUSH1 0x20 ADD PUSH1 0x5 DUP3 ADD DUP1 SLOAD DUP1 PUSH1 0x20 MUL PUSH1 0x20 ADD PUSH1 0x40 MLOAD SWAP1 DUP2 ADD PUSH1 0x40 MSTORE DUP1 SWAP3 SWAP2 SWAP1 DUP2 DUP2 MSTORE PUSH1 0x20 ADD DUP3 DUP1 SLOAD DUP1 ISZERO PUSH2 0xCA5 JUMPI PUSH1 0x20 MUL DUP3 ADD SWAP2 SWAP1 PUSH0 MSTORE PUSH1 0x20 PUSH0 KECCAK256 SWAP1 JUMPDEST DUP2 PUSH0 SWAP1 SLOAD SWAP1 PUSH2 0x100 EXP SWAP1 DIV PUSH20 0xFFFFFFFFFFFFFFFFFFFFFFFFFFFFFFFFFFFFFFFF AND PUSH20 0xFFFFFFFFFFFFFFFFFFFFFFFFFFFFFFFFFFFFFFFF AND DUP2 MSTORE PUSH1 0x20 ADD SWAP1 PUSH1 0x1 ADD SWAP1 DUP1 DUP4 GT PUSH2 0xC5C JUMPI JUMPDEST POP POP POP POP POP DUP2 MSTORE PUSH1 0x20 ADD PUSH1 0x6 DUP3 ADD PUSH0 SWAP1 SLOAD SWAP1 PUSH2 0x100 EXP SWAP1 DIV PUSH20 0xFFFFFFFFFFFFFFFFFFFFFFFFFFFFFFFFFFFFFFFF AND PUSH20 0xFFFFFFFFFFFFFFFFFFFFFFFFFFFFFFFFFFFFFFFF AND PUSH20 0xFFFFFFFFFFFFFFFFFFFFFFFFFFFFFFFFFFFFFFFF AND DUP2 MSTORE PUSH1 0x20 ADD PUSH1 0x7 DUP3 ADD SLOAD DUP2 MSTORE PUSH1 0x20 ADD PUSH1 0x8 DUP3 ADD PUSH0 SWAP1 SLOAD SWAP1 PUSH2 0x100 EXP SWAP1 DIV PUSH1 0xFF AND ISZERO ISZERO ISZERO ISZERO DUP2 MSTORE PUSH1 0x20 ADD PUSH1 0x8 DUP3 ADD PUSH1 0x1 SWAP1 SLOAD SWAP1 PUSH2 0x100 EXP SWAP1 DIV PUSH20 0xFFFFFFFFFFFFFFFFFFFFFFFFFFFFFFFFFFFFFFFF AND PUSH20 0xFFFFFFFFFFFFFFFFFFFFFFFFFFFFFFFFFFFFFFFF AND PUSH20 0xFFFFFFFFFFFFFFFFFFFFFFFFFFFFFFFFFFFFFFFF AND DUP2 MSTORE PUSH1 0x20 ADD PUSH1 0x9 DUP3 ADD SLOAD DUP2 MSTORE PUSH1 0x20 ADD PUSH1 0xA DUP3 ADD PUSH0 SWAP1 SLOAD SWAP1 PUSH2 0x100 EXP SWAP1 DIV PUSH1 0xFF AND ISZERO ISZERO ISZERO ISZERO DUP2 MSTORE PUSH1 0x20 ADD PUSH1 0xB DUP3 ADD SLOAD DUP2 MSTORE PUSH1 0x20 ADD PUSH1 0xC DUP3 ADD SLOAD DUP2 MSTORE POP POP SWAP1 POP SWAP2 SWAP1 POP JUMP JUMPDEST PUSH1 0x7 PUSH1 0x20 MSTORE DUP2 PUSH0 MSTORE PUSH1 0x40 PUSH0 KECCAK256 PUSH1 0x20 MSTORE DUP1 PUSH0 MSTORE PUSH1 0x40 PUSH0 KECCAK256 PUSH0 SWAP2 POP SWAP2 POP POP SLOAD DUP2 JUMP JUMPDEST DUP10 PUSH2 0xDE5 PUSH2 0x2D95 JUMP JUMPDEST PUSH20 0xFFFFFFFFFFFFFFFFFFFFFFFFFFFFFFFFFFFFFFFF AND PUSH1 0x4 PUSH0 DUP4 DUP2 MSTORE PUSH1 0x20 ADD SWAP1 DUP2 MSTORE PUSH1 0x20 ADD PUSH0 KECCAK256 PUSH1 0x6 ADD PUSH0 SWAP1 SLOAD SWAP1 PUSH2 0x100 EXP SWAP1 DIV PUSH20 0xFFFFFFFFFFFFFFFFFFFFFFFFFFFFFFFFFFFFFFFF AND PUSH20 0xFFFFFFFFFFFFFFFFFFFFFFFFFFFFFFFFFFFFFFFF AND EQ PUSH2 0xE85 JUMPI PUSH1 0x40 MLOAD PUSH32 0x8C379A000000000000000000000000000000000000000000000000000000000 DUP2 MSTORE PUSH1 0x4 ADD PUSH2 0xE7C SWAP1 PUSH2 0x4B1B JUMP JUMPDEST PUSH1 0x40 MLOAD DUP1 SWAP2 SUB SWAP1 REVERT JUMPDEST DUP10 PUSH1 0x4 PUSH0 DUP14 DUP2 MSTORE PUSH1 0x20 ADD SWAP1 DUP2 MSTORE PUSH1 0x20 ADD PUSH0 KECCAK256 PUSH0 ADD SWAP1 DUP2 PUSH2 0xEA5 SWAP2 SWAP1 PUSH2 0x49DC JUMP JUMPDEST POP DUP9 PUSH1 0x4 PUSH0 DUP14 DUP2 MSTORE PUSH1 0x20 ADD SWAP1 DUP2 MSTORE PUSH1 0x20 ADD PUSH0 KECCAK256 PUSH1 0x1 ADD SWAP1 DUP2 PUSH2 0xEC7 SWAP2 SWAP1 PUSH2 0x4B91 JUMP JUMPDEST POP DUP8 PUSH1 0x4 PUSH0 DUP14 DUP2 MSTORE PUSH1 0x20 ADD SWAP1 DUP2 MSTORE PUSH1 0x20 ADD PUSH0 KECCAK256 PUSH1 0x2 ADD SWAP1 DUP1 MLOAD SWAP1 PUSH1 0x20 ADD SWAP1 PUSH2 0xEF0 SWAP3 SWAP2 SWAP1 PUSH2 0x3056 JUMP JUMPDEST POP DUP7 PUSH1 0x4 PUSH0 DUP14 DUP2 MSTORE PUSH1 0x20 ADD SWAP1 DUP2 MSTORE PUSH1 0x20 ADD PUSH0 KECCAK256 PUSH1 0x5 ADD SWAP1 DUP1 MLOAD SWAP1 PUSH1 0x20 ADD SWAP1 PUSH2 0xF19 SWAP3 SWAP2 SWAP1 PUSH2 0x30AD JUMP JUMPDEST POP DUP6 PUSH1 0x4 PUSH0 DUP14 DUP2 MSTORE PUSH1 0x20 ADD SWAP1 DUP2 MSTORE PUSH1 0x20 ADD PUSH0 KECCAK256 PUSH1 0x7 ADD DUP2 SWAP1 SSTORE POP DUP5 PUSH1 0x4 PUSH0 DUP14 DUP2 MSTORE PUSH1 0x20 ADD SWAP1 DUP2 MSTORE PUSH1 0x20 ADD PUSH0 KECCAK256 PUSH1 0x8 ADD PUSH0 PUSH2 0x100 EXP DUP2 SLOAD DUP2 PUSH1 0xFF MUL NOT AND SWAP1 DUP4 ISZERO ISZERO MUL OR SWAP1 SSTORE POP DUP4 PUSH1 0x4 PUSH0 DUP14 DUP2 MSTORE PUSH1 0x20 ADD SWAP1 DUP2 MSTORE PUSH1 0x20 ADD PUSH0 KECCAK256 PUSH1 0x8 ADD PUSH1 0x1 PUSH2 0x100 EXP DUP2 SLOAD DUP2 PUSH20 0xFFFFFFFFFFFFFFFFFFFFFFFFFFFFFFFFFFFFFFFF MUL NOT AND SWAP1 DUP4 PUSH20 0xFFFFFFFFFFFFFFFFFFFFFFFFFFFFFFFFFFFFFFFF AND MUL OR SWAP1 SSTORE POP DUP3 PUSH1 0x4 PUSH0 DUP14 DUP2 MSTORE PUSH1 0x20 ADD SWAP1 DUP2 MSTORE PUSH1 0x20 ADD PUSH0 KECCAK256 PUSH1 0x9 ADD DUP2 SWAP1 SSTORE POP DUP2 PUSH1 0x4 PUSH0 DUP14 DUP2 MSTORE PUSH1 0x20 ADD SWAP1 DUP2 MSTORE PUSH1 0x20 ADD PUSH0 KECCAK256 PUSH1 0xA ADD PUSH0 PUSH2 0x100 EXP DUP2 SLOAD DUP2 PUSH1 0xFF MUL NOT AND SWAP1 DUP4 ISZERO ISZERO MUL OR SWAP1 SSTORE POP PUSH2 0xFFD PUSH2 0x2D95 JUMP JUMPDEST PUSH20 0xFFFFFFFFFFFFFFFFFFFFFFFFFFFFFFFFFFFFFFFF AND DUP12 PUSH32 0xA3A8F6E6F61CD97A866C0816363D95DADC283C7D9697713AD96302D0CD2EA14D PUSH1 0x40 MLOAD PUSH1 0x40 MLOAD DUP1 SWAP2 SUB SWAP1 LOG3 POP POP POP POP POP POP POP POP POP POP POP JUMP JUMPDEST PUSH1 0x8 PUSH1 0x20 MSTORE DUP2 PUSH0 MSTORE PUSH1 0x40 PUSH0 KECCAK256 DUP2 DUP2 SLOAD DUP2 LT PUSH2 0x1066 JUMPI PUSH0 DUP1 REVERT JUMPDEST SWAP1 PUSH0 MSTORE PUSH1 0x20 PUSH0 KECCAK256 ADD PUSH0 SWAP2 POP SWAP2 POP POP SLOAD DUP2 JUMP JUMPDEST PUSH2 0x1080 PUSH2 0x2D0E JUMP JUMPDEST PUSH0 SELFBALANCE SWAP1 POP PUSH0 PUSH2 0x108D PUSH2 0x1CAB JUMP JUMPDEST PUSH20 0xFFFFFFFFFFFFFFFFFFFFFFFFFFFFFFFFFFFFFFFF AND DUP3 PUSH1 0x40 MLOAD PUSH2 0x10B0 SWAP1 PUSH2 0x4C8D JUMP JUMPDEST PUSH0 PUSH1 0x40 MLOAD DUP1 DUP4 SUB DUP2 DUP6 DUP8 GAS CALL SWAP3 POP POP POP RETURNDATASIZE DUP1 PUSH0 DUP2 EQ PUSH2 0x10EA JUMPI PUSH1 0x40 MLOAD SWAP2 POP PUSH1 0x1F NOT PUSH1 0x3F RETURNDATASIZE ADD AND DUP3 ADD PUSH1 0x40 MSTORE RETURNDATASIZE DUP3 MSTORE RETURNDATASIZE PUSH0 PUSH1 0x20 DUP5 ADD RETURNDATACOPY PUSH2 0x10EF JUMP JUMPDEST PUSH1 0x60 SWAP2 POP JUMPDEST POP POP SWAP1 POP DUP1 PUSH2 0x1133 JUMPI PUSH1 0x40 MLOAD PUSH32 0x8C379A000000000000000000000000000000000000000000000000000000000 DUP2 MSTORE PUSH1 0x4 ADD PUSH2 0x112A SWAP1 PUSH2 0x4CEB JUMP JUMPDEST PUSH1 0x40 MLOAD DUP1 SWAP2 SUB SWAP1 REVERT JUMPDEST POP POP JUMP JUMPDEST PUSH1 0x60 PUSH1 0x8 PUSH0 DUP4 PUSH20 0xFFFFFFFFFFFFFFFFFFFFFFFFFFFFFFFFFFFFFFFF AND PUSH20 0xFFFFFFFFFFFFFFFFFFFFFFFFFFFFFFFFFFFFFFFF AND DUP2 MSTORE PUSH1 0x20 ADD SWAP1 DUP2 MSTORE PUSH1 0x20 ADD PUSH0 KECCAK256 DUP1 SLOAD DUP1 PUSH1 0x20 MUL PUSH1 0x20 ADD PUSH1 0x40 MLOAD SWAP1 DUP2 ADD PUSH1 0x40 MSTORE DUP1 SWAP3 SWAP2 SWAP1 DUP2 DUP2 MSTORE PUSH1 0x20 ADD DUP3 DUP1 SLOAD DUP1 ISZERO PUSH2 0x11BE JUMPI PUSH1 0x20 MUL DUP3 ADD SWAP2 SWAP1 PUSH0 MSTORE PUSH1 0x20 PUSH0 KECCAK256 SWAP1 JUMPDEST DUP2 SLOAD DUP2 MSTORE PUSH1 0x20 ADD SWAP1 PUSH1 0x1 ADD SWAP1 DUP1 DUP4 GT PUSH2 0x11AA JUMPI JUMPDEST POP POP POP POP POP SWAP1 POP SWAP2 SWAP1 POP JUMP JUMPDEST PUSH2 0x11D2 PUSH2 0x2D0E JUMP JUMPDEST PUSH2 0x11DA PUSH2 0x2D9C JUMP JUMPDEST JUMP JUMPDEST PUSH2 0x11E4 PUSH2 0x2D0E JUMP JUMPDEST PUSH0 DUP3 PUSH20 0xFFFFFFFFFFFFFFFFFFFFFFFFFFFFFFFFFFFFFFFF AND DUP3 PUSH1 0x40 MLOAD PUSH2 0x1209 SWAP1 PUSH2 0x4C8D JUMP JUMPDEST PUSH0 PUSH1 0x40 MLOAD DUP1 DUP4 SUB DUP2 DUP6 DUP8 GAS CALL SWAP3 POP POP POP RETURNDATASIZE DUP1 PUSH0 DUP2 EQ PUSH2 0x1243 JUMPI PUSH1 0x40 MLOAD SWAP2 POP PUSH1 0x1F NOT PUSH1 0x3F RETURNDATASIZE ADD AND DUP3 ADD PUSH1 0x40 MSTORE RETURNDATASIZE DUP3 MSTORE RETURNDATASIZE PUSH0 PUSH1 0x20 DUP5 ADD RETURNDATACOPY PUSH2 0x1248 JUMP JUMPDEST PUSH1 0x60 SWAP2 POP JUMPDEST POP POP SWAP1 POP DUP1 PUSH2 0x128C JUMPI PUSH1 0x40 MLOAD PUSH32 0x8C379A000000000000000000000000000000000000000000000000000000000 DUP2 MSTORE PUSH1 0x4 ADD PUSH2 0x1283 SWAP1 PUSH2 0x4CEB JUMP JUMPDEST PUSH1 0x40 MLOAD DUP1 SWAP2 SUB SWAP1 REVERT JUMPDEST POP POP POP JUMP JUMPDEST PUSH0 PUSH0 PUSH1 0x14 SWAP1 SLOAD SWAP1 PUSH2 0x100 EXP SWAP1 DIV PUSH1 0xFF AND SWAP1 POP SWAP1 JUMP JUMPDEST PUSH0 PUSH2 0x12AF PUSH2 0x2D0E JUMP JUMPDEST PUSH1 0x6 PUSH0 DUP5 DUP2 MSTORE PUSH1 0x20 ADD SWAP1 DUP2 MSTORE PUSH1 0x20 ADD PUSH0 KECCAK256 PUSH0 DUP4 DUP2 MSTORE PUSH1 0x20 ADD SWAP1 DUP2 MSTORE PUSH1 0x20 ADD PUSH0 KECCAK256 PUSH0 PUSH2 0x12DA SWAP2 SWAP1 PUSH2 0x3134 JUMP JUMPDEST PUSH1 0x1 SWAP1 POP SWAP3 SWAP2 POP POP JUMP JUMPDEST PUSH0 TIMESTAMP PUSH1 0x4 PUSH0 DUP5 DUP2 MSTORE PUSH1 0x20 ADD SWAP1 DUP2 MSTORE PUSH1 0x20 ADD PUSH0 KECCAK256 PUSH1 0x4 ADD SLOAD GT PUSH2 0x1307 JUMPI PUSH1 0x1 PUSH2 0x1309 JUMP JUMPDEST PUSH0 JUMPDEST SWAP1 POP SWAP2 SWAP1 POP JUMP JUMPDEST PUSH2 0x1318 PUSH2 0x2D0E JUMP JUMPDEST PUSH2 0x1321 PUSH0 PUSH2 0x2DFD JUMP JUMPDEST JUMP JUMPDEST PUSH0 PUSH0 PUSH0 SWAP1 POP JUMPDEST PUSH1 0x4 PUSH0 DUP6 DUP2 MSTORE PUSH1 0x20 ADD SWAP1 DUP2 MSTORE PUSH1 0x20 ADD PUSH0 KECCAK256 PUSH1 0x5 ADD DUP1 SLOAD SWAP1 POP DUP2 GT PUSH2 0x13E4 JUMPI DUP3 PUSH20 0xFFFFFFFFFFFFFFFFFFFFFFFFFFFFFFFFFFFFFFFF AND PUSH1 0x4 PUSH0 DUP7 DUP2 MSTORE PUSH1 0x20 ADD SWAP1 DUP2 MSTORE PUSH1 0x20 ADD PUSH0 KECCAK256 PUSH1 0x5 ADD DUP3 DUP2 SLOAD DUP2 LT PUSH2 0x1384 JUMPI PUSH2 0x1383 PUSH2 0x4D09 JUMP JUMPDEST JUMPDEST SWAP1 PUSH0 MSTORE PUSH1 0x20 PUSH0 KECCAK256 ADD PUSH0 SWAP1 SLOAD SWAP1 PUSH2 0x100 EXP SWAP1 DIV PUSH20 0xFFFFFFFFFFFFFFFFFFFFFFFFFFFFFFFFFFFFFFFF AND PUSH20 0xFFFFFFFFFFFFFFFFFFFFFFFFFFFFFFFFFFFFFFFF AND SUB PUSH2 0x13D1 JUMPI PUSH1 0x1 SWAP2 POP POP PUSH2 0x1424 JUMP JUMPDEST DUP1 DUP1 PUSH2 0x13DC SWAP1 PUSH2 0x4D63 JUMP JUMPDEST SWAP2 POP POP PUSH2 0x1329 JUMP JUMPDEST POP DUP3 DUP3 PUSH1 0x40 MLOAD PUSH32 0xF2E7FC4700000000000000000000000000000000000000000000000000000000 DUP2 MSTORE PUSH1 0x4 ADD PUSH2 0x141B SWAP3 SWAP2 SWAP1 PUSH2 0x4DAA JUMP JUMPDEST PUSH1 0x40 MLOAD DUP1 SWAP2 SUB SWAP1 REVERT JUMPDEST SWAP3 SWAP2 POP POP JUMP JUMPDEST PUSH0 DUP2 PUSH20 0xFFFFFFFFFFFFFFFFFFFFFFFFFFFFFFFFFFFFFFFF AND PUSH4 0x70A08231 ADDRESS PUSH1 0x40 MLOAD DUP3 PUSH4 0xFFFFFFFF AND PUSH1 0xE0 SHL DUP2 MSTORE PUSH1 0x4 ADD PUSH2 0x1464 SWAP2 SWAP1 PUSH2 0x40F9 JUMP JUMPDEST PUSH1 0x20 PUSH1 0x40 MLOAD DUP1 DUP4 SUB DUP2 DUP7 GAS STATICCALL ISZERO DUP1 ISZERO PUSH2 0x147F JUMPI RETURNDATASIZE PUSH0 PUSH0 RETURNDATACOPY RETURNDATASIZE PUSH0 REVERT JUMPDEST POP POP POP POP PUSH1 0x40 MLOAD RETURNDATASIZE PUSH1 0x1F NOT PUSH1 0x1F DUP3 ADD AND DUP3 ADD DUP1 PUSH1 0x40 MSTORE POP DUP2 ADD SWAP1 PUSH2 0x14A3 SWAP2 SWAP1 PUSH2 0x4DE5 JUMP JUMPDEST SWAP1 POP SWAP2 SWAP1 POP JUMP JUMPDEST PUSH0 PUSH1 0x4 PUSH0 DUP8 DUP2 MSTORE PUSH1 0x20 ADD SWAP1 DUP2 MSTORE PUSH1 0x20 ADD PUSH0 KECCAK256 PUSH1 0x5 ADD DUP1 SLOAD SWAP1 POP GT ISZERO PUSH2 0x14DC JUMPI PUSH2 0x14DA DUP6 PUSH2 0x14D5 PUSH2 0x2D95 JUMP JUMPDEST PUSH2 0x1323 JUMP JUMPDEST POP JUMPDEST TIMESTAMP PUSH1 0x4 PUSH0 DUP8 DUP2 MSTORE PUSH1 0x20 ADD SWAP1 DUP2 MSTORE PUSH1 0x20 ADD PUSH0 KECCAK256 PUSH1 0x3 ADD SLOAD GT ISZERO PUSH2 0x1535 JUMPI TIMESTAMP PUSH1 0x40 MLOAD PUSH32 0x2A35A32400000000000000000000000000000000000000000000000000000000 DUP2 MSTORE PUSH1 0x4 ADD PUSH2 0x152C SWAP2 SWAP1 PUSH2 0x3288 JUMP JUMPDEST PUSH1 0x40 MLOAD DUP1 SWAP2 SUB SWAP1 REVERT JUMPDEST TIMESTAMP PUSH1 0x4 PUSH0 DUP8 DUP2 MSTORE PUSH1 0x20 ADD SWAP1 DUP2 MSTORE PUSH1 0x20 ADD PUSH0 KECCAK256 PUSH1 0x4 ADD SLOAD GT PUSH2 0x158B JUMPI PUSH1 0x40 MLOAD PUSH32 0x8C379A000000000000000000000000000000000000000000000000000000000 DUP2 MSTORE PUSH1 0x4 ADD PUSH2 0x1582 SWAP1 PUSH2 0x4E5A JUMP JUMPDEST PUSH1 0x40 MLOAD DUP1 SWAP2 SUB SWAP1 REVERT JUMPDEST PUSH1 0x4 PUSH0 DUP7 DUP2 MSTORE PUSH1 0x20 ADD SWAP1 DUP2 MSTORE PUSH1 0x20 ADD PUSH0 KECCAK256 PUSH1 0xA ADD PUSH0 SWAP1 SLOAD SWAP1 PUSH2 0x100 EXP SWAP1 DIV PUSH1 0xFF AND ISZERO PUSH2 0x15EC JUMPI PUSH1 0x40 MLOAD PUSH32 0x8C379A000000000000000000000000000000000000000000000000000000000 DUP2 MSTORE PUSH1 0x4 ADD PUSH2 0x15E3 SWAP1 PUSH2 0x4EC2 JUMP JUMPDEST PUSH1 0x40 MLOAD DUP1 SWAP2 SUB SWAP1 REVERT JUMPDEST PUSH1 0x4 PUSH0 DUP7 DUP2 MSTORE PUSH1 0x20 ADD SWAP1 DUP2 MSTORE PUSH1 0x20 ADD PUSH0 KECCAK256 PUSH1 0x7 ADD SLOAD PUSH1 0x7 PUSH0 DUP8 DUP2 MSTORE PUSH1 0x20 ADD SWAP1 DUP2 MSTORE PUSH1 0x20 ADD PUSH0 KECCAK256 PUSH0 PUSH2 0x161B PUSH2 0x2D95 JUMP JUMPDEST PUSH20 0xFFFFFFFFFFFFFFFFFFFFFFFFFFFFFFFFFFFFFFFF AND PUSH20 0xFFFFFFFFFFFFFFFFFFFFFFFFFFFFFFFFFFFFFFFF AND DUP2 MSTORE PUSH1 0x20 ADD SWAP1 DUP2 MSTORE PUSH1 0x20 ADD PUSH0 KECCAK256 SLOAD LT PUSH2 0x169E JUMPI PUSH2 0x1662 PUSH2 0x2D95 JUMP JUMPDEST PUSH1 0x40 MLOAD PUSH32 0x4F3B74B000000000000000000000000000000000000000000000000000000000 DUP2 MSTORE PUSH1 0x4 ADD PUSH2 0x1695 SWAP2 SWAP1 PUSH2 0x40F9 JUMP JUMPDEST PUSH1 0x40 MLOAD DUP1 SWAP2 SUB SWAP1 REVERT JUMPDEST PUSH1 0x4 PUSH0 DUP7 DUP2 MSTORE PUSH1 0x20 ADD SWAP1 DUP2 MSTORE PUSH1 0x20 ADD PUSH0 KECCAK256 PUSH1 0x8 ADD PUSH0 SWAP1 SLOAD SWAP1 PUSH2 0x100 EXP SWAP1 DIV PUSH1 0xFF AND ISZERO PUSH2 0x1A94 JUMPI PUSH0 PUSH20 0xFFFFFFFFFFFFFFFFFFFFFFFFFFFFFFFFFFFFFFFF AND PUSH1 0x4 PUSH0 DUP8 DUP2 MSTORE PUSH1 0x20 ADD SWAP1 DUP2 MSTORE PUSH1 0x20 ADD PUSH0 KECCAK256 PUSH1 0x8 ADD PUSH1 0x1 SWAP1 SLOAD SWAP1 PUSH2 0x100 EXP SWAP1 DIV PUSH20 0xFFFFFFFFFFFFFFFFFFFFFFFFFFFFFFFFFFFFFFFF AND PUSH20 0xFFFFFFFFFFFFFFFFFFFFFFFFFFFFFFFFFFFFFFFF AND SUB PUSH2 0x187B JUMPI PUSH1 0x4 PUSH0 DUP7 DUP2 MSTORE PUSH1 0x20 ADD SWAP1 DUP2 MSTORE PUSH1 0x20 ADD PUSH0 KECCAK256 PUSH1 0x9 ADD SLOAD CALLVALUE LT ISZERO PUSH2 0x179A JUMPI PUSH1 0x4 PUSH0 DUP7 DUP2 MSTORE PUSH1 0x20 ADD SWAP1 DUP2 MSTORE PUSH1 0x20 ADD PUSH0 KECCAK256 PUSH1 0x9 ADD SLOAD CALLVALUE PUSH1 0x40 MLOAD PUSH32 0xBC03BCCD00000000000000000000000000000000000000000000000000000000 DUP2 MSTORE PUSH1 0x4 ADD PUSH2 0x1791 SWAP3 SWAP2 SWAP1 PUSH2 0x4EE0 JUMP JUMPDEST PUSH1 0x40 MLOAD DUP1 SWAP2 SUB SWAP1 REVERT JUMPDEST PUSH0 PUSH1 0x4 PUSH0 DUP8 DUP2 MSTORE PUSH1 0x20 ADD SWAP1 DUP2 MSTORE PUSH1 0x20 ADD PUSH0 KECCAK256 PUSH1 0x6 ADD PUSH0 SWAP1 SLOAD SWAP1 PUSH2 0x100 EXP SWAP1 DIV PUSH20 0xFFFFFFFFFFFFFFFFFFFFFFFFFFFFFFFFFFFFFFFF AND PUSH20 0xFFFFFFFFFFFFFFFFFFFFFFFFFFFFFFFFFFFFFFFF AND CALLVALUE PUSH1 0x40 MLOAD PUSH2 0x17F2 SWAP1 PUSH2 0x4C8D JUMP JUMPDEST PUSH0 PUSH1 0x40 MLOAD DUP1 DUP4 SUB DUP2 DUP6 DUP8 GAS CALL SWAP3 POP POP POP RETURNDATASIZE DUP1 PUSH0 DUP2 EQ PUSH2 0x182C JUMPI PUSH1 0x40 MLOAD SWAP2 POP PUSH1 0x1F NOT PUSH1 0x3F RETURNDATASIZE ADD AND DUP3 ADD PUSH1 0x40 MSTORE RETURNDATASIZE DUP3 MSTORE RETURNDATASIZE PUSH0 PUSH1 0x20 DUP5 ADD RETURNDATACOPY PUSH2 0x1831 JUMP JUMPDEST PUSH1 0x60 SWAP2 POP JUMPDEST POP POP SWAP1 POP DUP1 PUSH2 0x1875 JUMPI PUSH1 0x40 MLOAD PUSH32 0x8C379A000000000000000000000000000000000000000000000000000000000 DUP2 MSTORE PUSH1 0x4 ADD PUSH2 0x186C SWAP1 PUSH2 0x4CEB JUMP JUMPDEST PUSH1 0x40 MLOAD DUP1 SWAP2 SUB SWAP1 REVERT JUMPDEST POP PUSH2 0x1A93 JUMP JUMPDEST PUSH0 PUSH1 0x4 PUSH0 DUP8 DUP2 MSTORE PUSH1 0x20 ADD SWAP1 DUP2 MSTORE PUSH1 0x20 ADD PUSH0 KECCAK256 PUSH1 0x8 ADD PUSH1 0x1 SWAP1 SLOAD SWAP1 PUSH2 0x100 EXP SWAP1 DIV PUSH20 0xFFFFFFFFFFFFFFFFFFFFFFFFFFFFFFFFFFFFFFFF AND PUSH20 0xFFFFFFFFFFFFFFFFFFFFFFFFFFFFFFFFFFFFFFFF AND PUSH4 0x65AEAA95 ADDRESS PUSH2 0x18D5 PUSH2 0x2D95 JUMP JUMPDEST PUSH1 0x40 MLOAD DUP4 PUSH4 0xFFFFFFFF AND PUSH1 0xE0 SHL DUP2 MSTORE PUSH1 0x4 ADD PUSH2 0x18F2 SWAP3 SWAP2 SWAP1 PUSH2 0x4F07 JUMP JUMPDEST PUSH1 0x20 PUSH1 0x40 MLOAD DUP1 DUP4 SUB DUP2 DUP7 GAS STATICCALL ISZERO DUP1 ISZERO PUSH2 0x190D JUMPI RETURNDATASIZE PUSH0 PUSH0 RETURNDATACOPY RETURNDATASIZE PUSH0 REVERT JUMPDEST POP POP POP POP PUSH1 0x40 MLOAD RETURNDATASIZE PUSH1 0x1F NOT PUSH1 0x1F DUP3 ADD AND DUP3 ADD DUP1 PUSH1 0x40 MSTORE POP DUP2 ADD SWAP1 PUSH2 0x1931 SWAP2 SWAP1 PUSH2 0x4DE5 JUMP JUMPDEST SWAP1 POP PUSH1 0x4 PUSH0 DUP8 DUP2 MSTORE PUSH1 0x20 ADD SWAP1 DUP2 MSTORE PUSH1 0x20 ADD PUSH0 KECCAK256 PUSH1 0x9 ADD SLOAD DUP2 EQ PUSH2 0x19A1 JUMPI PUSH1 0x4 PUSH0 DUP8 DUP2 MSTORE PUSH1 0x20 ADD SWAP1 DUP2 MSTORE PUSH1 0x20 ADD PUSH0 KECCAK256 PUSH1 0x9 ADD SLOAD DUP2 PUSH1 0x40 MLOAD PUSH32 0xA24F8BE900000000000000000000000000000000000000000000000000000000 DUP2 MSTORE PUSH1 0x4 ADD PUSH2 0x1998 SWAP3 SWAP2 SWAP1 PUSH2 0x4EE0 JUMP JUMPDEST PUSH1 0x40 MLOAD DUP1 SWAP2 SUB SWAP1 REVERT JUMPDEST PUSH1 0x4 PUSH0 DUP8 DUP2 MSTORE PUSH1 0x20 ADD SWAP1 DUP2 MSTORE PUSH1 0x20 ADD PUSH0 KECCAK256 PUSH1 0x8 ADD PUSH1 0x1 SWAP1 SLOAD SWAP1 PUSH2 0x100 EXP SWAP1 DIV PUSH20 0xFFFFFFFFFFFFFFFFFFFFFFFFFFFFFFFFFFFFFFFF AND PUSH20 0xFFFFFFFFFFFFFFFFFFFFFFFFFFFFFFFFFFFFFFFF AND PUSH4 0x760D9BBA PUSH2 0x19F9 PUSH2 0x2D95 JUMP JUMPDEST PUSH1 0x4 PUSH0 DUP11 DUP2 MSTORE PUSH1 0x20 ADD SWAP1 DUP2 MSTORE PUSH1 0x20 ADD PUSH0 KECCAK256 PUSH1 0x6 ADD PUSH0 SWAP1 SLOAD SWAP1 PUSH2 0x100 EXP SWAP1 DIV PUSH20 0xFFFFFFFFFFFFFFFFFFFFFFFFFFFFFFFFFFFFFFFF AND PUSH1 0x4 PUSH0 DUP12 DUP2 MSTORE PUSH1 0x20 ADD SWAP1 DUP2 MSTORE PUSH1 0x20 ADD PUSH0 KECCAK256 PUSH1 0x9 ADD SLOAD DUP8 DUP8 PUSH1 0x40 MLOAD DUP7 PUSH4 0xFFFFFFFF AND PUSH1 0xE0 SHL DUP2 MSTORE PUSH1 0x4 ADD PUSH2 0x1A64 SWAP6 SWAP5 SWAP4 SWAP3 SWAP2 SWAP1 PUSH2 0x4F2E JUMP JUMPDEST PUSH0 PUSH1 0x40 MLOAD DUP1 DUP4 SUB DUP2 PUSH0 DUP8 DUP1 EXTCODESIZE ISZERO DUP1 ISZERO PUSH2 0x1A7B JUMPI PUSH0 PUSH0 REVERT JUMPDEST POP GAS CALL ISZERO DUP1 ISZERO PUSH2 0x1A8D JUMPI RETURNDATASIZE PUSH0 PUSH0 RETURNDATACOPY RETURNDATASIZE PUSH0 REVERT JUMPDEST POP POP POP POP POP JUMPDEST JUMPDEST PUSH1 0x1 PUSH1 0x4 PUSH0 DUP8 DUP2 MSTORE PUSH1 0x20 ADD SWAP1 DUP2 MSTORE PUSH1 0x20 ADD PUSH0 KECCAK256 PUSH1 0xC ADD PUSH0 DUP3 DUP3 SLOAD PUSH2 0x1AB8 SWAP2 SWAP1 PUSH2 0x4F86 JUMP JUMPDEST SWAP3 POP POP DUP2 SWAP1 SSTORE POP PUSH1 0x1 PUSH1 0x7 PUSH0 DUP8 DUP2 MSTORE PUSH1 0x20 ADD SWAP1 DUP2 MSTORE PUSH1 0x20 ADD PUSH0 KECCAK256 PUSH0 PUSH2 0x1ADB PUSH2 0x2D95 JUMP JUMPDEST PUSH20 0xFFFFFFFFFFFFFFFFFFFFFFFFFFFFFFFFFFFFFFFF AND PUSH20 0xFFFFFFFFFFFFFFFFFFFFFFFFFFFFFFFFFFFFFFFF AND DUP2 MSTORE PUSH1 0x20 ADD SWAP1 DUP2 MSTORE PUSH1 0x20 ADD PUSH0 KECCAK256 PUSH0 DUP3 DUP3 SLOAD PUSH2 0x1B22 SWAP2 SWAP1 PUSH2 0x4F86 JUMP JUMPDEST SWAP3 POP POP DUP2 SWAP1 SSTORE POP PUSH2 0x1B33 PUSH1 0x2 PUSH2 0x2EBE JUMP JUMPDEST PUSH1 0x40 MLOAD DUP1 PUSH1 0xA0 ADD PUSH1 0x40 MSTORE DUP1 DUP7 DUP2 MSTORE PUSH1 0x20 ADD DUP6 DUP2 MSTORE PUSH1 0x20 ADD DUP5 PUSH1 0xFF AND DUP2 MSTORE PUSH1 0x20 ADD PUSH2 0x1B5B PUSH2 0x2D95 JUMP JUMPDEST PUSH20 0xFFFFFFFFFFFFFFFFFFFFFFFFFFFFFFFFFFFFFFFF AND DUP2 MSTORE PUSH1 0x20 ADD TIMESTAMP DUP2 MSTORE POP PUSH1 0x5 PUSH0 PUSH2 0x1B87 PUSH1 0x2 PUSH2 0x2ED2 JUMP JUMPDEST PUSH0 SHL DUP2 MSTORE PUSH1 0x20 ADD SWAP1 DUP2 MSTORE PUSH1 0x20 ADD PUSH0 KECCAK256 PUSH0 DUP3 ADD MLOAD DUP2 PUSH0 ADD SSTORE PUSH1 0x20 DUP3 ADD MLOAD DUP2 PUSH1 0x1 ADD SWAP1 DUP2 PUSH2 0x1BB3 SWAP2 SWAP1 PUSH2 0x49DC JUMP JUMPDEST POP PUSH1 0x40 DUP3 ADD MLOAD DUP2 PUSH1 0x2 ADD PUSH0 PUSH2 0x100 EXP DUP2 SLOAD DUP2 PUSH1 0xFF MUL NOT AND SWAP1 DUP4 PUSH1 0xFF AND MUL OR SWAP1 SSTORE POP PUSH1 0x60 DUP3 ADD MLOAD DUP2 PUSH1 0x2 ADD PUSH1 0x1 PUSH2 0x100 EXP DUP2 SLOAD DUP2 PUSH20 0xFFFFFFFFFFFFFFFFFFFFFFFFFFFFFFFFFFFFFFFF MUL NOT AND SWAP1 DUP4 PUSH20 0xFFFFFFFFFFFFFFFFFFFFFFFFFFFFFFFFFFFFFFFF AND MUL OR SWAP1 SSTORE POP PUSH1 0x80 DUP3 ADD MLOAD DUP2 PUSH1 0x3 ADD SSTORE SWAP1 POP POP PUSH2 0x1C30 PUSH2 0x2D95 JUMP JUMPDEST PUSH20 0xFFFFFFFFFFFFFFFFFFFFFFFFFFFFFFFFFFFFFFFF AND DUP6 PUSH32 0xCC8498191B5CE61C56EFC7B9FD57855FD7CD7F3BCB39131FD0693C6DBF67DCEC PUSH1 0x4 PUSH0 DUP10 DUP2 MSTORE PUSH1 0x20 ADD SWAP1 DUP2 MSTORE PUSH1 0x20 ADD PUSH0 KECCAK256 PUSH1 0xC ADD SLOAD PUSH1 0x40 MLOAD PUSH2 0x1C8A SWAP2 SWAP1 PUSH2 0x3288 JUMP JUMPDEST PUSH1 0x40 MLOAD DUP1 SWAP2 SUB SWAP1 LOG3 POP POP POP POP POP JUMP JUMPDEST PUSH2 0x1CA1 PUSH2 0x2D0E JUMP JUMPDEST PUSH2 0x1CA9 PUSH2 0x2EDE JUMP JUMPDEST JUMP JUMPDEST PUSH0 PUSH0 PUSH0 SWAP1 SLOAD SWAP1 PUSH2 0x100 EXP SWAP1 DIV PUSH20 0xFFFFFFFFFFFFFFFFFFFFFFFFFFFFFFFFFFFFFFFF AND SWAP1 POP SWAP1 JUMP JUMPDEST PUSH2 0x1CDA PUSH2 0x2D0E JUMP JUMPDEST DUP1 PUSH1 0x3 DUP2 SWAP1 SSTORE POP POP JUMP JUMPDEST PUSH2 0x1CEC PUSH2 0x2D0E JUMP JUMPDEST DUP5 PUSH20 0xFFFFFFFFFFFFFFFFFFFFFFFFFFFFFFFFFFFFFFFF AND PUSH4 0x760D9BBA ADDRESS DUP7 DUP7 DUP7 DUP7 PUSH1 0x40 MLOAD DUP7 PUSH4 0xFFFFFFFF AND PUSH1 0xE0 SHL DUP2 MSTORE PUSH1 0x4 ADD PUSH2 0x1D2D SWAP6 SWAP5 SWAP4 SWAP3 SWAP2 SWAP1 PUSH2 0x4F2E JUMP JUMPDEST PUSH0 PUSH1 0x40 MLOAD DUP1 DUP4 SUB DUP2 PUSH0 DUP8 DUP1 EXTCODESIZE ISZERO DUP1 ISZERO PUSH2 0x1D44 JUMPI PUSH0 PUSH0 REVERT JUMPDEST POP GAS CALL ISZERO DUP1 ISZERO PUSH2 0x1D56 JUMPI RETURNDATASIZE PUSH0 PUSH0 RETURNDATACOPY RETURNDATASIZE PUSH0 REVERT JUMPDEST POP POP POP POP POP POP POP POP POP JUMP JUMPDEST PUSH0 TIMESTAMP SWAP1 POP SWAP1 JUMP JUMPDEST PUSH1 0x60 PUSH1 0x6 PUSH0 DUP5 DUP2 MSTORE PUSH1 0x20 ADD SWAP1 DUP2 MSTORE PUSH1 0x20 ADD PUSH0 KECCAK256 PUSH0 DUP4 DUP2 MSTORE PUSH1 0x20 ADD SWAP1 DUP2 MSTORE PUSH1 0x20 ADD PUSH0 KECCAK256 DUP1 SLOAD PUSH2 0x1D95 SWAP1 PUSH2 0x480C JUMP JUMPDEST DUP1 PUSH1 0x1F ADD PUSH1 0x20 DUP1 SWAP2 DIV MUL PUSH1 0x20 ADD PUSH1 0x40 MLOAD SWAP1 DUP2 ADD PUSH1 0x40 MSTORE DUP1 SWAP3 SWAP2 SWAP1 DUP2 DUP2 MSTORE PUSH1 0x20 ADD DUP3 DUP1 SLOAD PUSH2 0x1DC1 SWAP1 PUSH2 0x480C JUMP JUMPDEST DUP1 ISZERO PUSH2 0x1E0C JUMPI DUP1 PUSH1 0x1F LT PUSH2 0x1DE3 JUMPI PUSH2 0x100 DUP1 DUP4 SLOAD DIV MUL DUP4 MSTORE SWAP2 PUSH1 0x20 ADD SWAP2 PUSH2 0x1E0C JUMP JUMPDEST DUP3 ADD SWAP2 SWAP1 PUSH0 MSTORE PUSH1 0x20 PUSH0 KECCAK256 SWAP1 JUMPDEST DUP2 SLOAD DUP2 MSTORE SWAP1 PUSH1 0x1 ADD SWAP1 PUSH1 0x20 ADD DUP1 DUP4 GT PUSH2 0x1DEF JUMPI DUP3 SWAP1 SUB PUSH1 0x1F AND DUP3 ADD SWAP2 JUMPDEST POP POP POP POP POP SWAP1 POP SWAP3 SWAP2 POP POP JUMP JUMPDEST PUSH0 TIMESTAMP DUP10 GT PUSH2 0x1E5C JUMPI PUSH1 0x40 MLOAD PUSH32 0x8C379A000000000000000000000000000000000000000000000000000000000 DUP2 MSTORE PUSH1 0x4 ADD PUSH2 0x1E53 SWAP1 PUSH2 0x5029 JUMP JUMPDEST PUSH1 0x40 MLOAD DUP1 SWAP2 SUB SWAP1 REVERT JUMPDEST DUP9 DUP9 GT PUSH2 0x1E9E JUMPI PUSH1 0x40 MLOAD PUSH32 0x8C379A000000000000000000000000000000000000000000000000000000000 DUP2 MSTORE PUSH1 0x4 ADD PUSH2 0x1E95 SWAP1 PUSH2 0x50B7 JUMP JUMPDEST PUSH1 0x40 MLOAD DUP1 SWAP2 SUB SWAP1 REVERT JUMPDEST DUP5 ISZERO PUSH2 0x1F32 JUMPI PUSH2 0x1EAC PUSH2 0x1CAB JUMP JUMPDEST PUSH20 0xFFFFFFFFFFFFFFFFFFFFFFFFFFFFFFFFFFFFFFFF AND PUSH2 0x1ECA PUSH2 0x2D95 JUMP JUMPDEST PUSH20 0xFFFFFFFFFFFFFFFFFFFFFFFFFFFFFFFFFFFFFFFF AND EQ PUSH2 0x1F31 JUMPI PUSH1 0x3 SLOAD CALLVALUE LT ISZERO PUSH2 0x1F30 JUMPI PUSH1 0x3 SLOAD CALLVALUE PUSH1 0x40 MLOAD PUSH32 0xBC03BCCD00000000000000000000000000000000000000000000000000000000 DUP2 MSTORE PUSH1 0x4 ADD PUSH2 0x1F27 SWAP3 SWAP2 SWAP1 PUSH2 0x4EE0 JUMP JUMPDEST PUSH1 0x40 MLOAD DUP1 SWAP2 SUB SWAP1 REVERT JUMPDEST JUMPDEST JUMPDEST PUSH2 0x1F3C PUSH1 0x1 PUSH2 0x2EBE JUMP JUMPDEST PUSH1 0x40 MLOAD DUP1 PUSH2 0x1C0 ADD PUSH1 0x40 MSTORE DUP1 DUP14 DUP2 MSTORE PUSH1 0x20 ADD DUP13 DUP2 MSTORE PUSH1 0x20 ADD DUP12 DUP2 MSTORE PUSH1 0x20 ADD DUP11 DUP2 MSTORE PUSH1 0x20 ADD DUP10 DUP2 MSTORE PUSH1 0x20 ADD DUP9 DUP2 MSTORE PUSH1 0x20 ADD PUSH2 0x1F74 PUSH2 0x2D95 JUMP JUMPDEST PUSH20 0xFFFFFFFFFFFFFFFFFFFFFFFFFFFFFFFFFFFFFFFF AND DUP2 MSTORE PUSH1 0x20 ADD DUP8 DUP2 MSTORE PUSH1 0x20 ADD DUP7 ISZERO ISZERO DUP2 MSTORE PUSH1 0x20 ADD DUP6 PUSH20 0xFFFFFFFFFFFFFFFFFFFFFFFFFFFFFFFFFFFFFFFF AND DUP2 MSTORE PUSH1 0x20 ADD DUP5 DUP2 MSTORE PUSH1 0x20 ADD DUP4 ISZERO ISZERO DUP2 MSTORE PUSH1 0x20 ADD TIMESTAMP DUP2 MSTORE PUSH1 0x20 ADD PUSH0 DUP2 MSTORE POP PUSH1 0x4 PUSH0 PUSH2 0x1FDE PUSH1 0x1 PUSH2 0x2ED2 JUMP JUMPDEST PUSH0 SHL DUP2 MSTORE PUSH1 0x20 ADD SWAP1 DUP2 MSTORE PUSH1 0x20 ADD PUSH0 KECCAK256 PUSH0 DUP3 ADD MLOAD DUP2 PUSH0 ADD SWAP1 DUP2 PUSH2 0x2000 SWAP2 SWAP1 PUSH2 0x49DC JUMP JUMPDEST POP PUSH1 0x20 DUP3 ADD MLOAD DUP2 PUSH1 0x1 ADD SWAP1 DUP2 PUSH2 0x2016 SWAP2 SWAP1 PUSH2 0x4B91 JUMP JUMPDEST POP PUSH1 0x40 DUP3 ADD MLOAD DUP2 PUSH1 0x2 ADD SWAP1 DUP1 MLOAD SWAP1 PUSH1 0x20 ADD SWAP1 PUSH2 0x2033 SWAP3 SWAP2 SWAP1 PUSH2 0x3056 JUMP JUMPDEST POP PUSH1 0x60 DUP3 ADD MLOAD DUP2 PUSH1 0x3 ADD SSTORE PUSH1 0x80 DUP3 ADD MLOAD DUP2 PUSH1 0x4 ADD SSTORE PUSH1 0xA0 DUP3 ADD MLOAD DUP2 PUSH1 0x5 ADD SWAP1 DUP1 MLOAD SWAP1 PUSH1 0x20 ADD SWAP1 PUSH2 0x2064 SWAP3 SWAP2 SWAP1 PUSH2 0x30AD JUMP JUMPDEST POP PUSH1 0xC0 DUP3 ADD MLOAD DUP2 PUSH1 0x6 ADD PUSH0 PUSH2 0x100 EXP DUP2 SLOAD DUP2 PUSH20 0xFFFFFFFFFFFFFFFFFFFFFFFFFFFFFFFFFFFFFFFF MUL NOT AND SWAP1 DUP4 PUSH20 0xFFFFFFFFFFFFFFFFFFFFFFFFFFFFFFFFFFFFFFFF AND MUL OR SWAP1 SSTORE POP PUSH1 0xE0 DUP3 ADD MLOAD DUP2 PUSH1 0x7 ADD SSTORE PUSH2 0x100 DUP3 ADD MLOAD DUP2 PUSH1 0x8 ADD PUSH0 PUSH2 0x100 EXP DUP2 SLOAD DUP2 PUSH1 0xFF MUL NOT AND SWAP1 DUP4 ISZERO ISZERO MUL OR SWAP1 SSTORE POP PUSH2 0x120 DUP3 ADD MLOAD DUP2 PUSH1 0x8 ADD PUSH1 0x1 PUSH2 0x100 EXP DUP2 SLOAD DUP2 PUSH20 0xFFFFFFFFFFFFFFFFFFFFFFFFFFFFFFFFFFFFFFFF MUL NOT AND SWAP1 DUP4 PUSH20 0xFFFFFFFFFFFFFFFFFFFFFFFFFFFFFFFFFFFFFFFF AND MUL OR SWAP1 SSTORE POP PUSH2 0x140 DUP3 ADD MLOAD DUP2 PUSH1 0x9 ADD SSTORE PUSH2 0x160 DUP3 ADD MLOAD DUP2 PUSH1 0xA ADD PUSH0 PUSH2 0x100 EXP DUP2 SLOAD DUP2 PUSH1 0xFF MUL NOT AND SWAP1 DUP4 ISZERO ISZERO MUL OR SWAP1 SSTORE POP PUSH2 0x180 DUP3 ADD MLOAD DUP2 PUSH1 0xB ADD SSTORE PUSH2 0x1A0 DUP3 ADD MLOAD DUP2 PUSH1 0xC ADD SSTORE SWAP1 POP POP PUSH1 0x8 PUSH0 PUSH2 0x216C PUSH2 0x2D95 JUMP JUMPDEST PUSH20 0xFFFFFFFFFFFFFFFFFFFFFFFFFFFFFFFFFFFFFFFF AND PUSH20 0xFFFFFFFFFFFFFFFFFFFFFFFFFFFFFFFFFFFFFFFF AND DUP2 MSTORE PUSH1 0x20 ADD SWAP1 DUP2 MSTORE PUSH1 0x20 ADD PUSH0 KECCAK256 PUSH2 0x21AF PUSH1 0x1 PUSH2 0x2ED2 JUMP JUMPDEST PUSH0 SHL SWAP1 DUP1 PUSH1 0x1 DUP2 SLOAD ADD DUP1 DUP3 SSTORE DUP1 SWAP2 POP POP PUSH1 0x1 SWAP1 SUB SWAP1 PUSH0 MSTORE PUSH1 0x20 PUSH0 KECCAK256 ADD PUSH0 SWAP1 SWAP2 SWAP1 SWAP2 SWAP1 SWAP2 POP SSTORE PUSH2 0x21DC PUSH2 0x2D95 JUMP JUMPDEST PUSH20 0xFFFFFFFFFFFFFFFFFFFFFFFFFFFFFFFFFFFFFFFF AND PUSH2 0x21FC PUSH1 0x1 PUSH2 0x2ED2 JUMP JUMPDEST PUSH0 SHL PUSH32 0x68D72977FB47B474E850DE31FA3E3FDCEFF2FC7AE0DE285763B8F70EF283D56B DUP15 DUP15 DUP14 DUP14 PUSH1 0x40 MLOAD PUSH2 0x2233 SWAP5 SWAP4 SWAP3 SWAP2 SWAP1 PUSH2 0x50D5 JUMP JUMPDEST PUSH1 0x40 MLOAD DUP1 SWAP2 SUB SWAP1 LOG3 PUSH2 0x2245 PUSH1 0x1 PUSH2 0x2ED2 JUMP JUMPDEST PUSH0 SHL SWAP1 POP SWAP12 SWAP11 POP POP POP POP POP POP POP POP POP POP POP JUMP JUMPDEST PUSH1 0x3 SLOAD DUP2 JUMP JUMPDEST PUSH1 0x6 PUSH1 0x20 MSTORE DUP2 PUSH0 MSTORE PUSH1 0x40 PUSH0 KECCAK256 PUSH1 0x20 MSTORE DUP1 PUSH0 MSTORE PUSH1 0x40 PUSH0 KECCAK256 PUSH0 SWAP2 POP SWAP2 POP POP DUP1 SLOAD PUSH2 0x2285 SWAP1 PUSH2 0x480C JUMP JUMPDEST DUP1 PUSH1 0x1F ADD PUSH1 0x20 DUP1 SWAP2 DIV MUL PUSH1 0x20 ADD PUSH1 0x40 MLOAD SWAP1 DUP2 ADD PUSH1 0x40 MSTORE DUP1 SWAP3 SWAP2 SWAP1 DUP2 DUP2 MSTORE PUSH1 0x20 ADD DUP3 DUP1 SLOAD PUSH2 0x22B1 SWAP1 PUSH2 0x480C JUMP JUMPDEST DUP1 ISZERO PUSH2 0x22FC JUMPI DUP1 PUSH1 0x1F LT PUSH2 0x22D3 JUMPI PUSH2 0x100 DUP1 DUP4 SLOAD DIV MUL DUP4 MSTORE SWAP2 PUSH1 0x20 ADD SWAP2 PUSH2 0x22FC JUMP JUMPDEST DUP3 ADD SWAP2 SWAP1 PUSH0 MSTORE PUSH1 0x20 PUSH0 KECCAK256 SWAP1 JUMPDEST DUP2 SLOAD DUP2 MSTORE SWAP1 PUSH1 0x1 ADD SWAP1 PUSH1 0x20 ADD DUP1 DUP4 GT PUSH2 0x22DF JUMPI DUP3 SWAP1 SUB PUSH1 0x1F AND DUP3 ADD SWAP2 JUMPDEST POP POP POP POP POP DUP2 JUMP JUMPDEST PUSH1 0x60 PUSH0 PUSH1 0x4 PUSH0 DUP5 DUP2 MSTORE PUSH1 0x20 ADD SWAP1 DUP2 MSTORE PUSH1 0x20 ADD PUSH0 KECCAK256 PUSH1 0xC ADD SLOAD SWAP1 POP PUSH0 DUP2 PUSH8 0xFFFFFFFFFFFFFFFF DUP2 GT ISZERO PUSH2 0x2339 JUMPI PUSH2 0x2338 PUSH2 0x3449 JUMP JUMPDEST JUMPDEST PUSH1 0x40 MLOAD SWAP1 DUP1 DUP3 MSTORE DUP1 PUSH1 0x20 MUL PUSH1 0x20 ADD DUP3 ADD PUSH1 0x40 MSTORE DUP1 ISZERO PUSH2 0x2372 JUMPI DUP2 PUSH1 0x20 ADD JUMPDEST PUSH2 0x235F PUSH2 0x3171 JUMP JUMPDEST DUP2 MSTORE PUSH1 0x20 ADD SWAP1 PUSH1 0x1 SWAP1 SUB SWAP1 DUP2 PUSH2 0x2357 JUMPI SWAP1 POP JUMPDEST POP SWAP1 POP PUSH0 PUSH0 SWAP1 POP JUMPDEST DUP3 DUP2 LT ISZERO PUSH2 0x2585 JUMPI DUP5 PUSH1 0x5 PUSH0 PUSH1 0x1 DUP5 PUSH2 0x2393 SWAP2 SWAP1 PUSH2 0x4F86 JUMP JUMPDEST PUSH0 SHL DUP2 MSTORE PUSH1 0x20 ADD SWAP1 DUP2 MSTORE PUSH1 0x20 ADD PUSH0 KECCAK256 PUSH0 ADD SLOAD SUB PUSH2 0x2578 JUMPI PUSH1 0x40 MLOAD DUP1 PUSH1 0xC0 ADD PUSH1 0x40 MSTORE DUP1 PUSH1 0x1 DUP4 PUSH2 0x23C2 SWAP2 SWAP1 PUSH2 0x4F86 JUMP JUMPDEST PUSH0 SHL DUP2 MSTORE PUSH1 0x20 ADD PUSH1 0x5 PUSH0 PUSH1 0x1 DUP6 PUSH2 0x23D9 SWAP2 SWAP1 PUSH2 0x4F86 JUMP JUMPDEST PUSH0 SHL DUP2 MSTORE PUSH1 0x20 ADD SWAP1 DUP2 MSTORE PUSH1 0x20 ADD PUSH0 KECCAK256 PUSH0 ADD SLOAD DUP2 MSTORE PUSH1 0x20 ADD PUSH1 0x5 PUSH0 PUSH1 0x1 DUP6 PUSH2 0x2400 SWAP2 SWAP1 PUSH2 0x4F86 JUMP JUMPDEST PUSH0 SHL DUP2 MSTORE PUSH1 0x20 ADD SWAP1 DUP2 MSTORE PUSH1 0x20 ADD PUSH0 KECCAK256 PUSH1 0x1 ADD DUP1 SLOAD PUSH2 0x241D SWAP1 PUSH2 0x480C JUMP JUMPDEST DUP1 PUSH1 0x1F ADD PUSH1 0x20 DUP1 SWAP2 DIV MUL PUSH1 0x20 ADD PUSH1 0x40 MLOAD SWAP1 DUP2 ADD PUSH1 0x40 MSTORE DUP1 SWAP3 SWAP2 SWAP1 DUP2 DUP2 MSTORE PUSH1 0x20 ADD DUP3 DUP1 SLOAD PUSH2 0x2449 SWAP1 PUSH2 0x480C JUMP JUMPDEST DUP1 ISZERO PUSH2 0x2494 JUMPI DUP1 PUSH1 0x1F LT PUSH2 0x246B JUMPI PUSH2 0x100 DUP1 DUP4 SLOAD DIV MUL DUP4 MSTORE SWAP2 PUSH1 0x20 ADD SWAP2 PUSH2 0x2494 JUMP JUMPDEST DUP3 ADD SWAP2 SWAP1 PUSH0 MSTORE PUSH1 0x20 PUSH0 KECCAK256 SWAP1 JUMPDEST DUP2 SLOAD DUP2 MSTORE SWAP1 PUSH1 0x1 ADD SWAP1 PUSH1 0x20 ADD DUP1 DUP4 GT PUSH2 0x2477 JUMPI DUP3 SWAP1 SUB PUSH1 0x1F AND DUP3 ADD SWAP2 JUMPDEST POP POP POP POP POP DUP2 MSTORE PUSH1 0x20 ADD PUSH1 0x5 PUSH0 PUSH1 0x1 DUP6 PUSH2 0x24AE SWAP2 SWAP1 PUSH2 0x4F86 JUMP JUMPDEST PUSH0 SHL DUP2 MSTORE PUSH1 0x20 ADD SWAP1 DUP2 MSTORE PUSH1 0x20 ADD PUSH0 KECCAK256 PUSH1 0x2 ADD PUSH0 SWAP1 SLOAD SWAP1 PUSH2 0x100 EXP SWAP1 DIV PUSH1 0xFF AND PUSH1 0xFF AND DUP2 MSTORE PUSH1 0x20 ADD PUSH1 0x5 PUSH0 PUSH1 0x1 DUP6 PUSH2 0x24E5 SWAP2 SWAP1 PUSH2 0x4F86 JUMP JUMPDEST PUSH0 SHL DUP2 MSTORE PUSH1 0x20 ADD SWAP1 DUP2 MSTORE PUSH1 0x20 ADD PUSH0 KECCAK256 PUSH1 0x2 ADD PUSH1 0x1 SWAP1 SLOAD SWAP1 PUSH2 0x100 EXP SWAP1 DIV PUSH20 0xFFFFFFFFFFFFFFFFFFFFFFFFFFFFFFFFFFFFFFFF AND PUSH20 0xFFFFFFFFFFFFFFFFFFFFFFFFFFFFFFFFFFFFFFFF AND DUP2 MSTORE PUSH1 0x20 ADD PUSH1 0x5 PUSH0 PUSH1 0x1 DUP6 PUSH2 0x2543 SWAP2 SWAP1 PUSH2 0x4F86 JUMP JUMPDEST PUSH0 SHL DUP2 MSTORE PUSH1 0x20 ADD SWAP1 DUP2 MSTORE PUSH1 0x20 ADD PUSH0 KECCAK256 PUSH1 0x3 ADD SLOAD DUP2 MSTORE POP DUP3 DUP3 DUP2 MLOAD DUP2 LT PUSH2 0x256C JUMPI PUSH2 0x256B PUSH2 0x4D09 JUMP JUMPDEST JUMPDEST PUSH1 0x20 MUL PUSH1 0x20 ADD ADD DUP2 SWAP1 MSTORE POP JUMPDEST DUP1 DUP1 PUSH1 0x1 ADD SWAP2 POP POP PUSH2 0x237A JUMP JUMPDEST POP DUP1 SWAP3 POP POP POP SWAP2 SWAP1 POP JUMP JUMPDEST PUSH2 0x2598 PUSH2 0x2D0E JUMP JUMPDEST PUSH0 PUSH20 0xFFFFFFFFFFFFFFFFFFFFFFFFFFFFFFFFFFFFFFFF AND DUP2 PUSH20 0xFFFFFFFFFFFFFFFFFFFFFFFFFFFFFFFFFFFFFFFF AND SUB PUSH2 0x2608 JUMPI PUSH0 PUSH1 0x40 MLOAD PUSH32 0x1E4FBDF700000000000000000000000000000000000000000000000000000000 DUP2 MSTORE PUSH1 0x4 ADD PUSH2 0x25FF SWAP2 SWAP1 PUSH2 0x40F9 JUMP JUMPDEST PUSH1 0x40 MLOAD DUP1 SWAP2 SUB SWAP1 REVERT JUMPDEST PUSH2 0x2611 DUP2 PUSH2 0x2DFD JUMP JUMPDEST POP JUMP JUMPDEST PUSH1 0x4 PUSH1 0x20 MSTORE DUP1 PUSH0 MSTORE PUSH1 0x40 PUSH0 KECCAK256 PUSH0 SWAP2 POP SWAP1 POP DUP1 PUSH0 ADD DUP1 SLOAD PUSH2 0x2633 SWAP1 PUSH2 0x480C JUMP JUMPDEST DUP1 PUSH1 0x1F ADD PUSH1 0x20 DUP1 SWAP2 DIV MUL PUSH1 0x20 ADD PUSH1 0x40 MLOAD SWAP1 DUP2 ADD PUSH1 0x40 MSTORE DUP1 SWAP3 SWAP2 SWAP1 DUP2 DUP2 MSTORE PUSH1 0x20 ADD DUP3 DUP1 SLOAD PUSH2 0x265F SWAP1 PUSH2 0x480C JUMP JUMPDEST DUP1 ISZERO PUSH2 0x26AA JUMPI DUP1 PUSH1 0x1F LT PUSH2 0x2681 JUMPI PUSH2 0x100 DUP1 DUP4 SLOAD DIV MUL DUP4 MSTORE SWAP2 PUSH1 0x20 ADD SWAP2 PUSH2 0x26AA JUMP JUMPDEST DUP3 ADD SWAP2 SWAP1 PUSH0 MSTORE PUSH1 0x20 PUSH0 KECCAK256 SWAP1 JUMPDEST DUP2 SLOAD DUP2 MSTORE SWAP1 PUSH1 0x1 ADD SWAP1 PUSH1 0x20 ADD DUP1 DUP4 GT PUSH2 0x268D JUMPI DUP3 SWAP1 SUB PUSH1 0x1F AND DUP3 ADD SWAP2 JUMPDEST POP POP POP POP POP SWAP1 DUP1 PUSH1 0x1 ADD DUP1 SLOAD PUSH2 0x26BF SWAP1 PUSH2 0x480C JUMP JUMPDEST DUP1 PUSH1 0x1F ADD PUSH1 0x20 DUP1 SWAP2 DIV MUL PUSH1 0x20 ADD PUSH1 0x40 MLOAD SWAP1 DUP2 ADD PUSH1 0x40 MSTORE DUP1 SWAP3 SWAP2 SWAP1 DUP2 DUP2 MSTORE PUSH1 0x20 ADD DUP3 DUP1 SLOAD PUSH2 0x26EB SWAP1 PUSH2 0x480C JUMP JUMPDEST DUP1 ISZERO PUSH2 0x2736 JUMPI DUP1 PUSH1 0x1F LT PUSH2 0x270D JUMPI PUSH2 0x100 DUP1 DUP4 SLOAD DIV MUL DUP4 MSTORE SWAP2 PUSH1 0x20 ADD SWAP2 PUSH2 0x2736 JUMP JUMPDEST DUP3 ADD SWAP2 SWAP1 PUSH0 MSTORE PUSH1 0x20 PUSH0 KECCAK256 SWAP1 JUMPDEST DUP2 SLOAD DUP2 MSTORE SWAP1 PUSH1 0x1 ADD SWAP1 PUSH1 0x20 ADD DUP1 DUP4 GT PUSH2 0x2719 JUMPI DUP3 SWAP1 SUB PUSH1 0x1F AND DUP3 ADD SWAP2 JUMPDEST POP POP POP POP POP SWAP1 DUP1 PUSH1 0x3 ADD SLOAD SWAP1 DUP1 PUSH1 0x4 ADD SLOAD SWAP1 DUP1 PUSH1 0x6 ADD PUSH0 SWAP1 SLOAD SWAP1 PUSH2 0x100 EXP SWAP1 DIV PUSH20 0xFFFFFFFFFFFFFFFFFFFFFFFFFFFFFFFFFFFFFFFF AND SWAP1 DUP1 PUSH1 0x7 ADD SLOAD SWAP1 DUP1 PUSH1 0x8 ADD PUSH0 SWAP1 SLOAD SWAP1 PUSH2 0x100 EXP SWAP1 DIV PUSH1 0xFF AND SWAP1 DUP1 PUSH1 0x8 ADD PUSH1 0x1 SWAP1 SLOAD SWAP1 PUSH2 0x100 EXP SWAP1 DIV PUSH20 0xFFFFFFFFFFFFFFFFFFFFFFFFFFFFFFFFFFFFFFFF AND SWAP1 DUP1 PUSH1 0x9 ADD SLOAD SWAP1 DUP1 PUSH1 0xA ADD PUSH0 SWAP1 SLOAD SWAP1 PUSH2 0x100 EXP SWAP1 DIV PUSH1 0xFF AND SWAP1 DUP1 PUSH1 0xB ADD SLOAD SWAP1 DUP1 PUSH1 0xC ADD SLOAD SWAP1 POP DUP13 JUMP JUMPDEST PUSH1 0x1 DUP1 PUSH0 ADD SLOAD SWAP1 POP DUP2 JUMP JUMPDEST PUSH1 0x60 PUSH0 PUSH0 PUSH2 0x27EC PUSH1 0x1 PUSH2 0x2ED2 JUMP JUMPDEST PUSH8 0xFFFFFFFFFFFFFFFF DUP2 GT ISZERO PUSH2 0x2805 JUMPI PUSH2 0x2804 PUSH2 0x3449 JUMP JUMPDEST JUMPDEST PUSH1 0x40 MLOAD SWAP1 DUP1 DUP3 MSTORE DUP1 PUSH1 0x20 MUL PUSH1 0x20 ADD DUP3 ADD PUSH1 0x40 MSTORE DUP1 ISZERO PUSH2 0x283E JUMPI DUP2 PUSH1 0x20 ADD JUMPDEST PUSH2 0x282B PUSH2 0x31BB JUMP JUMPDEST DUP2 MSTORE PUSH1 0x20 ADD SWAP1 PUSH1 0x1 SWAP1 SUB SWAP1 DUP2 PUSH2 0x2823 JUMPI SWAP1 POP JUMPDEST POP SWAP1 POP PUSH0 PUSH0 SWAP1 POP PUSH0 PUSH1 0x1 SWAP1 POP JUMPDEST PUSH2 0x2855 PUSH1 0x1 PUSH2 0x2ED2 JUMP JUMPDEST DUP2 GT PUSH2 0x2D00 JUMPI DUP6 PUSH20 0xFFFFFFFFFFFFFFFFFFFFFFFFFFFFFFFFFFFFFFFF AND PUSH1 0x4 PUSH0 DUP4 PUSH0 SHL DUP2 MSTORE PUSH1 0x20 ADD SWAP1 DUP2 MSTORE PUSH1 0x20 ADD PUSH0 KECCAK256 PUSH1 0x6 ADD PUSH0 SWAP1 SLOAD SWAP1 PUSH2 0x100 EXP SWAP1 DIV PUSH20 0xFFFFFFFFFFFFFFFFFFFFFFFFFFFFFFFFFFFFFFFF AND PUSH20 0xFFFFFFFFFFFFFFFFFFFFFFFFFFFFFFFFFFFFFFFF AND SUB PUSH2 0x2CED JUMPI PUSH1 0x1 SWAP2 POP PUSH1 0x40 MLOAD DUP1 PUSH2 0x1A0 ADD PUSH1 0x40 MSTORE DUP1 DUP3 PUSH0 SHL DUP2 MSTORE PUSH1 0x20 ADD PUSH1 0x4 PUSH0 DUP5 PUSH0 SHL DUP2 MSTORE PUSH1 0x20 ADD SWAP1 DUP2 MSTORE PUSH1 0x20 ADD PUSH0 KECCAK256 PUSH0 ADD DUP1 SLOAD PUSH2 0x28FB SWAP1 PUSH2 0x480C JUMP JUMPDEST DUP1 PUSH1 0x1F ADD PUSH1 0x20 DUP1 SWAP2 DIV MUL PUSH1 0x20 ADD PUSH1 0x40 MLOAD SWAP1 DUP2 ADD PUSH1 0x40 MSTORE DUP1 SWAP3 SWAP2 SWAP1 DUP2 DUP2 MSTORE PUSH1 0x20 ADD DUP3 DUP1 SLOAD PUSH2 0x2927 SWAP1 PUSH2 0x480C JUMP JUMPDEST DUP1 ISZERO PUSH2 0x2972 JUMPI DUP1 PUSH1 0x1F LT PUSH2 0x2949 JUMPI PUSH2 0x100 DUP1 DUP4 SLOAD DIV MUL DUP4 MSTORE SWAP2 PUSH1 0x20 ADD SWAP2 PUSH2 0x2972 JUMP JUMPDEST DUP3 ADD SWAP2 SWAP1 PUSH0 MSTORE PUSH1 0x20 PUSH0 KECCAK256 SWAP1 JUMPDEST DUP2 SLOAD DUP2 MSTORE SWAP1 PUSH1 0x1 ADD SWAP1 PUSH1 0x20 ADD DUP1 DUP4 GT PUSH2 0x2955 JUMPI DUP3 SWAP1 SUB PUSH1 0x1F AND DUP3 ADD SWAP2 JUMPDEST POP POP POP POP POP DUP2 MSTORE PUSH1 0x20 ADD PUSH1 0x4 PUSH0 DUP5 PUSH0 SHL DUP2 MSTORE PUSH1 0x20 ADD SWAP1 DUP2 MSTORE PUSH1 0x20 ADD PUSH0 KECCAK256 PUSH1 0x1 ADD DUP1 SLOAD PUSH2 0x299D SWAP1 PUSH2 0x480C JUMP JUMPDEST DUP1 PUSH1 0x1F ADD PUSH1 0x20 DUP1 SWAP2 DIV MUL PUSH1 0x20 ADD PUSH1 0x40 MLOAD SWAP1 DUP2 ADD PUSH1 0x40 MSTORE DUP1 SWAP3 SWAP2 SWAP1 DUP2 DUP2 MSTORE PUSH1 0x20 ADD DUP3 DUP1 SLOAD PUSH2 0x29C9 SWAP1 PUSH2 0x480C JUMP JUMPDEST DUP1 ISZERO PUSH2 0x2A14 JUMPI DUP1 PUSH1 0x1F LT PUSH2 0x29EB JUMPI PUSH2 0x100 DUP1 DUP4 SLOAD DIV MUL DUP4 MSTORE SWAP2 PUSH1 0x20 ADD SWAP2 PUSH2 0x2A14 JUMP JUMPDEST DUP3 ADD SWAP2 SWAP1 PUSH0 MSTORE PUSH1 0x20 PUSH0 KECCAK256 SWAP1 JUMPDEST DUP2 SLOAD DUP2 MSTORE SWAP1 PUSH1 0x1 ADD SWAP1 PUSH1 0x20 ADD DUP1 DUP4 GT PUSH2 0x29F7 JUMPI DUP3 SWAP1 SUB PUSH1 0x1F AND DUP3 ADD SWAP2 JUMPDEST POP POP POP POP POP DUP2 MSTORE PUSH1 0x20 ADD PUSH1 0x4 PUSH0 DUP5 PUSH0 SHL DUP2 MSTORE PUSH1 0x20 ADD SWAP1 DUP2 MSTORE PUSH1 0x20 ADD PUSH0 KECCAK256 PUSH1 0x2 ADD DUP1 SLOAD DUP1 PUSH1 0x20 MUL PUSH1 0x20 ADD PUSH1 0x40 MLOAD SWAP1 DUP2 ADD PUSH1 0x40 MSTORE DUP1 SWAP3 SWAP2 SWAP1 DUP2 DUP2 MSTORE PUSH1 0x20 ADD PUSH0 SWAP1 JUMPDEST DUP3 DUP3 LT ISZERO PUSH2 0x2AFB JUMPI DUP4 DUP3 SWAP1 PUSH0 MSTORE PUSH1 0x20 PUSH0 KECCAK256 ADD DUP1 SLOAD PUSH2 0x2A70 SWAP1 PUSH2 0x480C JUMP JUMPDEST DUP1 PUSH1 0x1F ADD PUSH1 0x20 DUP1 SWAP2 DIV MUL PUSH1 0x20 ADD PUSH1 0x40 MLOAD SWAP1 DUP2 ADD PUSH1 0x40 MSTORE DUP1 SWAP3 SWAP2 SWAP1 DUP2 DUP2 MSTORE PUSH1 0x20 ADD DUP3 DUP1 SLOAD PUSH2 0x2A9C SWAP1 PUSH2 0x480C JUMP JUMPDEST DUP1 ISZERO PUSH2 0x2AE7 JUMPI DUP1 PUSH1 0x1F LT PUSH2 0x2ABE JUMPI PUSH2 0x100 DUP1 DUP4 SLOAD DIV MUL DUP4 MSTORE SWAP2 PUSH1 0x20 ADD SWAP2 PUSH2 0x2AE7 JUMP JUMPDEST DUP3 ADD SWAP2 SWAP1 PUSH0 MSTORE PUSH1 0x20 PUSH0 KECCAK256 SWAP1 JUMPDEST DUP2 SLOAD DUP2 MSTORE SWAP1 PUSH1 0x1 ADD SWAP1 PUSH1 0x20 ADD DUP1 DUP4 GT PUSH2 0x2ACA JUMPI DUP3 SWAP1 SUB PUSH1 0x1F AND DUP3 ADD SWAP2 JUMPDEST POP POP POP POP POP DUP2 MSTORE PUSH1 0x20 ADD SWAP1 PUSH1 0x1 ADD SWAP1 PUSH2 0x2A53 JUMP JUMPDEST POP POP POP POP DUP2 MSTORE PUSH1 0x20 ADD PUSH1 0x4 PUSH0 DUP5 PUSH0 SHL DUP2 MSTORE PUSH1 0x20 ADD SWAP1 DUP2 MSTORE PUSH1 0x20 ADD PUSH0 KECCAK256 PUSH1 0x3 ADD SLOAD DUP2 MSTORE PUSH1 0x20 ADD PUSH1 0x4 PUSH0 DUP5 PUSH0 SHL DUP2 MSTORE PUSH1 0x20 ADD SWAP1 DUP2 MSTORE PUSH1 0x20 ADD PUSH0 KECCAK256 PUSH1 0x4 ADD SLOAD DUP2 MSTORE PUSH1 0x20 ADD PUSH1 0x4 PUSH0 DUP5 PUSH0 SHL DUP2 MSTORE PUSH1 0x20 ADD SWAP1 DUP2 MSTORE PUSH1 0x20 ADD PUSH0 KECCAK256 PUSH1 0x5 ADD DUP1 SLOAD DUP1 PUSH1 0x20 MUL PUSH1 0x20 ADD PUSH1 0x40 MLOAD SWAP1 DUP2 ADD PUSH1 0x40 MSTORE DUP1 SWAP3 SWAP2 SWAP1 DUP2 DUP2 MSTORE PUSH1 0x20 ADD DUP3 DUP1 SLOAD DUP1 ISZERO PUSH2 0x2BCF JUMPI PUSH1 0x20 MUL DUP3 ADD SWAP2 SWAP1 PUSH0 MSTORE PUSH1 0x20 PUSH0 KECCAK256 SWAP1 JUMPDEST DUP2 PUSH0 SWAP1 SLOAD SWAP1 PUSH2 0x100 EXP SWAP1 DIV PUSH20 0xFFFFFFFFFFFFFFFFFFFFFFFFFFFFFFFFFFFFFFFF AND PUSH20 0xFFFFFFFFFFFFFFFFFFFFFFFFFFFFFFFFFFFFFFFF AND DUP2 MSTORE PUSH1 0x20 ADD SWAP1 PUSH1 0x1 ADD SWAP1 DUP1 DUP4 GT PUSH2 0x2B86 JUMPI JUMPDEST POP POP POP POP POP DUP2 MSTORE PUSH1 0x20 ADD PUSH1 0x4 PUSH0 DUP5 PUSH0 SHL DUP2 MSTORE PUSH1 0x20 ADD SWAP1 DUP2 MSTORE PUSH1 0x20 ADD PUSH0 KECCAK256 PUSH1 0x7 ADD SLOAD DUP2 MSTORE PUSH1 0x20 ADD PUSH1 0x4 PUSH0 DUP5 PUSH0 SHL DUP2 MSTORE PUSH1 0x20 ADD SWAP1 DUP2 MSTORE PUSH1 0x20 ADD PUSH0 KECCAK256 PUSH1 0x9 ADD SLOAD DUP2 MSTORE PUSH1 0x20 ADD PUSH1 0x4 PUSH0 DUP5 PUSH0 SHL DUP2 MSTORE PUSH1 0x20 ADD SWAP1 DUP2 MSTORE PUSH1 0x20 ADD PUSH0 KECCAK256 PUSH1 0x6 ADD PUSH0 SWAP1 SLOAD SWAP1 PUSH2 0x100 EXP SWAP1 DIV PUSH20 0xFFFFFFFFFFFFFFFFFFFFFFFFFFFFFFFFFFFFFFFF AND PUSH20 0xFFFFFFFFFFFFFFFFFFFFFFFFFFFFFFFFFFFFFFFF AND DUP2 MSTORE PUSH1 0x20 ADD PUSH1 0x4 PUSH0 DUP5 PUSH0 SHL DUP2 MSTORE PUSH1 0x20 ADD SWAP1 DUP2 MSTORE PUSH1 0x20 ADD PUSH0 KECCAK256 PUSH1 0xA ADD PUSH0 SWAP1 SLOAD SWAP1 PUSH2 0x100 EXP SWAP1 DIV PUSH1 0xFF AND ISZERO ISZERO DUP2 MSTORE PUSH1 0x20 ADD PUSH1 0x4 PUSH0 DUP5 PUSH0 SHL DUP2 MSTORE PUSH1 0x20 ADD SWAP1 DUP2 MSTORE PUSH1 0x20 ADD PUSH0 KECCAK256 PUSH1 0xB ADD SLOAD DUP2 MSTORE PUSH1 0x20 ADD PUSH1 0x4 PUSH0 DUP5 PUSH0 SHL DUP2 MSTORE PUSH1 0x20 ADD SWAP1 DUP2 MSTORE PUSH1 0x20 ADD PUSH0 KECCAK256 PUSH1 0xC ADD SLOAD DUP2 MSTORE POP DUP4 PUSH1 0x1 DUP4 PUSH2 0x2CD0 SWAP2 SWAP1 PUSH2 0x5126 JUMP JUMPDEST DUP2 MLOAD DUP2 LT PUSH2 0x2CE1 JUMPI PUSH2 0x2CE0 PUSH2 0x4D09 JUMP JUMPDEST JUMPDEST PUSH1 0x20 MUL PUSH1 0x20 ADD ADD DUP2 SWAP1 MSTORE POP JUMPDEST DUP1 DUP1 PUSH2 0x2CF8 SWAP1 PUSH2 0x4D63 JUMP JUMPDEST SWAP2 POP POP PUSH2 0x284B JUMP JUMPDEST POP DUP2 DUP2 SWAP4 POP SWAP4 POP POP POP SWAP2 POP SWAP2 JUMP JUMPDEST PUSH2 0x2D16 PUSH2 0x2D95 JUMP JUMPDEST PUSH20 0xFFFFFFFFFFFFFFFFFFFFFFFFFFFFFFFFFFFFFFFF AND PUSH2 0x2D34 PUSH2 0x1CAB JUMP JUMPDEST PUSH20 0xFFFFFFFFFFFFFFFFFFFFFFFFFFFFFFFFFFFFFFFF AND EQ PUSH2 0x2D93 JUMPI PUSH2 0x2D57 PUSH2 0x2D95 JUMP JUMPDEST PUSH1 0x40 MLOAD PUSH32 0x118CDAA700000000000000000000000000000000000000000000000000000000 DUP2 MSTORE PUSH1 0x4 ADD PUSH2 0x2D8A SWAP2 SWAP1 PUSH2 0x40F9 JUMP JUMPDEST PUSH1 0x40 MLOAD DUP1 SWAP2 SUB SWAP1 REVERT JUMPDEST JUMP JUMPDEST PUSH0 CALLER SWAP1 POP SWAP1 JUMP JUMPDEST PUSH2 0x2DA4 PUSH2 0x2F40 JUMP JUMPDEST PUSH0 PUSH0 PUSH1 0x14 PUSH2 0x100 EXP DUP2 SLOAD DUP2 PUSH1 0xFF MUL NOT AND SWAP1 DUP4 ISZERO ISZERO MUL OR SWAP1 SSTORE POP PUSH32 0x5DB9EE0A495BF2E6FF9C91A7834C1BA4FDD244A5E8AA4E537BD38AEAE4B073AA PUSH2 0x2DE6 PUSH2 0x2D95 JUMP JUMPDEST PUSH1 0x40 MLOAD PUSH2 0x2DF3 SWAP2 SWAP1 PUSH2 0x40F9 JUMP JUMPDEST PUSH1 0x40 MLOAD DUP1 SWAP2 SUB SWAP1 LOG1 JUMP JUMPDEST PUSH0 PUSH0 PUSH0 SWAP1 SLOAD SWAP1 PUSH2 0x100 EXP SWAP1 DIV PUSH20 0xFFFFFFFFFFFFFFFFFFFFFFFFFFFFFFFFFFFFFFFF AND SWAP1 POP DUP2 PUSH0 PUSH0 PUSH2 0x100 EXP DUP2 SLOAD DUP2 PUSH20 0xFFFFFFFFFFFFFFFFFFFFFFFFFFFFFFFFFFFFFFFF MUL NOT AND SWAP1 DUP4 PUSH20 0xFFFFFFFFFFFFFFFFFFFFFFFFFFFFFFFFFFFFFFFF AND MUL OR SWAP1 SSTORE POP DUP2 PUSH20 0xFFFFFFFFFFFFFFFFFFFFFFFFFFFFFFFFFFFFFFFF AND DUP2 PUSH20 0xFFFFFFFFFFFFFFFFFFFFFFFFFFFFFFFFFFFFFFFF AND PUSH32 0x8BE0079C531659141344CD1FD0A4F28419497F9722A3DAAFE3B4186F6B6457E0 PUSH1 0x40 MLOAD PUSH1 0x40 MLOAD DUP1 SWAP2 SUB SWAP1 LOG3 POP POP JUMP JUMPDEST PUSH1 0x1 DUP2 PUSH0 ADD PUSH0 DUP3 DUP3 SLOAD ADD SWAP3 POP POP DUP2 SWAP1 SSTORE POP POP JUMP JUMPDEST PUSH0 DUP2 PUSH0 ADD SLOAD SWAP1 POP SWAP2 SWAP1 POP JUMP JUMPDEST PUSH2 0x2EE6 PUSH2 0x2F80 JUMP JUMPDEST PUSH1 0x1 PUSH0 PUSH1 0x14 PUSH2 0x100 EXP DUP2 SLOAD DUP2 PUSH1 0xFF MUL NOT AND SWAP1 DUP4 ISZERO ISZERO MUL OR SWAP1 SSTORE POP PUSH32 0x62E78CEA01BEE320CD4E420270B5EA74000D11B0C9F74754EBDBFC544B05A258 PUSH2 0x2F29 PUSH2 0x2D95 JUMP JUMPDEST PUSH1 0x40 MLOAD PUSH2 0x2F36 SWAP2 SWAP1 PUSH2 0x40F9 JUMP JUMPDEST PUSH1 0x40 MLOAD DUP1 SWAP2 SUB SWAP1 LOG1 JUMP JUMPDEST PUSH2 0x2F48 PUSH2 0x1291 JUMP JUMPDEST PUSH2 0x2F7E JUMPI PUSH1 0x40 MLOAD PUSH32 0x8DFC202B00000000000000000000000000000000000000000000000000000000 DUP2 MSTORE PUSH1 0x4 ADD PUSH1 0x40 MLOAD DUP1 SWAP2 SUB SWAP1 REVERT JUMPDEST JUMP JUMPDEST PUSH2 0x2F88 PUSH2 0x1291 JUMP JUMPDEST ISZERO PUSH2 0x2FBF JUMPI PUSH1 0x40 MLOAD PUSH32 0xD93C066500000000000000000000000000000000000000000000000000000000 DUP2 MSTORE PUSH1 0x4 ADD PUSH1 0x40 MLOAD DUP1 SWAP2 SUB SWAP1 REVERT JUMPDEST JUMP JUMPDEST PUSH1 0x40 MLOAD DUP1 PUSH2 0x1C0 ADD PUSH1 0x40 MSTORE DUP1 PUSH1 0x60 DUP2 MSTORE PUSH1 0x20 ADD PUSH1 0x60 DUP2 MSTORE PUSH1 0x20 ADD PUSH1 0x60 DUP2 MSTORE PUSH1 0x20 ADD PUSH0 DUP2 MSTORE PUSH1 0x20 ADD PUSH0 DUP2 MSTORE PUSH1 0x20 ADD PUSH1 0x60 DUP2 MSTORE PUSH1 0x20 ADD PUSH0 PUSH20 0xFFFFFFFFFFFFFFFFFFFFFFFFFFFFFFFFFFFFFFFF AND DUP2 MSTORE PUSH1 0x20 ADD PUSH0 DUP2 MSTORE PUSH1 0x20 ADD PUSH0 ISZERO ISZERO DUP2 MSTORE PUSH1 0x20 ADD PUSH0 PUSH20 0xFFFFFFFFFFFFFFFFFFFFFFFFFFFFFFFFFFFFFFFF AND DUP2 MSTORE PUSH1 0x20 ADD PUSH0 DUP2 MSTORE PUSH1 0x20 ADD PUSH0 ISZERO ISZERO DUP2 MSTORE PUSH1 0x20 ADD PUSH0 DUP2 MSTORE PUSH1 0x20 ADD PUSH0 DUP2 MSTORE POP SWAP1 JUMP JUMPDEST DUP3 DUP1 SLOAD DUP3 DUP3 SSTORE SWAP1 PUSH0 MSTORE PUSH1 0x20 PUSH0 KECCAK256 SWAP1 DUP2 ADD SWAP3 DUP3 ISZERO PUSH2 0x309C JUMPI SWAP2 PUSH1 0x20 MUL DUP3 ADD JUMPDEST DUP3 DUP2 GT ISZERO PUSH2 0x309B JUMPI DUP3 MLOAD DUP3 SWAP1 DUP2 PUSH2 0x308B SWAP2 SWAP1 PUSH2 0x49DC JUMP JUMPDEST POP SWAP2 PUSH1 0x20 ADD SWAP2 SWAP1 PUSH1 0x1 ADD SWAP1 PUSH2 0x3074 JUMP JUMPDEST JUMPDEST POP SWAP1 POP PUSH2 0x30A9 SWAP2 SWAP1 PUSH2 0x3232 JUMP JUMPDEST POP SWAP1 JUMP JUMPDEST DUP3 DUP1 SLOAD DUP3 DUP3 SSTORE SWAP1 PUSH0 MSTORE PUSH1 0x20 PUSH0 KECCAK256 SWAP1 DUP2 ADD SWAP3 DUP3 ISZERO PUSH2 0x3123 JUMPI SWAP2 PUSH1 0x20 MUL DUP3 ADD JUMPDEST DUP3 DUP2 GT ISZERO PUSH2 0x3122 JUMPI DUP3 MLOAD DUP3 PUSH0 PUSH2 0x100 EXP DUP2 SLOAD DUP2 PUSH20 0xFFFFFFFFFFFFFFFFFFFFFFFFFFFFFFFFFFFFFFFF MUL NOT AND SWAP1 DUP4 PUSH20 0xFFFFFFFFFFFFFFFFFFFFFFFFFFFFFFFFFFFFFFFF AND MUL OR SWAP1 SSTORE POP SWAP2 PUSH1 0x20 ADD SWAP2 SWAP1 PUSH1 0x1 ADD SWAP1 PUSH2 0x30CB JUMP JUMPDEST JUMPDEST POP SWAP1 POP PUSH2 0x3130 SWAP2 SWAP1 PUSH2 0x3255 JUMP JUMPDEST POP SWAP1 JUMP JUMPDEST POP DUP1 SLOAD PUSH2 0x3140 SWAP1 PUSH2 0x480C JUMP JUMPDEST PUSH0 DUP3 SSTORE DUP1 PUSH1 0x1F LT PUSH2 0x3151 JUMPI POP PUSH2 0x316E JUMP JUMPDEST PUSH1 0x1F ADD PUSH1 0x20 SWAP1 DIV SWAP1 PUSH0 MSTORE PUSH1 0x20 PUSH0 KECCAK256 SWAP1 DUP2 ADD SWAP1 PUSH2 0x316D SWAP2 SWAP1 PUSH2 0x3255 JUMP JUMPDEST JUMPDEST POP JUMP JUMPDEST PUSH1 0x40 MLOAD DUP1 PUSH1 0xC0 ADD PUSH1 0x40 MSTORE DUP1 PUSH0 DUP2 MSTORE PUSH1 0x20 ADD PUSH0 DUP2 MSTORE PUSH1 0x20 ADD PUSH1 0x60 DUP2 MSTORE PUSH1 0x20 ADD PUSH0 PUSH1 0xFF AND DUP2 MSTORE PUSH1 0x20 ADD PUSH0 PUSH20 0xFFFFFFFFFFFFFFFFFFFFFFFFFFFFFFFFFFFFFFFF AND DUP2 MSTORE PUSH1 0x20 ADD PUSH0 DUP2 MSTORE POP SWAP1 JUMP JUMPDEST PUSH1 0x40 MLOAD DUP1 PUSH2 0x1A0 ADD PUSH1 0x40 MSTORE DUP1 PUSH0 DUP2 MSTORE PUSH1 0x20 ADD PUSH1 0x60 DUP2 MSTORE PUSH1 0x20 ADD PUSH1 0x60 DUP2 MSTORE PUSH1 0x20 ADD PUSH1 0x60 DUP2 MSTORE PUSH1 0x20 ADD PUSH0 DUP2 MSTORE PUSH1 0x20 ADD PUSH0 DUP2 MSTORE PUSH1 0x20 ADD PUSH1 0x60 DUP2 MSTORE PUSH1 0x20 ADD PUSH0 DUP2 MSTORE PUSH1 0x20 ADD PUSH0 DUP2 MSTORE PUSH1 0x20 ADD PUSH0 PUSH20 0xFFFFFFFFFFFFFFFFFFFFFFFFFFFFFFFFFFFFFFFF AND DUP2 MSTORE PUSH1 0x20 ADD PUSH0 ISZERO ISZERO DUP2 MSTORE PUSH1 0x20 ADD PUSH0 DUP2 MSTORE PUSH1 0x20 ADD PUSH0 DUP2 MSTORE POP SWAP1 JUMP JUMPDEST JUMPDEST DUP1 DUP3 GT ISZERO PUSH2 0x3251 JUMPI PUSH0 DUP2 DUP2 PUSH2 0x3248 SWAP2 SWAP1 PUSH2 0x3134 JUMP JUMPDEST POP PUSH1 0x1 ADD PUSH2 0x3233 JUMP JUMPDEST POP SWAP1 JUMP JUMPDEST JUMPDEST DUP1 DUP3 GT ISZERO PUSH2 0x326C JUMPI PUSH0 DUP2 PUSH0 SWAP1 SSTORE POP PUSH1 0x1 ADD PUSH2 0x3256 JUMP JUMPDEST POP SWAP1 JUMP JUMPDEST PUSH0 DUP2 SWAP1 POP SWAP2 SWAP1 POP JUMP JUMPDEST PUSH2 0x3282 DUP2 PUSH2 0x3270 JUMP JUMPDEST DUP3 MSTORE POP POP JUMP JUMPDEST PUSH0 PUSH1 0x20 DUP3 ADD SWAP1 POP PUSH2 0x329B PUSH0 DUP4 ADD DUP5 PUSH2 0x3279 JUMP JUMPDEST SWAP3 SWAP2 POP POP JUMP JUMPDEST PUSH0 PUSH1 0x40 MLOAD SWAP1 POP SWAP1 JUMP JUMPDEST PUSH0 PUSH0 REVERT JUMPDEST PUSH0 PUSH0 REVERT JUMPDEST PUSH0 DUP2 SWAP1 POP SWAP2 SWAP1 POP JUMP JUMPDEST PUSH2 0x32C4 DUP2 PUSH2 0x32B2 JUMP JUMPDEST DUP2 EQ PUSH2 0x32CE JUMPI PUSH0 PUSH0 REVERT JUMPDEST POP JUMP JUMPDEST PUSH0 DUP2 CALLDATALOAD SWAP1 POP PUSH2 0x32DF DUP2 PUSH2 0x32BB JUMP JUMPDEST SWAP3 SWAP2 POP POP JUMP JUMPDEST PUSH0 PUSH1 0x20 DUP3 DUP5 SUB SLT ISZERO PUSH2 0x32FA JUMPI PUSH2 0x32F9 PUSH2 0x32AA JUMP JUMPDEST JUMPDEST PUSH0 PUSH2 0x3307 DUP5 DUP3 DUP6 ADD PUSH2 0x32D1 JUMP JUMPDEST SWAP2 POP POP SWAP3 SWAP2 POP POP JUMP JUMPDEST PUSH2 0x3319 DUP2 PUSH2 0x32B2 JUMP JUMPDEST DUP3 MSTORE POP POP JUMP JUMPDEST PUSH0 DUP2 MLOAD SWAP1 POP SWAP2 SWAP1 POP JUMP JUMPDEST PUSH0 DUP3 DUP3 MSTORE PUSH1 0x20 DUP3 ADD SWAP1 POP SWAP3 SWAP2 POP POP JUMP JUMPDEST DUP3 DUP2 DUP4 MCOPY PUSH0 DUP4 DUP4 ADD MSTORE POP POP POP JUMP JUMPDEST PUSH0 PUSH1 0x1F NOT PUSH1 0x1F DUP4 ADD AND SWAP1 POP SWAP2 SWAP1 POP JUMP JUMPDEST PUSH0 PUSH2 0x3361 DUP3 PUSH2 0x331F JUMP JUMPDEST PUSH2 0x336B DUP2 DUP6 PUSH2 0x3329 JUMP JUMPDEST SWAP4 POP PUSH2 0x337B DUP2 DUP6 PUSH1 0x20 DUP7 ADD PUSH2 0x3339 JUMP JUMPDEST PUSH2 0x3384 DUP2 PUSH2 0x3347 JUMP JUMPDEST DUP5 ADD SWAP2 POP POP SWAP3 SWAP2 POP POP JUMP JUMPDEST PUSH0 PUSH1 0xFF DUP3 AND SWAP1 POP SWAP2 SWAP1 POP JUMP JUMPDEST PUSH2 0x33A4 DUP2 PUSH2 0x338F JUMP JUMPDEST DUP3 MSTORE POP POP JUMP JUMPDEST PUSH0 PUSH20 0xFFFFFFFFFFFFFFFFFFFFFFFFFFFFFFFFFFFFFFFF DUP3 AND SWAP1 POP SWAP2 SWAP1 POP JUMP JUMPDEST PUSH0 PUSH2 0x33D3 DUP3 PUSH2 0x33AA JUMP JUMPDEST SWAP1 POP SWAP2 SWAP1 POP JUMP JUMPDEST PUSH2 0x33E3 DUP2 PUSH2 0x33C9 JUMP JUMPDEST DUP3 MSTORE POP POP JUMP JUMPDEST PUSH0 PUSH1 0xA0 DUP3 ADD SWAP1 POP PUSH2 0x33FC PUSH0 DUP4 ADD DUP9 PUSH2 0x3310 JUMP JUMPDEST DUP2 DUP2 SUB PUSH1 0x20 DUP4 ADD MSTORE PUSH2 0x340E DUP2 DUP8 PUSH2 0x3357 JUMP JUMPDEST SWAP1 POP PUSH2 0x341D PUSH1 0x40 DUP4 ADD DUP7 PUSH2 0x339B JUMP JUMPDEST PUSH2 0x342A PUSH1 0x60 DUP4 ADD DUP6 PUSH2 0x33DA JUMP JUMPDEST PUSH2 0x3437 PUSH1 0x80 DUP4 ADD DUP5 PUSH2 0x3279 JUMP JUMPDEST SWAP7 SWAP6 POP POP POP POP POP POP JUMP JUMPDEST PUSH0 PUSH0 REVERT JUMPDEST PUSH0 PUSH0 REVERT JUMPDEST PUSH32 0x4E487B7100000000000000000000000000000000000000000000000000000000 PUSH0 MSTORE PUSH1 0x41 PUSH1 0x4 MSTORE PUSH1 0x24 PUSH0 REVERT JUMPDEST PUSH2 0x347F DUP3 PUSH2 0x3347 JUMP JUMPDEST DUP2 ADD DUP2 DUP2 LT PUSH8 0xFFFFFFFFFFFFFFFF DUP3 GT OR ISZERO PUSH2 0x349E JUMPI PUSH2 0x349D PUSH2 0x3449 JUMP JUMPDEST JUMPDEST DUP1 PUSH1 0x40 MSTORE POP POP POP JUMP JUMPDEST PUSH0 PUSH2 0x34B0 PUSH2 0x32A1 JUMP JUMPDEST SWAP1 POP PUSH2 0x34BC DUP3 DUP3 PUSH2 0x3476 JUMP JUMPDEST SWAP2 SWAP1 POP JUMP JUMPDEST PUSH0 PUSH8 0xFFFFFFFFFFFFFFFF DUP3 GT ISZERO PUSH2 0x34DB JUMPI PUSH2 0x34DA PUSH2 0x3449 JUMP JUMPDEST JUMPDEST PUSH2 0x34E4 DUP3 PUSH2 0x3347 JUMP JUMPDEST SWAP1 POP PUSH1 0x20 DUP2 ADD SWAP1 POP SWAP2 SWAP1 POP JUMP JUMPDEST DUP3 DUP2 DUP4 CALLDATACOPY PUSH0 DUP4 DUP4 ADD MSTORE POP POP POP JUMP JUMPDEST PUSH0 PUSH2 0x3511 PUSH2 0x350C DUP5 PUSH2 0x34C1 JUMP JUMPDEST PUSH2 0x34A7 JUMP JUMPDEST SWAP1 POP DUP3 DUP2 MSTORE PUSH1 0x20 DUP2 ADD DUP5 DUP5 DUP5 ADD GT ISZERO PUSH2 0x352D JUMPI PUSH2 0x352C PUSH2 0x3445 JUMP JUMPDEST JUMPDEST PUSH2 0x3538 DUP5 DUP3 DUP6 PUSH2 0x34F1 JUMP JUMPDEST POP SWAP4 SWAP3 POP POP POP JUMP JUMPDEST PUSH0 DUP3 PUSH1 0x1F DUP4 ADD SLT PUSH2 0x3554 JUMPI PUSH2 0x3553 PUSH2 0x3441 JUMP JUMPDEST JUMPDEST DUP2 CALLDATALOAD PUSH2 0x3564 DUP5 DUP3 PUSH1 0x20 DUP7 ADD PUSH2 0x34FF JUMP JUMPDEST SWAP2 POP POP SWAP3 SWAP2 POP POP JUMP JUMPDEST PUSH0 PUSH0 PUSH0 PUSH1 0x60 DUP5 DUP7 SUB SLT ISZERO PUSH2 0x3584 JUMPI PUSH2 0x3583 PUSH2 0x32AA JUMP JUMPDEST JUMPDEST PUSH0 PUSH2 0x3591 DUP7 DUP3 DUP8 ADD PUSH2 0x32D1 JUMP JUMPDEST SWAP4 POP POP PUSH1 0x20 PUSH2 0x35A2 DUP7 DUP3 DUP8 ADD PUSH2 0x32D1 JUMP JUMPDEST SWAP3 POP POP PUSH1 0x40 DUP5 ADD CALLDATALOAD PUSH8 0xFFFFFFFFFFFFFFFF DUP2 GT ISZERO PUSH2 0x35C3 JUMPI PUSH2 0x35C2 PUSH2 0x32AE JUMP JUMPDEST JUMPDEST PUSH2 0x35CF DUP7 DUP3 DUP8 ADD PUSH2 0x3540 JUMP JUMPDEST SWAP2 POP POP SWAP3 POP SWAP3 POP SWAP3 JUMP JUMPDEST PUSH0 DUP2 ISZERO ISZERO SWAP1 POP SWAP2 SWAP1 POP JUMP JUMPDEST PUSH2 0x35ED DUP2 PUSH2 0x35D9 JUMP JUMPDEST DUP3 MSTORE POP POP JUMP JUMPDEST PUSH0 PUSH1 0x20 DUP3 ADD SWAP1 POP PUSH2 0x3606 PUSH0 DUP4 ADD DUP5 PUSH2 0x35E4 JUMP JUMPDEST SWAP3 SWAP2 POP POP JUMP JUMPDEST PUSH0 PUSH1 0x60 DUP3 ADD SWAP1 POP PUSH2 0x361F PUSH0 DUP4 ADD DUP7 PUSH2 0x35E4 JUMP JUMPDEST PUSH2 0x362C PUSH1 0x20 DUP4 ADD DUP6 PUSH2 0x3279 JUMP JUMPDEST PUSH2 0x3639 PUSH1 0x40 DUP4 ADD DUP5 PUSH2 0x3279 JUMP JUMPDEST SWAP5 SWAP4 POP POP POP POP JUMP JUMPDEST PUSH0 DUP3 DUP3 MSTORE PUSH1 0x20 DUP3 ADD SWAP1 POP SWAP3 SWAP2 POP POP JUMP JUMPDEST PUSH0 PUSH2 0x365B DUP3 PUSH2 0x331F JUMP JUMPDEST PUSH2 0x3665 DUP2 DUP6 PUSH2 0x3641 JUMP JUMPDEST SWAP4 POP PUSH2 0x3675 DUP2 DUP6 PUSH1 0x20 DUP7 ADD PUSH2 0x3339 JUMP JUMPDEST PUSH2 0x367E DUP2 PUSH2 0x3347 JUMP JUMPDEST DUP5 ADD SWAP2 POP POP SWAP3 SWAP2 POP POP JUMP JUMPDEST PUSH0 DUP2 MLOAD SWAP1 POP SWAP2 SWAP1 POP JUMP JUMPDEST PUSH0 DUP3 DUP3 MSTORE PUSH1 0x20 DUP3 ADD SWAP1 POP SWAP3 SWAP2 POP POP JUMP JUMPDEST PUSH0 PUSH2 0x36AD DUP3 PUSH2 0x3689 JUMP JUMPDEST PUSH2 0x36B7 DUP2 DUP6 PUSH2 0x3693 JUMP JUMPDEST SWAP4 POP PUSH2 0x36C7 DUP2 DUP6 PUSH1 0x20 DUP7 ADD PUSH2 0x3339 JUMP JUMPDEST PUSH2 0x36D0 DUP2 PUSH2 0x3347 JUMP JUMPDEST DUP5 ADD SWAP2 POP POP SWAP3 SWAP2 POP POP JUMP JUMPDEST PUSH0 DUP2 MLOAD SWAP1 POP SWAP2 SWAP1 POP JUMP JUMPDEST PUSH0 DUP3 DUP3 MSTORE PUSH1 0x20 DUP3 ADD SWAP1 POP SWAP3 SWAP2 POP POP JUMP JUMPDEST PUSH0 DUP2 SWAP1 POP PUSH1 0x20 DUP3 ADD SWAP1 POP SWAP2 SWAP1 POP JUMP JUMPDEST PUSH0 PUSH2 0x370F DUP4 DUP4 PUSH2 0x3651 JUMP JUMPDEST SWAP1 POP SWAP3 SWAP2 POP POP JUMP JUMPDEST PUSH0 PUSH1 0x20 DUP3 ADD SWAP1 POP SWAP2 SWAP1 POP JUMP JUMPDEST PUSH0 PUSH2 0x372D DUP3 PUSH2 0x36DB JUMP JUMPDEST PUSH2 0x3737 DUP2 DUP6 PUSH2 0x36E5 JUMP JUMPDEST SWAP4 POP DUP4 PUSH1 0x20 DUP3 MUL DUP6 ADD PUSH2 0x3749 DUP6 PUSH2 0x36F5 JUMP JUMPDEST DUP1 PUSH0 JUMPDEST DUP6 DUP2 LT ISZERO PUSH2 0x3784 JUMPI DUP5 DUP5 SUB DUP10 MSTORE DUP2 MLOAD PUSH2 0x3765 DUP6 DUP3 PUSH2 0x3704 JUMP JUMPDEST SWAP5 POP PUSH2 0x3770 DUP4 PUSH2 0x3717 JUMP JUMPDEST SWAP3 POP PUSH1 0x20 DUP11 ADD SWAP10 POP POP PUSH1 0x1 DUP2 ADD SWAP1 POP PUSH2 0x374C JUMP JUMPDEST POP DUP3 SWAP8 POP DUP8 SWAP6 POP POP POP POP POP POP SWAP3 SWAP2 POP POP JUMP JUMPDEST PUSH2 0x379F DUP2 PUSH2 0x3270 JUMP JUMPDEST DUP3 MSTORE POP POP JUMP JUMPDEST PUSH0 DUP2 MLOAD SWAP1 POP SWAP2 SWAP1 POP JUMP JUMPDEST PUSH0 DUP3 DUP3 MSTORE PUSH1 0x20 DUP3 ADD SWAP1 POP SWAP3 SWAP2 POP POP JUMP JUMPDEST PUSH0 DUP2 SWAP1 POP PUSH1 0x20 DUP3 ADD SWAP1 POP SWAP2 SWAP1 POP JUMP JUMPDEST PUSH2 0x37D7 DUP2 PUSH2 0x33C9 JUMP JUMPDEST DUP3 MSTORE POP POP JUMP JUMPDEST PUSH0 PUSH2 0x37E8 DUP4 DUP4 PUSH2 0x37CE JUMP JUMPDEST PUSH1 0x20 DUP4 ADD SWAP1 POP SWAP3 SWAP2 POP POP JUMP JUMPDEST PUSH0 PUSH1 0x20 DUP3 ADD SWAP1 POP SWAP2 SWAP1 POP JUMP JUMPDEST PUSH0 PUSH2 0x380A DUP3 PUSH2 0x37A5 JUMP JUMPDEST PUSH2 0x3814 DUP2 DUP6 PUSH2 0x37AF JUMP JUMPDEST SWAP4 POP PUSH2 0x381F DUP4 PUSH2 0x37BF JUMP JUMPDEST DUP1 PUSH0 JUMPDEST DUP4 DUP2 LT ISZERO PUSH2 0x384F JUMPI DUP2 MLOAD PUSH2 0x3836 DUP9 DUP3 PUSH2 0x37DD JUMP JUMPDEST SWAP8 POP PUSH2 0x3841 DUP4 PUSH2 0x37F4 JUMP JUMPDEST SWAP3 POP POP PUSH1 0x1 DUP2 ADD SWAP1 POP PUSH2 0x3822 JUMP JUMPDEST POP DUP6 SWAP4 POP POP POP POP SWAP3 SWAP2 POP POP JUMP JUMPDEST PUSH2 0x3865 DUP2 PUSH2 0x35D9 JUMP JUMPDEST DUP3 MSTORE POP POP JUMP JUMPDEST PUSH0 PUSH2 0x1C0 DUP4 ADD PUSH0 DUP4 ADD MLOAD DUP5 DUP3 SUB PUSH0 DUP7 ADD MSTORE PUSH2 0x3886 DUP3 DUP3 PUSH2 0x3651 JUMP JUMPDEST SWAP2 POP POP PUSH1 0x20 DUP4 ADD MLOAD DUP5 DUP3 SUB PUSH1 0x20 DUP7 ADD MSTORE PUSH2 0x38A0 DUP3 DUP3 PUSH2 0x36A3 JUMP JUMPDEST SWAP2 POP POP PUSH1 0x40 DUP4 ADD MLOAD DUP5 DUP3 SUB PUSH1 0x40 DUP7 ADD MSTORE PUSH2 0x38BA DUP3 DUP3 PUSH2 0x3723 JUMP JUMPDEST SWAP2 POP POP PUSH1 0x60 DUP4 ADD MLOAD PUSH2 0x38CF PUSH1 0x60 DUP7 ADD DUP3 PUSH2 0x3796 JUMP JUMPDEST POP PUSH1 0x80 DUP4 ADD MLOAD PUSH2 0x38E2 PUSH1 0x80 DUP7 ADD DUP3 PUSH2 0x3796 JUMP JUMPDEST POP PUSH1 0xA0 DUP4 ADD MLOAD DUP5 DUP3 SUB PUSH1 0xA0 DUP7 ADD MSTORE PUSH2 0x38FA DUP3 DUP3 PUSH2 0x3800 JUMP JUMPDEST SWAP2 POP POP PUSH1 0xC0 DUP4 ADD MLOAD PUSH2 0x390F PUSH1 0xC0 DUP7 ADD DUP3 PUSH2 0x37CE JUMP JUMPDEST POP PUSH1 0xE0 DUP4 ADD MLOAD PUSH2 0x3922 PUSH1 0xE0 DUP7 ADD DUP3 PUSH2 0x3796 JUMP JUMPDEST POP PUSH2 0x100 DUP4 ADD MLOAD PUSH2 0x3937 PUSH2 0x100 DUP7 ADD DUP3 PUSH2 0x385C JUMP JUMPDEST POP PUSH2 0x120 DUP4 ADD MLOAD PUSH2 0x394C PUSH2 0x120 DUP7 ADD DUP3 PUSH2 0x37CE JUMP JUMPDEST POP PUSH2 0x140 DUP4 ADD MLOAD PUSH2 0x3961 PUSH2 0x140 DUP7 ADD DUP3 PUSH2 0x3796 JUMP JUMPDEST POP PUSH2 0x160 DUP4 ADD MLOAD PUSH2 0x3976 PUSH2 0x160 DUP7 ADD DUP3 PUSH2 0x385C JUMP JUMPDEST POP PUSH2 0x180 DUP4 ADD MLOAD PUSH2 0x398B PUSH2 0x180 DUP7 ADD DUP3 PUSH2 0x3796 JUMP JUMPDEST POP PUSH2 0x1A0 DUP4 ADD MLOAD PUSH2 0x39A0 PUSH2 0x1A0 DUP7 ADD DUP3 PUSH2 0x3796 JUMP JUMPDEST POP DUP1 SWAP2 POP POP SWAP3 SWAP2 POP POP JUMP JUMPDEST PUSH0 PUSH1 0x20 DUP3 ADD SWAP1 POP DUP2 DUP2 SUB PUSH0 DUP4 ADD MSTORE PUSH2 0x39C3 DUP2 DUP5 PUSH2 0x386B JUMP JUMPDEST SWAP1 POP SWAP3 SWAP2 POP POP JUMP JUMPDEST PUSH2 0x39D4 DUP2 PUSH2 0x33C9 JUMP JUMPDEST DUP2 EQ PUSH2 0x39DE JUMPI PUSH0 PUSH0 REVERT JUMPDEST POP JUMP JUMPDEST PUSH0 DUP2 CALLDATALOAD SWAP1 POP PUSH2 0x39EF DUP2 PUSH2 0x39CB JUMP JUMPDEST SWAP3 SWAP2 POP POP JUMP JUMPDEST PUSH0 PUSH0 PUSH1 0x40 DUP4 DUP6 SUB SLT ISZERO PUSH2 0x3A0B JUMPI PUSH2 0x3A0A PUSH2 0x32AA JUMP JUMPDEST JUMPDEST PUSH0 PUSH2 0x3A18 DUP6 DUP3 DUP7 ADD PUSH2 0x32D1 JUMP JUMPDEST SWAP3 POP POP PUSH1 0x20 PUSH2 0x3A29 DUP6 DUP3 DUP7 ADD PUSH2 0x39E1 JUMP JUMPDEST SWAP2 POP POP SWAP3 POP SWAP3 SWAP1 POP JUMP JUMPDEST PUSH0 PUSH8 0xFFFFFFFFFFFFFFFF DUP3 GT ISZERO PUSH2 0x3A4D JUMPI PUSH2 0x3A4C PUSH2 0x3449 JUMP JUMPDEST JUMPDEST PUSH2 0x3A56 DUP3 PUSH2 0x3347 JUMP JUMPDEST SWAP1 POP PUSH1 0x20 DUP2 ADD SWAP1 POP SWAP2 SWAP1 POP JUMP JUMPDEST PUSH0 PUSH2 0x3A75 PUSH2 0x3A70 DUP5 PUSH2 0x3A33 JUMP JUMPDEST PUSH2 0x34A7 JUMP JUMPDEST SWAP1 POP DUP3 DUP2 MSTORE PUSH1 0x20 DUP2 ADD DUP5 DUP5 DUP5 ADD GT ISZERO PUSH2 0x3A91 JUMPI PUSH2 0x3A90 PUSH2 0x3445 JUMP JUMPDEST JUMPDEST PUSH2 0x3A9C DUP5 DUP3 DUP6 PUSH2 0x34F1 JUMP JUMPDEST POP SWAP4 SWAP3 POP POP POP JUMP JUMPDEST PUSH0 DUP3 PUSH1 0x1F DUP4 ADD SLT PUSH2 0x3AB8 JUMPI PUSH2 0x3AB7 PUSH2 0x3441 JUMP JUMPDEST JUMPDEST DUP2 CALLDATALOAD PUSH2 0x3AC8 DUP5 DUP3 PUSH1 0x20 DUP7 ADD PUSH2 0x3A63 JUMP JUMPDEST SWAP2 POP POP SWAP3 SWAP2 POP POP JUMP JUMPDEST PUSH0 PUSH8 0xFFFFFFFFFFFFFFFF DUP3 GT ISZERO PUSH2 0x3AEB JUMPI PUSH2 0x3AEA PUSH2 0x3449 JUMP JUMPDEST JUMPDEST PUSH1 0x20 DUP3 MUL SWAP1 POP PUSH1 0x20 DUP2 ADD SWAP1 POP SWAP2 SWAP1 POP JUMP JUMPDEST PUSH0 PUSH0 REVERT JUMPDEST PUSH0 PUSH2 0x3B12 PUSH2 0x3B0D DUP5 PUSH2 0x3AD1 JUMP JUMPDEST PUSH2 0x34A7 JUMP JUMPDEST SWAP1 POP DUP1 DUP4 DUP3 MSTORE PUSH1 0x20 DUP3 ADD SWAP1 POP PUSH1 0x20 DUP5 MUL DUP4 ADD DUP6 DUP2 GT ISZERO PUSH2 0x3B35 JUMPI PUSH2 0x3B34 PUSH2 0x3AFC JUMP JUMPDEST JUMPDEST DUP4 JUMPDEST DUP2 DUP2 LT ISZERO PUSH2 0x3B7C JUMPI DUP1 CALLDATALOAD PUSH8 0xFFFFFFFFFFFFFFFF DUP2 GT ISZERO PUSH2 0x3B5A JUMPI PUSH2 0x3B59 PUSH2 0x3441 JUMP JUMPDEST JUMPDEST DUP1 DUP7 ADD PUSH2 0x3B67 DUP10 DUP3 PUSH2 0x3540 JUMP JUMPDEST DUP6 MSTORE PUSH1 0x20 DUP6 ADD SWAP5 POP POP POP PUSH1 0x20 DUP2 ADD SWAP1 POP PUSH2 0x3B37 JUMP JUMPDEST POP POP POP SWAP4 SWAP3 POP POP POP JUMP JUMPDEST PUSH0 DUP3 PUSH1 0x1F DUP4 ADD SLT PUSH2 0x3B9A JUMPI PUSH2 0x3B99 PUSH2 0x3441 JUMP JUMPDEST JUMPDEST DUP2 CALLDATALOAD PUSH2 0x3BAA DUP5 DUP3 PUSH1 0x20 DUP7 ADD PUSH2 0x3B00 JUMP JUMPDEST SWAP2 POP POP SWAP3 SWAP2 POP POP JUMP JUMPDEST PUSH0 PUSH8 0xFFFFFFFFFFFFFFFF DUP3 GT ISZERO PUSH2 0x3BCD JUMPI PUSH2 0x3BCC PUSH2 0x3449 JUMP JUMPDEST JUMPDEST PUSH1 0x20 DUP3 MUL SWAP1 POP PUSH1 0x20 DUP2 ADD SWAP1 POP SWAP2 SWAP1 POP JUMP JUMPDEST PUSH0 PUSH2 0x3BF0 PUSH2 0x3BEB DUP5 PUSH2 0x3BB3 JUMP JUMPDEST PUSH2 0x34A7 JUMP JUMPDEST SWAP1 POP DUP1 DUP4 DUP3 MSTORE PUSH1 0x20 DUP3 ADD SWAP1 POP PUSH1 0x20 DUP5 MUL DUP4 ADD DUP6 DUP2 GT ISZERO PUSH2 0x3C13 JUMPI PUSH2 0x3C12 PUSH2 0x3AFC JUMP JUMPDEST JUMPDEST DUP4 JUMPDEST DUP2 DUP2 LT ISZERO PUSH2 0x3C3C JUMPI DUP1 PUSH2 0x3C28 DUP9 DUP3 PUSH2 0x39E1 JUMP JUMPDEST DUP5 MSTORE PUSH1 0x20 DUP5 ADD SWAP4 POP POP PUSH1 0x20 DUP2 ADD SWAP1 POP PUSH2 0x3C15 JUMP JUMPDEST POP POP POP SWAP4 SWAP3 POP POP POP JUMP JUMPDEST PUSH0 DUP3 PUSH1 0x1F DUP4 ADD SLT PUSH2 0x3C5A JUMPI PUSH2 0x3C59 PUSH2 0x3441 JUMP JUMPDEST JUMPDEST DUP2 CALLDATALOAD PUSH2 0x3C6A DUP5 DUP3 PUSH1 0x20 DUP7 ADD PUSH2 0x3BDE JUMP JUMPDEST SWAP2 POP POP SWAP3 SWAP2 POP POP JUMP JUMPDEST PUSH2 0x3C7C DUP2 PUSH2 0x3270 JUMP JUMPDEST DUP2 EQ PUSH2 0x3C86 JUMPI PUSH0 PUSH0 REVERT JUMPDEST POP JUMP JUMPDEST PUSH0 DUP2 CALLDATALOAD SWAP1 POP PUSH2 0x3C97 DUP2 PUSH2 0x3C73 JUMP JUMPDEST SWAP3 SWAP2 POP POP JUMP JUMPDEST PUSH2 0x3CA6 DUP2 PUSH2 0x35D9 JUMP JUMPDEST DUP2 EQ PUSH2 0x3CB0 JUMPI PUSH0 PUSH0 REVERT JUMPDEST POP JUMP JUMPDEST PUSH0 DUP2 CALLDATALOAD SWAP1 POP PUSH2 0x3CC1 DUP2 PUSH2 0x3C9D JUMP JUMPDEST SWAP3 SWAP2 POP POP JUMP JUMPDEST PUSH0 PUSH0 PUSH0 PUSH0 PUSH0 PUSH0 PUSH0 PUSH0 PUSH0 PUSH0 PUSH2 0x140 DUP12 DUP14 SUB SLT ISZERO PUSH2 0x3CE6 JUMPI PUSH2 0x3CE5 PUSH2 0x32AA JUMP JUMPDEST JUMPDEST PUSH0 PUSH2 0x3CF3 DUP14 DUP3 DUP15 ADD PUSH2 0x32D1 JUMP JUMPDEST SWAP11 POP POP PUSH1 0x20 DUP12 ADD CALLDATALOAD PUSH8 0xFFFFFFFFFFFFFFFF DUP2 GT ISZERO PUSH2 0x3D14 JUMPI PUSH2 0x3D13 PUSH2 0x32AE JUMP JUMPDEST JUMPDEST PUSH2 0x3D20 DUP14 DUP3 DUP15 ADD PUSH2 0x3540 JUMP JUMPDEST SWAP10 POP POP PUSH1 0x40 DUP12 ADD CALLDATALOAD PUSH8 0xFFFFFFFFFFFFFFFF DUP2 GT ISZERO PUSH2 0x3D41 JUMPI PUSH2 0x3D40 PUSH2 0x32AE JUMP JUMPDEST JUMPDEST PUSH2 0x3D4D DUP14 DUP3 DUP15 ADD PUSH2 0x3AA4 JUMP JUMPDEST SWAP9 POP POP PUSH1 0x60 DUP12 ADD CALLDATALOAD PUSH8 0xFFFFFFFFFFFFFFFF DUP2 GT ISZERO PUSH2 0x3D6E JUMPI PUSH2 0x3D6D PUSH2 0x32AE JUMP JUMPDEST JUMPDEST PUSH2 0x3D7A DUP14 DUP3 DUP15 ADD PUSH2 0x3B86 JUMP JUMPDEST SWAP8 POP POP PUSH1 0x80 DUP12 ADD CALLDATALOAD PUSH8 0xFFFFFFFFFFFFFFFF DUP2 GT ISZERO PUSH2 0x3D9B JUMPI PUSH2 0x3D9A PUSH2 0x32AE JUMP JUMPDEST JUMPDEST PUSH2 0x3DA7 DUP14 DUP3 DUP15 ADD PUSH2 0x3C46 JUMP JUMPDEST SWAP7 POP POP PUSH1 0xA0 PUSH2 0x3DB8 DUP14 DUP3 DUP15 ADD PUSH2 0x3C89 JUMP JUMPDEST SWAP6 POP POP PUSH1 0xC0 PUSH2 0x3DC9 DUP14 DUP3 DUP15 ADD PUSH2 0x3CB3 JUMP JUMPDEST SWAP5 POP POP PUSH1 0xE0 PUSH2 0x3DDA DUP14 DUP3 DUP15 ADD PUSH2 0x39E1 JUMP JUMPDEST SWAP4 POP POP PUSH2 0x100 PUSH2 0x3DEC DUP14 DUP3 DUP15 ADD PUSH2 0x3C89 JUMP JUMPDEST SWAP3 POP POP PUSH2 0x120 PUSH2 0x3DFE DUP14 DUP3 DUP15 ADD PUSH2 0x3CB3 JUMP JUMPDEST SWAP2 POP POP SWAP3 SWAP6 SWAP9 SWAP12 SWAP2 SWAP5 SWAP8 SWAP11 POP SWAP3 SWAP6 SWAP9 POP JUMP JUMPDEST PUSH0 PUSH0 PUSH1 0x40 DUP4 DUP6 SUB SLT ISZERO PUSH2 0x3E26 JUMPI PUSH2 0x3E25 PUSH2 0x32AA JUMP JUMPDEST JUMPDEST PUSH0 PUSH2 0x3E33 DUP6 DUP3 DUP7 ADD PUSH2 0x39E1 JUMP JUMPDEST SWAP3 POP POP PUSH1 0x20 PUSH2 0x3E44 DUP6 DUP3 DUP7 ADD PUSH2 0x3C89 JUMP JUMPDEST SWAP2 POP POP SWAP3 POP SWAP3 SWAP1 POP JUMP JUMPDEST PUSH0 PUSH1 0x20 DUP3 ADD SWAP1 POP PUSH2 0x3E61 PUSH0 DUP4 ADD DUP5 PUSH2 0x3310 JUMP JUMPDEST SWAP3 SWAP2 POP POP JUMP JUMPDEST PUSH0 PUSH1 0x20 DUP3 DUP5 SUB SLT ISZERO PUSH2 0x3E7C JUMPI PUSH2 0x3E7B PUSH2 0x32AA JUMP JUMPDEST JUMPDEST PUSH0 PUSH2 0x3E89 DUP5 DUP3 DUP6 ADD PUSH2 0x39E1 JUMP JUMPDEST SWAP2 POP POP SWAP3 SWAP2 POP POP JUMP JUMPDEST PUSH0 DUP2 MLOAD SWAP1 POP SWAP2 SWAP1 POP JUMP JUMPDEST PUSH0 DUP3 DUP3 MSTORE PUSH1 0x20 DUP3 ADD SWAP1 POP SWAP3 SWAP2 POP POP JUMP JUMPDEST PUSH0 DUP2 SWAP1 POP PUSH1 0x20 DUP3 ADD SWAP1 POP SWAP2 SWAP1 POP JUMP JUMPDEST PUSH2 0x3EC4 DUP2 PUSH2 0x32B2 JUMP JUMPDEST DUP3 MSTORE POP POP JUMP JUMPDEST PUSH0 PUSH2 0x3ED5 DUP4 DUP4 PUSH2 0x3EBB JUMP JUMPDEST PUSH1 0x20 DUP4 ADD SWAP1 POP SWAP3 SWAP2 POP POP JUMP JUMPDEST PUSH0 PUSH1 0x20 DUP3 ADD SWAP1 POP SWAP2 SWAP1 POP JUMP JUMPDEST PUSH0 PUSH2 0x3EF7 DUP3 PUSH2 0x3E92 JUMP JUMPDEST PUSH2 0x3F01 DUP2 DUP6 PUSH2 0x3E9C JUMP JUMPDEST SWAP4 POP PUSH2 0x3F0C DUP4 PUSH2 0x3EAC JUMP JUMPDEST DUP1 PUSH0 JUMPDEST DUP4 DUP2 LT ISZERO PUSH2 0x3F3C JUMPI DUP2 MLOAD PUSH2 0x3F23 DUP9 DUP3 PUSH2 0x3ECA JUMP JUMPDEST SWAP8 POP PUSH2 0x3F2E DUP4 PUSH2 0x3EE1 JUMP JUMPDEST SWAP3 POP POP PUSH1 0x1 DUP2 ADD SWAP1 POP PUSH2 0x3F0F JUMP JUMPDEST POP DUP6 SWAP4 POP POP POP POP SWAP3 SWAP2 POP POP JUMP JUMPDEST PUSH0 PUSH1 0x20 DUP3 ADD SWAP1 POP DUP2 DUP2 SUB PUSH0 DUP4 ADD MSTORE PUSH2 0x3F61 DUP2 DUP5 PUSH2 0x3EED JUMP JUMPDEST SWAP1 POP SWAP3 SWAP2 POP POP JUMP JUMPDEST PUSH0 PUSH2 0x3F73 DUP3 PUSH2 0x33AA JUMP JUMPDEST SWAP1 POP SWAP2 SWAP1 POP JUMP JUMPDEST PUSH2 0x3F83 DUP2 PUSH2 0x3F69 JUMP JUMPDEST DUP2 EQ PUSH2 0x3F8D JUMPI PUSH0 PUSH0 REVERT JUMPDEST POP JUMP JUMPDEST PUSH0 DUP2 CALLDATALOAD SWAP1 POP PUSH2 0x3F9E DUP2 PUSH2 0x3F7A JUMP JUMPDEST SWAP3 SWAP2 POP POP JUMP JUMPDEST PUSH0 PUSH0 PUSH1 0x40 DUP4 DUP6 SUB SLT ISZERO PUSH2 0x3FBA JUMPI PUSH2 0x3FB9 PUSH2 0x32AA JUMP JUMPDEST JUMPDEST PUSH0 PUSH2 0x3FC7 DUP6 DUP3 DUP7 ADD PUSH2 0x3F90 JUMP JUMPDEST SWAP3 POP POP PUSH1 0x20 PUSH2 0x3FD8 DUP6 DUP3 DUP7 ADD PUSH2 0x3C89 JUMP JUMPDEST SWAP2 POP POP SWAP3 POP SWAP3 SWAP1 POP JUMP JUMPDEST PUSH0 PUSH0 PUSH1 0x40 DUP4 DUP6 SUB SLT ISZERO PUSH2 0x3FF8 JUMPI PUSH2 0x3FF7 PUSH2 0x32AA JUMP JUMPDEST JUMPDEST PUSH0 PUSH2 0x4005 DUP6 DUP3 DUP7 ADD PUSH2 0x32D1 JUMP JUMPDEST SWAP3 POP POP PUSH1 0x20 PUSH2 0x4016 DUP6 DUP3 DUP7 ADD PUSH2 0x32D1 JUMP JUMPDEST SWAP2 POP POP SWAP3 POP SWAP3 SWAP1 POP JUMP JUMPDEST PUSH2 0x4029 DUP2 PUSH2 0x338F JUMP JUMPDEST DUP2 EQ PUSH2 0x4033 JUMPI PUSH0 PUSH0 REVERT JUMPDEST POP JUMP JUMPDEST PUSH0 DUP2 CALLDATALOAD SWAP1 POP PUSH2 0x4044 DUP2 PUSH2 0x4020 JUMP JUMPDEST SWAP3 SWAP2 POP POP JUMP JUMPDEST PUSH0 PUSH0 PUSH0 PUSH0 PUSH0 PUSH1 0xA0 DUP7 DUP9 SUB SLT ISZERO PUSH2 0x4063 JUMPI PUSH2 0x4062 PUSH2 0x32AA JUMP JUMPDEST JUMPDEST PUSH0 PUSH2 0x4070 DUP9 DUP3 DUP10 ADD PUSH2 0x32D1 JUMP JUMPDEST SWAP6 POP POP PUSH1 0x20 DUP7 ADD CALLDATALOAD PUSH8 0xFFFFFFFFFFFFFFFF DUP2 GT ISZERO PUSH2 0x4091 JUMPI PUSH2 0x4090 PUSH2 0x32AE JUMP JUMPDEST JUMPDEST PUSH2 0x409D DUP9 DUP3 DUP10 ADD PUSH2 0x3540 JUMP JUMPDEST SWAP5 POP POP PUSH1 0x40 PUSH2 0x40AE DUP9 DUP3 DUP10 ADD PUSH2 0x4036 JUMP JUMPDEST SWAP4 POP POP PUSH1 0x60 PUSH2 0x40BF DUP9 DUP3 DUP10 ADD PUSH2 0x3CB3 JUMP JUMPDEST SWAP3 POP POP PUSH1 0x80 DUP7 ADD CALLDATALOAD PUSH8 0xFFFFFFFFFFFFFFFF DUP2 GT ISZERO PUSH2 0x40E0 JUMPI PUSH2 0x40DF PUSH2 0x32AE JUMP JUMPDEST JUMPDEST PUSH2 0x40EC DUP9 DUP3 DUP10 ADD PUSH2 0x3AA4 JUMP JUMPDEST SWAP2 POP POP SWAP3 SWAP6 POP SWAP3 SWAP6 SWAP1 SWAP4 POP JUMP JUMPDEST PUSH0 PUSH1 0x20 DUP3 ADD SWAP1 POP PUSH2 0x410C PUSH0 DUP4 ADD DUP5 PUSH2 0x33DA JUMP JUMPDEST SWAP3 SWAP2 POP POP JUMP JUMPDEST PUSH0 PUSH1 0x20 DUP3 DUP5 SUB SLT ISZERO PUSH2 0x4127 JUMPI PUSH2 0x4126 PUSH2 0x32AA JUMP JUMPDEST JUMPDEST PUSH0 PUSH2 0x4134 DUP5 DUP3 DUP6 ADD PUSH2 0x3C89 JUMP JUMPDEST SWAP2 POP POP SWAP3 SWAP2 POP POP JUMP JUMPDEST PUSH0 PUSH0 PUSH0 PUSH0 PUSH0 PUSH1 0xA0 DUP7 DUP9 SUB SLT ISZERO PUSH2 0x4156 JUMPI PUSH2 0x4155 PUSH2 0x32AA JUMP JUMPDEST JUMPDEST PUSH0 PUSH2 0x4163 DUP9 DUP3 DUP10 ADD PUSH2 0x39E1 JUMP JUMPDEST SWAP6 POP POP PUSH1 0x20 PUSH2 0x4174 DUP9 DUP3 DUP10 ADD PUSH2 0x39E1 JUMP JUMPDEST SWAP5 POP POP PUSH1 0x40 PUSH2 0x4185 DUP9 DUP3 DUP10 ADD PUSH2 0x3C89 JUMP JUMPDEST SWAP4 POP POP PUSH1 0x60 PUSH2 0x4196 DUP9 DUP3 DUP10 ADD PUSH2 0x3CB3 JUMP JUMPDEST SWAP3 POP POP PUSH1 0x80 DUP7 ADD CALLDATALOAD PUSH8 0xFFFFFFFFFFFFFFFF DUP2 GT ISZERO PUSH2 0x41B7 JUMPI PUSH2 0x41B6 PUSH2 0x32AE JUMP JUMPDEST JUMPDEST PUSH2 0x41C3 DUP9 DUP3 DUP10 ADD PUSH2 0x3AA4 JUMP JUMPDEST SWAP2 POP POP SWAP3 SWAP6 POP SWAP3 SWAP6 SWAP1 SWAP4 POP JUMP JUMPDEST PUSH0 PUSH1 0x20 DUP3 ADD SWAP1 POP DUP2 DUP2 SUB PUSH0 DUP4 ADD MSTORE PUSH2 0x41E8 DUP2 DUP5 PUSH2 0x3357 JUMP JUMPDEST SWAP1 POP SWAP3 SWAP2 POP POP JUMP JUMPDEST PUSH0 PUSH0 PUSH0 PUSH0 PUSH0 PUSH0 PUSH0 PUSH0 PUSH0 PUSH0 PUSH0 PUSH2 0x160 DUP13 DUP15 SUB SLT ISZERO PUSH2 0x4210 JUMPI PUSH2 0x420F PUSH2 0x32AA JUMP JUMPDEST JUMPDEST PUSH0 DUP13 ADD CALLDATALOAD PUSH8 0xFFFFFFFFFFFFFFFF DUP2 GT ISZERO PUSH2 0x422D JUMPI PUSH2 0x422C PUSH2 0x32AE JUMP JUMPDEST JUMPDEST PUSH2 0x4239 DUP15 DUP3 DUP16 ADD PUSH2 0x3540 JUMP JUMPDEST SWAP12 POP POP PUSH1 0x20 DUP13 ADD CALLDATALOAD PUSH8 0xFFFFFFFFFFFFFFFF DUP2 GT ISZERO PUSH2 0x425A JUMPI PUSH2 0x4259 PUSH2 0x32AE JUMP JUMPDEST JUMPDEST PUSH2 0x4266 DUP15 DUP3 DUP16 ADD PUSH2 0x3540 JUMP JUMPDEST SWAP11 POP POP PUSH1 0x40 DUP13 ADD CALLDATALOAD PUSH8 0xFFFFFFFFFFFFFFFF DUP2 GT ISZERO PUSH2 0x4287 JUMPI PUSH2 0x4286 PUSH2 0x32AE JUMP JUMPDEST JUMPDEST PUSH2 0x4293 DUP15 DUP3 DUP16 ADD PUSH2 0x3B86 JUMP JUMPDEST SWAP10 POP POP PUSH1 0x60 PUSH2 0x42A4 DUP15 DUP3 DUP16 ADD PUSH2 0x3C89 JUMP JUMPDEST SWAP9 POP POP PUSH1 0x80 PUSH2 0x42B5 DUP15 DUP3 DUP16 ADD PUSH2 0x3C89 JUMP JUMPDEST SWAP8 POP POP PUSH1 0xA0 DUP13 ADD CALLDATALOAD PUSH8 0xFFFFFFFFFFFFFFFF DUP2 GT ISZERO PUSH2 0x42D6 JUMPI PUSH2 0x42D5 PUSH2 0x32AE JUMP JUMPDEST JUMPDEST PUSH2 0x42E2 DUP15 DUP3 DUP16 ADD PUSH2 0x3C46 JUMP JUMPDEST SWAP7 POP POP PUSH1 0xC0 PUSH2 0x42F3 DUP15 DUP3 DUP16 ADD PUSH2 0x3C89 JUMP JUMPDEST SWAP6 POP POP PUSH1 0xE0 PUSH2 0x4304 DUP15 DUP3 DUP16 ADD PUSH2 0x3CB3 JUMP JUMPDEST SWAP5 POP POP PUSH2 0x100 PUSH2 0x4316 DUP15 DUP3 DUP16 ADD PUSH2 0x39E1 JUMP JUMPDEST SWAP4 POP POP PUSH2 0x120 PUSH2 0x4328 DUP15 DUP3 DUP16 ADD PUSH2 0x3C89 JUMP JUMPDEST SWAP3 POP POP PUSH2 0x140 PUSH2 0x433A DUP15 DUP3 DUP16 ADD PUSH2 0x3CB3 JUMP JUMPDEST SWAP2 POP POP SWAP3 SWAP6 SWAP9 SWAP12 POP SWAP3 SWAP6 SWAP9 SWAP12 SWAP1 SWAP4 SWAP7 SWAP10 POP JUMP JUMPDEST PUSH0 DUP2 MLOAD SWAP1 POP SWAP2 SWAP1 POP JUMP JUMPDEST PUSH0 DUP3 DUP3 MSTORE PUSH1 0x20 DUP3 ADD SWAP1 POP SWAP3 SWAP2 POP POP JUMP JUMPDEST PUSH0 DUP2 SWAP1 POP PUSH1 0x20 DUP3 ADD SWAP1 POP SWAP2 SWAP1 POP JUMP JUMPDEST PUSH2 0x437F DUP2 PUSH2 0x338F JUMP JUMPDEST DUP3 MSTORE POP POP JUMP JUMPDEST PUSH0 PUSH1 0xC0 DUP4 ADD PUSH0 DUP4 ADD MLOAD PUSH2 0x439A PUSH0 DUP7 ADD DUP3 PUSH2 0x3EBB JUMP JUMPDEST POP PUSH1 0x20 DUP4 ADD MLOAD PUSH2 0x43AD PUSH1 0x20 DUP7 ADD DUP3 PUSH2 0x3EBB JUMP JUMPDEST POP PUSH1 0x40 DUP4 ADD MLOAD DUP5 DUP3 SUB PUSH1 0x40 DUP7 ADD MSTORE PUSH2 0x43C5 DUP3 DUP3 PUSH2 0x3651 JUMP JUMPDEST SWAP2 POP POP PUSH1 0x60 DUP4 ADD MLOAD PUSH2 0x43DA PUSH1 0x60 DUP7 ADD DUP3 PUSH2 0x4376 JUMP JUMPDEST POP PUSH1 0x80 DUP4 ADD MLOAD PUSH2 0x43ED PUSH1 0x80 DUP7 ADD DUP3 PUSH2 0x37CE JUMP JUMPDEST POP PUSH1 0xA0 DUP4 ADD MLOAD PUSH2 0x4400 PUSH1 0xA0 DUP7 ADD DUP3 PUSH2 0x3796 JUMP JUMPDEST POP DUP1 SWAP2 POP POP SWAP3 SWAP2 POP POP JUMP JUMPDEST PUSH0 PUSH2 0x4416 DUP4 DUP4 PUSH2 0x4385 JUMP JUMPDEST SWAP1 POP SWAP3 SWAP2 POP POP JUMP JUMPDEST PUSH0 PUSH1 0x20 DUP3 ADD SWAP1 POP SWAP2 SWAP1 POP JUMP JUMPDEST PUSH0 PUSH2 0x4434 DUP3 PUSH2 0x434D JUMP JUMPDEST PUSH2 0x443E DUP2 DUP6 PUSH2 0x4357 JUMP JUMPDEST SWAP4 POP DUP4 PUSH1 0x20 DUP3 MUL DUP6 ADD PUSH2 0x4450 DUP6 PUSH2 0x4367 JUMP JUMPDEST DUP1 PUSH0 JUMPDEST DUP6 DUP2 LT ISZERO PUSH2 0x448B JUMPI DUP5 DUP5 SUB DUP10 MSTORE DUP2 MLOAD PUSH2 0x446C DUP6 DUP3 PUSH2 0x440B JUMP JUMPDEST SWAP5 POP PUSH2 0x4477 DUP4 PUSH2 0x441E JUMP JUMPDEST SWAP3 POP PUSH1 0x20 DUP11 ADD SWAP10 POP POP PUSH1 0x1 DUP2 ADD SWAP1 POP PUSH2 0x4453 JUMP JUMPDEST POP DUP3 SWAP8 POP DUP8 SWAP6 POP POP POP POP POP POP SWAP3 SWAP2 POP POP JUMP JUMPDEST PUSH0 PUSH1 0x20 DUP3 ADD SWAP1 POP DUP2 DUP2 SUB PUSH0 DUP4 ADD MSTORE PUSH2 0x44B5 DUP2 DUP5 PUSH2 0x442A JUMP JUMPDEST SWAP1 POP SWAP3 SWAP2 POP POP JUMP JUMPDEST PUSH0 DUP3 DUP3 MSTORE PUSH1 0x20 DUP3 ADD SWAP1 POP SWAP3 SWAP2 POP POP JUMP JUMPDEST PUSH0 PUSH2 0x44D7 DUP3 PUSH2 0x3689 JUMP JUMPDEST PUSH2 0x44E1 DUP2 DUP6 PUSH2 0x44BD JUMP JUMPDEST SWAP4 POP PUSH2 0x44F1 DUP2 DUP6 PUSH1 0x20 DUP7 ADD PUSH2 0x3339 JUMP JUMPDEST PUSH2 0x44FA DUP2 PUSH2 0x3347 JUMP JUMPDEST DUP5 ADD SWAP2 POP POP SWAP3 SWAP2 POP POP JUMP JUMPDEST PUSH0 PUSH2 0x180 DUP3 ADD SWAP1 POP DUP2 DUP2 SUB PUSH0 DUP4 ADD MSTORE PUSH2 0x451E DUP2 DUP16 PUSH2 0x3357 JUMP JUMPDEST SWAP1 POP DUP2 DUP2 SUB PUSH1 0x20 DUP4 ADD MSTORE PUSH2 0x4532 DUP2 DUP15 PUSH2 0x44CD JUMP JUMPDEST SWAP1 POP PUSH2 0x4541 PUSH1 0x40 DUP4 ADD DUP14 PUSH2 0x3279 JUMP JUMPDEST PUSH2 0x454E PUSH1 0x60 DUP4 ADD DUP13 PUSH2 0x3279 JUMP JUMPDEST PUSH2 0x455B PUSH1 0x80 DUP4 ADD DUP12 PUSH2 0x33DA JUMP JUMPDEST PUSH2 0x4568 PUSH1 0xA0 DUP4 ADD DUP11 PUSH2 0x3279 JUMP JUMPDEST PUSH2 0x4575 PUSH1 0xC0 DUP4 ADD DUP10 PUSH2 0x35E4 JUMP JUMPDEST PUSH2 0x4582 PUSH1 0xE0 DUP4 ADD DUP9 PUSH2 0x33DA JUMP JUMPDEST PUSH2 0x4590 PUSH2 0x100 DUP4 ADD DUP8 PUSH2 0x3279 JUMP JUMPDEST PUSH2 0x459E PUSH2 0x120 DUP4 ADD DUP7 PUSH2 0x35E4 JUMP JUMPDEST PUSH2 0x45AC PUSH2 0x140 DUP4 ADD DUP6 PUSH2 0x3279 JUMP JUMPDEST PUSH2 0x45BA PUSH2 0x160 DUP4 ADD DUP5 PUSH2 0x3279 JUMP JUMPDEST SWAP14 SWAP13 POP POP POP POP POP POP POP POP POP POP POP POP POP JUMP JUMPDEST PUSH0 DUP2 MLOAD SWAP1 POP SWAP2 SWAP1 POP JUMP JUMPDEST PUSH0 DUP3 DUP3 MSTORE PUSH1 0x20 DUP3 ADD SWAP1 POP SWAP3 SWAP2 POP POP JUMP JUMPDEST PUSH0 DUP2 SWAP1 POP PUSH1 0x20 DUP3 ADD SWAP1 POP SWAP2 SWAP1 POP JUMP JUMPDEST PUSH0 PUSH2 0x1A0 DUP4 ADD PUSH0 DUP4 ADD MLOAD PUSH2 0x460A PUSH0 DUP7 ADD DUP3 PUSH2 0x3EBB JUMP JUMPDEST POP PUSH1 0x20 DUP4 ADD MLOAD DUP5 DUP3 SUB PUSH1 0x20 DUP7 ADD MSTORE PUSH2 0x4622 DUP3 DUP3 PUSH2 0x3651 JUMP JUMPDEST SWAP2 POP POP PUSH1 0x40 DUP4 ADD MLOAD DUP5 DUP3 SUB PUSH1 0x40 DUP7 ADD MSTORE PUSH2 0x463C DUP3 DUP3 PUSH2 0x36A3 JUMP JUMPDEST SWAP2 POP POP PUSH1 0x60 DUP4 ADD MLOAD DUP5 DUP3 SUB PUSH1 0x60 DUP7 ADD MSTORE PUSH2 0x4656 DUP3 DUP3 PUSH2 0x3723 JUMP JUMPDEST SWAP2 POP POP PUSH1 0x80 DUP4 ADD MLOAD PUSH2 0x466B PUSH1 0x80 DUP7 ADD DUP3 PUSH2 0x3796 JUMP JUMPDEST POP PUSH1 0xA0 DUP4 ADD MLOAD PUSH2 0x467E PUSH1 0xA0 DUP7 ADD DUP3 PUSH2 0x3796 JUMP JUMPDEST POP PUSH1 0xC0 DUP4 ADD MLOAD DUP5 DUP3 SUB PUSH1 0xC0 DUP7 ADD MSTORE PUSH2 0x4696 DUP3 DUP3 PUSH2 0x3800 JUMP JUMPDEST SWAP2 POP POP PUSH1 0xE0 DUP4 ADD MLOAD PUSH2 0x46AB PUSH1 0xE0 DUP7 ADD DUP3 PUSH2 0x3796 JUMP JUMPDEST POP PUSH2 0x100 DUP4 ADD MLOAD PUSH2 0x46C0 PUSH2 0x100 DUP7 ADD DUP3 PUSH2 0x3796 JUMP JUMPDEST POP PUSH2 0x120 DUP4 ADD MLOAD PUSH2 0x46D5 PUSH2 0x120 DUP7 ADD DUP3 PUSH2 0x37CE JUMP JUMPDEST POP PUSH2 0x140 DUP4 ADD MLOAD PUSH2 0x46EA PUSH2 0x140 DUP7 ADD DUP3 PUSH2 0x385C JUMP JUMPDEST POP PUSH2 0x160 DUP4 ADD MLOAD PUSH2 0x46FF PUSH2 0x160 DUP7 ADD DUP3 PUSH2 0x3796 JUMP JUMPDEST POP PUSH2 0x180 DUP4 ADD MLOAD PUSH2 0x4714 PUSH2 0x180 DUP7 ADD DUP3 PUSH2 0x3796 JUMP JUMPDEST POP DUP1 SWAP2 POP POP SWAP3 SWAP2 POP POP JUMP JUMPDEST PUSH0 PUSH2 0x472A DUP4 DUP4 PUSH2 0x45F4 JUMP JUMPDEST SWAP1 POP SWAP3 SWAP2 POP POP JUMP JUMPDEST PUSH0 PUSH1 0x20 DUP3 ADD SWAP1 POP SWAP2 SWAP1 POP JUMP JUMPDEST PUSH0 PUSH2 0x4748 DUP3 PUSH2 0x45CB JUMP JUMPDEST PUSH2 0x4752 DUP2 DUP6 PUSH2 0x45D5 JUMP JUMPDEST SWAP4 POP DUP4 PUSH1 0x20 DUP3 MUL DUP6 ADD PUSH2 0x4764 DUP6 PUSH2 0x45E5 JUMP JUMPDEST DUP1 PUSH0 JUMPDEST DUP6 DUP2 LT ISZERO PUSH2 0x479F JUMPI DUP5 DUP5 SUB DUP10 MSTORE DUP2 MLOAD PUSH2 0x4780 DUP6 DUP3 PUSH2 0x471F JUMP JUMPDEST SWAP5 POP PUSH2 0x478B DUP4 PUSH2 0x4732 JUMP JUMPDEST SWAP3 POP PUSH1 0x20 DUP11 ADD SWAP10 POP POP PUSH1 0x1 DUP2 ADD SWAP1 POP PUSH2 0x4767 JUMP JUMPDEST POP DUP3 SWAP8 POP DUP8 SWAP6 POP POP POP POP POP POP SWAP3 SWAP2 POP POP JUMP JUMPDEST PUSH0 PUSH1 0x40 DUP3 ADD SWAP1 POP DUP2 DUP2 SUB PUSH0 DUP4 ADD MSTORE PUSH2 0x47C9 DUP2 DUP6 PUSH2 0x473E JUMP JUMPDEST SWAP1 POP PUSH2 0x47D8 PUSH1 0x20 DUP4 ADD DUP5 PUSH2 0x35E4 JUMP JUMPDEST SWAP4 SWAP3 POP POP POP JUMP JUMPDEST PUSH32 0x4E487B7100000000000000000000000000000000000000000000000000000000 PUSH0 MSTORE PUSH1 0x22 PUSH1 0x4 MSTORE PUSH1 0x24 PUSH0 REVERT JUMPDEST PUSH0 PUSH1 0x2 DUP3 DIV SWAP1 POP PUSH1 0x1 DUP3 AND DUP1 PUSH2 0x4823 JUMPI PUSH1 0x7F DUP3 AND SWAP2 POP JUMPDEST PUSH1 0x20 DUP3 LT DUP2 SUB PUSH2 0x4836 JUMPI PUSH2 0x4835 PUSH2 0x47DF JUMP JUMPDEST JUMPDEST POP SWAP2 SWAP1 POP JUMP JUMPDEST PUSH0 DUP2 SWAP1 POP DUP2 PUSH0 MSTORE PUSH1 0x20 PUSH0 KECCAK256 SWAP1 POP SWAP2 SWAP1 POP JUMP JUMPDEST PUSH0 PUSH1 0x20 PUSH1 0x1F DUP4 ADD DIV SWAP1 POP SWAP2 SWAP1 POP JUMP JUMPDEST PUSH0 DUP3 DUP3 SHL SWAP1 POP SWAP3 SWAP2 POP POP JUMP JUMPDEST PUSH0 PUSH1 0x8 DUP4 MUL PUSH2 0x4898 PUSH32 0xFFFFFFFFFFFFFFFFFFFFFFFFFFFFFFFFFFFFFFFFFFFFFFFFFFFFFFFFFFFFFFFF DUP3 PUSH2 0x485D JUMP JUMPDEST PUSH2 0x48A2 DUP7 DUP4 PUSH2 0x485D JUMP JUMPDEST SWAP6 POP DUP1 NOT DUP5 AND SWAP4 POP DUP1 DUP7 AND DUP5 OR SWAP3 POP POP POP SWAP4 SWAP3 POP POP POP JUMP JUMPDEST PUSH0 DUP2 SWAP1 POP SWAP2 SWAP1 POP JUMP JUMPDEST PUSH0 PUSH2 0x48DD PUSH2 0x48D8 PUSH2 0x48D3 DUP5 PUSH2 0x3270 JUMP JUMPDEST PUSH2 0x48BA JUMP JUMPDEST PUSH2 0x3270 JUMP JUMPDEST SWAP1 POP SWAP2 SWAP1 POP JUMP JUMPDEST PUSH0 DUP2 SWAP1 POP SWAP2 SWAP1 POP JUMP JUMPDEST PUSH2 0x48F6 DUP4 PUSH2 0x48C3 JUMP JUMPDEST PUSH2 0x490A PUSH2 0x4902 DUP3 PUSH2 0x48E4 JUMP JUMPDEST DUP5 DUP5 SLOAD PUSH2 0x4869 JUMP JUMPDEST DUP3 SSTORE POP POP POP POP JUMP JUMPDEST PUSH0 PUSH0 SWAP1 POP SWAP1 JUMP JUMPDEST PUSH2 0x4921 PUSH2 0x4912 JUMP JUMPDEST PUSH2 0x492C DUP2 DUP5 DUP5 PUSH2 0x48ED JUMP JUMPDEST POP POP POP JUMP JUMPDEST JUMPDEST DUP2 DUP2 LT ISZERO PUSH2 0x494F JUMPI PUSH2 0x4944 PUSH0 DUP3 PUSH2 0x4919 JUMP JUMPDEST PUSH1 0x1 DUP2 ADD SWAP1 POP PUSH2 0x4932 JUMP JUMPDEST POP POP JUMP JUMPDEST PUSH1 0x1F DUP3 GT ISZERO PUSH2 0x4994 JUMPI PUSH2 0x4965 DUP2 PUSH2 0x483C JUMP JUMPDEST PUSH2 0x496E DUP5 PUSH2 0x484E JUMP JUMPDEST DUP2 ADD PUSH1 0x20 DUP6 LT ISZERO PUSH2 0x497D JUMPI DUP2 SWAP1 POP JUMPDEST PUSH2 0x4991 PUSH2 0x4989 DUP6 PUSH2 0x484E JUMP JUMPDEST DUP4 ADD DUP3 PUSH2 0x4931 JUMP JUMPDEST POP POP JUMPDEST POP POP POP JUMP JUMPDEST PUSH0 DUP3 DUP3 SHR SWAP1 POP SWAP3 SWAP2 POP POP JUMP JUMPDEST PUSH0 PUSH2 0x49B4 PUSH0 NOT DUP5 PUSH1 0x8 MUL PUSH2 0x4999 JUMP JUMPDEST NOT DUP1 DUP4 AND SWAP2 POP POP SWAP3 SWAP2 POP POP JUMP JUMPDEST PUSH0 PUSH2 0x49CC DUP4 DUP4 PUSH2 0x49A5 JUMP JUMPDEST SWAP2 POP DUP3 PUSH1 0x2 MUL DUP3 OR SWAP1 POP SWAP3 SWAP2 POP POP JUMP JUMPDEST PUSH2 0x49E5 DUP3 PUSH2 0x331F JUMP JUMPDEST PUSH8 0xFFFFFFFFFFFFFFFF DUP2 GT ISZERO PUSH2 0x49FE JUMPI PUSH2 0x49FD PUSH2 0x3449 JUMP JUMPDEST JUMPDEST PUSH2 0x4A08 DUP3 SLOAD PUSH2 0x480C JUMP JUMPDEST PUSH2 0x4A13 DUP3 DUP3 DUP6 PUSH2 0x4953 JUMP JUMPDEST PUSH0 PUSH1 0x20 SWAP1 POP PUSH1 0x1F DUP4 GT PUSH1 0x1 DUP2 EQ PUSH2 0x4A44 JUMPI PUSH0 DUP5 ISZERO PUSH2 0x4A32 JUMPI DUP3 DUP8 ADD MLOAD SWAP1 POP JUMPDEST PUSH2 0x4A3C DUP6 DUP3 PUSH2 0x49C1 JUMP JUMPDEST DUP7 SSTORE POP PUSH2 0x4AA3 JUMP JUMPDEST PUSH1 0x1F NOT DUP5 AND PUSH2 0x4A52 DUP7 PUSH2 0x483C JUMP JUMPDEST PUSH0 JUMPDEST DUP3 DUP2 LT ISZERO PUSH2 0x4A79 JUMPI DUP5 DUP10 ADD MLOAD DUP3 SSTORE PUSH1 0x1 DUP3 ADD SWAP2 POP PUSH1 0x20 DUP6 ADD SWAP5 POP PUSH1 0x20 DUP2 ADD SWAP1 POP PUSH2 0x4A54 JUMP JUMPDEST DUP7 DUP4 LT ISZERO PUSH2 0x4A96 JUMPI DUP5 DUP10 ADD MLOAD PUSH2 0x4A92 PUSH1 0x1F DUP10 AND DUP3 PUSH2 0x49A5 JUMP JUMPDEST DUP4 SSTORE POP JUMPDEST PUSH1 0x1 PUSH1 0x2 DUP9 MUL ADD DUP9 SSTORE POP POP POP JUMPDEST POP POP POP POP POP POP JUMP JUMPDEST PUSH32 0x5468652073656E646572206973206E6F7420746865206D616E61676572206F66 PUSH0 DUP3 ADD MSTORE PUSH32 0x2074686520656E746572656420706F6C6C49642E000000000000000000000000 PUSH1 0x20 DUP3 ADD MSTORE POP JUMP JUMPDEST PUSH0 PUSH2 0x4B05 PUSH1 0x34 DUP4 PUSH2 0x3329 JUMP JUMPDEST SWAP2 POP PUSH2 0x4B10 DUP3 PUSH2 0x4AAB JUMP JUMPDEST PUSH1 0x40 DUP3 ADD SWAP1 POP SWAP2 SWAP1 POP JUMP JUMPDEST PUSH0 PUSH1 0x20 DUP3 ADD SWAP1 POP DUP2 DUP2 SUB PUSH0 DUP4 ADD MSTORE PUSH2 0x4B32 DUP2 PUSH2 0x4AF9 JUMP JUMPDEST SWAP1 POP SWAP2 SWAP1 POP JUMP JUMPDEST PUSH0 DUP2 SWAP1 POP DUP2 PUSH0 MSTORE PUSH1 0x20 PUSH0 KECCAK256 SWAP1 POP SWAP2 SWAP1 POP JUMP JUMPDEST PUSH1 0x1F DUP3 GT ISZERO PUSH2 0x4B8C JUMPI PUSH2 0x4B5D DUP2 PUSH2 0x4B39 JUMP JUMPDEST PUSH2 0x4B66 DUP5 PUSH2 0x484E JUMP JUMPDEST DUP2 ADD PUSH1 0x20 DUP6 LT ISZERO PUSH2 0x4B75 JUMPI DUP2 SWAP1 POP JUMPDEST PUSH2 0x4B89 PUSH2 0x4B81 DUP6 PUSH2 0x484E JUMP JUMPDEST DUP4 ADD DUP3 PUSH2 0x4931 JUMP JUMPDEST POP POP JUMPDEST POP POP POP JUMP JUMPDEST PUSH2 0x4B9A DUP3 PUSH2 0x3689 JUMP JUMPDEST PUSH8 0xFFFFFFFFFFFFFFFF DUP2 GT ISZERO PUSH2 0x4BB3 JUMPI PUSH2 0x4BB2 PUSH2 0x3449 JUMP JUMPDEST JUMPDEST PUSH2 0x4BBD DUP3 SLOAD PUSH2 0x480C JUMP JUMPDEST PUSH2 0x4BC8 DUP3 DUP3 DUP6 PUSH2 0x4B4B JUMP JUMPDEST PUSH0 PUSH1 0x20 SWAP1 POP PUSH1 0x1F DUP4 GT PUSH1 0x1 DUP2 EQ PUSH2 0x4BF9 JUMPI PUSH0 DUP5 ISZERO PUSH2 0x4BE7 JUMPI DUP3 DUP8 ADD MLOAD SWAP1 POP JUMPDEST PUSH2 0x4BF1 DUP6 DUP3 PUSH2 0x49C1 JUMP JUMPDEST DUP7 SSTORE POP PUSH2 0x4C58 JUMP JUMPDEST PUSH1 0x1F NOT DUP5 AND PUSH2 0x4C07 DUP7 PUSH2 0x4B39 JUMP JUMPDEST PUSH0 JUMPDEST DUP3 DUP2 LT ISZERO PUSH2 0x4C2E JUMPI DUP5 DUP10 ADD MLOAD DUP3 SSTORE PUSH1 0x1 DUP3 ADD SWAP2 POP PUSH1 0x20 DUP6 ADD SWAP5 POP PUSH1 0x20 DUP2 ADD SWAP1 POP PUSH2 0x4C09 JUMP JUMPDEST DUP7 DUP4 LT ISZERO PUSH2 0x4C4B JUMPI DUP5 DUP10 ADD MLOAD PUSH2 0x4C47 PUSH1 0x1F DUP10 AND DUP3 PUSH2 0x49A5 JUMP JUMPDEST DUP4 SSTORE POP JUMPDEST PUSH1 0x1 PUSH1 0x2 DUP9 MUL ADD DUP9 SSTORE POP POP POP JUMPDEST POP POP POP POP POP POP JUMP JUMPDEST PUSH0 DUP2 SWAP1 POP SWAP3 SWAP2 POP POP JUMP JUMPDEST POP JUMP JUMPDEST PUSH0 PUSH2 0x4C78 PUSH0 DUP4 PUSH2 0x4C60 JUMP JUMPDEST SWAP2 POP PUSH2 0x4C83 DUP3 PUSH2 0x4C6A JUMP JUMPDEST PUSH0 DUP3 ADD SWAP1 POP SWAP2 SWAP1 POP JUMP JUMPDEST PUSH0 PUSH2 0x4C97 DUP3 PUSH2 0x4C6D JUMP JUMPDEST SWAP2 POP DUP2 SWAP1 POP SWAP2 SWAP1 POP JUMP JUMPDEST PUSH32 0x4661696C65640000000000000000000000000000000000000000000000000000 PUSH0 DUP3 ADD MSTORE POP JUMP JUMPDEST PUSH0 PUSH2 0x4CD5 PUSH1 0x6 DUP4 PUSH2 0x3329 JUMP JUMPDEST SWAP2 POP PUSH2 0x4CE0 DUP3 PUSH2 0x4CA1 JUMP JUMPDEST PUSH1 0x20 DUP3 ADD SWAP1 POP SWAP2 SWAP1 POP JUMP JUMPDEST PUSH0 PUSH1 0x20 DUP3 ADD SWAP1 POP DUP2 DUP2 SUB PUSH0 DUP4 ADD MSTORE PUSH2 0x4D02 DUP2 PUSH2 0x4CC9 JUMP JUMPDEST SWAP1 POP SWAP2 SWAP1 POP JUMP JUMPDEST PUSH32 0x4E487B7100000000000000000000000000000000000000000000000000000000 PUSH0 MSTORE PUSH1 0x32 PUSH1 0x4 MSTORE PUSH1 0x24 PUSH0 REVERT JUMPDEST PUSH32 0x4E487B7100000000000000000000000000000000000000000000000000000000 PUSH0 MSTORE PUSH1 0x11 PUSH1 0x4 MSTORE PUSH1 0x24 PUSH0 REVERT JUMPDEST PUSH0 PUSH2 0x4D6D DUP3 PUSH2 0x3270 JUMP JUMPDEST SWAP2 POP PUSH32 0xFFFFFFFFFFFFFFFFFFFFFFFFFFFFFFFFFFFFFFFFFFFFFFFFFFFFFFFFFFFFFFFF DUP3 SUB PUSH2 0x4D9F JUMPI PUSH2 0x4D9E PUSH2 0x4D36 JUMP JUMPDEST JUMPDEST PUSH1 0x1 DUP3 ADD SWAP1 POP SWAP2 SWAP1 POP JUMP JUMPDEST PUSH0 PUSH1 0x40 DUP3 ADD SWAP1 POP PUSH2 0x4DBD PUSH0 DUP4 ADD DUP6 PUSH2 0x3310 JUMP JUMPDEST PUSH2 0x4DCA PUSH1 0x20 DUP4 ADD DUP5 PUSH2 0x33DA JUMP JUMPDEST SWAP4 SWAP3 POP POP POP JUMP JUMPDEST PUSH0 DUP2 MLOAD SWAP1 POP PUSH2 0x4DDF DUP2 PUSH2 0x3C73 JUMP JUMPDEST SWAP3 SWAP2 POP POP JUMP JUMPDEST PUSH0 PUSH1 0x20 DUP3 DUP5 SUB SLT ISZERO PUSH2 0x4DFA JUMPI PUSH2 0x4DF9 PUSH2 0x32AA JUMP JUMPDEST JUMPDEST PUSH0 PUSH2 0x4E07 DUP5 DUP3 DUP6 ADD PUSH2 0x4DD1 JUMP JUMPDEST SWAP2 POP POP SWAP3 SWAP2 POP POP JUMP JUMPDEST PUSH32 0x54686520656E746572656420706F6C6C20494420697320657870697265640000 PUSH0 DUP3 ADD MSTORE POP JUMP JUMPDEST PUSH0 PUSH2 0x4E44 PUSH1 0x1E DUP4 PUSH2 0x3329 JUMP JUMPDEST SWAP2 POP PUSH2 0x4E4F DUP3 PUSH2 0x4E10 JUMP JUMPDEST PUSH1 0x20 DUP3 ADD SWAP1 POP SWAP2 SWAP1 POP JUMP JUMPDEST PUSH0 PUSH1 0x20 DUP3 ADD SWAP1 POP DUP2 DUP2 SUB PUSH0 DUP4 ADD MSTORE PUSH2 0x4E71 DUP2 PUSH2 0x4E38 JUMP JUMPDEST SWAP1 POP SWAP2 SWAP1 POP JUMP JUMPDEST PUSH32 0x5468697320706F6C6C2069732070617573656400000000000000000000000000 PUSH0 DUP3 ADD MSTORE POP JUMP JUMPDEST PUSH0 PUSH2 0x4EAC PUSH1 0x13 DUP4 PUSH2 0x3329 JUMP JUMPDEST SWAP2 POP PUSH2 0x4EB7 DUP3 PUSH2 0x4E78 JUMP JUMPDEST PUSH1 0x20 DUP3 ADD SWAP1 POP SWAP2 SWAP1 POP JUMP JUMPDEST PUSH0 PUSH1 0x20 DUP3 ADD SWAP1 POP DUP2 DUP2 SUB PUSH0 DUP4 ADD MSTORE PUSH2 0x4ED9 DUP2 PUSH2 0x4EA0 JUMP JUMPDEST SWAP1 POP SWAP2 SWAP1 POP JUMP JUMPDEST PUSH0 PUSH1 0x40 DUP3 ADD SWAP1 POP PUSH2 0x4EF3 PUSH0 DUP4 ADD DUP6 PUSH2 0x3279 JUMP JUMPDEST PUSH2 0x4F00 PUSH1 0x20 DUP4 ADD DUP5 PUSH2 0x3279 JUMP JUMPDEST SWAP4 SWAP3 POP POP POP JUMP JUMPDEST PUSH0 PUSH1 0x40 DUP3 ADD SWAP1 POP PUSH2 0x4F1A PUSH0 DUP4 ADD DUP6 PUSH2 0x33DA JUMP JUMPDEST PUSH2 0x4F27 PUSH1 0x20 DUP4 ADD DUP5 PUSH2 0x33DA JUMP JUMPDEST SWAP4 SWAP3 POP POP POP JUMP JUMPDEST PUSH0 PUSH1 0xA0 DUP3 ADD SWAP1 POP PUSH2 0x4F41 PUSH0 DUP4 ADD DUP9 PUSH2 0x33DA JUMP JUMPDEST PUSH2 0x4F4E PUSH1 0x20 DUP4 ADD DUP8 PUSH2 0x33DA JUMP JUMPDEST PUSH2 0x4F5B PUSH1 0x40 DUP4 ADD DUP7 PUSH2 0x3279 JUMP JUMPDEST PUSH2 0x4F68 PUSH1 0x60 DUP4 ADD DUP6 PUSH2 0x35E4 JUMP JUMPDEST DUP2 DUP2 SUB PUSH1 0x80 DUP4 ADD MSTORE PUSH2 0x4F7A DUP2 DUP5 PUSH2 0x44CD JUMP JUMPDEST SWAP1 POP SWAP7 SWAP6 POP POP POP POP POP POP JUMP JUMPDEST PUSH0 PUSH2 0x4F90 DUP3 PUSH2 0x3270 JUMP JUMPDEST SWAP2 POP PUSH2 0x4F9B DUP4 PUSH2 0x3270 JUMP JUMPDEST SWAP3 POP DUP3 DUP3 ADD SWAP1 POP DUP1 DUP3 GT ISZERO PUSH2 0x4FB3 JUMPI PUSH2 0x4FB2 PUSH2 0x4D36 JUMP JUMPDEST JUMPDEST SWAP3 SWAP2 POP POP JUMP JUMPDEST PUSH32 0x53746172742074696D65206D7573742062652067726561746572207468616E20 PUSH0 DUP3 ADD MSTORE PUSH32 0x63757272656E742074696D650000000000000000000000000000000000000000 PUSH1 0x20 DUP3 ADD MSTORE POP JUMP JUMPDEST PUSH0 PUSH2 0x5013 PUSH1 0x2C DUP4 PUSH2 0x3329 JUMP JUMPDEST SWAP2 POP PUSH2 0x501E DUP3 PUSH2 0x4FB9 JUMP JUMPDEST PUSH1 0x40 DUP3 ADD SWAP1 POP SWAP2 SWAP1 POP JUMP JUMPDEST PUSH0 PUSH1 0x20 DUP3 ADD SWAP1 POP DUP2 DUP2 SUB PUSH0 DUP4 ADD MSTORE PUSH2 0x5040 DUP2 PUSH2 0x5007 JUMP JUMPDEST SWAP1 POP SWAP2 SWAP1 POP JUMP JUMPDEST PUSH32 0x456E642074696D65206D7573742062652067726561746572207468616E207374 PUSH0 DUP3 ADD MSTORE PUSH32 0x6172742074696D65000000000000000000000000000000000000000000000000 PUSH1 0x20 DUP3 ADD MSTORE POP JUMP JUMPDEST PUSH0 PUSH2 0x50A1 PUSH1 0x28 DUP4 PUSH2 0x3329 JUMP JUMPDEST SWAP2 POP PUSH2 0x50AC DUP3 PUSH2 0x5047 JUMP JUMPDEST PUSH1 0x40 DUP3 ADD SWAP1 POP SWAP2 SWAP1 POP JUMP JUMPDEST PUSH0 PUSH1 0x20 DUP3 ADD SWAP1 POP DUP2 DUP2 SUB PUSH0 DUP4 ADD MSTORE PUSH2 0x50CE DUP2 PUSH2 0x5095 JUMP JUMPDEST SWAP1 POP SWAP2 SWAP1 POP JUMP JUMPDEST PUSH0 PUSH1 0x80 DUP3 ADD SWAP1 POP DUP2 DUP2 SUB PUSH0 DUP4 ADD MSTORE PUSH2 0x50ED DUP2 DUP8 PUSH2 0x3357 JUMP JUMPDEST SWAP1 POP DUP2 DUP2 SUB PUSH1 0x20 DUP4 ADD MSTORE PUSH2 0x5101 DUP2 DUP7 PUSH2 0x3357 JUMP JUMPDEST SWAP1 POP PUSH2 0x5110 PUSH1 0x40 DUP4 ADD DUP6 PUSH2 0x3279 JUMP JUMPDEST PUSH2 0x511D PUSH1 0x60 DUP4 ADD DUP5 PUSH2 0x3279 JUMP JUMPDEST SWAP6 SWAP5 POP POP POP POP POP JUMP JUMPDEST PUSH0 PUSH2 0x5130 DUP3 PUSH2 0x3270 JUMP JUMPDEST SWAP2 POP PUSH2 0x513B DUP4 PUSH2 0x3270 JUMP JUMPDEST SWAP3 POP DUP3 DUP3 SUB SWAP1 POP DUP2 DUP2 GT ISZERO PUSH2 0x5153 JUMPI PUSH2 0x5152 PUSH2 0x4D36 JUMP JUMPDEST JUMPDEST SWAP3 SWAP2 POP POP JUMP INVALID LOG2 PUSH5 0x6970667358 0x22 SLT KECCAK256 0xD7 0xF7 PUSH31 0x7DE6ACFAC1A90264B92F095C807FAE0DAA513BB0969A4708BF5B4A016E6473 PUSH16 0x6C634300081C00334C6F72656D204970 PUSH20 0x756D2069732073696D706C792064756D6D792074 PUSH6 0x7874206F6620 PUSH21 0x6865207072696E74696E6720616E64207479706573 PUSH6 0x7474696E6720 PUSH10 0x6E6475737472792E204C PUSH16 0x72656D20497073756D20686173206265 PUSH6 0x6E2074686520 PUSH10 0x6E647573747279277320 PUSH20 0x74616E646172642064756D6D7920746578742065 PUSH23 0x65722073696E6365207468652031353030732C20776865 PUSH15 0x20616E20756E6B6E6F776E20707269 PUSH15 0x74657220746F6F6B20612067616C6C PUSH6 0x79206F662074 PUSH26 0x706520616E6420736372616D626C656420697420746F206D616B PUSH6 0x206120747970 PUSH6 0x207370656369 PUSH14 0x656E20626F6F6B2E204974206861 PUSH20 0x207375727669766564206E6F74206F6E6C792066 PUSH10 0x76652063656E74757269 PUSH6 0x732C20627574 KECCAK256 PUSH2 0x6C73 PUSH16 0x20746865206C65617020696E746F2065 PUSH13 0x656374726F6E69632074797065 PUSH20 0x657474696E672C2072656D61696E696E67206573 PUSH20 0x656E7469616C6C7920756E6368616E6765642E20 BLOBHASH PUSH21 0x2077617320706F70756C61726973656420696E2074 PUSH9 0x652031393630732077 PUSH10 0x7468207468652072656C PUSH6 0x617365206F66 KECCAK256 0x4C PUSH6 0x747261736574 KECCAK256 PUSH20 0x686565747320636F6E7461696E696E67204C6F72 PUSH6 0x6D2049707375 PUSH14 0x2070617373616765732C20616E64 KECCAK256 PUSH14 0x6F726520726563656E746C792077 PUSH10 0x7468206465736B746F70 KECCAK256 PUSH17 0x75626C697368696E6720736F6674776172 PUSH6 0x206C696B6520 COINBASE PUSH13 0x64757320506167654D616B6572 KECCAK256 PUSH10 0x6E636C7564696E672076 PUSH6 0x7273696F6E73 KECCAK256 PUSH16 0x66204C6F72656D20497073756D2E0000 "
		},
		"gasEstimates": {
			"creation": {
				"codeDepositCost": "4175800",
				"executionCost": "infinite",
				"totalCost": "infinite"
			},
			"external": {
				"_authorizedSender(bytes32,address)": "infinite",
				"_pollCounter()": "2548",
				"_respondCounter()": "2529",
				"blockStorage(bytes32,bytes32)": "infinite",
				"delKey(bytes32,bytes32)": "infinite",
				"fee()": "2514",
				"getBalance()": "381",
				"getKey(bytes32,bytes32)": "infinite",
				"getLSP7Balance(address)": "infinite",
				"getNow()": "442",
				"getPoll(bytes32)": "infinite",
				"isExpired(bytes32)": "2925",
				"newPoll(string,string,string[],uint256,uint256,address[],uint256,bool,address,uint256,bool)": "infinite",
				"newRespond(bytes32,string,uint8,bool,bytes)": "infinite",
				"owner()": "2559",
				"pause()": "infinite",
				"paused()": "2590",
				"poll(bytes32)": "infinite",
				"pollAccount(address,uint256)": "5196",
				"pollAccountList(address)": "infinite",
				"pollList(address)": "infinite",
				"pollStatus(bytes32)": "infinite",
				"renounceOwnership()": "infinite",
				"respond(bytes32)": "infinite",
				"respondCounter(bytes32,address)": "3123",
				"responseList(bytes32)": "infinite",
				"setKey(bytes32,bytes32,string)": "infinite",
				"transferBalance(address,uint256)": "infinite",
				"transferOwnership(address)": "infinite",
				"unpause()": "infinite",
				"updateFee(uint256)": "infinite",
				"updatePoll(bytes32,string,bytes,string[],address[],uint256,bool,address,uint256,bool)": "infinite",
				"withdraw()": "infinite",
				"withdrawLSP7(address,address,uint256,bool,bytes)": "infinite"
			}
		},
		"methodIdentifiers": {
			"_authorizedSender(bytes32,address)": "76c5e3ee",
			"_pollCounter()": "fdd5ad23",
			"_respondCounter()": "1cc6fdad",
			"blockStorage(bytes32,bytes32)": "e0caa729",
			"delKey(bytes32,bytes32)": "5de3b598",
			"fee()": "ddca3f43",
			"getBalance()": "12065fe0",
			"getKey(bytes32,bytes32)": "c3105a6b",
			"getLSP7Balance(address)": "79c4be94",
			"getNow()": "bbe4fd50",
			"getPoll(bytes32)": "2cbbd738",
			"isExpired(bytes32)": "6db2feb2",
			"newPoll(string,string,string[],uint256,uint256,address[],uint256,bool,address,uint256,bool)": "d97d9fd2",
			"newRespond(bytes32,string,uint8,bool,bytes)": "7a897de9",
			"owner()": "8da5cb5b",
			"pause()": "8456cb59",
			"paused()": "5c975abb",
			"poll(bytes32)": "f48272d2",
			"pollAccount(address,uint256)": "397c4686",
			"pollAccountList(address)": "3dea5bc3",
			"pollList(address)": "fe7e8e5b",
			"pollStatus(bytes32)": "2c30a81c",
			"renounceOwnership()": "715018a6",
			"respond(bytes32)": "1982f1d3",
			"respondCounter(bytes32,address)": "3049b04b",
			"responseList(bytes32)": "e0ea29fc",
			"setKey(bytes32,bytes32,string)": "22a01240",
			"transferBalance(address,uint256)": "56a6d9ef",
			"transferOwnership(address)": "f2fde38b",
			"unpause()": "3f4ba83a",
			"updateFee(uint256)": "9012c4a8",
			"updatePoll(bytes32,string,bytes,string[],address[],uint256,bool,address,uint256,bool)": "35da0a15",
			"withdraw()": "3ccfd60b",
			"withdrawLSP7(address,address,uint256,bool,bytes)": "b8de4343"
		}
	},
	"abi": [
		{
			"inputs": [],
			"stateMutability": "nonpayable",
			"type": "constructor"
		},
		{
			"inputs": [],
			"name": "EnforcedPause",
			"type": "error"
		},
		{
			"inputs": [],
			"name": "ExpectedPause",
			"type": "error"
		},
		{
			"inputs": [
				{
					"internalType": "uint256",
					"name": "totalAmount",
					"type": "uint256"
				},
				{
					"internalType": "uint256",
					"name": "authorizedAmount",
					"type": "uint256"
				}
			],
			"name": "NotAuthorizedAmount",
			"type": "error"
		},
		{
			"inputs": [
				{
					"internalType": "bytes32",
					"name": "pollId",
					"type": "bytes32"
				},
				{
					"internalType": "address",
					"name": "sender",
					"type": "address"
				}
			],
			"name": "NotWhitelisted",
			"type": "error"
		},
		{
			"inputs": [
				{
					"internalType": "address",
					"name": "owner",
					"type": "address"
				}
			],
			"name": "OwnableInvalidOwner",
			"type": "error"
		},
		{
			"inputs": [
				{
					"internalType": "address",
					"name": "account",
					"type": "address"
				}
			],
			"name": "OwnableUnauthorizedAccount",
			"type": "error"
		},
		{
			"inputs": [
				{
					"internalType": "uint256",
					"name": "value",
					"type": "uint256"
				},
				{
					"internalType": "uint256",
					"name": "amount",
					"type": "uint256"
				}
			],
			"name": "PriceNotMet",
			"type": "error"
		},
		{
			"inputs": [
				{
					"internalType": "address",
					"name": "sender",
					"type": "address"
				}
			],
			"name": "RepetitiveResponse",
			"type": "error"
		},
		{
			"inputs": [
				{
					"internalType": "uint256",
					"name": "now",
					"type": "uint256"
				}
			],
			"name": "TooEarly",
			"type": "error"
		},
		{
			"anonymous": false,
			"inputs": [
				{
					"indexed": true,
					"internalType": "address",
					"name": "previousOwner",
					"type": "address"
				},
				{
					"indexed": true,
					"internalType": "address",
					"name": "newOwner",
					"type": "address"
				}
			],
			"name": "OwnershipTransferred",
			"type": "event"
		},
		{
			"anonymous": false,
			"inputs": [
				{
					"indexed": false,
					"internalType": "address",
					"name": "account",
					"type": "address"
				}
			],
			"name": "Paused",
			"type": "event"
		},
		{
			"anonymous": false,
			"inputs": [
				{
					"indexed": true,
					"internalType": "bytes32",
					"name": "pollId",
					"type": "bytes32"
				},
				{
					"indexed": false,
					"internalType": "string",
					"name": "metadata",
					"type": "string"
				},
				{
					"indexed": false,
					"internalType": "string",
					"name": "q",
					"type": "string"
				},
				{
					"indexed": false,
					"internalType": "uint256",
					"name": "start",
					"type": "uint256"
				},
				{
					"indexed": false,
					"internalType": "uint256",
					"name": "end",
					"type": "uint256"
				},
				{
					"indexed": true,
					"internalType": "address",
					"name": "sender",
					"type": "address"
				}
			],
			"name": "PollAdded",
			"type": "event"
		},
		{
			"anonymous": false,
			"inputs": [
				{
					"indexed": true,
					"internalType": "bytes32",
					"name": "pollId",
					"type": "bytes32"
				},
				{
					"indexed": true,
					"internalType": "address",
					"name": "sender",
					"type": "address"
				}
			],
			"name": "PollUpdated",
			"type": "event"
		},
		{
			"anonymous": false,
			"inputs": [
				{
					"indexed": true,
					"internalType": "bytes32",
					"name": "pollId",
					"type": "bytes32"
				},
				{
					"indexed": false,
					"internalType": "uint256",
					"name": "totalResponse",
					"type": "uint256"
				},
				{
					"indexed": true,
					"internalType": "address",
					"name": "sender",
					"type": "address"
				}
			],
			"name": "RespondAdded",
			"type": "event"
		},
		{
			"anonymous": false,
			"inputs": [
				{
					"indexed": false,
					"internalType": "address",
					"name": "account",
					"type": "address"
				}
			],
			"name": "Unpaused",
			"type": "event"
		},
		{
			"inputs": [
				{
					"internalType": "bytes32",
					"name": "_pollId",
					"type": "bytes32"
				},
				{
					"internalType": "address",
					"name": "sender",
					"type": "address"
				}
			],
			"name": "_authorizedSender",
			"outputs": [
				{
					"internalType": "bool",
					"name": "",
					"type": "bool"
				}
			],
			"stateMutability": "view",
			"type": "function"
		},
		{
			"inputs": [],
			"name": "_pollCounter",
			"outputs": [
				{
					"internalType": "uint256",
					"name": "_value",
					"type": "uint256"
				}
			],
			"stateMutability": "view",
			"type": "function"
		},
		{
			"inputs": [],
			"name": "_respondCounter",
			"outputs": [
				{
					"internalType": "uint256",
					"name": "_value",
					"type": "uint256"
				}
			],
			"stateMutability": "view",
			"type": "function"
		},
		{
			"inputs": [
				{
					"internalType": "bytes32",
					"name": "",
					"type": "bytes32"
				},
				{
					"internalType": "bytes32",
					"name": "",
					"type": "bytes32"
				}
			],
			"name": "blockStorage",
			"outputs": [
				{
					"internalType": "string",
					"name": "",
					"type": "string"
				}
			],
			"stateMutability": "view",
			"type": "function"
		},
		{
			"inputs": [
				{
					"internalType": "bytes32",
					"name": "_pollId",
					"type": "bytes32"
				},
				{
					"internalType": "bytes32",
					"name": "_key",
					"type": "bytes32"
				}
			],
			"name": "delKey",
			"outputs": [
				{
					"internalType": "bool",
					"name": "",
					"type": "bool"
				}
			],
			"stateMutability": "nonpayable",
			"type": "function"
		},
		{
			"inputs": [],
			"name": "fee",
			"outputs": [
				{
					"internalType": "uint256",
					"name": "",
					"type": "uint256"
				}
			],
			"stateMutability": "view",
			"type": "function"
		},
		{
			"inputs": [],
			"name": "getBalance",
			"outputs": [
				{
					"internalType": "uint256",
					"name": "",
					"type": "uint256"
				}
			],
			"stateMutability": "view",
			"type": "function"
		},
		{
			"inputs": [
				{
					"internalType": "bytes32",
					"name": "_pollId",
					"type": "bytes32"
				},
				{
					"internalType": "bytes32",
					"name": "_key",
					"type": "bytes32"
				}
			],
			"name": "getKey",
			"outputs": [
				{
					"internalType": "string",
					"name": "",
					"type": "string"
				}
			],
			"stateMutability": "view",
			"type": "function"
		},
		{
			"inputs": [
				{
					"internalType": "address",
					"name": "_token",
					"type": "address"
				}
			],
			"name": "getLSP7Balance",
			"outputs": [
				{
					"internalType": "uint256",
					"name": "",
					"type": "uint256"
				}
			],
			"stateMutability": "view",
			"type": "function"
		},
		{
			"inputs": [],
			"name": "getNow",
			"outputs": [
				{
					"internalType": "uint256",
					"name": "",
					"type": "uint256"
				}
			],
			"stateMutability": "view",
			"type": "function"
		},
		{
			"inputs": [
				{
					"internalType": "bytes32",
					"name": "_pollId",
					"type": "bytes32"
				}
			],
			"name": "getPoll",
			"outputs": [
				{
					"components": [
						{
							"internalType": "string",
							"name": "metadata",
							"type": "string"
						},
						{
							"internalType": "bytes",
							"name": "q",
							"type": "bytes"
						},
						{
							"internalType": "string[]",
							"name": "choices",
							"type": "string[]"
						},
						{
							"internalType": "uint256",
							"name": "start",
							"type": "uint256"
						},
						{
							"internalType": "uint256",
							"name": "end",
							"type": "uint256"
						},
						{
							"internalType": "address[]",
							"name": "whitelist",
							"type": "address[]"
						},
						{
							"internalType": "address",
							"name": "manager",
							"type": "address"
						},
						{
							"internalType": "uint256",
							"name": "votingLimit",
							"type": "uint256"
						},
						{
							"internalType": "bool",
							"name": "isPayable",
							"type": "bool"
						},
						{
							"internalType": "address",
							"name": "token",
							"type": "address"
						},
						{
							"internalType": "uint256",
							"name": "amount",
							"type": "uint256"
						},
						{
							"internalType": "bool",
							"name": "pause",
							"type": "bool"
						},
						{
							"internalType": "uint256",
							"name": "dt",
							"type": "uint256"
						},
						{
							"internalType": "uint256",
							"name": "respondCounter",
							"type": "uint256"
						}
					],
					"internalType": "struct PollPal.PollStruct",
					"name": "",
					"type": "tuple"
				}
			],
			"stateMutability": "view",
			"type": "function"
		},
		{
			"inputs": [
				{
					"internalType": "bytes32",
					"name": "_pollId",
					"type": "bytes32"
				}
			],
			"name": "isExpired",
			"outputs": [
				{
					"internalType": "bool",
					"name": "",
					"type": "bool"
				}
			],
			"stateMutability": "view",
			"type": "function"
		},
		{
			"inputs": [
				{
					"internalType": "string",
					"name": "_metadata",
					"type": "string"
				},
				{
					"internalType": "string",
					"name": "_q",
					"type": "string"
				},
				{
					"internalType": "string[]",
					"name": "_choices",
					"type": "string[]"
				},
				{
					"internalType": "uint256",
					"name": "_start",
					"type": "uint256"
				},
				{
					"internalType": "uint256",
					"name": "_end",
					"type": "uint256"
				},
				{
					"internalType": "address[]",
					"name": "_whitelist",
					"type": "address[]"
				},
				{
					"internalType": "uint256",
					"name": "_votingLimit",
					"type": "uint256"
				},
				{
					"internalType": "bool",
					"name": "_isPayable",
					"type": "bool"
				},
				{
					"internalType": "address",
					"name": "_token",
					"type": "address"
				},
				{
					"internalType": "uint256",
					"name": "_amount",
					"type": "uint256"
				},
				{
					"internalType": "bool",
					"name": "_pause",
					"type": "bool"
				}
			],
			"name": "newPoll",
			"outputs": [
				{
					"internalType": "bytes32",
					"name": "",
					"type": "bytes32"
				}
			],
			"stateMutability": "payable",
			"type": "function"
		},
		{
			"inputs": [
				{
					"internalType": "bytes32",
					"name": "_pollId",
					"type": "bytes32"
				},
				{
					"internalType": "string",
					"name": "_metadata",
					"type": "string"
				},
				{
					"internalType": "uint8",
					"name": "_choice",
					"type": "uint8"
				},
				{
					"internalType": "bool",
					"name": "_force",
					"type": "bool"
				},
				{
					"internalType": "bytes",
					"name": "_data",
					"type": "bytes"
				}
			],
			"name": "newRespond",
			"outputs": [],
			"stateMutability": "payable",
			"type": "function"
		},
		{
			"inputs": [],
			"name": "owner",
			"outputs": [
				{
					"internalType": "address",
					"name": "",
					"type": "address"
				}
			],
			"stateMutability": "view",
			"type": "function"
		},
		{
			"inputs": [],
			"name": "pause",
			"outputs": [],
			"stateMutability": "nonpayable",
			"type": "function"
		},
		{
			"inputs": [],
			"name": "paused",
			"outputs": [
				{
					"internalType": "bool",
					"name": "",
					"type": "bool"
				}
			],
			"stateMutability": "view",
			"type": "function"
		},
		{
			"inputs": [
				{
					"internalType": "bytes32",
					"name": "",
					"type": "bytes32"
				}
			],
			"name": "poll",
			"outputs": [
				{
					"internalType": "string",
					"name": "metadata",
					"type": "string"
				},
				{
					"internalType": "bytes",
					"name": "q",
					"type": "bytes"
				},
				{
					"internalType": "uint256",
					"name": "start",
					"type": "uint256"
				},
				{
					"internalType": "uint256",
					"name": "end",
					"type": "uint256"
				},
				{
					"internalType": "address",
					"name": "manager",
					"type": "address"
				},
				{
					"internalType": "uint256",
					"name": "votingLimit",
					"type": "uint256"
				},
				{
					"internalType": "bool",
					"name": "isPayable",
					"type": "bool"
				},
				{
					"internalType": "address",
					"name": "token",
					"type": "address"
				},
				{
					"internalType": "uint256",
					"name": "amount",
					"type": "uint256"
				},
				{
					"internalType": "bool",
					"name": "pause",
					"type": "bool"
				},
				{
					"internalType": "uint256",
					"name": "dt",
					"type": "uint256"
				},
				{
					"internalType": "uint256",
					"name": "respondCounter",
					"type": "uint256"
				}
			],
			"stateMutability": "view",
			"type": "function"
		},
		{
			"inputs": [
				{
					"internalType": "address",
					"name": "",
					"type": "address"
				},
				{
					"internalType": "uint256",
					"name": "",
					"type": "uint256"
				}
			],
			"name": "pollAccount",
			"outputs": [
				{
					"internalType": "bytes32",
					"name": "",
					"type": "bytes32"
				}
			],
			"stateMutability": "view",
			"type": "function"
		},
		{
			"inputs": [
				{
					"internalType": "address",
					"name": "_manager",
					"type": "address"
				}
			],
			"name": "pollAccountList",
			"outputs": [
				{
					"internalType": "bytes32[]",
					"name": "",
					"type": "bytes32[]"
				}
			],
			"stateMutability": "view",
			"type": "function"
		},
		{
			"inputs": [
				{
					"internalType": "address",
					"name": "_manager",
					"type": "address"
				}
			],
			"name": "pollList",
			"outputs": [
				{
					"components": [
						{
							"internalType": "bytes32",
							"name": "id",
							"type": "bytes32"
						},
						{
							"internalType": "string",
							"name": "metadata",
							"type": "string"
						},
						{
							"internalType": "bytes",
							"name": "q",
							"type": "bytes"
						},
						{
							"internalType": "string[]",
							"name": "choices",
							"type": "string[]"
						},
						{
							"internalType": "uint256",
							"name": "start",
							"type": "uint256"
						},
						{
							"internalType": "uint256",
							"name": "end",
							"type": "uint256"
						},
						{
							"internalType": "address[]",
							"name": "whitelist",
							"type": "address[]"
						},
						{
							"internalType": "uint256",
							"name": "votingLimit",
							"type": "uint256"
						},
						{
							"internalType": "uint256",
							"name": "price",
							"type": "uint256"
						},
						{
							"internalType": "address",
							"name": "manager",
							"type": "address"
						},
						{
							"internalType": "bool",
							"name": "pause",
							"type": "bool"
						},
						{
							"internalType": "uint256",
							"name": "dt",
							"type": "uint256"
						},
						{
							"internalType": "uint256",
							"name": "respondCounter",
							"type": "uint256"
						}
					],
					"internalType": "struct PollPal.PollListStruct[]",
					"name": "polls",
					"type": "tuple[]"
				},
				{
					"internalType": "bool",
					"name": "",
					"type": "bool"
				}
			],
			"stateMutability": "view",
			"type": "function"
		},
		{
			"inputs": [
				{
					"internalType": "bytes32",
					"name": "_pollId",
					"type": "bytes32"
				}
			],
			"name": "pollStatus",
			"outputs": [
				{
					"internalType": "bool",
					"name": "isActive",
					"type": "bool"
				},
				{
					"internalType": "uint256",
					"name": "start",
					"type": "uint256"
				},
				{
					"internalType": "uint256",
					"name": "end",
					"type": "uint256"
				}
			],
			"stateMutability": "view",
			"type": "function"
		},
		{
			"inputs": [],
			"name": "renounceOwnership",
			"outputs": [],
			"stateMutability": "nonpayable",
			"type": "function"
		},
		{
			"inputs": [
				{
					"internalType": "bytes32",
					"name": "",
					"type": "bytes32"
				}
			],
			"name": "respond",
			"outputs": [
				{
					"internalType": "bytes32",
					"name": "pollId",
					"type": "bytes32"
				},
				{
					"internalType": "string",
					"name": "metadata",
					"type": "string"
				},
				{
					"internalType": "uint8",
					"name": "choice",
					"type": "uint8"
				},
				{
					"internalType": "address",
					"name": "sender",
					"type": "address"
				},
				{
					"internalType": "uint256",
					"name": "dt",
					"type": "uint256"
				}
			],
			"stateMutability": "view",
			"type": "function"
		},
		{
			"inputs": [
				{
					"internalType": "bytes32",
					"name": "",
					"type": "bytes32"
				},
				{
					"internalType": "address",
					"name": "",
					"type": "address"
				}
			],
			"name": "respondCounter",
			"outputs": [
				{
					"internalType": "uint256",
					"name": "",
					"type": "uint256"
				}
			],
			"stateMutability": "view",
			"type": "function"
		},
		{
			"inputs": [
				{
					"internalType": "bytes32",
					"name": "_pollId",
					"type": "bytes32"
				}
			],
			"name": "responseList",
			"outputs": [
				{
					"components": [
						{
							"internalType": "bytes32",
							"name": "respondId",
							"type": "bytes32"
						},
						{
							"internalType": "bytes32",
							"name": "pollId",
							"type": "bytes32"
						},
						{
							"internalType": "string",
							"name": "metadata",
							"type": "string"
						},
						{
							"internalType": "uint8",
							"name": "choice",
							"type": "uint8"
						},
						{
							"internalType": "address",
							"name": "sender",
							"type": "address"
						},
						{
							"internalType": "uint256",
							"name": "dt",
							"type": "uint256"
						}
					],
					"internalType": "struct PollPal.RespondListStruct[]",
					"name": "list",
					"type": "tuple[]"
				}
			],
			"stateMutability": "view",
			"type": "function"
		},
		{
			"inputs": [
				{
					"internalType": "bytes32",
					"name": "_pollId",
					"type": "bytes32"
				},
				{
					"internalType": "bytes32",
					"name": "_key",
					"type": "bytes32"
				},
				{
					"internalType": "string",
					"name": "_val",
					"type": "string"
				}
			],
			"name": "setKey",
			"outputs": [
				{
					"internalType": "bool",
					"name": "",
					"type": "bool"
				}
			],
			"stateMutability": "nonpayable",
			"type": "function"
		},
		{
			"inputs": [
				{
					"internalType": "address payable",
					"name": "_to",
					"type": "address"
				},
				{
					"internalType": "uint256",
					"name": "_amount",
					"type": "uint256"
				}
			],
			"name": "transferBalance",
			"outputs": [],
			"stateMutability": "nonpayable",
			"type": "function"
		},
		{
			"inputs": [
				{
					"internalType": "address",
					"name": "newOwner",
					"type": "address"
				}
			],
			"name": "transferOwnership",
			"outputs": [],
			"stateMutability": "nonpayable",
			"type": "function"
		},
		{
			"inputs": [],
			"name": "unpause",
			"outputs": [],
			"stateMutability": "nonpayable",
			"type": "function"
		},
		{
			"inputs": [
				{
					"internalType": "uint256",
					"name": "_fee",
					"type": "uint256"
				}
			],
			"name": "updateFee",
			"outputs": [],
			"stateMutability": "nonpayable",
			"type": "function"
		},
		{
			"inputs": [
				{
					"internalType": "bytes32",
					"name": "_pollId",
					"type": "bytes32"
				},
				{
					"internalType": "string",
					"name": "_metadata",
					"type": "string"
				},
				{
					"internalType": "bytes",
					"name": "_q",
					"type": "bytes"
				},
				{
					"internalType": "string[]",
					"name": "_choices",
					"type": "string[]"
				},
				{
					"internalType": "address[]",
					"name": "_whitelist",
					"type": "address[]"
				},
				{
					"internalType": "uint256",
					"name": "_votingLimit",
					"type": "uint256"
				},
				{
					"internalType": "bool",
					"name": "_isPayable",
					"type": "bool"
				},
				{
					"internalType": "address",
					"name": "_token",
					"type": "address"
				},
				{
					"internalType": "uint256",
					"name": "_amount",
					"type": "uint256"
				},
				{
					"internalType": "bool",
					"name": "_pause",
					"type": "bool"
				}
			],
			"name": "updatePoll",
			"outputs": [],
			"stateMutability": "nonpayable",
			"type": "function"
		},
		{
			"inputs": [],
			"name": "withdraw",
			"outputs": [],
			"stateMutability": "nonpayable",
			"type": "function"
		},
		{
			"inputs": [
				{
					"internalType": "address",
					"name": "_LSP7Token",
					"type": "address"
				},
				{
					"internalType": "address",
					"name": "_to",
					"type": "address"
				},
				{
					"internalType": "uint256",
					"name": "_amount",
					"type": "uint256"
				},
				{
					"internalType": "bool",
					"name": "_force",
					"type": "bool"
				},
				{
					"internalType": "bytes",
					"name": "_data",
					"type": "bytes"
				}
			],
			"name": "withdrawLSP7",
			"outputs": [],
			"stateMutability": "nonpayable",
			"type": "function"
		}
	]
}